{
	"contracts/even or add.sol": {
		"EvenorOdd": {
			"abi": [
				{
					"inputs": [
						{
							"internalType": "uint256",
							"name": "number",
							"type": "uint256"
						}
					],
					"name": "evenorodd",
					"outputs": [
						{
							"internalType": "string",
							"name": "",
							"type": "string"
						}
					],
					"stateMutability": "pure",
					"type": "function"
				},
				{
					"inputs": [
						{
							"internalType": "int256",
							"name": "number",
							"type": "int256"
						}
					],
					"name": "intevenorodd",
					"outputs": [
						{
							"internalType": "string",
							"name": "",
							"type": "string"
						}
					],
					"stateMutability": "pure",
					"type": "function"
				}
			],
			"devdoc": {
				"kind": "dev",
				"methods": {},
				"version": 1
			},
			"evm": {
				"assembly": "    /* \"contracts/even or add.sol\":99:737  contract EvenorOdd{... */\n  mstore(0x40, 0x80)\n  callvalue\n  dup1\n  iszero\n  tag_1\n  jumpi\n  0x00\n  dup1\n  revert\ntag_1:\n  pop\n  dataSize(sub_0)\n  dup1\n  dataOffset(sub_0)\n  0x00\n  codecopy\n  0x00\n  return\nstop\n\nsub_0: assembly {\n        /* \"contracts/even or add.sol\":99:737  contract EvenorOdd{... */\n      mstore(0x40, 0x80)\n      callvalue\n      dup1\n      iszero\n      tag_1\n      jumpi\n      0x00\n      dup1\n      revert\n    tag_1:\n      pop\n      jumpi(tag_2, lt(calldatasize, 0x04))\n      shr(0xe0, calldataload(0x00))\n      dup1\n      0xb236f68c\n      eq\n      tag_3\n      jumpi\n      dup1\n      0xd1e783fe\n      eq\n      tag_4\n      jumpi\n    tag_2:\n      0x00\n      dup1\n      revert\n        /* \"contracts/even or add.sol\":462:734  function intevenorodd (int number) public pure returns (string memory){... */\n    tag_3:\n      tag_5\n      0x04\n      dup1\n      calldatasize\n      sub\n      dup2\n      add\n      swap1\n      tag_6\n      swap2\n      swap1\n      tag_7\n      jump\t// in\n    tag_6:\n      tag_8\n      jump\t// in\n    tag_5:\n      mload(0x40)\n      tag_9\n      swap2\n      swap1\n      tag_10\n      jump\t// in\n    tag_9:\n      mload(0x40)\n      dup1\n      swap2\n      sub\n      swap1\n      return\n        /* \"contracts/even or add.sol\":157:424  function evenorodd (uint number) public pure returns(string memory){... */\n    tag_4:\n      tag_11\n      0x04\n      dup1\n      calldatasize\n      sub\n      dup2\n      add\n      swap1\n      tag_12\n      swap2\n      swap1\n      tag_13\n      jump\t// in\n    tag_12:\n      tag_14\n      jump\t// in\n    tag_11:\n      mload(0x40)\n      tag_15\n      swap2\n      swap1\n      tag_10\n      jump\t// in\n    tag_15:\n      mload(0x40)\n      dup1\n      swap2\n      sub\n      swap1\n      return\n        /* \"contracts/even or add.sol\":462:734  function intevenorodd (int number) public pure returns (string memory){... */\n    tag_8:\n        /* \"contracts/even or add.sol\":518:531  string memory */\n      0x60\n        /* \"contracts/even or add.sol\":562:563  0 */\n      0x00\n        /* \"contracts/even or add.sol\":556:558  20 */\n      0x14\n        /* \"contracts/even or add.sol\":547:553  number */\n      dup4\n        /* \"contracts/even or add.sol\":547:558  number % 20 */\n      tag_17\n      swap2\n      swap1\n      tag_18\n      jump\t// in\n    tag_17:\n        /* \"contracts/even or add.sol\":547:563  number % 20 == 0 */\n      sub\n        /* \"contracts/even or add.sol\":543:727  if (number % 20 == 0) { //condition for even or odd... */\n      tag_19\n      jumpi\n        /* \"contracts/even or add.sol\":608:621  return \"even\" */\n      mload(0x40)\n      dup1\n      0x40\n      add\n      0x40\n      mstore\n      dup1\n      0x04\n      dup2\n      mstore\n      0x20\n      add\n      0x6576656e00000000000000000000000000000000000000000000000000000000\n      dup2\n      mstore\n      pop\n      swap1\n      pop\n      jump(tag_16)\n        /* \"contracts/even or add.sol\":543:727  if (number % 20 == 0) { //condition for even or odd... */\n    tag_19:\n        /* \"contracts/even or add.sol\":678:690  return \"odd\" */\n      mload(0x40)\n      dup1\n      0x40\n      add\n      0x40\n      mstore\n      dup1\n      0x03\n      dup2\n      mstore\n      0x20\n      add\n      0x6f64640000000000000000000000000000000000000000000000000000000000\n      dup2\n      mstore\n      pop\n      swap1\n      pop\n        /* \"contracts/even or add.sol\":462:734  function intevenorodd (int number) public pure returns (string memory){... */\n    tag_16:\n      swap2\n      swap1\n      pop\n      jump\t// out\n        /* \"contracts/even or add.sol\":157:424  function evenorodd (uint number) public pure returns(string memory){... */\n    tag_14:\n        /* \"contracts/even or add.sol\":210:223  string memory */\n      0x60\n        /* \"contracts/even or add.sol\":252:253  0 */\n      0x00\n        /* \"contracts/even or add.sol\":248:249  2 */\n      0x02\n        /* \"contracts/even or add.sol\":239:245  number */\n      dup4\n        /* \"contracts/even or add.sol\":239:249  number % 2 */\n      tag_22\n      swap2\n      swap1\n      tag_23\n      jump\t// in\n    tag_22:\n        /* \"contracts/even or add.sol\":239:253  number % 2== 0 */\n      sub\n        /* \"contracts/even or add.sol\":235:417  if (number % 2== 0) { //condition for even or odd... */\n      tag_24\n      jumpi\n        /* \"contracts/even or add.sol\":298:311  return \"even\" */\n      mload(0x40)\n      dup1\n      0x40\n      add\n      0x40\n      mstore\n      dup1\n      0x04\n      dup2\n      mstore\n      0x20\n      add\n      0x6576656e00000000000000000000000000000000000000000000000000000000\n      dup2\n      mstore\n      pop\n      swap1\n      pop\n      jump(tag_21)\n        /* \"contracts/even or add.sol\":235:417  if (number % 2== 0) { //condition for even or odd... */\n    tag_24:\n        /* \"contracts/even or add.sol\":366:378  return \"odd\" */\n      mload(0x40)\n      dup1\n      0x40\n      add\n      0x40\n      mstore\n      dup1\n      0x03\n      dup2\n      mstore\n      0x20\n      add\n      0x6f64640000000000000000000000000000000000000000000000000000000000\n      dup2\n      mstore\n      pop\n      swap1\n      pop\n        /* \"contracts/even or add.sol\":157:424  function evenorodd (uint number) public pure returns(string memory){... */\n    tag_21:\n      swap2\n      swap1\n      pop\n      jump\t// out\n        /* \"#utility.yul\":88:205   */\n    tag_27:\n        /* \"#utility.yul\":197:198   */\n      0x00\n        /* \"#utility.yul\":194:195   */\n      dup1\n        /* \"#utility.yul\":187:199   */\n      revert\n        /* \"#utility.yul\":334:410   */\n    tag_29:\n        /* \"#utility.yul\":370:377   */\n      0x00\n        /* \"#utility.yul\":399:404   */\n      dup2\n        /* \"#utility.yul\":388:404   */\n      swap1\n      pop\n        /* \"#utility.yul\":334:410   */\n      swap2\n      swap1\n      pop\n      jump\t// out\n        /* \"#utility.yul\":416:536   */\n    tag_30:\n        /* \"#utility.yul\":488:511   */\n      tag_47\n        /* \"#utility.yul\":505:510   */\n      dup2\n        /* \"#utility.yul\":488:511   */\n      tag_29\n      jump\t// in\n    tag_47:\n        /* \"#utility.yul\":481:486   */\n      dup2\n        /* \"#utility.yul\":478:512   */\n      eq\n        /* \"#utility.yul\":468:530   */\n      tag_48\n      jumpi\n        /* \"#utility.yul\":526:527   */\n      0x00\n        /* \"#utility.yul\":523:524   */\n      dup1\n        /* \"#utility.yul\":516:528   */\n      revert\n        /* \"#utility.yul\":468:530   */\n    tag_48:\n        /* \"#utility.yul\":416:536   */\n      pop\n      jump\t// out\n        /* \"#utility.yul\":542:679   */\n    tag_31:\n        /* \"#utility.yul\":587:592   */\n      0x00\n        /* \"#utility.yul\":625:631   */\n      dup2\n        /* \"#utility.yul\":612:632   */\n      calldataload\n        /* \"#utility.yul\":603:632   */\n      swap1\n      pop\n        /* \"#utility.yul\":641:673   */\n      tag_50\n        /* \"#utility.yul\":667:672   */\n      dup2\n        /* \"#utility.yul\":641:673   */\n      tag_30\n      jump\t// in\n    tag_50:\n        /* \"#utility.yul\":542:679   */\n      swap3\n      swap2\n      pop\n      pop\n      jump\t// out\n        /* \"#utility.yul\":685:1012   */\n    tag_7:\n        /* \"#utility.yul\":743:749   */\n      0x00\n        /* \"#utility.yul\":792:794   */\n      0x20\n        /* \"#utility.yul\":780:789   */\n      dup3\n        /* \"#utility.yul\":771:778   */\n      dup5\n        /* \"#utility.yul\":767:790   */\n      sub\n        /* \"#utility.yul\":763:795   */\n      slt\n        /* \"#utility.yul\":760:879   */\n      iszero\n      tag_52\n      jumpi\n        /* \"#utility.yul\":798:877   */\n      tag_53\n      tag_27\n      jump\t// in\n    tag_53:\n        /* \"#utility.yul\":760:879   */\n    tag_52:\n        /* \"#utility.yul\":918:919   */\n      0x00\n        /* \"#utility.yul\":943:995   */\n      tag_54\n        /* \"#utility.yul\":987:994   */\n      dup5\n        /* \"#utility.yul\":978:984   */\n      dup3\n        /* \"#utility.yul\":967:976   */\n      dup6\n        /* \"#utility.yul\":963:985   */\n      add\n        /* \"#utility.yul\":943:995   */\n      tag_31\n      jump\t// in\n    tag_54:\n        /* \"#utility.yul\":933:995   */\n      swap2\n      pop\n        /* \"#utility.yul\":889:1005   */\n      pop\n        /* \"#utility.yul\":685:1012   */\n      swap3\n      swap2\n      pop\n      pop\n      jump\t// out\n        /* \"#utility.yul\":1018:1117   */\n    tag_32:\n        /* \"#utility.yul\":1070:1076   */\n      0x00\n        /* \"#utility.yul\":1104:1109   */\n      dup2\n        /* \"#utility.yul\":1098:1110   */\n      mload\n        /* \"#utility.yul\":1088:1110   */\n      swap1\n      pop\n        /* \"#utility.yul\":1018:1117   */\n      swap2\n      swap1\n      pop\n      jump\t// out\n        /* \"#utility.yul\":1123:1292   */\n    tag_33:\n        /* \"#utility.yul\":1207:1218   */\n      0x00\n        /* \"#utility.yul\":1241:1247   */\n      dup3\n        /* \"#utility.yul\":1236:1239   */\n      dup3\n        /* \"#utility.yul\":1229:1248   */\n      mstore\n        /* \"#utility.yul\":1281:1285   */\n      0x20\n        /* \"#utility.yul\":1276:1279   */\n      dup3\n        /* \"#utility.yul\":1272:1286   */\n      add\n        /* \"#utility.yul\":1257:1286   */\n      swap1\n      pop\n        /* \"#utility.yul\":1123:1292   */\n      swap3\n      swap2\n      pop\n      pop\n      jump\t// out\n        /* \"#utility.yul\":1298:1437   */\n    tag_34:\n        /* \"#utility.yul\":1387:1393   */\n      dup3\n        /* \"#utility.yul\":1382:1385   */\n      dup2\n        /* \"#utility.yul\":1377:1380   */\n      dup4\n        /* \"#utility.yul\":1371:1394   */\n      mcopy\n        /* \"#utility.yul\":1428:1429   */\n      0x00\n        /* \"#utility.yul\":1419:1425   */\n      dup4\n        /* \"#utility.yul\":1414:1417   */\n      dup4\n        /* \"#utility.yul\":1410:1426   */\n      add\n        /* \"#utility.yul\":1403:1430   */\n      mstore\n        /* \"#utility.yul\":1298:1437   */\n      pop\n      pop\n      pop\n      jump\t// out\n        /* \"#utility.yul\":1443:1545   */\n    tag_35:\n        /* \"#utility.yul\":1484:1490   */\n      0x00\n        /* \"#utility.yul\":1535:1537   */\n      0x1f\n        /* \"#utility.yul\":1531:1538   */\n      not\n        /* \"#utility.yul\":1526:1528   */\n      0x1f\n        /* \"#utility.yul\":1519:1524   */\n      dup4\n        /* \"#utility.yul\":1515:1529   */\n      add\n        /* \"#utility.yul\":1511:1539   */\n      and\n        /* \"#utility.yul\":1501:1539   */\n      swap1\n      pop\n        /* \"#utility.yul\":1443:1545   */\n      swap2\n      swap1\n      pop\n      jump\t// out\n        /* \"#utility.yul\":1551:1928   */\n    tag_36:\n        /* \"#utility.yul\":1639:1642   */\n      0x00\n        /* \"#utility.yul\":1667:1706   */\n      tag_60\n        /* \"#utility.yul\":1700:1705   */\n      dup3\n        /* \"#utility.yul\":1667:1706   */\n      tag_32\n      jump\t// in\n    tag_60:\n        /* \"#utility.yul\":1722:1793   */\n      tag_61\n        /* \"#utility.yul\":1786:1792   */\n      dup2\n        /* \"#utility.yul\":1781:1784   */\n      dup6\n        /* \"#utility.yul\":1722:1793   */\n      tag_33\n      jump\t// in\n    tag_61:\n        /* \"#utility.yul\":1715:1793   */\n      swap4\n      pop\n        /* \"#utility.yul\":1802:1867   */\n      tag_62\n        /* \"#utility.yul\":1860:1866   */\n      dup2\n        /* \"#utility.yul\":1855:1858   */\n      dup6\n        /* \"#utility.yul\":1848:1852   */\n      0x20\n        /* \"#utility.yul\":1841:1846   */\n      dup7\n        /* \"#utility.yul\":1837:1853   */\n      add\n        /* \"#utility.yul\":1802:1867   */\n      tag_34\n      jump\t// in\n    tag_62:\n        /* \"#utility.yul\":1892:1921   */\n      tag_63\n        /* \"#utility.yul\":1914:1920   */\n      dup2\n        /* \"#utility.yul\":1892:1921   */\n      tag_35\n      jump\t// in\n    tag_63:\n        /* \"#utility.yul\":1887:1890   */\n      dup5\n        /* \"#utility.yul\":1883:1922   */\n      add\n        /* \"#utility.yul\":1876:1922   */\n      swap2\n      pop\n        /* \"#utility.yul\":1643:1928   */\n      pop\n        /* \"#utility.yul\":1551:1928   */\n      swap3\n      swap2\n      pop\n      pop\n      jump\t// out\n        /* \"#utility.yul\":1934:2247   */\n    tag_10:\n        /* \"#utility.yul\":2047:2051   */\n      0x00\n        /* \"#utility.yul\":2085:2087   */\n      0x20\n        /* \"#utility.yul\":2074:2083   */\n      dup3\n        /* \"#utility.yul\":2070:2088   */\n      add\n        /* \"#utility.yul\":2062:2088   */\n      swap1\n      pop\n        /* \"#utility.yul\":2134:2143   */\n      dup2\n        /* \"#utility.yul\":2128:2132   */\n      dup2\n        /* \"#utility.yul\":2124:2144   */\n      sub\n        /* \"#utility.yul\":2120:2121   */\n      0x00\n        /* \"#utility.yul\":2109:2118   */\n      dup4\n        /* \"#utility.yul\":2105:2122   */\n      add\n        /* \"#utility.yul\":2098:2145   */\n      mstore\n        /* \"#utility.yul\":2162:2240   */\n      tag_65\n        /* \"#utility.yul\":2235:2239   */\n      dup2\n        /* \"#utility.yul\":2226:2232   */\n      dup5\n        /* \"#utility.yul\":2162:2240   */\n      tag_36\n      jump\t// in\n    tag_65:\n        /* \"#utility.yul\":2154:2240   */\n      swap1\n      pop\n        /* \"#utility.yul\":1934:2247   */\n      swap3\n      swap2\n      pop\n      pop\n      jump\t// out\n        /* \"#utility.yul\":2253:2330   */\n    tag_37:\n        /* \"#utility.yul\":2290:2297   */\n      0x00\n        /* \"#utility.yul\":2319:2324   */\n      dup2\n        /* \"#utility.yul\":2308:2324   */\n      swap1\n      pop\n        /* \"#utility.yul\":2253:2330   */\n      swap2\n      swap1\n      pop\n      jump\t// out\n        /* \"#utility.yul\":2336:2458   */\n    tag_38:\n        /* \"#utility.yul\":2409:2433   */\n      tag_68\n        /* \"#utility.yul\":2427:2432   */\n      dup2\n        /* \"#utility.yul\":2409:2433   */\n      tag_37\n      jump\t// in\n    tag_68:\n        /* \"#utility.yul\":2402:2407   */\n      dup2\n        /* \"#utility.yul\":2399:2434   */\n      eq\n        /* \"#utility.yul\":2389:2452   */\n      tag_69\n      jumpi\n        /* \"#utility.yul\":2448:2449   */\n      0x00\n        /* \"#utility.yul\":2445:2446   */\n      dup1\n        /* \"#utility.yul\":2438:2450   */\n      revert\n        /* \"#utility.yul\":2389:2452   */\n    tag_69:\n        /* \"#utility.yul\":2336:2458   */\n      pop\n      jump\t// out\n        /* \"#utility.yul\":2464:2603   */\n    tag_39:\n        /* \"#utility.yul\":2510:2515   */\n      0x00\n        /* \"#utility.yul\":2548:2554   */\n      dup2\n        /* \"#utility.yul\":2535:2555   */\n      calldataload\n        /* \"#utility.yul\":2526:2555   */\n      swap1\n      pop\n        /* \"#utility.yul\":2564:2597   */\n      tag_71\n        /* \"#utility.yul\":2591:2596   */\n      dup2\n        /* \"#utility.yul\":2564:2597   */\n      tag_38\n      jump\t// in\n    tag_71:\n        /* \"#utility.yul\":2464:2603   */\n      swap3\n      swap2\n      pop\n      pop\n      jump\t// out\n        /* \"#utility.yul\":2609:2938   */\n    tag_13:\n        /* \"#utility.yul\":2668:2674   */\n      0x00\n        /* \"#utility.yul\":2717:2719   */\n      0x20\n        /* \"#utility.yul\":2705:2714   */\n      dup3\n        /* \"#utility.yul\":2696:2703   */\n      dup5\n        /* \"#utility.yul\":2692:2715   */\n      sub\n        /* \"#utility.yul\":2688:2720   */\n      slt\n        /* \"#utility.yul\":2685:2804   */\n      iszero\n      tag_73\n      jumpi\n        /* \"#utility.yul\":2723:2802   */\n      tag_74\n      tag_27\n      jump\t// in\n    tag_74:\n        /* \"#utility.yul\":2685:2804   */\n    tag_73:\n        /* \"#utility.yul\":2843:2844   */\n      0x00\n        /* \"#utility.yul\":2868:2921   */\n      tag_75\n        /* \"#utility.yul\":2913:2920   */\n      dup5\n        /* \"#utility.yul\":2904:2910   */\n      dup3\n        /* \"#utility.yul\":2893:2902   */\n      dup6\n        /* \"#utility.yul\":2889:2911   */\n      add\n        /* \"#utility.yul\":2868:2921   */\n      tag_39\n      jump\t// in\n    tag_75:\n        /* \"#utility.yul\":2858:2921   */\n      swap2\n      pop\n        /* \"#utility.yul\":2814:2931   */\n      pop\n        /* \"#utility.yul\":2609:2938   */\n      swap3\n      swap2\n      pop\n      pop\n      jump\t// out\n        /* \"#utility.yul\":2944:3124   */\n    tag_40:\n        /* \"#utility.yul\":2992:3069   */\n      0x4e487b7100000000000000000000000000000000000000000000000000000000\n        /* \"#utility.yul\":2989:2990   */\n      0x00\n        /* \"#utility.yul\":2982:3070   */\n      mstore\n        /* \"#utility.yul\":3089:3093   */\n      0x12\n        /* \"#utility.yul\":3086:3087   */\n      0x04\n        /* \"#utility.yul\":3079:3094   */\n      mstore\n        /* \"#utility.yul\":3113:3117   */\n      0x24\n        /* \"#utility.yul\":3110:3111   */\n      0x00\n        /* \"#utility.yul\":3103:3118   */\n      revert\n        /* \"#utility.yul\":3130:3304   */\n    tag_18:\n        /* \"#utility.yul\":3161:3162   */\n      0x00\n        /* \"#utility.yul\":3178:3197   */\n      tag_78\n        /* \"#utility.yul\":3195:3196   */\n      dup3\n        /* \"#utility.yul\":3178:3197   */\n      tag_29\n      jump\t// in\n    tag_78:\n        /* \"#utility.yul\":3173:3197   */\n      swap2\n      pop\n        /* \"#utility.yul\":3211:3230   */\n      tag_79\n        /* \"#utility.yul\":3228:3229   */\n      dup4\n        /* \"#utility.yul\":3211:3230   */\n      tag_29\n      jump\t// in\n    tag_79:\n        /* \"#utility.yul\":3206:3230   */\n      swap3\n      pop\n        /* \"#utility.yul\":3249:3250   */\n      dup3\n        /* \"#utility.yul\":3239:3274   */\n      tag_80\n      jumpi\n        /* \"#utility.yul\":3254:3272   */\n      tag_81\n      tag_40\n      jump\t// in\n    tag_81:\n        /* \"#utility.yul\":3239:3274   */\n    tag_80:\n        /* \"#utility.yul\":3296:3297   */\n      dup3\n        /* \"#utility.yul\":3293:3294   */\n      dup3\n        /* \"#utility.yul\":3288:3298   */\n      smod\n        /* \"#utility.yul\":3283:3298   */\n      swap1\n      pop\n        /* \"#utility.yul\":3130:3304   */\n      swap3\n      swap2\n      pop\n      pop\n      jump\t// out\n        /* \"#utility.yul\":3310:3486   */\n    tag_23:\n        /* \"#utility.yul\":3342:3343   */\n      0x00\n        /* \"#utility.yul\":3359:3379   */\n      tag_83\n        /* \"#utility.yul\":3377:3378   */\n      dup3\n        /* \"#utility.yul\":3359:3379   */\n      tag_37\n      jump\t// in\n    tag_83:\n        /* \"#utility.yul\":3354:3379   */\n      swap2\n      pop\n        /* \"#utility.yul\":3393:3413   */\n      tag_84\n        /* \"#utility.yul\":3411:3412   */\n      dup4\n        /* \"#utility.yul\":3393:3413   */\n      tag_37\n      jump\t// in\n    tag_84:\n        /* \"#utility.yul\":3388:3413   */\n      swap3\n      pop\n        /* \"#utility.yul\":3432:3433   */\n      dup3\n        /* \"#utility.yul\":3422:3457   */\n      tag_85\n      jumpi\n        /* \"#utility.yul\":3437:3455   */\n      tag_86\n      tag_40\n      jump\t// in\n    tag_86:\n        /* \"#utility.yul\":3422:3457   */\n    tag_85:\n        /* \"#utility.yul\":3478:3479   */\n      dup3\n        /* \"#utility.yul\":3475:3476   */\n      dup3\n        /* \"#utility.yul\":3471:3480   */\n      mod\n        /* \"#utility.yul\":3466:3480   */\n      swap1\n      pop\n        /* \"#utility.yul\":3310:3486   */\n      swap3\n      swap2\n      pop\n      pop\n      jump\t// out\n\n    auxdata: 0xa26469706673582212205e402d025e61a4baebd3b9bb821bfd02cea1d0dc64107c9ce1508b8993b5cf3064736f6c634300081a0033\n}\n",
				"bytecode": {
					"linkReferences": {},
					"object": "6080604052348015600e575f80fd5b506103cb8061001c5f395ff3fe608060405234801561000f575f80fd5b5060043610610034575f3560e01c8063b236f68c14610038578063d1e783fe14610068575b5f80fd5b610052600480360381019061004d91906101ef565b610098565b60405161005f919061028a565b60405180910390f35b610082600480360381019061007d91906102dd565b610128565b60405161008f919061028a565b60405180910390f35b60605f6014836100a89190610335565b036100ea576040518060400160405280600481526020017f6576656e000000000000000000000000000000000000000000000000000000008152509050610123565b6040518060400160405280600381526020017f6f6464000000000000000000000000000000000000000000000000000000000081525090505b919050565b60605f6002836101389190610365565b0361017a576040518060400160405280600481526020017f6576656e0000000000000000000000000000000000000000000000000000000081525090506101b3565b6040518060400160405280600381526020017f6f6464000000000000000000000000000000000000000000000000000000000081525090505b919050565b5f80fd5b5f819050919050565b6101ce816101bc565b81146101d8575f80fd5b50565b5f813590506101e9816101c5565b92915050565b5f60208284031215610204576102036101b8565b5b5f610211848285016101db565b91505092915050565b5f81519050919050565b5f82825260208201905092915050565b8281835e5f83830152505050565b5f601f19601f8301169050919050565b5f61025c8261021a565b6102668185610224565b9350610276818560208601610234565b61027f81610242565b840191505092915050565b5f6020820190508181035f8301526102a28184610252565b905092915050565b5f819050919050565b6102bc816102aa565b81146102c6575f80fd5b50565b5f813590506102d7816102b3565b92915050565b5f602082840312156102f2576102f16101b8565b5b5f6102ff848285016102c9565b91505092915050565b7f4e487b71000000000000000000000000000000000000000000000000000000005f52601260045260245ffd5b5f61033f826101bc565b915061034a836101bc565b92508261035a57610359610308565b5b828207905092915050565b5f61036f826102aa565b915061037a836102aa565b92508261038a57610389610308565b5b82820690509291505056fea26469706673582212205e402d025e61a4baebd3b9bb821bfd02cea1d0dc64107c9ce1508b8993b5cf3064736f6c634300081a0033",
					"opcodes": "PUSH1 0x80 PUSH1 0x40 MSTORE CALLVALUE DUP1 ISZERO PUSH1 0xE JUMPI PUSH0 DUP1 REVERT JUMPDEST POP PUSH2 0x3CB DUP1 PUSH2 0x1C PUSH0 CODECOPY PUSH0 RETURN INVALID PUSH1 0x80 PUSH1 0x40 MSTORE CALLVALUE DUP1 ISZERO PUSH2 0xF JUMPI PUSH0 DUP1 REVERT JUMPDEST POP PUSH1 0x4 CALLDATASIZE LT PUSH2 0x34 JUMPI PUSH0 CALLDATALOAD PUSH1 0xE0 SHR DUP1 PUSH4 0xB236F68C EQ PUSH2 0x38 JUMPI DUP1 PUSH4 0xD1E783FE EQ PUSH2 0x68 JUMPI JUMPDEST PUSH0 DUP1 REVERT JUMPDEST PUSH2 0x52 PUSH1 0x4 DUP1 CALLDATASIZE SUB DUP2 ADD SWAP1 PUSH2 0x4D SWAP2 SWAP1 PUSH2 0x1EF JUMP JUMPDEST PUSH2 0x98 JUMP JUMPDEST PUSH1 0x40 MLOAD PUSH2 0x5F SWAP2 SWAP1 PUSH2 0x28A JUMP JUMPDEST PUSH1 0x40 MLOAD DUP1 SWAP2 SUB SWAP1 RETURN JUMPDEST PUSH2 0x82 PUSH1 0x4 DUP1 CALLDATASIZE SUB DUP2 ADD SWAP1 PUSH2 0x7D SWAP2 SWAP1 PUSH2 0x2DD JUMP JUMPDEST PUSH2 0x128 JUMP JUMPDEST PUSH1 0x40 MLOAD PUSH2 0x8F SWAP2 SWAP1 PUSH2 0x28A JUMP JUMPDEST PUSH1 0x40 MLOAD DUP1 SWAP2 SUB SWAP1 RETURN JUMPDEST PUSH1 0x60 PUSH0 PUSH1 0x14 DUP4 PUSH2 0xA8 SWAP2 SWAP1 PUSH2 0x335 JUMP JUMPDEST SUB PUSH2 0xEA JUMPI PUSH1 0x40 MLOAD DUP1 PUSH1 0x40 ADD PUSH1 0x40 MSTORE DUP1 PUSH1 0x4 DUP2 MSTORE PUSH1 0x20 ADD PUSH32 0x6576656E00000000000000000000000000000000000000000000000000000000 DUP2 MSTORE POP SWAP1 POP PUSH2 0x123 JUMP JUMPDEST PUSH1 0x40 MLOAD DUP1 PUSH1 0x40 ADD PUSH1 0x40 MSTORE DUP1 PUSH1 0x3 DUP2 MSTORE PUSH1 0x20 ADD PUSH32 0x6F64640000000000000000000000000000000000000000000000000000000000 DUP2 MSTORE POP SWAP1 POP JUMPDEST SWAP2 SWAP1 POP JUMP JUMPDEST PUSH1 0x60 PUSH0 PUSH1 0x2 DUP4 PUSH2 0x138 SWAP2 SWAP1 PUSH2 0x365 JUMP JUMPDEST SUB PUSH2 0x17A JUMPI PUSH1 0x40 MLOAD DUP1 PUSH1 0x40 ADD PUSH1 0x40 MSTORE DUP1 PUSH1 0x4 DUP2 MSTORE PUSH1 0x20 ADD PUSH32 0x6576656E00000000000000000000000000000000000000000000000000000000 DUP2 MSTORE POP SWAP1 POP PUSH2 0x1B3 JUMP JUMPDEST PUSH1 0x40 MLOAD DUP1 PUSH1 0x40 ADD PUSH1 0x40 MSTORE DUP1 PUSH1 0x3 DUP2 MSTORE PUSH1 0x20 ADD PUSH32 0x6F64640000000000000000000000000000000000000000000000000000000000 DUP2 MSTORE POP SWAP1 POP JUMPDEST SWAP2 SWAP1 POP JUMP JUMPDEST PUSH0 DUP1 REVERT JUMPDEST PUSH0 DUP2 SWAP1 POP SWAP2 SWAP1 POP JUMP JUMPDEST PUSH2 0x1CE DUP2 PUSH2 0x1BC JUMP JUMPDEST DUP2 EQ PUSH2 0x1D8 JUMPI PUSH0 DUP1 REVERT JUMPDEST POP JUMP JUMPDEST PUSH0 DUP2 CALLDATALOAD SWAP1 POP PUSH2 0x1E9 DUP2 PUSH2 0x1C5 JUMP JUMPDEST SWAP3 SWAP2 POP POP JUMP JUMPDEST PUSH0 PUSH1 0x20 DUP3 DUP5 SUB SLT ISZERO PUSH2 0x204 JUMPI PUSH2 0x203 PUSH2 0x1B8 JUMP JUMPDEST JUMPDEST PUSH0 PUSH2 0x211 DUP5 DUP3 DUP6 ADD PUSH2 0x1DB JUMP JUMPDEST SWAP2 POP POP SWAP3 SWAP2 POP POP JUMP JUMPDEST PUSH0 DUP2 MLOAD SWAP1 POP SWAP2 SWAP1 POP JUMP JUMPDEST PUSH0 DUP3 DUP3 MSTORE PUSH1 0x20 DUP3 ADD SWAP1 POP SWAP3 SWAP2 POP POP JUMP JUMPDEST DUP3 DUP2 DUP4 MCOPY PUSH0 DUP4 DUP4 ADD MSTORE POP POP POP JUMP JUMPDEST PUSH0 PUSH1 0x1F NOT PUSH1 0x1F DUP4 ADD AND SWAP1 POP SWAP2 SWAP1 POP JUMP JUMPDEST PUSH0 PUSH2 0x25C DUP3 PUSH2 0x21A JUMP JUMPDEST PUSH2 0x266 DUP2 DUP6 PUSH2 0x224 JUMP JUMPDEST SWAP4 POP PUSH2 0x276 DUP2 DUP6 PUSH1 0x20 DUP7 ADD PUSH2 0x234 JUMP JUMPDEST PUSH2 0x27F DUP2 PUSH2 0x242 JUMP JUMPDEST DUP5 ADD SWAP2 POP POP SWAP3 SWAP2 POP POP JUMP JUMPDEST PUSH0 PUSH1 0x20 DUP3 ADD SWAP1 POP DUP2 DUP2 SUB PUSH0 DUP4 ADD MSTORE PUSH2 0x2A2 DUP2 DUP5 PUSH2 0x252 JUMP JUMPDEST SWAP1 POP SWAP3 SWAP2 POP POP JUMP JUMPDEST PUSH0 DUP2 SWAP1 POP SWAP2 SWAP1 POP JUMP JUMPDEST PUSH2 0x2BC DUP2 PUSH2 0x2AA JUMP JUMPDEST DUP2 EQ PUSH2 0x2C6 JUMPI PUSH0 DUP1 REVERT JUMPDEST POP JUMP JUMPDEST PUSH0 DUP2 CALLDATALOAD SWAP1 POP PUSH2 0x2D7 DUP2 PUSH2 0x2B3 JUMP JUMPDEST SWAP3 SWAP2 POP POP JUMP JUMPDEST PUSH0 PUSH1 0x20 DUP3 DUP5 SUB SLT ISZERO PUSH2 0x2F2 JUMPI PUSH2 0x2F1 PUSH2 0x1B8 JUMP JUMPDEST JUMPDEST PUSH0 PUSH2 0x2FF DUP5 DUP3 DUP6 ADD PUSH2 0x2C9 JUMP JUMPDEST SWAP2 POP POP SWAP3 SWAP2 POP POP JUMP JUMPDEST PUSH32 0x4E487B7100000000000000000000000000000000000000000000000000000000 PUSH0 MSTORE PUSH1 0x12 PUSH1 0x4 MSTORE PUSH1 0x24 PUSH0 REVERT JUMPDEST PUSH0 PUSH2 0x33F DUP3 PUSH2 0x1BC JUMP JUMPDEST SWAP2 POP PUSH2 0x34A DUP4 PUSH2 0x1BC JUMP JUMPDEST SWAP3 POP DUP3 PUSH2 0x35A JUMPI PUSH2 0x359 PUSH2 0x308 JUMP JUMPDEST JUMPDEST DUP3 DUP3 SMOD SWAP1 POP SWAP3 SWAP2 POP POP JUMP JUMPDEST PUSH0 PUSH2 0x36F DUP3 PUSH2 0x2AA JUMP JUMPDEST SWAP2 POP PUSH2 0x37A DUP4 PUSH2 0x2AA JUMP JUMPDEST SWAP3 POP DUP3 PUSH2 0x38A JUMPI PUSH2 0x389 PUSH2 0x308 JUMP JUMPDEST JUMPDEST DUP3 DUP3 MOD SWAP1 POP SWAP3 SWAP2 POP POP JUMP INVALID LOG2 PUSH5 0x6970667358 0x22 SLT KECCAK256 MCOPY BLOCKHASH 0x2D MUL MCOPY PUSH2 0xA4BA 0xEB 0xD3 0xB9 0xBB DUP3 SHL REVERT MUL 0xCE LOG1 0xD0 0xDC PUSH5 0x107C9CE150 DUP12 DUP10 SWAP4 0xB5 0xCF ADDRESS PUSH5 0x736F6C6343 STOP ADDMOD BYTE STOP CALLER "
				},
				"gasEstimates": {
					"creation": {
						"codeDepositCost": "194200",
						"executionCost": "236",
						"totalCost": "194436"
					},
					"external": {
						"evenorodd(uint256)": "infinite",
						"intevenorodd(int256)": "infinite"
					}
				},
				"methodIdentifiers": {
					"evenorodd(uint256)": "d1e783fe",
					"intevenorodd(int256)": "b236f68c"
				}
			},
			"storageLayout": {
				"storage": [],
				"types": null
			},
			"userdoc": {
				"kind": "user",
				"methods": {},
				"version": 1
			}
		}
	}
}