{
	"contracts/first program.sol": {
		"multipicatiuon": {
			"abi": [
				{
					"inputs": [],
					"name": "adding",
					"outputs": [
						{
							"internalType": "int256",
							"name": "",
							"type": "int256"
						}
					],
					"stateMutability": "view",
					"type": "function"
				},
				{
					"inputs": [],
					"name": "addition",
					"outputs": [
						{
							"internalType": "int256",
							"name": "",
							"type": "int256"
						}
					],
					"stateMutability": "view",
					"type": "function"
				},
				{
					"inputs": [],
					"name": "addition1",
					"outputs": [
						{
							"internalType": "uint256",
							"name": "",
							"type": "uint256"
						}
					],
					"stateMutability": "view",
					"type": "function"
				},
				{
					"inputs": [],
					"name": "division",
					"outputs": [
						{
							"internalType": "int256",
							"name": "",
							"type": "int256"
						}
					],
					"stateMutability": "view",
					"type": "function"
				},
				{
					"inputs": [],
					"name": "division1",
					"outputs": [
						{
							"internalType": "uint256",
							"name": "",
							"type": "uint256"
						}
					],
					"stateMutability": "view",
					"type": "function"
				},
				{
					"inputs": [],
					"name": "multiplication",
					"outputs": [
						{
							"internalType": "int256",
							"name": "",
							"type": "int256"
						}
					],
					"stateMutability": "view",
					"type": "function"
				},
				{
					"inputs": [],
					"name": "multiplication1",
					"outputs": [
						{
							"internalType": "uint256",
							"name": "",
							"type": "uint256"
						}
					],
					"stateMutability": "view",
					"type": "function"
				},
				{
					"inputs": [],
					"name": "percentage",
					"outputs": [
						{
							"internalType": "int256",
							"name": "",
							"type": "int256"
						}
					],
					"stateMutability": "view",
					"type": "function"
				},
				{
					"inputs": [],
					"name": "percentage1",
					"outputs": [
						{
							"internalType": "uint256",
							"name": "",
							"type": "uint256"
						}
					],
					"stateMutability": "view",
					"type": "function"
				},
				{
					"inputs": [],
					"name": "subcration",
					"outputs": [
						{
							"internalType": "int256",
							"name": "",
							"type": "int256"
						}
					],
					"stateMutability": "view",
					"type": "function"
				},
				{
					"inputs": [],
					"name": "subcration1",
					"outputs": [
						{
							"internalType": "uint256",
							"name": "",
							"type": "uint256"
						}
					],
					"stateMutability": "view",
					"type": "function"
				},
				{
					"inputs": [],
					"name": "subting",
					"outputs": [
						{
							"internalType": "uint256",
							"name": "",
							"type": "uint256"
						}
					],
					"stateMutability": "view",
					"type": "function"
				}
			],
			"devdoc": {
				"kind": "dev",
				"methods": {},
				"version": 1
			},
			"evm": {
				"assembly": "    /* \"contracts/first program.sol\":76:1701  contract multipicatiuon {... */\n  mstore(0x40, 0x80)\n    /* \"contracts/first program.sol\":251:254  200 */\n  0xc8\n    /* \"contracts/first program.sol\":243:254  int a = 200 */\n  0x00\n  sstore\n    /* \"contracts/first program.sol\":265:268  400 */\n  0x0190\n    /* \"contracts/first program.sol\":257:268  int b = 400 */\n  0x01\n  sstore\n    /* \"contracts/first program.sol\":279:282  200 */\n  0xc8\n    /* \"contracts/first program.sol\":271:282  int c = 200 */\n  0x02\n  sstore\n    /* \"contracts/first program.sol\":293:296  800 */\n  0x0320\n    /* \"contracts/first program.sol\":285:296  int d = 800 */\n  0x03\n  sstore\n    /* \"contracts/first program.sol\":425:428  100 */\n  0x64\n    /* \"contracts/first program.sol\":416:428  uint e = 100 */\n  0x05\n  sstore\n    /* \"contracts/first program.sol\":440:443  700 */\n  0x02bc\n    /* \"contracts/first program.sol\":431:443  uint f = 700 */\n  0x06\n  sstore\n    /* \"contracts/first program.sol\":455:458  300 */\n  0x012c\n    /* \"contracts/first program.sol\":446:458  uint g = 300 */\n  0x07\n  sstore\n    /* \"contracts/first program.sol\":470:473  200 */\n  0xc8\n    /* \"contracts/first program.sol\":461:473  uint h = 200 */\n  0x08\n  sstore\n    /* \"contracts/first program.sol\":76:1701  contract multipicatiuon {... */\n  callvalue\n  dup1\n  iszero\n  tag_1\n  jumpi\n  0x00\n  dup1\n  revert\ntag_1:\n  pop\n  dataSize(sub_0)\n  dup1\n  dataOffset(sub_0)\n  0x00\n  codecopy\n  0x00\n  return\nstop\n\nsub_0: assembly {\n        /* \"contracts/first program.sol\":76:1701  contract multipicatiuon {... */\n      mstore(0x40, 0x80)\n      callvalue\n      dup1\n      iszero\n      tag_1\n      jumpi\n      0x00\n      dup1\n      revert\n    tag_1:\n      pop\n      jumpi(tag_2, lt(calldatasize, 0x04))\n      shr(0xe0, calldataload(0x00))\n      dup1\n      0xaa2d7203\n      gt\n      tag_15\n      jumpi\n      dup1\n      0xaa2d7203\n      eq\n      tag_9\n      jumpi\n      dup1\n      0xc4a51400\n      eq\n      tag_10\n      jumpi\n      dup1\n      0xc78ad77f\n      eq\n      tag_11\n      jumpi\n      dup1\n      0xd1e42eb2\n      eq\n      tag_12\n      jumpi\n      dup1\n      0xd4d30f2c\n      eq\n      tag_13\n      jumpi\n      dup1\n      0xec597128\n      eq\n      tag_14\n      jumpi\n      jump(tag_2)\n    tag_15:\n      dup1\n      0x011285da\n      eq\n      tag_3\n      jumpi\n      dup1\n      0x2ae93f50\n      eq\n      tag_4\n      jumpi\n      dup1\n      0x3205f5fc\n      eq\n      tag_5\n      jumpi\n      dup1\n      0x34a50ba0\n      eq\n      tag_6\n      jumpi\n      dup1\n      0x4d3e46e4\n      eq\n      tag_7\n      jumpi\n      dup1\n      0x9c728aa5\n      eq\n      tag_8\n      jumpi\n    tag_2:\n      0x00\n      dup1\n      revert\n        /* \"contracts/first program.sol\":673:770  function multiplication () view public returns (int){... */\n    tag_3:\n      tag_16\n      tag_17\n      jump\t// in\n    tag_16:\n      mload(0x40)\n      tag_18\n      swap2\n      swap1\n      tag_19\n      jump\t// in\n    tag_18:\n      mload(0x40)\n      dup1\n      swap2\n      sub\n      swap1\n      return\n        /* \"contracts/first program.sol\":1347:1443  function percentage1 () view public returns (uint){... */\n    tag_4:\n      tag_20\n      tag_21\n      jump\t// in\n    tag_20:\n      mload(0x40)\n      tag_22\n      swap2\n      swap1\n      tag_23\n      jump\t// in\n    tag_22:\n      mload(0x40)\n      dup1\n      swap2\n      sub\n      swap1\n      return\n        /* \"contracts/first program.sol\":772:862  function division () view public returns (int) {... */\n    tag_5:\n      tag_24\n      tag_25\n      jump\t// in\n    tag_24:\n      mload(0x40)\n      tag_26\n      swap2\n      swap1\n      tag_19\n      jump\t// in\n    tag_26:\n      mload(0x40)\n      dup1\n      swap2\n      sub\n      swap1\n      return\n        /* \"contracts/first program.sol\":579:671  function subcration () view public returns (int){... */\n    tag_6:\n      tag_27\n      tag_28\n      jump\t// in\n    tag_27:\n      mload(0x40)\n      tag_29\n      swap2\n      swap1\n      tag_19\n      jump\t// in\n    tag_29:\n      mload(0x40)\n      dup1\n      swap2\n      sub\n      swap1\n      return\n        /* \"contracts/first program.sol\":958:1049  function addition1 () view public  returns (uint){... */\n    tag_7:\n      tag_30\n      tag_31\n      jump\t// in\n    tag_30:\n      mload(0x40)\n      tag_32\n      swap2\n      swap1\n      tag_23\n      jump\t// in\n    tag_32:\n      mload(0x40)\n      dup1\n      swap2\n      sub\n      swap1\n      return\n        /* \"contracts/first program.sol\":1051:1145  function subcration1 () view public returns (uint){... */\n    tag_8:\n      tag_33\n      tag_34\n      jump\t// in\n    tag_33:\n      mload(0x40)\n      tag_35\n      swap2\n      swap1\n      tag_23\n      jump\t// in\n    tag_35:\n      mload(0x40)\n      dup1\n      swap2\n      sub\n      swap1\n      return\n        /* \"contracts/first program.sol\":1147:1249  function multiplication1 () view public returns (uint){... */\n    tag_9:\n      tag_36\n      tag_37\n      jump\t// in\n    tag_36:\n      mload(0x40)\n      tag_38\n      swap2\n      swap1\n      tag_23\n      jump\t// in\n    tag_38:\n      mload(0x40)\n      dup1\n      swap2\n      sub\n      swap1\n      return\n        /* \"contracts/first program.sol\":1610:1698  function subting () view public returns (uint){... */\n    tag_10:\n      tag_39\n      tag_40\n      jump\t// in\n    tag_39:\n      mload(0x40)\n      tag_41\n      swap2\n      swap1\n      tag_23\n      jump\t// in\n    tag_41:\n      mload(0x40)\n      dup1\n      swap2\n      sub\n      swap1\n      return\n        /* \"contracts/first program.sol\":864:956  function percentage () view public returns (int) {... */\n    tag_11:\n      tag_42\n      tag_43\n      jump\t// in\n    tag_42:\n      mload(0x40)\n      tag_44\n      swap2\n      swap1\n      tag_19\n      jump\t// in\n    tag_44:\n      mload(0x40)\n      dup1\n      swap2\n      sub\n      swap1\n      return\n        /* \"contracts/first program.sol\":1251:1345  function division1 () view public returns (uint){... */\n    tag_12:\n      tag_45\n      tag_46\n      jump\t// in\n    tag_45:\n      mload(0x40)\n      tag_47\n      swap2\n      swap1\n      tag_23\n      jump\t// in\n    tag_47:\n      mload(0x40)\n      dup1\n      swap2\n      sub\n      swap1\n      return\n        /* \"contracts/first program.sol\":1483:1569  function adding () view public returns (int) {... */\n    tag_13:\n      tag_48\n      tag_49\n      jump\t// in\n    tag_48:\n      mload(0x40)\n      tag_50\n      swap2\n      swap1\n      tag_19\n      jump\t// in\n    tag_50:\n      mload(0x40)\n      dup1\n      swap2\n      sub\n      swap1\n      return\n        /* \"contracts/first program.sol\":487:577  function addition () view public  returns (int){... */\n    tag_14:\n      tag_51\n      tag_52\n      jump\t// in\n    tag_51:\n      mload(0x40)\n      tag_53\n      swap2\n      swap1\n      tag_19\n      jump\t// in\n    tag_53:\n      mload(0x40)\n      dup1\n      swap2\n      sub\n      swap1\n      return\n        /* \"contracts/first program.sol\":673:770  function multiplication () view public returns (int){... */\n    tag_17:\n        /* \"contracts/first program.sol\":721:724  int */\n      0x00\n        /* \"contracts/first program.sol\":732:741  int multi */\n      dup1\n        /* \"contracts/first program.sol\":746:747  b */\n      sload(0x01)\n        /* \"contracts/first program.sol\":744:745  a */\n      sload(0x00)\n        /* \"contracts/first program.sol\":744:747  a*b */\n      tag_55\n      swap2\n      swap1\n      tag_56\n      jump\t// in\n    tag_55:\n        /* \"contracts/first program.sol\":732:747  int multi = a*b */\n      swap1\n      pop\n        /* \"contracts/first program.sol\":761:766  multi */\n      dup1\n        /* \"contracts/first program.sol\":754:766  return multi */\n      swap2\n      pop\n      pop\n        /* \"contracts/first program.sol\":673:770  function multiplication () view public returns (int){... */\n      swap1\n      jump\t// out\n        /* \"contracts/first program.sol\":1347:1443  function percentage1 () view public returns (uint){... */\n    tag_21:\n        /* \"contracts/first program.sol\":1392:1396  uint */\n      0x00\n        /* \"contracts/first program.sol\":1404:1414  uint perc1 */\n      dup1\n        /* \"contracts/first program.sol\":1419:1420  h */\n      sload(0x08)\n        /* \"contracts/first program.sol\":1417:1418  e */\n      sload(0x05)\n        /* \"contracts/first program.sol\":1417:1420  e%h */\n      tag_58\n      swap2\n      swap1\n      tag_59\n      jump\t// in\n    tag_58:\n        /* \"contracts/first program.sol\":1404:1420  uint perc1 = e%h */\n      swap1\n      pop\n        /* \"contracts/first program.sol\":1434:1439  perc1 */\n      dup1\n        /* \"contracts/first program.sol\":1427:1439  return perc1 */\n      swap2\n      pop\n      pop\n        /* \"contracts/first program.sol\":1347:1443  function percentage1 () view public returns (uint){... */\n      swap1\n      jump\t// out\n        /* \"contracts/first program.sol\":772:862  function division () view public returns (int) {... */\n    tag_25:\n        /* \"contracts/first program.sol\":814:817  int */\n      0x00\n        /* \"contracts/first program.sol\":826:834  int divi */\n      dup1\n        /* \"contracts/first program.sol\":839:840  b */\n      sload(0x01)\n        /* \"contracts/first program.sol\":837:838  a */\n      sload(0x00)\n        /* \"contracts/first program.sol\":837:840  a/b */\n      tag_61\n      swap2\n      swap1\n      tag_62\n      jump\t// in\n    tag_61:\n        /* \"contracts/first program.sol\":826:840  int divi = a/b */\n      swap1\n      pop\n        /* \"contracts/first program.sol\":854:858  divi */\n      dup1\n        /* \"contracts/first program.sol\":847:858  return divi */\n      swap2\n      pop\n      pop\n        /* \"contracts/first program.sol\":772:862  function division () view public returns (int) {... */\n      swap1\n      jump\t// out\n        /* \"contracts/first program.sol\":579:671  function subcration () view public returns (int){... */\n    tag_28:\n        /* \"contracts/first program.sol\":623:626  int */\n      0x00\n        /* \"contracts/first program.sol\":634:641  int sub */\n      dup1\n        /* \"contracts/first program.sol\":646:647  b */\n      sload(0x01)\n        /* \"contracts/first program.sol\":644:645  a */\n      sload(0x00)\n        /* \"contracts/first program.sol\":644:647  a-b */\n      tag_64\n      swap2\n      swap1\n      tag_65\n      jump\t// in\n    tag_64:\n        /* \"contracts/first program.sol\":634:647  int sub = a-b */\n      swap1\n      pop\n        /* \"contracts/first program.sol\":662:665  sub */\n      dup1\n        /* \"contracts/first program.sol\":655:665  return sub */\n      swap2\n      pop\n      pop\n        /* \"contracts/first program.sol\":579:671  function subcration () view public returns (int){... */\n      swap1\n      jump\t// out\n        /* \"contracts/first program.sol\":958:1049  function addition1 () view public  returns (uint){... */\n    tag_31:\n        /* \"contracts/first program.sol\":1002:1006  uint */\n      0x00\n        /* \"contracts/first program.sol\":1014:1022  uint add */\n      dup1\n        /* \"contracts/first program.sol\":1027:1028  e */\n      sload(0x05)\n        /* \"contracts/first program.sol\":1025:1026  h */\n      sload(0x08)\n        /* \"contracts/first program.sol\":1025:1028  h+e */\n      tag_67\n      swap2\n      swap1\n      tag_68\n      jump\t// in\n    tag_67:\n        /* \"contracts/first program.sol\":1014:1028  uint add = h+e */\n      swap1\n      pop\n        /* \"contracts/first program.sol\":1042:1045  add */\n      dup1\n        /* \"contracts/first program.sol\":1035:1045  return add */\n      swap2\n      pop\n      pop\n        /* \"contracts/first program.sol\":958:1049  function addition1 () view public  returns (uint){... */\n      swap1\n      jump\t// out\n        /* \"contracts/first program.sol\":1051:1145  function subcration1 () view public returns (uint){... */\n    tag_34:\n        /* \"contracts/first program.sol\":1096:1100  uint */\n      0x00\n        /* \"contracts/first program.sol\":1108:1117  uint sub1 */\n      dup1\n        /* \"contracts/first program.sol\":1122:1123  g */\n      sload(0x07)\n        /* \"contracts/first program.sol\":1120:1121  f */\n      sload(0x06)\n        /* \"contracts/first program.sol\":1120:1123  f-g */\n      tag_70\n      swap2\n      swap1\n      tag_71\n      jump\t// in\n    tag_70:\n        /* \"contracts/first program.sol\":1108:1123  uint sub1 = f-g */\n      swap1\n      pop\n        /* \"contracts/first program.sol\":1137:1141  sub1 */\n      dup1\n        /* \"contracts/first program.sol\":1130:1141  return sub1 */\n      swap2\n      pop\n      pop\n        /* \"contracts/first program.sol\":1051:1145  function subcration1 () view public returns (uint){... */\n      swap1\n      jump\t// out\n        /* \"contracts/first program.sol\":1147:1249  function multiplication1 () view public returns (uint){... */\n    tag_37:\n        /* \"contracts/first program.sol\":1196:1200  uint */\n      0x00\n        /* \"contracts/first program.sol\":1208:1219  uint multi1 */\n      dup1\n        /* \"contracts/first program.sol\":1224:1225  g */\n      sload(0x07)\n        /* \"contracts/first program.sol\":1222:1223  f */\n      sload(0x06)\n        /* \"contracts/first program.sol\":1222:1225  f*g */\n      tag_73\n      swap2\n      swap1\n      tag_74\n      jump\t// in\n    tag_73:\n        /* \"contracts/first program.sol\":1208:1225  uint multi1 = f*g */\n      swap1\n      pop\n        /* \"contracts/first program.sol\":1239:1245  multi1 */\n      dup1\n        /* \"contracts/first program.sol\":1232:1245  return multi1 */\n      swap2\n      pop\n      pop\n        /* \"contracts/first program.sol\":1147:1249  function multiplication1 () view public returns (uint){... */\n      swap1\n      jump\t// out\n        /* \"contracts/first program.sol\":1610:1698  function subting () view public returns (uint){... */\n    tag_40:\n        /* \"contracts/first program.sol\":1651:1655  uint */\n      0x00\n        /* \"contracts/first program.sol\":1663:1669  uint y */\n      dup1\n        /* \"contracts/first program.sol\":1678:1679  h */\n      sload(0x08)\n        /* \"contracts/first program.sol\":1676:1677  g */\n      sload(0x07)\n        /* \"contracts/first program.sol\":1676:1679  g*h */\n      tag_76\n      swap2\n      swap1\n      tag_74\n      jump\t// in\n    tag_76:\n        /* \"contracts/first program.sol\":1674:1675  f */\n      sload(0x06)\n        /* \"contracts/first program.sol\":1672:1673  e */\n      sload(0x05)\n        /* \"contracts/first program.sol\":1672:1675  e+f */\n      tag_77\n      swap2\n      swap1\n      tag_68\n      jump\t// in\n    tag_77:\n        /* \"contracts/first program.sol\":1672:1679  e+f+g*h */\n      tag_78\n      swap2\n      swap1\n      tag_68\n      jump\t// in\n    tag_78:\n        /* \"contracts/first program.sol\":1663:1679  uint y = e+f+g*h */\n      swap1\n      pop\n        /* \"contracts/first program.sol\":1693:1694  y */\n      dup1\n        /* \"contracts/first program.sol\":1686:1694  return y */\n      swap2\n      pop\n      pop\n        /* \"contracts/first program.sol\":1610:1698  function subting () view public returns (uint){... */\n      swap1\n      jump\t// out\n        /* \"contracts/first program.sol\":864:956  function percentage () view public returns (int) {... */\n    tag_43:\n        /* \"contracts/first program.sol\":908:911  int */\n      0x00\n        /* \"contracts/first program.sol\":920:928  int perc */\n      dup1\n        /* \"contracts/first program.sol\":933:934  b */\n      sload(0x01)\n        /* \"contracts/first program.sol\":931:932  a */\n      sload(0x00)\n        /* \"contracts/first program.sol\":931:934  a%b */\n      tag_80\n      swap2\n      swap1\n      tag_81\n      jump\t// in\n    tag_80:\n        /* \"contracts/first program.sol\":920:934  int perc = a%b */\n      swap1\n      pop\n        /* \"contracts/first program.sol\":948:952  perc */\n      dup1\n        /* \"contracts/first program.sol\":941:952  return perc */\n      swap2\n      pop\n      pop\n        /* \"contracts/first program.sol\":864:956  function percentage () view public returns (int) {... */\n      swap1\n      jump\t// out\n        /* \"contracts/first program.sol\":1251:1345  function division1 () view public returns (uint){... */\n    tag_46:\n        /* \"contracts/first program.sol\":1294:1298  uint */\n      0x00\n        /* \"contracts/first program.sol\":1306:1316  uint divi1 */\n      dup1\n        /* \"contracts/first program.sol\":1321:1322  h */\n      sload(0x08)\n        /* \"contracts/first program.sol\":1319:1320  e */\n      sload(0x05)\n        /* \"contracts/first program.sol\":1319:1322  e/h */\n      tag_83\n      swap2\n      swap1\n      tag_84\n      jump\t// in\n    tag_83:\n        /* \"contracts/first program.sol\":1306:1322  uint divi1 = e/h */\n      swap1\n      pop\n        /* \"contracts/first program.sol\":1336:1341  divi1 */\n      dup1\n        /* \"contracts/first program.sol\":1329:1341  return divi1 */\n      swap2\n      pop\n      pop\n        /* \"contracts/first program.sol\":1251:1345  function division1 () view public returns (uint){... */\n      swap1\n      jump\t// out\n        /* \"contracts/first program.sol\":1483:1569  function adding () view public returns (int) {... */\n    tag_49:\n        /* \"contracts/first program.sol\":1523:1526  int */\n      0x00\n        /* \"contracts/first program.sol\":1535:1540  int z */\n      dup1\n        /* \"contracts/first program.sol\":1549:1550  d */\n      sload(0x03)\n        /* \"contracts/first program.sol\":1547:1548  c */\n      sload(0x02)\n        /* \"contracts/first program.sol\":1547:1550  c*d */\n      tag_86\n      swap2\n      swap1\n      tag_56\n      jump\t// in\n    tag_86:\n        /* \"contracts/first program.sol\":1545:1546  b */\n      sload(0x01)\n        /* \"contracts/first program.sol\":1543:1544  a */\n      sload(0x00)\n        /* \"contracts/first program.sol\":1543:1546  a+b */\n      tag_87\n      swap2\n      swap1\n      tag_88\n      jump\t// in\n    tag_87:\n        /* \"contracts/first program.sol\":1543:1550  a+b-c*d */\n      tag_89\n      swap2\n      swap1\n      tag_65\n      jump\t// in\n    tag_89:\n        /* \"contracts/first program.sol\":1535:1550  int z = a+b-c*d */\n      swap1\n      pop\n        /* \"contracts/first program.sol\":1564:1565  z */\n      dup1\n        /* \"contracts/first program.sol\":1557:1565  return z */\n      swap2\n      pop\n      pop\n        /* \"contracts/first program.sol\":1483:1569  function adding () view public returns (int) {... */\n      swap1\n      jump\t// out\n        /* \"contracts/first program.sol\":487:577  function addition () view public  returns (int){... */\n    tag_52:\n        /* \"contracts/first program.sol\":530:533  int */\n      0x00\n        /* \"contracts/first program.sol\":541:549  int abcd */\n      dup1\n        /* \"contracts/first program.sol\":554:555  b */\n      sload(0x01)\n        /* \"contracts/first program.sol\":552:553  a */\n      sload(0x00)\n        /* \"contracts/first program.sol\":552:555  a+b */\n      tag_91\n      swap2\n      swap1\n      tag_88\n      jump\t// in\n    tag_91:\n        /* \"contracts/first program.sol\":541:555  int abcd = a+b */\n      swap1\n      pop\n        /* \"contracts/first program.sol\":569:573  abcd */\n      dup1\n        /* \"contracts/first program.sol\":562:573  return abcd */\n      swap2\n      pop\n      pop\n        /* \"contracts/first program.sol\":487:577  function addition () view public  returns (int){... */\n      swap1\n      jump\t// out\n        /* \"#utility.yul\":7:83   */\n    tag_92:\n        /* \"#utility.yul\":43:50   */\n      0x00\n        /* \"#utility.yul\":72:77   */\n      dup2\n        /* \"#utility.yul\":61:77   */\n      swap1\n      pop\n        /* \"#utility.yul\":7:83   */\n      swap2\n      swap1\n      pop\n      jump\t// out\n        /* \"#utility.yul\":89:204   */\n    tag_93:\n        /* \"#utility.yul\":174:197   */\n      tag_101\n        /* \"#utility.yul\":191:196   */\n      dup2\n        /* \"#utility.yul\":174:197   */\n      tag_92\n      jump\t// in\n    tag_101:\n        /* \"#utility.yul\":169:172   */\n      dup3\n        /* \"#utility.yul\":162:198   */\n      mstore\n        /* \"#utility.yul\":89:204   */\n      pop\n      pop\n      jump\t// out\n        /* \"#utility.yul\":210:428   */\n    tag_19:\n        /* \"#utility.yul\":301:305   */\n      0x00\n        /* \"#utility.yul\":339:341   */\n      0x20\n        /* \"#utility.yul\":328:337   */\n      dup3\n        /* \"#utility.yul\":324:342   */\n      add\n        /* \"#utility.yul\":316:342   */\n      swap1\n      pop\n        /* \"#utility.yul\":352:421   */\n      tag_103\n        /* \"#utility.yul\":418:419   */\n      0x00\n        /* \"#utility.yul\":407:416   */\n      dup4\n        /* \"#utility.yul\":403:420   */\n      add\n        /* \"#utility.yul\":394:400   */\n      dup5\n        /* \"#utility.yul\":352:421   */\n      tag_93\n      jump\t// in\n    tag_103:\n        /* \"#utility.yul\":210:428   */\n      swap3\n      swap2\n      pop\n      pop\n      jump\t// out\n        /* \"#utility.yul\":434:511   */\n    tag_94:\n        /* \"#utility.yul\":471:478   */\n      0x00\n        /* \"#utility.yul\":500:505   */\n      dup2\n        /* \"#utility.yul\":489:505   */\n      swap1\n      pop\n        /* \"#utility.yul\":434:511   */\n      swap2\n      swap1\n      pop\n      jump\t// out\n        /* \"#utility.yul\":517:635   */\n    tag_95:\n        /* \"#utility.yul\":604:628   */\n      tag_106\n        /* \"#utility.yul\":622:627   */\n      dup2\n        /* \"#utility.yul\":604:628   */\n      tag_94\n      jump\t// in\n    tag_106:\n        /* \"#utility.yul\":599:602   */\n      dup3\n        /* \"#utility.yul\":592:629   */\n      mstore\n        /* \"#utility.yul\":517:635   */\n      pop\n      pop\n      jump\t// out\n        /* \"#utility.yul\":641:863   */\n    tag_23:\n        /* \"#utility.yul\":734:738   */\n      0x00\n        /* \"#utility.yul\":772:774   */\n      0x20\n        /* \"#utility.yul\":761:770   */\n      dup3\n        /* \"#utility.yul\":757:775   */\n      add\n        /* \"#utility.yul\":749:775   */\n      swap1\n      pop\n        /* \"#utility.yul\":785:856   */\n      tag_108\n        /* \"#utility.yul\":853:854   */\n      0x00\n        /* \"#utility.yul\":842:851   */\n      dup4\n        /* \"#utility.yul\":838:855   */\n      add\n        /* \"#utility.yul\":829:835   */\n      dup5\n        /* \"#utility.yul\":785:856   */\n      tag_95\n      jump\t// in\n    tag_108:\n        /* \"#utility.yul\":641:863   */\n      swap3\n      swap2\n      pop\n      pop\n      jump\t// out\n        /* \"#utility.yul\":869:1049   */\n    tag_96:\n        /* \"#utility.yul\":917:994   */\n      0x4e487b7100000000000000000000000000000000000000000000000000000000\n        /* \"#utility.yul\":914:915   */\n      0x00\n        /* \"#utility.yul\":907:995   */\n      mstore\n        /* \"#utility.yul\":1014:1018   */\n      0x11\n        /* \"#utility.yul\":1011:1012   */\n      0x04\n        /* \"#utility.yul\":1004:1019   */\n      mstore\n        /* \"#utility.yul\":1038:1042   */\n      0x24\n        /* \"#utility.yul\":1035:1036   */\n      0x00\n        /* \"#utility.yul\":1028:1043   */\n      revert\n        /* \"#utility.yul\":1055:1611   */\n    tag_56:\n        /* \"#utility.yul\":1094:1101   */\n      0x00\n        /* \"#utility.yul\":1117:1136   */\n      tag_111\n        /* \"#utility.yul\":1134:1135   */\n      dup3\n        /* \"#utility.yul\":1117:1136   */\n      tag_92\n      jump\t// in\n    tag_111:\n        /* \"#utility.yul\":1112:1136   */\n      swap2\n      pop\n        /* \"#utility.yul\":1150:1169   */\n      tag_112\n        /* \"#utility.yul\":1167:1168   */\n      dup4\n        /* \"#utility.yul\":1150:1169   */\n      tag_92\n      jump\t// in\n    tag_112:\n        /* \"#utility.yul\":1145:1169   */\n      swap3\n      pop\n        /* \"#utility.yul\":1204:1205   */\n      dup3\n        /* \"#utility.yul\":1201:1202   */\n      dup3\n        /* \"#utility.yul\":1197:1206   */\n      mul\n        /* \"#utility.yul\":1226:1255   */\n      tag_113\n        /* \"#utility.yul\":1243:1254   */\n      dup2\n        /* \"#utility.yul\":1226:1255   */\n      tag_92\n      jump\t// in\n    tag_113:\n        /* \"#utility.yul\":1215:1255   */\n      swap2\n      pop\n        /* \"#utility.yul\":1313:1379   */\n      0x8000000000000000000000000000000000000000000000000000000000000000\n        /* \"#utility.yul\":1310:1311   */\n      dup5\n        /* \"#utility.yul\":1307:1380   */\n      eq\n        /* \"#utility.yul\":1303:1304   */\n      0x00\n        /* \"#utility.yul\":1300:1301   */\n      dup5\n        /* \"#utility.yul\":1296:1305   */\n      slt\n        /* \"#utility.yul\":1292:1381   */\n      and\n        /* \"#utility.yul\":1289:1404   */\n      iszero\n      tag_114\n      jumpi\n        /* \"#utility.yul\":1384:1402   */\n      tag_115\n      tag_96\n      jump\t// in\n    tag_115:\n        /* \"#utility.yul\":1289:1404   */\n    tag_114:\n        /* \"#utility.yul\":1554:1555   */\n      dup3\n        /* \"#utility.yul\":1545:1552   */\n      dup3\n        /* \"#utility.yul\":1540:1556   */\n      sdiv\n        /* \"#utility.yul\":1537:1538   */\n      dup5\n        /* \"#utility.yul\":1534:1557   */\n      eq\n        /* \"#utility.yul\":1514:1515   */\n      dup4\n        /* \"#utility.yul\":1507:1516   */\n      iszero\n        /* \"#utility.yul\":1487:1571   */\n      or\n        /* \"#utility.yul\":1464:1604   */\n      tag_116\n      jumpi\n        /* \"#utility.yul\":1584:1602   */\n      tag_117\n      tag_96\n      jump\t// in\n    tag_117:\n        /* \"#utility.yul\":1464:1604   */\n    tag_116:\n        /* \"#utility.yul\":1102:1611   */\n      pop\n        /* \"#utility.yul\":1055:1611   */\n      swap3\n      swap2\n      pop\n      pop\n      jump\t// out\n        /* \"#utility.yul\":1617:1797   */\n    tag_97:\n        /* \"#utility.yul\":1665:1742   */\n      0x4e487b7100000000000000000000000000000000000000000000000000000000\n        /* \"#utility.yul\":1662:1663   */\n      0x00\n        /* \"#utility.yul\":1655:1743   */\n      mstore\n        /* \"#utility.yul\":1762:1766   */\n      0x12\n        /* \"#utility.yul\":1759:1760   */\n      0x04\n        /* \"#utility.yul\":1752:1767   */\n      mstore\n        /* \"#utility.yul\":1786:1790   */\n      0x24\n        /* \"#utility.yul\":1783:1784   */\n      0x00\n        /* \"#utility.yul\":1776:1791   */\n      revert\n        /* \"#utility.yul\":1803:1979   */\n    tag_59:\n        /* \"#utility.yul\":1835:1836   */\n      0x00\n        /* \"#utility.yul\":1852:1872   */\n      tag_120\n        /* \"#utility.yul\":1870:1871   */\n      dup3\n        /* \"#utility.yul\":1852:1872   */\n      tag_94\n      jump\t// in\n    tag_120:\n        /* \"#utility.yul\":1847:1872   */\n      swap2\n      pop\n        /* \"#utility.yul\":1886:1906   */\n      tag_121\n        /* \"#utility.yul\":1904:1905   */\n      dup4\n        /* \"#utility.yul\":1886:1906   */\n      tag_94\n      jump\t// in\n    tag_121:\n        /* \"#utility.yul\":1881:1906   */\n      swap3\n      pop\n        /* \"#utility.yul\":1925:1926   */\n      dup3\n        /* \"#utility.yul\":1915:1950   */\n      tag_122\n      jumpi\n        /* \"#utility.yul\":1930:1948   */\n      tag_123\n      tag_97\n      jump\t// in\n    tag_123:\n        /* \"#utility.yul\":1915:1950   */\n    tag_122:\n        /* \"#utility.yul\":1971:1972   */\n      dup3\n        /* \"#utility.yul\":1968:1969   */\n      dup3\n        /* \"#utility.yul\":1964:1973   */\n      mod\n        /* \"#utility.yul\":1959:1973   */\n      swap1\n      pop\n        /* \"#utility.yul\":1803:1979   */\n      swap3\n      swap2\n      pop\n      pop\n      jump\t// out\n        /* \"#utility.yul\":1985:2370   */\n    tag_62:\n        /* \"#utility.yul\":2024:2025   */\n      0x00\n        /* \"#utility.yul\":2041:2060   */\n      tag_125\n        /* \"#utility.yul\":2058:2059   */\n      dup3\n        /* \"#utility.yul\":2041:2060   */\n      tag_92\n      jump\t// in\n    tag_125:\n        /* \"#utility.yul\":2036:2060   */\n      swap2\n      pop\n        /* \"#utility.yul\":2074:2093   */\n      tag_126\n        /* \"#utility.yul\":2091:2092   */\n      dup4\n        /* \"#utility.yul\":2074:2093   */\n      tag_92\n      jump\t// in\n    tag_126:\n        /* \"#utility.yul\":2069:2093   */\n      swap3\n      pop\n        /* \"#utility.yul\":2112:2113   */\n      dup3\n        /* \"#utility.yul\":2102:2137   */\n      tag_127\n      jumpi\n        /* \"#utility.yul\":2117:2135   */\n      tag_128\n      tag_97\n      jump\t// in\n    tag_128:\n        /* \"#utility.yul\":2102:2137   */\n    tag_127:\n        /* \"#utility.yul\":2303:2304   */\n      0x01\n        /* \"#utility.yul\":2300:2301   */\n      0x00\n        /* \"#utility.yul\":2296:2305   */\n      sub\n        /* \"#utility.yul\":2293:2294   */\n      dup4\n        /* \"#utility.yul\":2290:2306   */\n      eq\n        /* \"#utility.yul\":2209:2275   */\n      0x8000000000000000000000000000000000000000000000000000000000000000\n        /* \"#utility.yul\":2206:2207   */\n      dup4\n        /* \"#utility.yul\":2203:2276   */\n      eq\n        /* \"#utility.yul\":2186:2316   */\n      and\n        /* \"#utility.yul\":2183:2339   */\n      iszero\n      tag_129\n      jumpi\n        /* \"#utility.yul\":2319:2337   */\n      tag_130\n      tag_96\n      jump\t// in\n    tag_130:\n        /* \"#utility.yul\":2183:2339   */\n    tag_129:\n        /* \"#utility.yul\":2362:2363   */\n      dup3\n        /* \"#utility.yul\":2359:2360   */\n      dup3\n        /* \"#utility.yul\":2354:2364   */\n      sdiv\n        /* \"#utility.yul\":2349:2364   */\n      swap1\n      pop\n        /* \"#utility.yul\":1985:2370   */\n      swap3\n      swap2\n      pop\n      pop\n      jump\t// out\n        /* \"#utility.yul\":2376:2748   */\n    tag_65:\n        /* \"#utility.yul\":2415:2419   */\n      0x00\n        /* \"#utility.yul\":2435:2454   */\n      tag_132\n        /* \"#utility.yul\":2452:2453   */\n      dup3\n        /* \"#utility.yul\":2435:2454   */\n      tag_92\n      jump\t// in\n    tag_132:\n        /* \"#utility.yul\":2430:2454   */\n      swap2\n      pop\n        /* \"#utility.yul\":2468:2487   */\n      tag_133\n        /* \"#utility.yul\":2485:2486   */\n      dup4\n        /* \"#utility.yul\":2468:2487   */\n      tag_92\n      jump\t// in\n    tag_133:\n        /* \"#utility.yul\":2463:2487   */\n      swap3\n      pop\n        /* \"#utility.yul\":2511:2512   */\n      dup3\n        /* \"#utility.yul\":2508:2509   */\n      dup3\n        /* \"#utility.yul\":2504:2513   */\n      sub\n        /* \"#utility.yul\":2496:2513   */\n      swap1\n      pop\n        /* \"#utility.yul\":2705:2706   */\n      dup2\n        /* \"#utility.yul\":2699:2703   */\n      dup2\n        /* \"#utility.yul\":2695:2707   */\n      slt\n        /* \"#utility.yul\":2691:2692   */\n      0x00\n        /* \"#utility.yul\":2688:2689   */\n      dup5\n        /* \"#utility.yul\":2684:2693   */\n      slt\n        /* \"#utility.yul\":2680:2708   */\n      and\n        /* \"#utility.yul\":2663:2664   */\n      dup3\n        /* \"#utility.yul\":2657:2661   */\n      dup3\n        /* \"#utility.yul\":2653:2665   */\n      sgt\n        /* \"#utility.yul\":2648:2649   */\n      0x00\n        /* \"#utility.yul\":2645:2646   */\n      dup6\n        /* \"#utility.yul\":2641:2650   */\n      slt\n        /* \"#utility.yul\":2634:2651   */\n      iszero\n        /* \"#utility.yul\":2630:2666   */\n      and\n        /* \"#utility.yul\":2614:2718   */\n      or\n        /* \"#utility.yul\":2611:2741   */\n      iszero\n      tag_134\n      jumpi\n        /* \"#utility.yul\":2721:2739   */\n      tag_135\n      tag_96\n      jump\t// in\n    tag_135:\n        /* \"#utility.yul\":2611:2741   */\n    tag_134:\n        /* \"#utility.yul\":2376:2748   */\n      swap3\n      swap2\n      pop\n      pop\n      jump\t// out\n        /* \"#utility.yul\":2754:2945   */\n    tag_68:\n        /* \"#utility.yul\":2794:2797   */\n      0x00\n        /* \"#utility.yul\":2813:2833   */\n      tag_137\n        /* \"#utility.yul\":2831:2832   */\n      dup3\n        /* \"#utility.yul\":2813:2833   */\n      tag_94\n      jump\t// in\n    tag_137:\n        /* \"#utility.yul\":2808:2833   */\n      swap2\n      pop\n        /* \"#utility.yul\":2847:2867   */\n      tag_138\n        /* \"#utility.yul\":2865:2866   */\n      dup4\n        /* \"#utility.yul\":2847:2867   */\n      tag_94\n      jump\t// in\n    tag_138:\n        /* \"#utility.yul\":2842:2867   */\n      swap3\n      pop\n        /* \"#utility.yul\":2890:2891   */\n      dup3\n        /* \"#utility.yul\":2887:2888   */\n      dup3\n        /* \"#utility.yul\":2883:2892   */\n      add\n        /* \"#utility.yul\":2876:2892   */\n      swap1\n      pop\n        /* \"#utility.yul\":2911:2914   */\n      dup1\n        /* \"#utility.yul\":2908:2909   */\n      dup3\n        /* \"#utility.yul\":2905:2915   */\n      gt\n        /* \"#utility.yul\":2902:2938   */\n      iszero\n      tag_139\n      jumpi\n        /* \"#utility.yul\":2918:2936   */\n      tag_140\n      tag_96\n      jump\t// in\n    tag_140:\n        /* \"#utility.yul\":2902:2938   */\n    tag_139:\n        /* \"#utility.yul\":2754:2945   */\n      swap3\n      swap2\n      pop\n      pop\n      jump\t// out\n        /* \"#utility.yul\":2951:3145   */\n    tag_71:\n        /* \"#utility.yul\":2991:2995   */\n      0x00\n        /* \"#utility.yul\":3011:3031   */\n      tag_142\n        /* \"#utility.yul\":3029:3030   */\n      dup3\n        /* \"#utility.yul\":3011:3031   */\n      tag_94\n      jump\t// in\n    tag_142:\n        /* \"#utility.yul\":3006:3031   */\n      swap2\n      pop\n        /* \"#utility.yul\":3045:3065   */\n      tag_143\n        /* \"#utility.yul\":3063:3064   */\n      dup4\n        /* \"#utility.yul\":3045:3065   */\n      tag_94\n      jump\t// in\n    tag_143:\n        /* \"#utility.yul\":3040:3065   */\n      swap3\n      pop\n        /* \"#utility.yul\":3089:3090   */\n      dup3\n        /* \"#utility.yul\":3086:3087   */\n      dup3\n        /* \"#utility.yul\":3082:3091   */\n      sub\n        /* \"#utility.yul\":3074:3091   */\n      swap1\n      pop\n        /* \"#utility.yul\":3113:3114   */\n      dup2\n        /* \"#utility.yul\":3107:3111   */\n      dup2\n        /* \"#utility.yul\":3104:3115   */\n      gt\n        /* \"#utility.yul\":3101:3138   */\n      iszero\n      tag_144\n      jumpi\n        /* \"#utility.yul\":3118:3136   */\n      tag_145\n      tag_96\n      jump\t// in\n    tag_145:\n        /* \"#utility.yul\":3101:3138   */\n    tag_144:\n        /* \"#utility.yul\":2951:3145   */\n      swap3\n      swap2\n      pop\n      pop\n      jump\t// out\n        /* \"#utility.yul\":3151:3561   */\n    tag_74:\n        /* \"#utility.yul\":3191:3198   */\n      0x00\n        /* \"#utility.yul\":3214:3234   */\n      tag_147\n        /* \"#utility.yul\":3232:3233   */\n      dup3\n        /* \"#utility.yul\":3214:3234   */\n      tag_94\n      jump\t// in\n    tag_147:\n        /* \"#utility.yul\":3209:3234   */\n      swap2\n      pop\n        /* \"#utility.yul\":3248:3268   */\n      tag_148\n        /* \"#utility.yul\":3266:3267   */\n      dup4\n        /* \"#utility.yul\":3248:3268   */\n      tag_94\n      jump\t// in\n    tag_148:\n        /* \"#utility.yul\":3243:3268   */\n      swap3\n      pop\n        /* \"#utility.yul\":3303:3304   */\n      dup3\n        /* \"#utility.yul\":3300:3301   */\n      dup3\n        /* \"#utility.yul\":3296:3305   */\n      mul\n        /* \"#utility.yul\":3325:3355   */\n      tag_149\n        /* \"#utility.yul\":3343:3354   */\n      dup2\n        /* \"#utility.yul\":3325:3355   */\n      tag_94\n      jump\t// in\n    tag_149:\n        /* \"#utility.yul\":3314:3355   */\n      swap2\n      pop\n        /* \"#utility.yul\":3504:3505   */\n      dup3\n        /* \"#utility.yul\":3495:3502   */\n      dup3\n        /* \"#utility.yul\":3491:3506   */\n      div\n        /* \"#utility.yul\":3488:3489   */\n      dup5\n        /* \"#utility.yul\":3485:3507   */\n      eq\n        /* \"#utility.yul\":3465:3466   */\n      dup4\n        /* \"#utility.yul\":3458:3467   */\n      iszero\n        /* \"#utility.yul\":3438:3521   */\n      or\n        /* \"#utility.yul\":3415:3554   */\n      tag_150\n      jumpi\n        /* \"#utility.yul\":3534:3552   */\n      tag_151\n      tag_96\n      jump\t// in\n    tag_151:\n        /* \"#utility.yul\":3415:3554   */\n    tag_150:\n        /* \"#utility.yul\":3199:3561   */\n      pop\n        /* \"#utility.yul\":3151:3561   */\n      swap3\n      swap2\n      pop\n      pop\n      jump\t// out\n        /* \"#utility.yul\":3567:3741   */\n    tag_81:\n        /* \"#utility.yul\":3598:3599   */\n      0x00\n        /* \"#utility.yul\":3615:3634   */\n      tag_153\n        /* \"#utility.yul\":3632:3633   */\n      dup3\n        /* \"#utility.yul\":3615:3634   */\n      tag_92\n      jump\t// in\n    tag_153:\n        /* \"#utility.yul\":3610:3634   */\n      swap2\n      pop\n        /* \"#utility.yul\":3648:3667   */\n      tag_154\n        /* \"#utility.yul\":3665:3666   */\n      dup4\n        /* \"#utility.yul\":3648:3667   */\n      tag_92\n      jump\t// in\n    tag_154:\n        /* \"#utility.yul\":3643:3667   */\n      swap3\n      pop\n        /* \"#utility.yul\":3686:3687   */\n      dup3\n        /* \"#utility.yul\":3676:3711   */\n      tag_155\n      jumpi\n        /* \"#utility.yul\":3691:3709   */\n      tag_156\n      tag_97\n      jump\t// in\n    tag_156:\n        /* \"#utility.yul\":3676:3711   */\n    tag_155:\n        /* \"#utility.yul\":3733:3734   */\n      dup3\n        /* \"#utility.yul\":3730:3731   */\n      dup3\n        /* \"#utility.yul\":3725:3735   */\n      smod\n        /* \"#utility.yul\":3720:3735   */\n      swap1\n      pop\n        /* \"#utility.yul\":3567:3741   */\n      swap3\n      swap2\n      pop\n      pop\n      jump\t// out\n        /* \"#utility.yul\":3747:3932   */\n    tag_84:\n        /* \"#utility.yul\":3787:3788   */\n      0x00\n        /* \"#utility.yul\":3804:3824   */\n      tag_158\n        /* \"#utility.yul\":3822:3823   */\n      dup3\n        /* \"#utility.yul\":3804:3824   */\n      tag_94\n      jump\t// in\n    tag_158:\n        /* \"#utility.yul\":3799:3824   */\n      swap2\n      pop\n        /* \"#utility.yul\":3838:3858   */\n      tag_159\n        /* \"#utility.yul\":3856:3857   */\n      dup4\n        /* \"#utility.yul\":3838:3858   */\n      tag_94\n      jump\t// in\n    tag_159:\n        /* \"#utility.yul\":3833:3858   */\n      swap3\n      pop\n        /* \"#utility.yul\":3877:3878   */\n      dup3\n        /* \"#utility.yul\":3867:3902   */\n      tag_160\n      jumpi\n        /* \"#utility.yul\":3882:3900   */\n      tag_161\n      tag_97\n      jump\t// in\n    tag_161:\n        /* \"#utility.yul\":3867:3902   */\n    tag_160:\n        /* \"#utility.yul\":3924:3925   */\n      dup3\n        /* \"#utility.yul\":3921:3922   */\n      dup3\n        /* \"#utility.yul\":3917:3926   */\n      div\n        /* \"#utility.yul\":3912:3926   */\n      swap1\n      pop\n        /* \"#utility.yul\":3747:3932   */\n      swap3\n      swap2\n      pop\n      pop\n      jump\t// out\n        /* \"#utility.yul\":3938:4313   */\n    tag_88:\n        /* \"#utility.yul\":3977:3980   */\n      0x00\n        /* \"#utility.yul\":3996:4015   */\n      tag_163\n        /* \"#utility.yul\":4013:4014   */\n      dup3\n        /* \"#utility.yul\":3996:4015   */\n      tag_92\n      jump\t// in\n    tag_163:\n        /* \"#utility.yul\":3991:4015   */\n      swap2\n      pop\n        /* \"#utility.yul\":4029:4048   */\n      tag_164\n        /* \"#utility.yul\":4046:4047   */\n      dup4\n        /* \"#utility.yul\":4029:4048   */\n      tag_92\n      jump\t// in\n    tag_164:\n        /* \"#utility.yul\":4024:4048   */\n      swap3\n      pop\n        /* \"#utility.yul\":4071:4072   */\n      dup3\n        /* \"#utility.yul\":4068:4069   */\n      dup3\n        /* \"#utility.yul\":4064:4073   */\n      add\n        /* \"#utility.yul\":4057:4073   */\n      swap1\n      pop\n        /* \"#utility.yul\":4269:4270   */\n      dup3\n        /* \"#utility.yul\":4264:4267   */\n      dup2\n        /* \"#utility.yul\":4260:4271   */\n      slt\n        /* \"#utility.yul\":4253:4272   */\n      iszero\n        /* \"#utility.yul\":4249:4250   */\n      0x00\n        /* \"#utility.yul\":4246:4247   */\n      dup4\n        /* \"#utility.yul\":4242:4251   */\n      slt\n        /* \"#utility.yul\":4238:4273   */\n      and\n        /* \"#utility.yul\":4221:4222   */\n      dup4\n        /* \"#utility.yul\":4216:4219   */\n      dup3\n        /* \"#utility.yul\":4212:4223   */\n      slt\n        /* \"#utility.yul\":4207:4208   */\n      0x00\n        /* \"#utility.yul\":4204:4205   */\n      dup5\n        /* \"#utility.yul\":4200:4209   */\n      slt\n        /* \"#utility.yul\":4193:4210   */\n      iszero\n        /* \"#utility.yul\":4189:4224   */\n      and\n        /* \"#utility.yul\":4173:4283   */\n      or\n        /* \"#utility.yul\":4170:4306   */\n      iszero\n      tag_165\n      jumpi\n        /* \"#utility.yul\":4286:4304   */\n      tag_166\n      tag_96\n      jump\t// in\n    tag_166:\n        /* \"#utility.yul\":4170:4306   */\n    tag_165:\n        /* \"#utility.yul\":3938:4313   */\n      swap3\n      swap2\n      pop\n      pop\n      jump\t// out\n\n    auxdata: 0xa264697066735822122018c8a04a105c419960633f5b228948d9cf44927fff6145164fd61dcccf270b5964736f6c634300081a0033\n}\n",
				"bytecode": {
					"linkReferences": {},
					"object": "608060405260c85f5561019060015560c860025561032060035560646005556102bc60065561012c60075560c86008553480156039575f80fd5b50610718806100475f395ff3fe608060405234801561000f575f80fd5b50600436106100b2575f3560e01c8063aa2d72031161006f578063aa2d72031461016a578063c4a5140014610188578063c78ad77f146101a6578063d1e42eb2146101c4578063d4d30f2c146101e2578063ec59712814610200576100b2565b8063011285da146100b65780632ae93f50146100d45780633205f5fc146100f257806334a50ba0146101105780634d3e46e41461012e5780639c728aa51461014c575b5f80fd5b6100be61021e565b6040516100cb91906103a8565b60405180910390f35b6100dc610238565b6040516100e991906103d9565b60405180910390f35b6100fa610253565b60405161010791906103a8565b60405180910390f35b61011861026d565b60405161012591906103a8565b60405180910390f35b610136610287565b60405161014391906103d9565b60405180910390f35b6101546102a2565b60405161016191906103d9565b60405180910390f35b6101726102bd565b60405161017f91906103d9565b60405180910390f35b6101906102d8565b60405161019d91906103d9565b60405180910390f35b6101ae61030d565b6040516101bb91906103a8565b60405180910390f35b6101cc610327565b6040516101d991906103d9565b60405180910390f35b6101ea610342565b6040516101f791906103a8565b60405180910390f35b610208610376565b60405161021591906103a8565b60405180910390f35b5f806001545f5461022f919061041f565b90508091505090565b5f8060085460055461024a91906104c2565b90508091505090565b5f806001545f5461026491906104f2565b90508091505090565b5f806001545f5461027e919061055a565b90508091505090565b5f80600554600854610299919061059a565b90508091505090565b5f806007546006546102b491906105cd565b90508091505090565b5f806007546006546102cf9190610600565b90508091505090565b5f806008546007546102ea9190610600565b6006546005546102fa919061059a565b610304919061059a565b90508091505090565b5f806001545f5461031e9190610641565b90508091505090565b5f806008546005546103399190610671565b90508091505090565b5f80600354600254610354919061041f565b6001545f5461036391906106a1565b61036d919061055a565b90508091505090565b5f806001545f5461038791906106a1565b90508091505090565b5f819050919050565b6103a281610390565b82525050565b5f6020820190506103bb5f830184610399565b92915050565b5f819050919050565b6103d3816103c1565b82525050565b5f6020820190506103ec5f8301846103ca565b92915050565b7f4e487b71000000000000000000000000000000000000000000000000000000005f52601160045260245ffd5b5f61042982610390565b915061043483610390565b925082820261044281610390565b91507f800000000000000000000000000000000000000000000000000000000000000084145f84121615610479576104786103f2565b5b828205841483151761048e5761048d6103f2565b5b5092915050565b7f4e487b71000000000000000000000000000000000000000000000000000000005f52601260045260245ffd5b5f6104cc826103c1565b91506104d7836103c1565b9250826104e7576104e6610495565b5b828206905092915050565b5f6104fc82610390565b915061050783610390565b92508261051757610516610495565b5b60015f0383147f80000000000000000000000000000000000000000000000000000000000000008314161561054f5761054e6103f2565b5b828205905092915050565b5f61056482610390565b915061056f83610390565b925082820390508181125f8412168282135f851215161715610594576105936103f2565b5b92915050565b5f6105a4826103c1565b91506105af836103c1565b92508282019050808211156105c7576105c66103f2565b5b92915050565b5f6105d7826103c1565b91506105e2836103c1565b92508282039050818111156105fa576105f96103f2565b5b92915050565b5f61060a826103c1565b9150610615836103c1565b9250828202610623816103c1565b9150828204841483151761063a576106396103f2565b5b5092915050565b5f61064b82610390565b915061065683610390565b92508261066657610665610495565b5b828207905092915050565b5f61067b826103c1565b9150610686836103c1565b92508261069657610695610495565b5b828204905092915050565b5f6106ab82610390565b91506106b683610390565b92508282019050828112155f8312168382125f8412151617156106dc576106db6103f2565b5b9291505056fea264697066735822122018c8a04a105c419960633f5b228948d9cf44927fff6145164fd61dcccf270b5964736f6c634300081a0033",
					"opcodes": "PUSH1 0x80 PUSH1 0x40 MSTORE PUSH1 0xC8 PUSH0 SSTORE PUSH2 0x190 PUSH1 0x1 SSTORE PUSH1 0xC8 PUSH1 0x2 SSTORE PUSH2 0x320 PUSH1 0x3 SSTORE PUSH1 0x64 PUSH1 0x5 SSTORE PUSH2 0x2BC PUSH1 0x6 SSTORE PUSH2 0x12C PUSH1 0x7 SSTORE PUSH1 0xC8 PUSH1 0x8 SSTORE CALLVALUE DUP1 ISZERO PUSH1 0x39 JUMPI PUSH0 DUP1 REVERT JUMPDEST POP PUSH2 0x718 DUP1 PUSH2 0x47 PUSH0 CODECOPY PUSH0 RETURN INVALID PUSH1 0x80 PUSH1 0x40 MSTORE CALLVALUE DUP1 ISZERO PUSH2 0xF JUMPI PUSH0 DUP1 REVERT JUMPDEST POP PUSH1 0x4 CALLDATASIZE LT PUSH2 0xB2 JUMPI PUSH0 CALLDATALOAD PUSH1 0xE0 SHR DUP1 PUSH4 0xAA2D7203 GT PUSH2 0x6F JUMPI DUP1 PUSH4 0xAA2D7203 EQ PUSH2 0x16A JUMPI DUP1 PUSH4 0xC4A51400 EQ PUSH2 0x188 JUMPI DUP1 PUSH4 0xC78AD77F EQ PUSH2 0x1A6 JUMPI DUP1 PUSH4 0xD1E42EB2 EQ PUSH2 0x1C4 JUMPI DUP1 PUSH4 0xD4D30F2C EQ PUSH2 0x1E2 JUMPI DUP1 PUSH4 0xEC597128 EQ PUSH2 0x200 JUMPI PUSH2 0xB2 JUMP JUMPDEST DUP1 PUSH4 0x11285DA EQ PUSH2 0xB6 JUMPI DUP1 PUSH4 0x2AE93F50 EQ PUSH2 0xD4 JUMPI DUP1 PUSH4 0x3205F5FC EQ PUSH2 0xF2 JUMPI DUP1 PUSH4 0x34A50BA0 EQ PUSH2 0x110 JUMPI DUP1 PUSH4 0x4D3E46E4 EQ PUSH2 0x12E JUMPI DUP1 PUSH4 0x9C728AA5 EQ PUSH2 0x14C JUMPI JUMPDEST PUSH0 DUP1 REVERT JUMPDEST PUSH2 0xBE PUSH2 0x21E JUMP JUMPDEST PUSH1 0x40 MLOAD PUSH2 0xCB SWAP2 SWAP1 PUSH2 0x3A8 JUMP JUMPDEST PUSH1 0x40 MLOAD DUP1 SWAP2 SUB SWAP1 RETURN JUMPDEST PUSH2 0xDC PUSH2 0x238 JUMP JUMPDEST PUSH1 0x40 MLOAD PUSH2 0xE9 SWAP2 SWAP1 PUSH2 0x3D9 JUMP JUMPDEST PUSH1 0x40 MLOAD DUP1 SWAP2 SUB SWAP1 RETURN JUMPDEST PUSH2 0xFA PUSH2 0x253 JUMP JUMPDEST PUSH1 0x40 MLOAD PUSH2 0x107 SWAP2 SWAP1 PUSH2 0x3A8 JUMP JUMPDEST PUSH1 0x40 MLOAD DUP1 SWAP2 SUB SWAP1 RETURN JUMPDEST PUSH2 0x118 PUSH2 0x26D JUMP JUMPDEST PUSH1 0x40 MLOAD PUSH2 0x125 SWAP2 SWAP1 PUSH2 0x3A8 JUMP JUMPDEST PUSH1 0x40 MLOAD DUP1 SWAP2 SUB SWAP1 RETURN JUMPDEST PUSH2 0x136 PUSH2 0x287 JUMP JUMPDEST PUSH1 0x40 MLOAD PUSH2 0x143 SWAP2 SWAP1 PUSH2 0x3D9 JUMP JUMPDEST PUSH1 0x40 MLOAD DUP1 SWAP2 SUB SWAP1 RETURN JUMPDEST PUSH2 0x154 PUSH2 0x2A2 JUMP JUMPDEST PUSH1 0x40 MLOAD PUSH2 0x161 SWAP2 SWAP1 PUSH2 0x3D9 JUMP JUMPDEST PUSH1 0x40 MLOAD DUP1 SWAP2 SUB SWAP1 RETURN JUMPDEST PUSH2 0x172 PUSH2 0x2BD JUMP JUMPDEST PUSH1 0x40 MLOAD PUSH2 0x17F SWAP2 SWAP1 PUSH2 0x3D9 JUMP JUMPDEST PUSH1 0x40 MLOAD DUP1 SWAP2 SUB SWAP1 RETURN JUMPDEST PUSH2 0x190 PUSH2 0x2D8 JUMP JUMPDEST PUSH1 0x40 MLOAD PUSH2 0x19D SWAP2 SWAP1 PUSH2 0x3D9 JUMP JUMPDEST PUSH1 0x40 MLOAD DUP1 SWAP2 SUB SWAP1 RETURN JUMPDEST PUSH2 0x1AE PUSH2 0x30D JUMP JUMPDEST PUSH1 0x40 MLOAD PUSH2 0x1BB SWAP2 SWAP1 PUSH2 0x3A8 JUMP JUMPDEST PUSH1 0x40 MLOAD DUP1 SWAP2 SUB SWAP1 RETURN JUMPDEST PUSH2 0x1CC PUSH2 0x327 JUMP JUMPDEST PUSH1 0x40 MLOAD PUSH2 0x1D9 SWAP2 SWAP1 PUSH2 0x3D9 JUMP JUMPDEST PUSH1 0x40 MLOAD DUP1 SWAP2 SUB SWAP1 RETURN JUMPDEST PUSH2 0x1EA PUSH2 0x342 JUMP JUMPDEST PUSH1 0x40 MLOAD PUSH2 0x1F7 SWAP2 SWAP1 PUSH2 0x3A8 JUMP JUMPDEST PUSH1 0x40 MLOAD DUP1 SWAP2 SUB SWAP1 RETURN JUMPDEST PUSH2 0x208 PUSH2 0x376 JUMP JUMPDEST PUSH1 0x40 MLOAD PUSH2 0x215 SWAP2 SWAP1 PUSH2 0x3A8 JUMP JUMPDEST PUSH1 0x40 MLOAD DUP1 SWAP2 SUB SWAP1 RETURN JUMPDEST PUSH0 DUP1 PUSH1 0x1 SLOAD PUSH0 SLOAD PUSH2 0x22F SWAP2 SWAP1 PUSH2 0x41F JUMP JUMPDEST SWAP1 POP DUP1 SWAP2 POP POP SWAP1 JUMP JUMPDEST PUSH0 DUP1 PUSH1 0x8 SLOAD PUSH1 0x5 SLOAD PUSH2 0x24A SWAP2 SWAP1 PUSH2 0x4C2 JUMP JUMPDEST SWAP1 POP DUP1 SWAP2 POP POP SWAP1 JUMP JUMPDEST PUSH0 DUP1 PUSH1 0x1 SLOAD PUSH0 SLOAD PUSH2 0x264 SWAP2 SWAP1 PUSH2 0x4F2 JUMP JUMPDEST SWAP1 POP DUP1 SWAP2 POP POP SWAP1 JUMP JUMPDEST PUSH0 DUP1 PUSH1 0x1 SLOAD PUSH0 SLOAD PUSH2 0x27E SWAP2 SWAP1 PUSH2 0x55A JUMP JUMPDEST SWAP1 POP DUP1 SWAP2 POP POP SWAP1 JUMP JUMPDEST PUSH0 DUP1 PUSH1 0x5 SLOAD PUSH1 0x8 SLOAD PUSH2 0x299 SWAP2 SWAP1 PUSH2 0x59A JUMP JUMPDEST SWAP1 POP DUP1 SWAP2 POP POP SWAP1 JUMP JUMPDEST PUSH0 DUP1 PUSH1 0x7 SLOAD PUSH1 0x6 SLOAD PUSH2 0x2B4 SWAP2 SWAP1 PUSH2 0x5CD JUMP JUMPDEST SWAP1 POP DUP1 SWAP2 POP POP SWAP1 JUMP JUMPDEST PUSH0 DUP1 PUSH1 0x7 SLOAD PUSH1 0x6 SLOAD PUSH2 0x2CF SWAP2 SWAP1 PUSH2 0x600 JUMP JUMPDEST SWAP1 POP DUP1 SWAP2 POP POP SWAP1 JUMP JUMPDEST PUSH0 DUP1 PUSH1 0x8 SLOAD PUSH1 0x7 SLOAD PUSH2 0x2EA SWAP2 SWAP1 PUSH2 0x600 JUMP JUMPDEST PUSH1 0x6 SLOAD PUSH1 0x5 SLOAD PUSH2 0x2FA SWAP2 SWAP1 PUSH2 0x59A JUMP JUMPDEST PUSH2 0x304 SWAP2 SWAP1 PUSH2 0x59A JUMP JUMPDEST SWAP1 POP DUP1 SWAP2 POP POP SWAP1 JUMP JUMPDEST PUSH0 DUP1 PUSH1 0x1 SLOAD PUSH0 SLOAD PUSH2 0x31E SWAP2 SWAP1 PUSH2 0x641 JUMP JUMPDEST SWAP1 POP DUP1 SWAP2 POP POP SWAP1 JUMP JUMPDEST PUSH0 DUP1 PUSH1 0x8 SLOAD PUSH1 0x5 SLOAD PUSH2 0x339 SWAP2 SWAP1 PUSH2 0x671 JUMP JUMPDEST SWAP1 POP DUP1 SWAP2 POP POP SWAP1 JUMP JUMPDEST PUSH0 DUP1 PUSH1 0x3 SLOAD PUSH1 0x2 SLOAD PUSH2 0x354 SWAP2 SWAP1 PUSH2 0x41F JUMP JUMPDEST PUSH1 0x1 SLOAD PUSH0 SLOAD PUSH2 0x363 SWAP2 SWAP1 PUSH2 0x6A1 JUMP JUMPDEST PUSH2 0x36D SWAP2 SWAP1 PUSH2 0x55A JUMP JUMPDEST SWAP1 POP DUP1 SWAP2 POP POP SWAP1 JUMP JUMPDEST PUSH0 DUP1 PUSH1 0x1 SLOAD PUSH0 SLOAD PUSH2 0x387 SWAP2 SWAP1 PUSH2 0x6A1 JUMP JUMPDEST SWAP1 POP DUP1 SWAP2 POP POP SWAP1 JUMP JUMPDEST PUSH0 DUP2 SWAP1 POP SWAP2 SWAP1 POP JUMP JUMPDEST PUSH2 0x3A2 DUP2 PUSH2 0x390 JUMP JUMPDEST DUP3 MSTORE POP POP JUMP JUMPDEST PUSH0 PUSH1 0x20 DUP3 ADD SWAP1 POP PUSH2 0x3BB PUSH0 DUP4 ADD DUP5 PUSH2 0x399 JUMP JUMPDEST SWAP3 SWAP2 POP POP JUMP JUMPDEST PUSH0 DUP2 SWAP1 POP SWAP2 SWAP1 POP JUMP JUMPDEST PUSH2 0x3D3 DUP2 PUSH2 0x3C1 JUMP JUMPDEST DUP3 MSTORE POP POP JUMP JUMPDEST PUSH0 PUSH1 0x20 DUP3 ADD SWAP1 POP PUSH2 0x3EC PUSH0 DUP4 ADD DUP5 PUSH2 0x3CA JUMP JUMPDEST SWAP3 SWAP2 POP POP JUMP JUMPDEST PUSH32 0x4E487B7100000000000000000000000000000000000000000000000000000000 PUSH0 MSTORE PUSH1 0x11 PUSH1 0x4 MSTORE PUSH1 0x24 PUSH0 REVERT JUMPDEST PUSH0 PUSH2 0x429 DUP3 PUSH2 0x390 JUMP JUMPDEST SWAP2 POP PUSH2 0x434 DUP4 PUSH2 0x390 JUMP JUMPDEST SWAP3 POP DUP3 DUP3 MUL PUSH2 0x442 DUP2 PUSH2 0x390 JUMP JUMPDEST SWAP2 POP PUSH32 0x8000000000000000000000000000000000000000000000000000000000000000 DUP5 EQ PUSH0 DUP5 SLT AND ISZERO PUSH2 0x479 JUMPI PUSH2 0x478 PUSH2 0x3F2 JUMP JUMPDEST JUMPDEST DUP3 DUP3 SDIV DUP5 EQ DUP4 ISZERO OR PUSH2 0x48E JUMPI PUSH2 0x48D PUSH2 0x3F2 JUMP JUMPDEST JUMPDEST POP SWAP3 SWAP2 POP POP JUMP JUMPDEST PUSH32 0x4E487B7100000000000000000000000000000000000000000000000000000000 PUSH0 MSTORE PUSH1 0x12 PUSH1 0x4 MSTORE PUSH1 0x24 PUSH0 REVERT JUMPDEST PUSH0 PUSH2 0x4CC DUP3 PUSH2 0x3C1 JUMP JUMPDEST SWAP2 POP PUSH2 0x4D7 DUP4 PUSH2 0x3C1 JUMP JUMPDEST SWAP3 POP DUP3 PUSH2 0x4E7 JUMPI PUSH2 0x4E6 PUSH2 0x495 JUMP JUMPDEST JUMPDEST DUP3 DUP3 MOD SWAP1 POP SWAP3 SWAP2 POP POP JUMP JUMPDEST PUSH0 PUSH2 0x4FC DUP3 PUSH2 0x390 JUMP JUMPDEST SWAP2 POP PUSH2 0x507 DUP4 PUSH2 0x390 JUMP JUMPDEST SWAP3 POP DUP3 PUSH2 0x517 JUMPI PUSH2 0x516 PUSH2 0x495 JUMP JUMPDEST JUMPDEST PUSH1 0x1 PUSH0 SUB DUP4 EQ PUSH32 0x8000000000000000000000000000000000000000000000000000000000000000 DUP4 EQ AND ISZERO PUSH2 0x54F JUMPI PUSH2 0x54E PUSH2 0x3F2 JUMP JUMPDEST JUMPDEST DUP3 DUP3 SDIV SWAP1 POP SWAP3 SWAP2 POP POP JUMP JUMPDEST PUSH0 PUSH2 0x564 DUP3 PUSH2 0x390 JUMP JUMPDEST SWAP2 POP PUSH2 0x56F DUP4 PUSH2 0x390 JUMP JUMPDEST SWAP3 POP DUP3 DUP3 SUB SWAP1 POP DUP2 DUP2 SLT PUSH0 DUP5 SLT AND DUP3 DUP3 SGT PUSH0 DUP6 SLT ISZERO AND OR ISZERO PUSH2 0x594 JUMPI PUSH2 0x593 PUSH2 0x3F2 JUMP JUMPDEST JUMPDEST SWAP3 SWAP2 POP POP JUMP JUMPDEST PUSH0 PUSH2 0x5A4 DUP3 PUSH2 0x3C1 JUMP JUMPDEST SWAP2 POP PUSH2 0x5AF DUP4 PUSH2 0x3C1 JUMP JUMPDEST SWAP3 POP DUP3 DUP3 ADD SWAP1 POP DUP1 DUP3 GT ISZERO PUSH2 0x5C7 JUMPI PUSH2 0x5C6 PUSH2 0x3F2 JUMP JUMPDEST JUMPDEST SWAP3 SWAP2 POP POP JUMP JUMPDEST PUSH0 PUSH2 0x5D7 DUP3 PUSH2 0x3C1 JUMP JUMPDEST SWAP2 POP PUSH2 0x5E2 DUP4 PUSH2 0x3C1 JUMP JUMPDEST SWAP3 POP DUP3 DUP3 SUB SWAP1 POP DUP2 DUP2 GT ISZERO PUSH2 0x5FA JUMPI PUSH2 0x5F9 PUSH2 0x3F2 JUMP JUMPDEST JUMPDEST SWAP3 SWAP2 POP POP JUMP JUMPDEST PUSH0 PUSH2 0x60A DUP3 PUSH2 0x3C1 JUMP JUMPDEST SWAP2 POP PUSH2 0x615 DUP4 PUSH2 0x3C1 JUMP JUMPDEST SWAP3 POP DUP3 DUP3 MUL PUSH2 0x623 DUP2 PUSH2 0x3C1 JUMP JUMPDEST SWAP2 POP DUP3 DUP3 DIV DUP5 EQ DUP4 ISZERO OR PUSH2 0x63A JUMPI PUSH2 0x639 PUSH2 0x3F2 JUMP JUMPDEST JUMPDEST POP SWAP3 SWAP2 POP POP JUMP JUMPDEST PUSH0 PUSH2 0x64B DUP3 PUSH2 0x390 JUMP JUMPDEST SWAP2 POP PUSH2 0x656 DUP4 PUSH2 0x390 JUMP JUMPDEST SWAP3 POP DUP3 PUSH2 0x666 JUMPI PUSH2 0x665 PUSH2 0x495 JUMP JUMPDEST JUMPDEST DUP3 DUP3 SMOD SWAP1 POP SWAP3 SWAP2 POP POP JUMP JUMPDEST PUSH0 PUSH2 0x67B DUP3 PUSH2 0x3C1 JUMP JUMPDEST SWAP2 POP PUSH2 0x686 DUP4 PUSH2 0x3C1 JUMP JUMPDEST SWAP3 POP DUP3 PUSH2 0x696 JUMPI PUSH2 0x695 PUSH2 0x495 JUMP JUMPDEST JUMPDEST DUP3 DUP3 DIV SWAP1 POP SWAP3 SWAP2 POP POP JUMP JUMPDEST PUSH0 PUSH2 0x6AB DUP3 PUSH2 0x390 JUMP JUMPDEST SWAP2 POP PUSH2 0x6B6 DUP4 PUSH2 0x390 JUMP JUMPDEST SWAP3 POP DUP3 DUP3 ADD SWAP1 POP DUP3 DUP2 SLT ISZERO PUSH0 DUP4 SLT AND DUP4 DUP3 SLT PUSH0 DUP5 SLT ISZERO AND OR ISZERO PUSH2 0x6DC JUMPI PUSH2 0x6DB PUSH2 0x3F2 JUMP JUMPDEST JUMPDEST SWAP3 SWAP2 POP POP JUMP INVALID LOG2 PUSH5 0x6970667358 0x22 SLT KECCAK256 XOR 0xC8 LOG0 BLOBBASEFEE LT TLOAD COINBASE SWAP10 PUSH1 0x63 EXTCODEHASH JUMPDEST 0x22 DUP10 BASEFEE 0xD9 0xCF PREVRANDAO SWAP3 PUSH32 0xFF6145164FD61DCCCF270B5964736F6C634300081A0033000000000000000000 "
				},
				"gasEstimates": {
					"creation": {
						"codeDepositCost": "363200",
						"executionCost": "177244",
						"totalCost": "540444"
					},
					"external": {
						"adding()": "infinite",
						"addition()": "infinite",
						"addition1()": "infinite",
						"division()": "infinite",
						"division1()": "infinite",
						"multiplication()": "infinite",
						"multiplication1()": "infinite",
						"percentage()": "infinite",
						"percentage1()": "infinite",
						"subcration()": "infinite",
						"subcration1()": "infinite",
						"subting()": "infinite"
					}
				},
				"methodIdentifiers": {
					"adding()": "d4d30f2c",
					"addition()": "ec597128",
					"addition1()": "4d3e46e4",
					"division()": "3205f5fc",
					"division1()": "d1e42eb2",
					"multiplication()": "011285da",
					"multiplication1()": "aa2d7203",
					"percentage()": "c78ad77f",
					"percentage1()": "2ae93f50",
					"subcration()": "34a50ba0",
					"subcration1()": "9c728aa5",
					"subting()": "c4a51400"
				}
			},
			"storageLayout": {
				"storage": [
					{
						"astId": 4,
						"contract": "contracts/first program.sol:multipicatiuon",
						"label": "a",
						"offset": 0,
						"slot": "0",
						"type": "t_int256"
					},
					{
						"astId": 7,
						"contract": "contracts/first program.sol:multipicatiuon",
						"label": "b",
						"offset": 0,
						"slot": "1",
						"type": "t_int256"
					},
					{
						"astId": 10,
						"contract": "contracts/first program.sol:multipicatiuon",
						"label": "c",
						"offset": 0,
						"slot": "2",
						"type": "t_int256"
					},
					{
						"astId": 13,
						"contract": "contracts/first program.sol:multipicatiuon",
						"label": "d",
						"offset": 0,
						"slot": "3",
						"type": "t_int256"
					},
					{
						"astId": 15,
						"contract": "contracts/first program.sol:multipicatiuon",
						"label": "z",
						"offset": 0,
						"slot": "4",
						"type": "t_int256"
					},
					{
						"astId": 18,
						"contract": "contracts/first program.sol:multipicatiuon",
						"label": "e",
						"offset": 0,
						"slot": "5",
						"type": "t_uint256"
					},
					{
						"astId": 21,
						"contract": "contracts/first program.sol:multipicatiuon",
						"label": "f",
						"offset": 0,
						"slot": "6",
						"type": "t_uint256"
					},
					{
						"astId": 24,
						"contract": "contracts/first program.sol:multipicatiuon",
						"label": "g",
						"offset": 0,
						"slot": "7",
						"type": "t_uint256"
					},
					{
						"astId": 27,
						"contract": "contracts/first program.sol:multipicatiuon",
						"label": "h",
						"offset": 0,
						"slot": "8",
						"type": "t_uint256"
					},
					{
						"astId": 29,
						"contract": "contracts/first program.sol:multipicatiuon",
						"label": "y",
						"offset": 0,
						"slot": "9",
						"type": "t_uint256"
					}
				],
				"types": {
					"t_int256": {
						"encoding": "inplace",
						"label": "int256",
						"numberOfBytes": "32"
					},
					"t_uint256": {
						"encoding": "inplace",
						"label": "uint256",
						"numberOfBytes": "32"
					}
				}
			},
			"userdoc": {
				"kind": "user",
				"methods": {},
				"version": 1
			}
		}
	}
}