{
	"contracts/todo.sol": {
		"todo": {
			"abi": [
				{
					"inputs": [
						{
							"internalType": "uint256",
							"name": "_index",
							"type": "uint256"
						}
					],
					"name": "completed",
					"outputs": [],
					"stateMutability": "nonpayable",
					"type": "function"
				},
				{
					"inputs": [
						{
							"internalType": "string",
							"name": "_text",
							"type": "string"
						}
					],
					"name": "create",
					"outputs": [],
					"stateMutability": "nonpayable",
					"type": "function"
				},
				{
					"inputs": [
						{
							"internalType": "uint256",
							"name": "_index",
							"type": "uint256"
						}
					],
					"name": "get",
					"outputs": [
						{
							"internalType": "string",
							"name": "text",
							"type": "string"
						},
						{
							"internalType": "bool",
							"name": "completed",
							"type": "bool"
						}
					],
					"stateMutability": "view",
					"type": "function"
				},
				{
					"inputs": [
						{
							"internalType": "uint256",
							"name": "",
							"type": "uint256"
						}
					],
					"name": "todos",
					"outputs": [
						{
							"internalType": "string",
							"name": "text",
							"type": "string"
						},
						{
							"internalType": "bool",
							"name": "completed",
							"type": "bool"
						}
					],
					"stateMutability": "view",
					"type": "function"
				}
			],
			"devdoc": {
				"kind": "dev",
				"methods": {},
				"version": 1
			},
			"evm": {
				"assembly": "    /* \"contracts/todo.sol\":76:744  contract todo{... */\n  mstore(0x40, 0x80)\n  callvalue\n  dup1\n  iszero\n  tag_1\n  jumpi\n  0x00\n  dup1\n  revert\ntag_1:\n  pop\n  dataSize(sub_0)\n  dup1\n  dataOffset(sub_0)\n  0x00\n  codecopy\n  0x00\n  return\nstop\n\nsub_0: assembly {\n        /* \"contracts/todo.sol\":76:744  contract todo{... */\n      mstore(0x40, 0x80)\n      callvalue\n      dup1\n      iszero\n      tag_1\n      jumpi\n      0x00\n      dup1\n      revert\n    tag_1:\n      pop\n      jumpi(tag_2, lt(calldatasize, 0x04))\n      shr(0xe0, calldataload(0x00))\n      dup1\n      0x9507d39a\n      eq\n      tag_3\n      jumpi\n      dup1\n      0xb6a46b3b\n      eq\n      tag_4\n      jumpi\n      dup1\n      0xbc8bc2b4\n      eq\n      tag_5\n      jumpi\n      dup1\n      0xc0cca5ef\n      eq\n      tag_6\n      jumpi\n    tag_2:\n      0x00\n      dup1\n      revert\n        /* \"contracts/todo.sol\":423:601  function get(uint _index) public view returns (string memory text, bool completed){... */\n    tag_3:\n      tag_7\n      0x04\n      dup1\n      calldatasize\n      sub\n      dup2\n      add\n      swap1\n      tag_8\n      swap2\n      swap1\n      tag_9\n      jump\t// in\n    tag_8:\n      tag_10\n      jump\t// in\n    tag_7:\n      mload(0x40)\n      tag_11\n      swap3\n      swap2\n      swap1\n      tag_12\n      jump\t// in\n    tag_11:\n      mload(0x40)\n      dup1\n      swap2\n      sub\n      swap1\n      return\n        /* \"contracts/todo.sol\":194:417  function create(string calldata _text) public {... */\n    tag_4:\n      tag_13\n      0x04\n      dup1\n      calldatasize\n      sub\n      dup2\n      add\n      swap1\n      tag_14\n      swap2\n      swap1\n      tag_15\n      jump\t// in\n    tag_14:\n      tag_16\n      jump\t// in\n    tag_13:\n      stop\n        /* \"contracts/todo.sol\":168:187  todo[] public todos */\n    tag_5:\n      tag_17\n      0x04\n      dup1\n      calldatasize\n      sub\n      dup2\n      add\n      swap1\n      tag_18\n      swap2\n      swap1\n      tag_9\n      jump\t// in\n    tag_18:\n      tag_19\n      jump\t// in\n    tag_17:\n      mload(0x40)\n      tag_20\n      swap3\n      swap2\n      swap1\n      tag_12\n      jump\t// in\n    tag_20:\n      mload(0x40)\n      dup1\n      swap2\n      sub\n      swap1\n      return\n        /* \"contracts/todo.sol\":607:741  function completed(uint _index)public {... */\n    tag_6:\n      tag_21\n      0x04\n      dup1\n      calldatasize\n      sub\n      dup2\n      add\n      swap1\n      tag_22\n      swap2\n      swap1\n      tag_9\n      jump\t// in\n    tag_22:\n      tag_23\n      jump\t// in\n    tag_21:\n      stop\n        /* \"contracts/todo.sol\":423:601  function get(uint _index) public view returns (string memory text, bool completed){... */\n    tag_10:\n        /* \"contracts/todo.sol\":470:488  string memory text */\n      0x60\n        /* \"contracts/todo.sol\":490:504  bool completed */\n      0x00\n        /* \"contracts/todo.sol\":516:533  todo storage todo */\n      dup1\n        /* \"contracts/todo.sol\":536:541  todos */\n      0x00\n        /* \"contracts/todo.sol\":542:548  _index */\n      dup5\n        /* \"contracts/todo.sol\":536:549  todos[_index] */\n      dup2\n      sload\n      dup2\n      lt\n      tag_25\n      jumpi\n      tag_26\n      tag_27\n      jump\t// in\n    tag_26:\n    tag_25:\n      swap1\n      0x00\n      mstore\n      keccak256(0x00, 0x20)\n      swap1\n      0x02\n      mul\n      add\n        /* \"contracts/todo.sol\":516:549  todo storage todo = todos[_index] */\n      swap1\n      pop\n        /* \"contracts/todo.sol\":568:572  todo */\n      dup1\n        /* \"contracts/todo.sol\":568:577  todo.text */\n      0x00\n      add\n        /* \"contracts/todo.sol\":578:582  todo */\n      dup2\n        /* \"contracts/todo.sol\":578:592  todo.completed */\n      0x01\n      add\n      0x00\n      swap1\n      sload\n      swap1\n      0x0100\n      exp\n      swap1\n      div\n      0xff\n      and\n        /* \"contracts/todo.sol\":560:593  return (todo.text,todo.completed) */\n      dup2\n      dup1\n      sload\n      tag_29\n      swap1\n      tag_30\n      jump\t// in\n    tag_29:\n      dup1\n      0x1f\n      add\n      0x20\n      dup1\n      swap2\n      div\n      mul\n      0x20\n      add\n      mload(0x40)\n      swap1\n      dup2\n      add\n      0x40\n      mstore\n      dup1\n      swap3\n      swap2\n      swap1\n      dup2\n      dup2\n      mstore\n      0x20\n      add\n      dup3\n      dup1\n      sload\n      tag_31\n      swap1\n      tag_30\n      jump\t// in\n    tag_31:\n      dup1\n      iszero\n      tag_32\n      jumpi\n      dup1\n      0x1f\n      lt\n      tag_33\n      jumpi\n      0x0100\n      dup1\n      dup4\n      sload\n      div\n      mul\n      dup4\n      mstore\n      swap2\n      0x20\n      add\n      swap2\n      jump(tag_32)\n    tag_33:\n      dup3\n      add\n      swap2\n      swap1\n      0x00\n      mstore\n      keccak256(0x00, 0x20)\n      swap1\n    tag_34:\n      dup2\n      sload\n      dup2\n      mstore\n      swap1\n      0x01\n      add\n      swap1\n      0x20\n      add\n      dup1\n      dup4\n      gt\n      tag_34\n      jumpi\n      dup3\n      swap1\n      sub\n      0x1f\n      and\n      dup3\n      add\n      swap2\n    tag_32:\n      pop\n      pop\n      pop\n      pop\n      pop\n      swap2\n      pop\n      swap3\n      pop\n      swap3\n      pop\n      pop\n        /* \"contracts/todo.sol\":423:601  function get(uint _index) public view returns (string memory text, bool completed){... */\n      swap2\n      pop\n      swap2\n      jump\t// out\n        /* \"contracts/todo.sol\":194:417  function create(string calldata _text) public {... */\n    tag_16:\n        /* \"contracts/todo.sol\":251:256  todos */\n      0x00\n        /* \"contracts/todo.sol\":262:279  todo(_text,false) */\n      mload(0x40)\n      dup1\n      0x40\n      add\n      0x40\n      mstore\n      dup1\n        /* \"contracts/todo.sol\":267:272  _text */\n      dup5\n      dup5\n        /* \"contracts/todo.sol\":262:279  todo(_text,false) */\n      dup1\n      dup1\n      0x1f\n      add\n      0x20\n      dup1\n      swap2\n      div\n      mul\n      0x20\n      add\n      mload(0x40)\n      swap1\n      dup2\n      add\n      0x40\n      mstore\n      dup1\n      swap4\n      swap3\n      swap2\n      swap1\n      dup2\n      dup2\n      mstore\n      0x20\n      add\n      dup4\n      dup4\n      dup1\n      dup3\n      dup5\n      calldatacopy\n      0x00\n      dup2\n      dup5\n      add\n      mstore\n      not(0x1f)\n      0x1f\n      dup3\n      add\n      and\n      swap1\n      pop\n      dup1\n      dup4\n      add\n      swap3\n      pop\n      pop\n      pop\n      pop\n      pop\n      pop\n      pop\n      dup2\n      mstore\n      0x20\n      add\n        /* \"contracts/todo.sol\":273:278  false */\n      0x00\n        /* \"contracts/todo.sol\":262:279  todo(_text,false) */\n      iszero\n      iszero\n      dup2\n      mstore\n      pop\n        /* \"contracts/todo.sol\":251:280  todos.push(todo(_text,false)) */\n      swap1\n      dup1\n      0x01\n      dup2\n      sload\n      add\n      dup1\n      dup3\n      sstore\n      dup1\n      swap2\n      pop\n      pop\n      0x01\n      swap1\n      sub\n      swap1\n      0x00\n      mstore\n      keccak256(0x00, 0x20)\n      swap1\n      0x02\n      mul\n      add\n      0x00\n      swap1\n      swap2\n      swap1\n      swap2\n      swap1\n      swap2\n      pop\n      0x00\n      dup3\n      add\n      mload\n      dup2\n      0x00\n      add\n      swap1\n      dup2\n      tag_37\n      swap2\n      swap1\n      tag_38\n      jump\t// in\n    tag_37:\n      pop\n      0x20\n      dup3\n      add\n      mload\n      dup2\n      0x01\n      add\n      exp(0x0100, 0x00)\n      dup2\n      sload\n      dup2\n      0xff\n      mul\n      not\n      and\n      swap1\n      dup4\n      iszero\n      iszero\n      mul\n      or\n      swap1\n      sstore\n      pop\n      pop\n      pop\n        /* \"contracts/todo.sol\":293:298  todos */\n      0x00\n        /* \"contracts/todo.sol\":304:338  todo({text:_text,completed:false}) */\n      mload(0x40)\n      dup1\n      0x40\n      add\n      0x40\n      mstore\n      dup1\n        /* \"contracts/todo.sol\":315:320  _text */\n      dup5\n      dup5\n        /* \"contracts/todo.sol\":304:338  todo({text:_text,completed:false}) */\n      dup1\n      dup1\n      0x1f\n      add\n      0x20\n      dup1\n      swap2\n      div\n      mul\n      0x20\n      add\n      mload(0x40)\n      swap1\n      dup2\n      add\n      0x40\n      mstore\n      dup1\n      swap4\n      swap3\n      swap2\n      swap1\n      dup2\n      dup2\n      mstore\n      0x20\n      add\n      dup4\n      dup4\n      dup1\n      dup3\n      dup5\n      calldatacopy\n      0x00\n      dup2\n      dup5\n      add\n      mstore\n      not(0x1f)\n      0x1f\n      dup3\n      add\n      and\n      swap1\n      pop\n      dup1\n      dup4\n      add\n      swap3\n      pop\n      pop\n      pop\n      pop\n      pop\n      pop\n      pop\n      dup2\n      mstore\n      0x20\n      add\n        /* \"contracts/todo.sol\":331:336  false */\n      0x00\n        /* \"contracts/todo.sol\":304:338  todo({text:_text,completed:false}) */\n      iszero\n      iszero\n      dup2\n      mstore\n      pop\n        /* \"contracts/todo.sol\":293:339  todos.push(todo({text:_text,completed:false})) */\n      swap1\n      dup1\n      0x01\n      dup2\n      sload\n      add\n      dup1\n      dup3\n      sstore\n      dup1\n      swap2\n      pop\n      pop\n      0x01\n      swap1\n      sub\n      swap1\n      0x00\n      mstore\n      keccak256(0x00, 0x20)\n      swap1\n      0x02\n      mul\n      add\n      0x00\n      swap1\n      swap2\n      swap1\n      swap2\n      swap1\n      swap2\n      pop\n      0x00\n      dup3\n      add\n      mload\n      dup2\n      0x00\n      add\n      swap1\n      dup2\n      tag_40\n      swap2\n      swap1\n      tag_38\n      jump\t// in\n    tag_40:\n      pop\n      0x20\n      dup3\n      add\n      mload\n      dup2\n      0x01\n      add\n      exp(0x0100, 0x00)\n      dup2\n      sload\n      dup2\n      0xff\n      mul\n      not\n      and\n      swap1\n      dup4\n      iszero\n      iszero\n      mul\n      or\n      swap1\n      sstore\n      pop\n      pop\n      pop\n        /* \"contracts/todo.sol\":346:362  todo memory todo */\n      tag_41\n      tag_42\n      jump\t// in\n    tag_41:\n        /* \"contracts/todo.sol\":381:386  _text */\n      dup3\n      dup3\n        /* \"contracts/todo.sol\":369:386  todo.text = _text */\n      dup1\n      dup1\n      0x1f\n      add\n      0x20\n      dup1\n      swap2\n      div\n      mul\n      0x20\n      add\n      mload(0x40)\n      swap1\n      dup2\n      add\n      0x40\n      mstore\n      dup1\n      swap4\n      swap3\n      swap2\n      swap1\n      dup2\n      dup2\n      mstore\n      0x20\n      add\n      dup4\n      dup4\n      dup1\n      dup3\n      dup5\n      calldatacopy\n      0x00\n      dup2\n      dup5\n      add\n      mstore\n      not(0x1f)\n      0x1f\n      dup3\n      add\n      and\n      swap1\n      pop\n      dup1\n      dup4\n      add\n      swap3\n      pop\n      pop\n      pop\n      pop\n      pop\n      pop\n      pop\n        /* \"contracts/todo.sol\":369:373  todo */\n      dup2\n        /* \"contracts/todo.sol\":369:378  todo.text */\n      0x00\n      add\n        /* \"contracts/todo.sol\":369:386  todo.text = _text */\n      dup2\n      swap1\n      mstore\n      pop\n        /* \"contracts/todo.sol\":393:398  todos */\n      0x00\n        /* \"contracts/todo.sol\":404:408  todo */\n      dup2\n        /* \"contracts/todo.sol\":393:409  todos.push(todo) */\n      swap1\n      dup1\n      0x01\n      dup2\n      sload\n      add\n      dup1\n      dup3\n      sstore\n      dup1\n      swap2\n      pop\n      pop\n      0x01\n      swap1\n      sub\n      swap1\n      0x00\n      mstore\n      keccak256(0x00, 0x20)\n      swap1\n      0x02\n      mul\n      add\n      0x00\n      swap1\n      swap2\n      swap1\n      swap2\n      swap1\n      swap2\n      pop\n      0x00\n      dup3\n      add\n      mload\n      dup2\n      0x00\n      add\n      swap1\n      dup2\n      tag_44\n      swap2\n      swap1\n      tag_38\n      jump\t// in\n    tag_44:\n      pop\n      0x20\n      dup3\n      add\n      mload\n      dup2\n      0x01\n      add\n      exp(0x0100, 0x00)\n      dup2\n      sload\n      dup2\n      0xff\n      mul\n      not\n      and\n      swap1\n      dup4\n      iszero\n      iszero\n      mul\n      or\n      swap1\n      sstore\n      pop\n      pop\n      pop\n        /* \"contracts/todo.sol\":240:417  {... */\n      pop\n        /* \"contracts/todo.sol\":194:417  function create(string calldata _text) public {... */\n      pop\n      pop\n      jump\t// out\n        /* \"contracts/todo.sol\":168:187  todo[] public todos */\n    tag_19:\n      0x00\n      dup2\n      dup2\n      sload\n      dup2\n      lt\n      tag_45\n      jumpi\n      0x00\n      dup1\n      revert\n    tag_45:\n      swap1\n      0x00\n      mstore\n      keccak256(0x00, 0x20)\n      swap1\n      0x02\n      mul\n      add\n      0x00\n      swap2\n      pop\n      swap1\n      pop\n      dup1\n      0x00\n      add\n      dup1\n      sload\n      tag_47\n      swap1\n      tag_30\n      jump\t// in\n    tag_47:\n      dup1\n      0x1f\n      add\n      0x20\n      dup1\n      swap2\n      div\n      mul\n      0x20\n      add\n      mload(0x40)\n      swap1\n      dup2\n      add\n      0x40\n      mstore\n      dup1\n      swap3\n      swap2\n      swap1\n      dup2\n      dup2\n      mstore\n      0x20\n      add\n      dup3\n      dup1\n      sload\n      tag_48\n      swap1\n      tag_30\n      jump\t// in\n    tag_48:\n      dup1\n      iszero\n      tag_49\n      jumpi\n      dup1\n      0x1f\n      lt\n      tag_50\n      jumpi\n      0x0100\n      dup1\n      dup4\n      sload\n      div\n      mul\n      dup4\n      mstore\n      swap2\n      0x20\n      add\n      swap2\n      jump(tag_49)\n    tag_50:\n      dup3\n      add\n      swap2\n      swap1\n      0x00\n      mstore\n      keccak256(0x00, 0x20)\n      swap1\n    tag_51:\n      dup2\n      sload\n      dup2\n      mstore\n      swap1\n      0x01\n      add\n      swap1\n      0x20\n      add\n      dup1\n      dup4\n      gt\n      tag_51\n      jumpi\n      dup3\n      swap1\n      sub\n      0x1f\n      and\n      dup3\n      add\n      swap2\n    tag_49:\n      pop\n      pop\n      pop\n      pop\n      pop\n      swap1\n      dup1\n      0x01\n      add\n      0x00\n      swap1\n      sload\n      swap1\n      0x0100\n      exp\n      swap1\n      div\n      0xff\n      and\n      swap1\n      pop\n      dup3\n      jump\t// out\n        /* \"contracts/todo.sol\":607:741  function completed(uint _index)public {... */\n    tag_23:\n        /* \"contracts/todo.sol\":656:673  todo storage todo */\n      0x00\n        /* \"contracts/todo.sol\":676:681  todos */\n      dup1\n        /* \"contracts/todo.sol\":682:688  _index */\n      dup3\n        /* \"contracts/todo.sol\":676:689  todos[_index] */\n      dup2\n      sload\n      dup2\n      lt\n      tag_53\n      jumpi\n      tag_54\n      tag_27\n      jump\t// in\n    tag_54:\n    tag_53:\n      swap1\n      0x00\n      mstore\n      keccak256(0x00, 0x20)\n      swap1\n      0x02\n      mul\n      add\n        /* \"contracts/todo.sol\":656:689  todo storage todo = todos[_index] */\n      swap1\n      pop\n        /* \"contracts/todo.sol\":719:723  todo */\n      dup1\n        /* \"contracts/todo.sol\":719:733  todo.completed */\n      0x01\n      add\n      0x00\n      swap1\n      sload\n      swap1\n      0x0100\n      exp\n      swap1\n      div\n      0xff\n      and\n        /* \"contracts/todo.sol\":717:733  ! todo.completed */\n      iszero\n        /* \"contracts/todo.sol\":700:704  todo */\n      dup2\n        /* \"contracts/todo.sol\":700:714  todo.completed */\n      0x01\n      add\n      0x00\n        /* \"contracts/todo.sol\":700:733  todo.completed = ! todo.completed */\n      0x0100\n      exp\n      dup2\n      sload\n      dup2\n      0xff\n      mul\n      not\n      and\n      swap1\n      dup4\n      iszero\n      iszero\n      mul\n      or\n      swap1\n      sstore\n      pop\n        /* \"contracts/todo.sol\":645:741  {... */\n      pop\n        /* \"contracts/todo.sol\":607:741  function completed(uint _index)public {... */\n      pop\n      jump\t// out\n    tag_42:\n      mload(0x40)\n      dup1\n      0x40\n      add\n      0x40\n      mstore\n      dup1\n      0x60\n      dup2\n      mstore\n      0x20\n      add\n      iszero(iszero(0x00))\n      dup2\n      mstore\n      pop\n      swap1\n      jump\t// out\n        /* \"#utility.yul\":88:205   */\n    tag_57:\n        /* \"#utility.yul\":197:198   */\n      0x00\n        /* \"#utility.yul\":194:195   */\n      dup1\n        /* \"#utility.yul\":187:199   */\n      revert\n        /* \"#utility.yul\":211:328   */\n    tag_58:\n        /* \"#utility.yul\":320:321   */\n      0x00\n        /* \"#utility.yul\":317:318   */\n      dup1\n        /* \"#utility.yul\":310:322   */\n      revert\n        /* \"#utility.yul\":334:411   */\n    tag_59:\n        /* \"#utility.yul\":371:378   */\n      0x00\n        /* \"#utility.yul\":400:405   */\n      dup2\n        /* \"#utility.yul\":389:405   */\n      swap1\n      pop\n        /* \"#utility.yul\":334:411   */\n      swap2\n      swap1\n      pop\n      jump\t// out\n        /* \"#utility.yul\":417:539   */\n    tag_60:\n        /* \"#utility.yul\":490:514   */\n      tag_96\n        /* \"#utility.yul\":508:513   */\n      dup2\n        /* \"#utility.yul\":490:514   */\n      tag_59\n      jump\t// in\n    tag_96:\n        /* \"#utility.yul\":483:488   */\n      dup2\n        /* \"#utility.yul\":480:515   */\n      eq\n        /* \"#utility.yul\":470:533   */\n      tag_97\n      jumpi\n        /* \"#utility.yul\":529:530   */\n      0x00\n        /* \"#utility.yul\":526:527   */\n      dup1\n        /* \"#utility.yul\":519:531   */\n      revert\n        /* \"#utility.yul\":470:533   */\n    tag_97:\n        /* \"#utility.yul\":417:539   */\n      pop\n      jump\t// out\n        /* \"#utility.yul\":545:684   */\n    tag_61:\n        /* \"#utility.yul\":591:596   */\n      0x00\n        /* \"#utility.yul\":629:635   */\n      dup2\n        /* \"#utility.yul\":616:636   */\n      calldataload\n        /* \"#utility.yul\":607:636   */\n      swap1\n      pop\n        /* \"#utility.yul\":645:678   */\n      tag_99\n        /* \"#utility.yul\":672:677   */\n      dup2\n        /* \"#utility.yul\":645:678   */\n      tag_60\n      jump\t// in\n    tag_99:\n        /* \"#utility.yul\":545:684   */\n      swap3\n      swap2\n      pop\n      pop\n      jump\t// out\n        /* \"#utility.yul\":690:1019   */\n    tag_9:\n        /* \"#utility.yul\":749:755   */\n      0x00\n        /* \"#utility.yul\":798:800   */\n      0x20\n        /* \"#utility.yul\":786:795   */\n      dup3\n        /* \"#utility.yul\":777:784   */\n      dup5\n        /* \"#utility.yul\":773:796   */\n      sub\n        /* \"#utility.yul\":769:801   */\n      slt\n        /* \"#utility.yul\":766:885   */\n      iszero\n      tag_101\n      jumpi\n        /* \"#utility.yul\":804:883   */\n      tag_102\n      tag_57\n      jump\t// in\n    tag_102:\n        /* \"#utility.yul\":766:885   */\n    tag_101:\n        /* \"#utility.yul\":924:925   */\n      0x00\n        /* \"#utility.yul\":949:1002   */\n      tag_103\n        /* \"#utility.yul\":994:1001   */\n      dup5\n        /* \"#utility.yul\":985:991   */\n      dup3\n        /* \"#utility.yul\":974:983   */\n      dup6\n        /* \"#utility.yul\":970:992   */\n      add\n        /* \"#utility.yul\":949:1002   */\n      tag_61\n      jump\t// in\n    tag_103:\n        /* \"#utility.yul\":939:1002   */\n      swap2\n      pop\n        /* \"#utility.yul\":895:1012   */\n      pop\n        /* \"#utility.yul\":690:1019   */\n      swap3\n      swap2\n      pop\n      pop\n      jump\t// out\n        /* \"#utility.yul\":1025:1124   */\n    tag_62:\n        /* \"#utility.yul\":1077:1083   */\n      0x00\n        /* \"#utility.yul\":1111:1116   */\n      dup2\n        /* \"#utility.yul\":1105:1117   */\n      mload\n        /* \"#utility.yul\":1095:1117   */\n      swap1\n      pop\n        /* \"#utility.yul\":1025:1124   */\n      swap2\n      swap1\n      pop\n      jump\t// out\n        /* \"#utility.yul\":1130:1299   */\n    tag_63:\n        /* \"#utility.yul\":1214:1225   */\n      0x00\n        /* \"#utility.yul\":1248:1254   */\n      dup3\n        /* \"#utility.yul\":1243:1246   */\n      dup3\n        /* \"#utility.yul\":1236:1255   */\n      mstore\n        /* \"#utility.yul\":1288:1292   */\n      0x20\n        /* \"#utility.yul\":1283:1286   */\n      dup3\n        /* \"#utility.yul\":1279:1293   */\n      add\n        /* \"#utility.yul\":1264:1293   */\n      swap1\n      pop\n        /* \"#utility.yul\":1130:1299   */\n      swap3\n      swap2\n      pop\n      pop\n      jump\t// out\n        /* \"#utility.yul\":1305:1444   */\n    tag_64:\n        /* \"#utility.yul\":1394:1400   */\n      dup3\n        /* \"#utility.yul\":1389:1392   */\n      dup2\n        /* \"#utility.yul\":1384:1387   */\n      dup4\n        /* \"#utility.yul\":1378:1401   */\n      mcopy\n        /* \"#utility.yul\":1435:1436   */\n      0x00\n        /* \"#utility.yul\":1426:1432   */\n      dup4\n        /* \"#utility.yul\":1421:1424   */\n      dup4\n        /* \"#utility.yul\":1417:1433   */\n      add\n        /* \"#utility.yul\":1410:1437   */\n      mstore\n        /* \"#utility.yul\":1305:1444   */\n      pop\n      pop\n      pop\n      jump\t// out\n        /* \"#utility.yul\":1450:1552   */\n    tag_65:\n        /* \"#utility.yul\":1491:1497   */\n      0x00\n        /* \"#utility.yul\":1542:1544   */\n      0x1f\n        /* \"#utility.yul\":1538:1545   */\n      not\n        /* \"#utility.yul\":1533:1535   */\n      0x1f\n        /* \"#utility.yul\":1526:1531   */\n      dup4\n        /* \"#utility.yul\":1522:1536   */\n      add\n        /* \"#utility.yul\":1518:1546   */\n      and\n        /* \"#utility.yul\":1508:1546   */\n      swap1\n      pop\n        /* \"#utility.yul\":1450:1552   */\n      swap2\n      swap1\n      pop\n      jump\t// out\n        /* \"#utility.yul\":1558:1935   */\n    tag_66:\n        /* \"#utility.yul\":1646:1649   */\n      0x00\n        /* \"#utility.yul\":1674:1713   */\n      tag_109\n        /* \"#utility.yul\":1707:1712   */\n      dup3\n        /* \"#utility.yul\":1674:1713   */\n      tag_62\n      jump\t// in\n    tag_109:\n        /* \"#utility.yul\":1729:1800   */\n      tag_110\n        /* \"#utility.yul\":1793:1799   */\n      dup2\n        /* \"#utility.yul\":1788:1791   */\n      dup6\n        /* \"#utility.yul\":1729:1800   */\n      tag_63\n      jump\t// in\n    tag_110:\n        /* \"#utility.yul\":1722:1800   */\n      swap4\n      pop\n        /* \"#utility.yul\":1809:1874   */\n      tag_111\n        /* \"#utility.yul\":1867:1873   */\n      dup2\n        /* \"#utility.yul\":1862:1865   */\n      dup6\n        /* \"#utility.yul\":1855:1859   */\n      0x20\n        /* \"#utility.yul\":1848:1853   */\n      dup7\n        /* \"#utility.yul\":1844:1860   */\n      add\n        /* \"#utility.yul\":1809:1874   */\n      tag_64\n      jump\t// in\n    tag_111:\n        /* \"#utility.yul\":1899:1928   */\n      tag_112\n        /* \"#utility.yul\":1921:1927   */\n      dup2\n        /* \"#utility.yul\":1899:1928   */\n      tag_65\n      jump\t// in\n    tag_112:\n        /* \"#utility.yul\":1894:1897   */\n      dup5\n        /* \"#utility.yul\":1890:1929   */\n      add\n        /* \"#utility.yul\":1883:1929   */\n      swap2\n      pop\n        /* \"#utility.yul\":1650:1935   */\n      pop\n        /* \"#utility.yul\":1558:1935   */\n      swap3\n      swap2\n      pop\n      pop\n      jump\t// out\n        /* \"#utility.yul\":1941:2031   */\n    tag_67:\n        /* \"#utility.yul\":1975:1982   */\n      0x00\n        /* \"#utility.yul\":2018:2023   */\n      dup2\n        /* \"#utility.yul\":2011:2024   */\n      iszero\n        /* \"#utility.yul\":2004:2025   */\n      iszero\n        /* \"#utility.yul\":1993:2025   */\n      swap1\n      pop\n        /* \"#utility.yul\":1941:2031   */\n      swap2\n      swap1\n      pop\n      jump\t// out\n        /* \"#utility.yul\":2037:2146   */\n    tag_68:\n        /* \"#utility.yul\":2118:2139   */\n      tag_115\n        /* \"#utility.yul\":2133:2138   */\n      dup2\n        /* \"#utility.yul\":2118:2139   */\n      tag_67\n      jump\t// in\n    tag_115:\n        /* \"#utility.yul\":2113:2116   */\n      dup3\n        /* \"#utility.yul\":2106:2140   */\n      mstore\n        /* \"#utility.yul\":2037:2146   */\n      pop\n      pop\n      jump\t// out\n        /* \"#utility.yul\":2152:2563   */\n    tag_12:\n        /* \"#utility.yul\":2287:2291   */\n      0x00\n        /* \"#utility.yul\":2325:2327   */\n      0x40\n        /* \"#utility.yul\":2314:2323   */\n      dup3\n        /* \"#utility.yul\":2310:2328   */\n      add\n        /* \"#utility.yul\":2302:2328   */\n      swap1\n      pop\n        /* \"#utility.yul\":2374:2383   */\n      dup2\n        /* \"#utility.yul\":2368:2372   */\n      dup2\n        /* \"#utility.yul\":2364:2384   */\n      sub\n        /* \"#utility.yul\":2360:2361   */\n      0x00\n        /* \"#utility.yul\":2349:2358   */\n      dup4\n        /* \"#utility.yul\":2345:2362   */\n      add\n        /* \"#utility.yul\":2338:2385   */\n      mstore\n        /* \"#utility.yul\":2402:2480   */\n      tag_117\n        /* \"#utility.yul\":2475:2479   */\n      dup2\n        /* \"#utility.yul\":2466:2472   */\n      dup6\n        /* \"#utility.yul\":2402:2480   */\n      tag_66\n      jump\t// in\n    tag_117:\n        /* \"#utility.yul\":2394:2480   */\n      swap1\n      pop\n        /* \"#utility.yul\":2490:2556   */\n      tag_118\n        /* \"#utility.yul\":2552:2554   */\n      0x20\n        /* \"#utility.yul\":2541:2550   */\n      dup4\n        /* \"#utility.yul\":2537:2555   */\n      add\n        /* \"#utility.yul\":2528:2534   */\n      dup5\n        /* \"#utility.yul\":2490:2556   */\n      tag_68\n      jump\t// in\n    tag_118:\n        /* \"#utility.yul\":2152:2563   */\n      swap4\n      swap3\n      pop\n      pop\n      pop\n      jump\t// out\n        /* \"#utility.yul\":2569:2686   */\n    tag_69:\n        /* \"#utility.yul\":2678:2679   */\n      0x00\n        /* \"#utility.yul\":2675:2676   */\n      dup1\n        /* \"#utility.yul\":2668:2680   */\n      revert\n        /* \"#utility.yul\":2692:2809   */\n    tag_70:\n        /* \"#utility.yul\":2801:2802   */\n      0x00\n        /* \"#utility.yul\":2798:2799   */\n      dup1\n        /* \"#utility.yul\":2791:2803   */\n      revert\n        /* \"#utility.yul\":2815:2932   */\n    tag_71:\n        /* \"#utility.yul\":2924:2925   */\n      0x00\n        /* \"#utility.yul\":2921:2922   */\n      dup1\n        /* \"#utility.yul\":2914:2926   */\n      revert\n        /* \"#utility.yul\":2952:3505   */\n    tag_72:\n        /* \"#utility.yul\":3010:3018   */\n      0x00\n        /* \"#utility.yul\":3020:3026   */\n      dup1\n        /* \"#utility.yul\":3070:3073   */\n      dup4\n        /* \"#utility.yul\":3063:3067   */\n      0x1f\n        /* \"#utility.yul\":3055:3061   */\n      dup5\n        /* \"#utility.yul\":3051:3068   */\n      add\n        /* \"#utility.yul\":3047:3074   */\n      slt\n        /* \"#utility.yul\":3037:3159   */\n      tag_123\n      jumpi\n        /* \"#utility.yul\":3078:3157   */\n      tag_124\n      tag_69\n      jump\t// in\n    tag_124:\n        /* \"#utility.yul\":3037:3159   */\n    tag_123:\n        /* \"#utility.yul\":3191:3197   */\n      dup3\n        /* \"#utility.yul\":3178:3198   */\n      calldataload\n        /* \"#utility.yul\":3168:3198   */\n      swap1\n      pop\n        /* \"#utility.yul\":3221:3239   */\n      0xffffffffffffffff\n        /* \"#utility.yul\":3213:3219   */\n      dup2\n        /* \"#utility.yul\":3210:3240   */\n      gt\n        /* \"#utility.yul\":3207:3324   */\n      iszero\n      tag_125\n      jumpi\n        /* \"#utility.yul\":3243:3322   */\n      tag_126\n      tag_70\n      jump\t// in\n    tag_126:\n        /* \"#utility.yul\":3207:3324   */\n    tag_125:\n        /* \"#utility.yul\":3357:3361   */\n      0x20\n        /* \"#utility.yul\":3349:3355   */\n      dup4\n        /* \"#utility.yul\":3345:3362   */\n      add\n        /* \"#utility.yul\":3333:3362   */\n      swap2\n      pop\n        /* \"#utility.yul\":3411:3414   */\n      dup4\n        /* \"#utility.yul\":3403:3407   */\n      0x01\n        /* \"#utility.yul\":3395:3401   */\n      dup3\n        /* \"#utility.yul\":3391:3408   */\n      mul\n        /* \"#utility.yul\":3381:3389   */\n      dup4\n        /* \"#utility.yul\":3377:3409   */\n      add\n        /* \"#utility.yul\":3374:3415   */\n      gt\n        /* \"#utility.yul\":3371:3499   */\n      iszero\n      tag_127\n      jumpi\n        /* \"#utility.yul\":3418:3497   */\n      tag_128\n      tag_71\n      jump\t// in\n    tag_128:\n        /* \"#utility.yul\":3371:3499   */\n    tag_127:\n        /* \"#utility.yul\":2952:3505   */\n      swap3\n      pop\n      swap3\n      swap1\n      pop\n      jump\t// out\n        /* \"#utility.yul\":3511:4040   */\n    tag_15:\n        /* \"#utility.yul\":3582:3588   */\n      0x00\n        /* \"#utility.yul\":3590:3596   */\n      dup1\n        /* \"#utility.yul\":3639:3641   */\n      0x20\n        /* \"#utility.yul\":3627:3636   */\n      dup4\n        /* \"#utility.yul\":3618:3625   */\n      dup6\n        /* \"#utility.yul\":3614:3637   */\n      sub\n        /* \"#utility.yul\":3610:3642   */\n      slt\n        /* \"#utility.yul\":3607:3726   */\n      iszero\n      tag_130\n      jumpi\n        /* \"#utility.yul\":3645:3724   */\n      tag_131\n      tag_57\n      jump\t// in\n    tag_131:\n        /* \"#utility.yul\":3607:3726   */\n    tag_130:\n        /* \"#utility.yul\":3793:3794   */\n      0x00\n        /* \"#utility.yul\":3782:3791   */\n      dup4\n        /* \"#utility.yul\":3778:3795   */\n      add\n        /* \"#utility.yul\":3765:3796   */\n      calldataload\n        /* \"#utility.yul\":3823:3841   */\n      0xffffffffffffffff\n        /* \"#utility.yul\":3815:3821   */\n      dup2\n        /* \"#utility.yul\":3812:3842   */\n      gt\n        /* \"#utility.yul\":3809:3926   */\n      iszero\n      tag_132\n      jumpi\n        /* \"#utility.yul\":3845:3924   */\n      tag_133\n      tag_58\n      jump\t// in\n    tag_133:\n        /* \"#utility.yul\":3809:3926   */\n    tag_132:\n        /* \"#utility.yul\":3958:4023   */\n      tag_134\n        /* \"#utility.yul\":4015:4022   */\n      dup6\n        /* \"#utility.yul\":4006:4012   */\n      dup3\n        /* \"#utility.yul\":3995:4004   */\n      dup7\n        /* \"#utility.yul\":3991:4013   */\n      add\n        /* \"#utility.yul\":3958:4023   */\n      tag_72\n      jump\t// in\n    tag_134:\n        /* \"#utility.yul\":3940:4023   */\n      swap3\n      pop\n      swap3\n      pop\n        /* \"#utility.yul\":3736:4033   */\n      pop\n        /* \"#utility.yul\":3511:4040   */\n      swap3\n      pop\n      swap3\n      swap1\n      pop\n      jump\t// out\n        /* \"#utility.yul\":4046:4226   */\n    tag_27:\n        /* \"#utility.yul\":4094:4171   */\n      0x4e487b7100000000000000000000000000000000000000000000000000000000\n        /* \"#utility.yul\":4091:4092   */\n      0x00\n        /* \"#utility.yul\":4084:4172   */\n      mstore\n        /* \"#utility.yul\":4191:4195   */\n      0x32\n        /* \"#utility.yul\":4188:4189   */\n      0x04\n        /* \"#utility.yul\":4181:4196   */\n      mstore\n        /* \"#utility.yul\":4215:4219   */\n      0x24\n        /* \"#utility.yul\":4212:4213   */\n      0x00\n        /* \"#utility.yul\":4205:4220   */\n      revert\n        /* \"#utility.yul\":4232:4412   */\n    tag_73:\n        /* \"#utility.yul\":4280:4357   */\n      0x4e487b7100000000000000000000000000000000000000000000000000000000\n        /* \"#utility.yul\":4277:4278   */\n      0x00\n        /* \"#utility.yul\":4270:4358   */\n      mstore\n        /* \"#utility.yul\":4377:4381   */\n      0x22\n        /* \"#utility.yul\":4374:4375   */\n      0x04\n        /* \"#utility.yul\":4367:4382   */\n      mstore\n        /* \"#utility.yul\":4401:4405   */\n      0x24\n        /* \"#utility.yul\":4398:4399   */\n      0x00\n        /* \"#utility.yul\":4391:4406   */\n      revert\n        /* \"#utility.yul\":4418:4738   */\n    tag_30:\n        /* \"#utility.yul\":4462:4468   */\n      0x00\n        /* \"#utility.yul\":4499:4500   */\n      0x02\n        /* \"#utility.yul\":4493:4497   */\n      dup3\n        /* \"#utility.yul\":4489:4501   */\n      div\n        /* \"#utility.yul\":4479:4501   */\n      swap1\n      pop\n        /* \"#utility.yul\":4546:4547   */\n      0x01\n        /* \"#utility.yul\":4540:4544   */\n      dup3\n        /* \"#utility.yul\":4536:4548   */\n      and\n        /* \"#utility.yul\":4567:4585   */\n      dup1\n        /* \"#utility.yul\":4557:4638   */\n      tag_138\n      jumpi\n        /* \"#utility.yul\":4623:4627   */\n      0x7f\n        /* \"#utility.yul\":4615:4621   */\n      dup3\n        /* \"#utility.yul\":4611:4628   */\n      and\n        /* \"#utility.yul\":4601:4628   */\n      swap2\n      pop\n        /* \"#utility.yul\":4557:4638   */\n    tag_138:\n        /* \"#utility.yul\":4685:4687   */\n      0x20\n        /* \"#utility.yul\":4677:4683   */\n      dup3\n        /* \"#utility.yul\":4674:4688   */\n      lt\n        /* \"#utility.yul\":4654:4672   */\n      dup2\n        /* \"#utility.yul\":4651:4689   */\n      sub\n        /* \"#utility.yul\":4648:4732   */\n      tag_139\n      jumpi\n        /* \"#utility.yul\":4704:4722   */\n      tag_140\n      tag_73\n      jump\t// in\n    tag_140:\n        /* \"#utility.yul\":4648:4732   */\n    tag_139:\n        /* \"#utility.yul\":4469:4738   */\n      pop\n        /* \"#utility.yul\":4418:4738   */\n      swap2\n      swap1\n      pop\n      jump\t// out\n        /* \"#utility.yul\":4744:4924   */\n    tag_74:\n        /* \"#utility.yul\":4792:4869   */\n      0x4e487b7100000000000000000000000000000000000000000000000000000000\n        /* \"#utility.yul\":4789:4790   */\n      0x00\n        /* \"#utility.yul\":4782:4870   */\n      mstore\n        /* \"#utility.yul\":4889:4893   */\n      0x41\n        /* \"#utility.yul\":4886:4887   */\n      0x04\n        /* \"#utility.yul\":4879:4894   */\n      mstore\n        /* \"#utility.yul\":4913:4917   */\n      0x24\n        /* \"#utility.yul\":4910:4911   */\n      0x00\n        /* \"#utility.yul\":4903:4918   */\n      revert\n        /* \"#utility.yul\":4930:5071   */\n    tag_75:\n        /* \"#utility.yul\":4979:4983   */\n      0x00\n        /* \"#utility.yul\":5002:5005   */\n      dup2\n        /* \"#utility.yul\":4994:5005   */\n      swap1\n      pop\n        /* \"#utility.yul\":5025:5028   */\n      dup2\n        /* \"#utility.yul\":5022:5023   */\n      0x00\n        /* \"#utility.yul\":5015:5029   */\n      mstore\n        /* \"#utility.yul\":5059:5063   */\n      0x20\n        /* \"#utility.yul\":5056:5057   */\n      0x00\n        /* \"#utility.yul\":5046:5064   */\n      keccak256\n        /* \"#utility.yul\":5038:5064   */\n      swap1\n      pop\n        /* \"#utility.yul\":4930:5071   */\n      swap2\n      swap1\n      pop\n      jump\t// out\n        /* \"#utility.yul\":5077:5170   */\n    tag_76:\n        /* \"#utility.yul\":5114:5120   */\n      0x00\n        /* \"#utility.yul\":5161:5163   */\n      0x20\n        /* \"#utility.yul\":5156:5158   */\n      0x1f\n        /* \"#utility.yul\":5149:5154   */\n      dup4\n        /* \"#utility.yul\":5145:5159   */\n      add\n        /* \"#utility.yul\":5141:5164   */\n      div\n        /* \"#utility.yul\":5131:5164   */\n      swap1\n      pop\n        /* \"#utility.yul\":5077:5170   */\n      swap2\n      swap1\n      pop\n      jump\t// out\n        /* \"#utility.yul\":5176:5283   */\n    tag_77:\n        /* \"#utility.yul\":5220:5228   */\n      0x00\n        /* \"#utility.yul\":5270:5275   */\n      dup3\n        /* \"#utility.yul\":5264:5268   */\n      dup3\n        /* \"#utility.yul\":5260:5276   */\n      shl\n        /* \"#utility.yul\":5239:5276   */\n      swap1\n      pop\n        /* \"#utility.yul\":5176:5283   */\n      swap3\n      swap2\n      pop\n      pop\n      jump\t// out\n        /* \"#utility.yul\":5289:5682   */\n    tag_78:\n        /* \"#utility.yul\":5358:5364   */\n      0x00\n        /* \"#utility.yul\":5408:5409   */\n      0x08\n        /* \"#utility.yul\":5396:5406   */\n      dup4\n        /* \"#utility.yul\":5392:5410   */\n      mul\n        /* \"#utility.yul\":5431:5528   */\n      tag_146\n        /* \"#utility.yul\":5461:5527   */\n      0xffffffffffffffffffffffffffffffffffffffffffffffffffffffffffffffff\n        /* \"#utility.yul\":5450:5459   */\n      dup3\n        /* \"#utility.yul\":5431:5528   */\n      tag_77\n      jump\t// in\n    tag_146:\n        /* \"#utility.yul\":5549:5588   */\n      tag_147\n        /* \"#utility.yul\":5579:5587   */\n      dup7\n        /* \"#utility.yul\":5568:5577   */\n      dup4\n        /* \"#utility.yul\":5549:5588   */\n      tag_77\n      jump\t// in\n    tag_147:\n        /* \"#utility.yul\":5537:5588   */\n      swap6\n      pop\n        /* \"#utility.yul\":5621:5625   */\n      dup1\n        /* \"#utility.yul\":5617:5626   */\n      not\n        /* \"#utility.yul\":5610:5615   */\n      dup5\n        /* \"#utility.yul\":5606:5627   */\n      and\n        /* \"#utility.yul\":5597:5627   */\n      swap4\n      pop\n        /* \"#utility.yul\":5670:5674   */\n      dup1\n        /* \"#utility.yul\":5660:5668   */\n      dup7\n        /* \"#utility.yul\":5656:5675   */\n      and\n        /* \"#utility.yul\":5649:5654   */\n      dup5\n        /* \"#utility.yul\":5646:5676   */\n      or\n        /* \"#utility.yul\":5636:5676   */\n      swap3\n      pop\n        /* \"#utility.yul\":5365:5682   */\n      pop\n      pop\n        /* \"#utility.yul\":5289:5682   */\n      swap4\n      swap3\n      pop\n      pop\n      pop\n      jump\t// out\n        /* \"#utility.yul\":5688:5748   */\n    tag_79:\n        /* \"#utility.yul\":5716:5719   */\n      0x00\n        /* \"#utility.yul\":5737:5742   */\n      dup2\n        /* \"#utility.yul\":5730:5742   */\n      swap1\n      pop\n        /* \"#utility.yul\":5688:5748   */\n      swap2\n      swap1\n      pop\n      jump\t// out\n        /* \"#utility.yul\":5754:5896   */\n    tag_80:\n        /* \"#utility.yul\":5804:5813   */\n      0x00\n        /* \"#utility.yul\":5837:5890   */\n      tag_150\n        /* \"#utility.yul\":5855:5889   */\n      tag_151\n        /* \"#utility.yul\":5864:5888   */\n      tag_152\n        /* \"#utility.yul\":5882:5887   */\n      dup5\n        /* \"#utility.yul\":5864:5888   */\n      tag_59\n      jump\t// in\n    tag_152:\n        /* \"#utility.yul\":5855:5889   */\n      tag_79\n      jump\t// in\n    tag_151:\n        /* \"#utility.yul\":5837:5890   */\n      tag_59\n      jump\t// in\n    tag_150:\n        /* \"#utility.yul\":5824:5890   */\n      swap1\n      pop\n        /* \"#utility.yul\":5754:5896   */\n      swap2\n      swap1\n      pop\n      jump\t// out\n        /* \"#utility.yul\":5902:5977   */\n    tag_81:\n        /* \"#utility.yul\":5945:5948   */\n      0x00\n        /* \"#utility.yul\":5966:5971   */\n      dup2\n        /* \"#utility.yul\":5959:5971   */\n      swap1\n      pop\n        /* \"#utility.yul\":5902:5977   */\n      swap2\n      swap1\n      pop\n      jump\t// out\n        /* \"#utility.yul\":5983:6252   */\n    tag_82:\n        /* \"#utility.yul\":6093:6132   */\n      tag_155\n        /* \"#utility.yul\":6124:6131   */\n      dup4\n        /* \"#utility.yul\":6093:6132   */\n      tag_80\n      jump\t// in\n    tag_155:\n        /* \"#utility.yul\":6154:6245   */\n      tag_156\n        /* \"#utility.yul\":6203:6244   */\n      tag_157\n        /* \"#utility.yul\":6227:6243   */\n      dup3\n        /* \"#utility.yul\":6203:6244   */\n      tag_81\n      jump\t// in\n    tag_157:\n        /* \"#utility.yul\":6195:6201   */\n      dup5\n        /* \"#utility.yul\":6188:6192   */\n      dup5\n        /* \"#utility.yul\":6182:6193   */\n      sload\n        /* \"#utility.yul\":6154:6245   */\n      tag_78\n      jump\t// in\n    tag_156:\n        /* \"#utility.yul\":6148:6152   */\n      dup3\n        /* \"#utility.yul\":6141:6246   */\n      sstore\n        /* \"#utility.yul\":6059:6252   */\n      pop\n        /* \"#utility.yul\":5983:6252   */\n      pop\n      pop\n      pop\n      jump\t// out\n        /* \"#utility.yul\":6258:6331   */\n    tag_83:\n        /* \"#utility.yul\":6303:6306   */\n      0x00\n        /* \"#utility.yul\":6258:6331   */\n      swap1\n      jump\t// out\n        /* \"#utility.yul\":6337:6526   */\n    tag_84:\n        /* \"#utility.yul\":6414:6446   */\n      tag_160\n      tag_83\n      jump\t// in\n    tag_160:\n        /* \"#utility.yul\":6455:6520   */\n      tag_161\n        /* \"#utility.yul\":6513:6519   */\n      dup2\n        /* \"#utility.yul\":6505:6511   */\n      dup5\n        /* \"#utility.yul\":6499:6503   */\n      dup5\n        /* \"#utility.yul\":6455:6520   */\n      tag_82\n      jump\t// in\n    tag_161:\n        /* \"#utility.yul\":6390:6526   */\n      pop\n        /* \"#utility.yul\":6337:6526   */\n      pop\n      pop\n      jump\t// out\n        /* \"#utility.yul\":6532:6718   */\n    tag_85:\n        /* \"#utility.yul\":6592:6712   */\n    tag_163:\n        /* \"#utility.yul\":6609:6612   */\n      dup2\n        /* \"#utility.yul\":6602:6607   */\n      dup2\n        /* \"#utility.yul\":6599:6613   */\n      lt\n        /* \"#utility.yul\":6592:6712   */\n      iszero\n      tag_165\n      jumpi\n        /* \"#utility.yul\":6663:6702   */\n      tag_166\n        /* \"#utility.yul\":6700:6701   */\n      0x00\n        /* \"#utility.yul\":6693:6698   */\n      dup3\n        /* \"#utility.yul\":6663:6702   */\n      tag_84\n      jump\t// in\n    tag_166:\n        /* \"#utility.yul\":6636:6637   */\n      0x01\n        /* \"#utility.yul\":6629:6634   */\n      dup2\n        /* \"#utility.yul\":6625:6638   */\n      add\n        /* \"#utility.yul\":6616:6638   */\n      swap1\n      pop\n        /* \"#utility.yul\":6592:6712   */\n      jump(tag_163)\n    tag_165:\n        /* \"#utility.yul\":6532:6718   */\n      pop\n      pop\n      jump\t// out\n        /* \"#utility.yul\":6724:7267   */\n    tag_86:\n        /* \"#utility.yul\":6825:6827   */\n      0x1f\n        /* \"#utility.yul\":6820:6823   */\n      dup3\n        /* \"#utility.yul\":6817:6828   */\n      gt\n        /* \"#utility.yul\":6814:7260   */\n      iszero\n      tag_168\n      jumpi\n        /* \"#utility.yul\":6859:6897   */\n      tag_169\n        /* \"#utility.yul\":6891:6896   */\n      dup2\n        /* \"#utility.yul\":6859:6897   */\n      tag_75\n      jump\t// in\n    tag_169:\n        /* \"#utility.yul\":6943:6972   */\n      tag_170\n        /* \"#utility.yul\":6961:6971   */\n      dup5\n        /* \"#utility.yul\":6943:6972   */\n      tag_76\n      jump\t// in\n    tag_170:\n        /* \"#utility.yul\":6933:6941   */\n      dup2\n        /* \"#utility.yul\":6929:6973   */\n      add\n        /* \"#utility.yul\":7126:7128   */\n      0x20\n        /* \"#utility.yul\":7114:7124   */\n      dup6\n        /* \"#utility.yul\":7111:7129   */\n      lt\n        /* \"#utility.yul\":7108:7157   */\n      iszero\n      tag_171\n      jumpi\n        /* \"#utility.yul\":7147:7155   */\n      dup2\n        /* \"#utility.yul\":7132:7155   */\n      swap1\n      pop\n        /* \"#utility.yul\":7108:7157   */\n    tag_171:\n        /* \"#utility.yul\":7170:7250   */\n      tag_172\n        /* \"#utility.yul\":7226:7248   */\n      tag_173\n        /* \"#utility.yul\":7244:7247   */\n      dup6\n        /* \"#utility.yul\":7226:7248   */\n      tag_76\n      jump\t// in\n    tag_173:\n        /* \"#utility.yul\":7216:7224   */\n      dup4\n        /* \"#utility.yul\":7212:7249   */\n      add\n        /* \"#utility.yul\":7199:7210   */\n      dup3\n        /* \"#utility.yul\":7170:7250   */\n      tag_85\n      jump\t// in\n    tag_172:\n        /* \"#utility.yul\":6829:7260   */\n      pop\n      pop\n        /* \"#utility.yul\":6814:7260   */\n    tag_168:\n        /* \"#utility.yul\":6724:7267   */\n      pop\n      pop\n      pop\n      jump\t// out\n        /* \"#utility.yul\":7273:7390   */\n    tag_87:\n        /* \"#utility.yul\":7327:7335   */\n      0x00\n        /* \"#utility.yul\":7377:7382   */\n      dup3\n        /* \"#utility.yul\":7371:7375   */\n      dup3\n        /* \"#utility.yul\":7367:7383   */\n      shr\n        /* \"#utility.yul\":7346:7383   */\n      swap1\n      pop\n        /* \"#utility.yul\":7273:7390   */\n      swap3\n      swap2\n      pop\n      pop\n      jump\t// out\n        /* \"#utility.yul\":7396:7565   */\n    tag_88:\n        /* \"#utility.yul\":7440:7446   */\n      0x00\n        /* \"#utility.yul\":7473:7524   */\n      tag_176\n        /* \"#utility.yul\":7521:7522   */\n      0x00\n        /* \"#utility.yul\":7517:7523   */\n      not\n        /* \"#utility.yul\":7509:7514   */\n      dup5\n        /* \"#utility.yul\":7506:7507   */\n      0x08\n        /* \"#utility.yul\":7502:7515   */\n      mul\n        /* \"#utility.yul\":7473:7524   */\n      tag_87\n      jump\t// in\n    tag_176:\n        /* \"#utility.yul\":7469:7525   */\n      not\n        /* \"#utility.yul\":7554:7558   */\n      dup1\n        /* \"#utility.yul\":7548:7552   */\n      dup4\n        /* \"#utility.yul\":7544:7559   */\n      and\n        /* \"#utility.yul\":7534:7559   */\n      swap2\n      pop\n        /* \"#utility.yul\":7447:7565   */\n      pop\n        /* \"#utility.yul\":7396:7565   */\n      swap3\n      swap2\n      pop\n      pop\n      jump\t// out\n        /* \"#utility.yul\":7570:7865   */\n    tag_89:\n        /* \"#utility.yul\":7646:7650   */\n      0x00\n        /* \"#utility.yul\":7792:7821   */\n      tag_178\n        /* \"#utility.yul\":7817:7820   */\n      dup4\n        /* \"#utility.yul\":7811:7815   */\n      dup4\n        /* \"#utility.yul\":7792:7821   */\n      tag_88\n      jump\t// in\n    tag_178:\n        /* \"#utility.yul\":7784:7821   */\n      swap2\n      pop\n        /* \"#utility.yul\":7854:7857   */\n      dup3\n        /* \"#utility.yul\":7851:7852   */\n      0x02\n        /* \"#utility.yul\":7847:7858   */\n      mul\n        /* \"#utility.yul\":7841:7845   */\n      dup3\n        /* \"#utility.yul\":7838:7859   */\n      or\n        /* \"#utility.yul\":7830:7859   */\n      swap1\n      pop\n        /* \"#utility.yul\":7570:7865   */\n      swap3\n      swap2\n      pop\n      pop\n      jump\t// out\n        /* \"#utility.yul\":7870:9265   */\n    tag_38:\n        /* \"#utility.yul\":7987:8024   */\n      tag_180\n        /* \"#utility.yul\":8020:8023   */\n      dup3\n        /* \"#utility.yul\":7987:8024   */\n      tag_62\n      jump\t// in\n    tag_180:\n        /* \"#utility.yul\":8089:8107   */\n      0xffffffffffffffff\n        /* \"#utility.yul\":8081:8087   */\n      dup2\n        /* \"#utility.yul\":8078:8108   */\n      gt\n        /* \"#utility.yul\":8075:8131   */\n      iszero\n      tag_181\n      jumpi\n        /* \"#utility.yul\":8111:8129   */\n      tag_182\n      tag_74\n      jump\t// in\n    tag_182:\n        /* \"#utility.yul\":8075:8131   */\n    tag_181:\n        /* \"#utility.yul\":8155:8193   */\n      tag_183\n        /* \"#utility.yul\":8187:8191   */\n      dup3\n        /* \"#utility.yul\":8181:8192   */\n      sload\n        /* \"#utility.yul\":8155:8193   */\n      tag_30\n      jump\t// in\n    tag_183:\n        /* \"#utility.yul\":8240:8307   */\n      tag_184\n        /* \"#utility.yul\":8300:8306   */\n      dup3\n        /* \"#utility.yul\":8292:8298   */\n      dup3\n        /* \"#utility.yul\":8286:8290   */\n      dup6\n        /* \"#utility.yul\":8240:8307   */\n      tag_86\n      jump\t// in\n    tag_184:\n        /* \"#utility.yul\":8334:8335   */\n      0x00\n        /* \"#utility.yul\":8358:8362   */\n      0x20\n        /* \"#utility.yul\":8345:8362   */\n      swap1\n      pop\n        /* \"#utility.yul\":8390:8392   */\n      0x1f\n        /* \"#utility.yul\":8382:8388   */\n      dup4\n        /* \"#utility.yul\":8379:8393   */\n      gt\n        /* \"#utility.yul\":8407:8408   */\n      0x01\n        /* \"#utility.yul\":8402:9020   */\n      dup2\n      eq\n      tag_186\n      jumpi\n        /* \"#utility.yul\":9064:9065   */\n      0x00\n        /* \"#utility.yul\":9081:9087   */\n      dup5\n        /* \"#utility.yul\":9078:9155   */\n      iszero\n      tag_187\n      jumpi\n        /* \"#utility.yul\":9130:9139   */\n      dup3\n        /* \"#utility.yul\":9125:9128   */\n      dup8\n        /* \"#utility.yul\":9121:9140   */\n      add\n        /* \"#utility.yul\":9115:9141   */\n      mload\n        /* \"#utility.yul\":9106:9141   */\n      swap1\n      pop\n        /* \"#utility.yul\":9078:9155   */\n    tag_187:\n        /* \"#utility.yul\":9181:9248   */\n      tag_188\n        /* \"#utility.yul\":9241:9247   */\n      dup6\n        /* \"#utility.yul\":9234:9239   */\n      dup3\n        /* \"#utility.yul\":9181:9248   */\n      tag_89\n      jump\t// in\n    tag_188:\n        /* \"#utility.yul\":9175:9179   */\n      dup7\n        /* \"#utility.yul\":9168:9249   */\n      sstore\n        /* \"#utility.yul\":9037:9259   */\n      pop\n        /* \"#utility.yul\":8372:9259   */\n      jump(tag_185)\n        /* \"#utility.yul\":8402:9020   */\n    tag_186:\n        /* \"#utility.yul\":8454:8458   */\n      0x1f\n        /* \"#utility.yul\":8450:8459   */\n      not\n        /* \"#utility.yul\":8442:8448   */\n      dup5\n        /* \"#utility.yul\":8438:8460   */\n      and\n        /* \"#utility.yul\":8488:8525   */\n      tag_189\n        /* \"#utility.yul\":8520:8524   */\n      dup7\n        /* \"#utility.yul\":8488:8525   */\n      tag_75\n      jump\t// in\n    tag_189:\n        /* \"#utility.yul\":8547:8548   */\n      0x00\n        /* \"#utility.yul\":8561:8769   */\n    tag_190:\n        /* \"#utility.yul\":8575:8582   */\n      dup3\n        /* \"#utility.yul\":8572:8573   */\n      dup2\n        /* \"#utility.yul\":8569:8583   */\n      lt\n        /* \"#utility.yul\":8561:8769   */\n      iszero\n      tag_192\n      jumpi\n        /* \"#utility.yul\":8654:8663   */\n      dup5\n        /* \"#utility.yul\":8649:8652   */\n      dup10\n        /* \"#utility.yul\":8645:8664   */\n      add\n        /* \"#utility.yul\":8639:8665   */\n      mload\n        /* \"#utility.yul\":8631:8637   */\n      dup3\n        /* \"#utility.yul\":8624:8666   */\n      sstore\n        /* \"#utility.yul\":8705:8706   */\n      0x01\n        /* \"#utility.yul\":8697:8703   */\n      dup3\n        /* \"#utility.yul\":8693:8707   */\n      add\n        /* \"#utility.yul\":8683:8707   */\n      swap2\n      pop\n        /* \"#utility.yul\":8752:8754   */\n      0x20\n        /* \"#utility.yul\":8741:8750   */\n      dup6\n        /* \"#utility.yul\":8737:8755   */\n      add\n        /* \"#utility.yul\":8724:8755   */\n      swap5\n      pop\n        /* \"#utility.yul\":8598:8602   */\n      0x20\n        /* \"#utility.yul\":8595:8596   */\n      dup2\n        /* \"#utility.yul\":8591:8603   */\n      add\n        /* \"#utility.yul\":8586:8603   */\n      swap1\n      pop\n        /* \"#utility.yul\":8561:8769   */\n      jump(tag_190)\n    tag_192:\n        /* \"#utility.yul\":8797:8803   */\n      dup7\n        /* \"#utility.yul\":8788:8795   */\n      dup4\n        /* \"#utility.yul\":8785:8804   */\n      lt\n        /* \"#utility.yul\":8782:8961   */\n      iszero\n      tag_193\n      jumpi\n        /* \"#utility.yul\":8855:8864   */\n      dup5\n        /* \"#utility.yul\":8850:8853   */\n      dup10\n        /* \"#utility.yul\":8846:8865   */\n      add\n        /* \"#utility.yul\":8840:8866   */\n      mload\n        /* \"#utility.yul\":8898:8946   */\n      tag_194\n        /* \"#utility.yul\":8940:8944   */\n      0x1f\n        /* \"#utility.yul\":8932:8938   */\n      dup10\n        /* \"#utility.yul\":8928:8945   */\n      and\n        /* \"#utility.yul\":8917:8926   */\n      dup3\n        /* \"#utility.yul\":8898:8946   */\n      tag_88\n      jump\t// in\n    tag_194:\n        /* \"#utility.yul\":8890:8896   */\n      dup4\n        /* \"#utility.yul\":8883:8947   */\n      sstore\n        /* \"#utility.yul\":8805:8961   */\n      pop\n        /* \"#utility.yul\":8782:8961   */\n    tag_193:\n        /* \"#utility.yul\":9007:9008   */\n      0x01\n        /* \"#utility.yul\":9003:9004   */\n      0x02\n        /* \"#utility.yul\":8995:9001   */\n      dup9\n        /* \"#utility.yul\":8991:9005   */\n      mul\n        /* \"#utility.yul\":8987:9009   */\n      add\n        /* \"#utility.yul\":8981:8985   */\n      dup9\n        /* \"#utility.yul\":8974:9010   */\n      sstore\n        /* \"#utility.yul\":8409:9020   */\n      pop\n      pop\n      pop\n        /* \"#utility.yul\":8372:9259   */\n    tag_185:\n      pop\n        /* \"#utility.yul\":7962:9265   */\n      pop\n      pop\n      pop\n        /* \"#utility.yul\":7870:9265   */\n      pop\n      pop\n      jump\t// out\n\n    auxdata: 0xa264697066735822122014e6ce154d20c9cb40278b242a8b9e0dab2a53d5de5c53e0f3be329a9925e39964736f6c634300081a0033\n}\n",
				"bytecode": {
					"linkReferences": {},
					"object": "6080604052348015600e575f80fd5b50610a268061001c5f395ff3fe608060405234801561000f575f80fd5b506004361061004a575f3560e01c80639507d39a1461004e578063b6a46b3b1461007f578063bc8bc2b41461009b578063c0cca5ef146100cc575b5f80fd5b6100686004803603810190610063919061053e565b6100e8565b6040516100769291906105f3565b60405180910390f35b61009960048036038101906100949190610682565b6101b5565b005b6100b560048036038101906100b0919061053e565b6103d6565b6040516100c39291906105f3565b60405180910390f35b6100e660048036038101906100e1919061053e565b610496565b005b60605f805f84815481106100ff576100fe6106cd565b5b905f5260205f2090600202019050805f01816001015f9054906101000a900460ff1681805461012d90610727565b80601f016020809104026020016040519081016040528092919081815260200182805461015990610727565b80156101a45780601f1061017b576101008083540402835291602001916101a4565b820191905f5260205f20905b81548152906001019060200180831161018757829003601f168201915b505050505091509250925050915091565b5f604051806040016040528084848080601f0160208091040260200160405190810160405280939291908181526020018383808284375f81840152601f19601f8201169050808301925050505050505081526020015f1515815250908060018154018082558091505060019003905f5260205f2090600202015f909190919091505f820151815f0190816102499190610921565b506020820151816001015f6101000a81548160ff02191690831515021790555050505f604051806040016040528084848080601f0160208091040260200160405190810160405280939291908181526020018383808284375f81840152601f19601f8201169050808301925050505050505081526020015f1515815250908060018154018082558091505060019003905f5260205f2090600202015f909190919091505f820151815f0190816102ff9190610921565b506020820151816001015f6101000a81548160ff02191690831515021790555050506103296104e8565b82828080601f0160208091040260200160405190810160405280939291908181526020018383808284375f81840152601f19601f82011690508083019250505050505050815f01819052505f81908060018154018082558091505060019003905f5260205f2090600202015f909190919091505f820151815f0190816103af9190610921565b506020820151816001015f6101000a81548160ff0219169083151502179055505050505050565b5f81815481106103e4575f80fd5b905f5260205f2090600202015f91509050805f01805461040390610727565b80601f016020809104026020016040519081016040528092919081815260200182805461042f90610727565b801561047a5780601f106104515761010080835404028352916020019161047a565b820191905f5260205f20905b81548152906001019060200180831161045d57829003601f168201915b505050505090806001015f9054906101000a900460ff16905082565b5f8082815481106104aa576104a96106cd565b5b905f5260205f2090600202019050806001015f9054906101000a900460ff1615816001015f6101000a81548160ff0219169083151502179055505050565b6040518060400160405280606081526020015f151581525090565b5f80fd5b5f80fd5b5f819050919050565b61051d8161050b565b8114610527575f80fd5b50565b5f8135905061053881610514565b92915050565b5f6020828403121561055357610552610503565b5b5f6105608482850161052a565b91505092915050565b5f81519050919050565b5f82825260208201905092915050565b8281835e5f83830152505050565b5f601f19601f8301169050919050565b5f6105ab82610569565b6105b58185610573565b93506105c5818560208601610583565b6105ce81610591565b840191505092915050565b5f8115159050919050565b6105ed816105d9565b82525050565b5f6040820190508181035f83015261060b81856105a1565b905061061a60208301846105e4565b9392505050565b5f80fd5b5f80fd5b5f80fd5b5f8083601f84011261064257610641610621565b5b8235905067ffffffffffffffff81111561065f5761065e610625565b5b60208301915083600182028301111561067b5761067a610629565b5b9250929050565b5f806020838503121561069857610697610503565b5b5f83013567ffffffffffffffff8111156106b5576106b4610507565b5b6106c18582860161062d565b92509250509250929050565b7f4e487b71000000000000000000000000000000000000000000000000000000005f52603260045260245ffd5b7f4e487b71000000000000000000000000000000000000000000000000000000005f52602260045260245ffd5b5f600282049050600182168061073e57607f821691505b602082108103610751576107506106fa565b5b50919050565b7f4e487b71000000000000000000000000000000000000000000000000000000005f52604160045260245ffd5b5f819050815f5260205f209050919050565b5f6020601f8301049050919050565b5f82821b905092915050565b5f600883026107e07fffffffffffffffffffffffffffffffffffffffffffffffffffffffffffffffff826107a5565b6107ea86836107a5565b95508019841693508086168417925050509392505050565b5f819050919050565b5f61082561082061081b8461050b565b610802565b61050b565b9050919050565b5f819050919050565b61083e8361080b565b61085261084a8261082c565b8484546107b1565b825550505050565b5f90565b61086661085a565b610871818484610835565b505050565b5b81811015610894576108895f8261085e565b600181019050610877565b5050565b601f8211156108d9576108aa81610784565b6108b384610796565b810160208510156108c2578190505b6108d66108ce85610796565b830182610876565b50505b505050565b5f82821c905092915050565b5f6108f95f19846008026108de565b1980831691505092915050565b5f61091183836108ea565b9150826002028217905092915050565b61092a82610569565b67ffffffffffffffff81111561094357610942610757565b5b61094d8254610727565b610958828285610898565b5f60209050601f831160018114610989575f8415610977578287015190505b6109818582610906565b8655506109e8565b601f19841661099786610784565b5f5b828110156109be57848901518255600182019150602085019450602081019050610999565b868310156109db57848901516109d7601f8916826108ea565b8355505b6001600288020188555050505b50505050505056fea264697066735822122014e6ce154d20c9cb40278b242a8b9e0dab2a53d5de5c53e0f3be329a9925e39964736f6c634300081a0033",
					"opcodes": "PUSH1 0x80 PUSH1 0x40 MSTORE CALLVALUE DUP1 ISZERO PUSH1 0xE JUMPI PUSH0 DUP1 REVERT JUMPDEST POP PUSH2 0xA26 DUP1 PUSH2 0x1C PUSH0 CODECOPY PUSH0 RETURN INVALID PUSH1 0x80 PUSH1 0x40 MSTORE CALLVALUE DUP1 ISZERO PUSH2 0xF JUMPI PUSH0 DUP1 REVERT JUMPDEST POP PUSH1 0x4 CALLDATASIZE LT PUSH2 0x4A JUMPI PUSH0 CALLDATALOAD PUSH1 0xE0 SHR DUP1 PUSH4 0x9507D39A EQ PUSH2 0x4E JUMPI DUP1 PUSH4 0xB6A46B3B EQ PUSH2 0x7F JUMPI DUP1 PUSH4 0xBC8BC2B4 EQ PUSH2 0x9B JUMPI DUP1 PUSH4 0xC0CCA5EF EQ PUSH2 0xCC JUMPI JUMPDEST PUSH0 DUP1 REVERT JUMPDEST PUSH2 0x68 PUSH1 0x4 DUP1 CALLDATASIZE SUB DUP2 ADD SWAP1 PUSH2 0x63 SWAP2 SWAP1 PUSH2 0x53E JUMP JUMPDEST PUSH2 0xE8 JUMP JUMPDEST PUSH1 0x40 MLOAD PUSH2 0x76 SWAP3 SWAP2 SWAP1 PUSH2 0x5F3 JUMP JUMPDEST PUSH1 0x40 MLOAD DUP1 SWAP2 SUB SWAP1 RETURN JUMPDEST PUSH2 0x99 PUSH1 0x4 DUP1 CALLDATASIZE SUB DUP2 ADD SWAP1 PUSH2 0x94 SWAP2 SWAP1 PUSH2 0x682 JUMP JUMPDEST PUSH2 0x1B5 JUMP JUMPDEST STOP JUMPDEST PUSH2 0xB5 PUSH1 0x4 DUP1 CALLDATASIZE SUB DUP2 ADD SWAP1 PUSH2 0xB0 SWAP2 SWAP1 PUSH2 0x53E JUMP JUMPDEST PUSH2 0x3D6 JUMP JUMPDEST PUSH1 0x40 MLOAD PUSH2 0xC3 SWAP3 SWAP2 SWAP1 PUSH2 0x5F3 JUMP JUMPDEST PUSH1 0x40 MLOAD DUP1 SWAP2 SUB SWAP1 RETURN JUMPDEST PUSH2 0xE6 PUSH1 0x4 DUP1 CALLDATASIZE SUB DUP2 ADD SWAP1 PUSH2 0xE1 SWAP2 SWAP1 PUSH2 0x53E JUMP JUMPDEST PUSH2 0x496 JUMP JUMPDEST STOP JUMPDEST PUSH1 0x60 PUSH0 DUP1 PUSH0 DUP5 DUP2 SLOAD DUP2 LT PUSH2 0xFF JUMPI PUSH2 0xFE PUSH2 0x6CD JUMP JUMPDEST JUMPDEST SWAP1 PUSH0 MSTORE PUSH1 0x20 PUSH0 KECCAK256 SWAP1 PUSH1 0x2 MUL ADD SWAP1 POP DUP1 PUSH0 ADD DUP2 PUSH1 0x1 ADD PUSH0 SWAP1 SLOAD SWAP1 PUSH2 0x100 EXP SWAP1 DIV PUSH1 0xFF AND DUP2 DUP1 SLOAD PUSH2 0x12D SWAP1 PUSH2 0x727 JUMP JUMPDEST DUP1 PUSH1 0x1F ADD PUSH1 0x20 DUP1 SWAP2 DIV MUL PUSH1 0x20 ADD PUSH1 0x40 MLOAD SWAP1 DUP2 ADD PUSH1 0x40 MSTORE DUP1 SWAP3 SWAP2 SWAP1 DUP2 DUP2 MSTORE PUSH1 0x20 ADD DUP3 DUP1 SLOAD PUSH2 0x159 SWAP1 PUSH2 0x727 JUMP JUMPDEST DUP1 ISZERO PUSH2 0x1A4 JUMPI DUP1 PUSH1 0x1F LT PUSH2 0x17B JUMPI PUSH2 0x100 DUP1 DUP4 SLOAD DIV MUL DUP4 MSTORE SWAP2 PUSH1 0x20 ADD SWAP2 PUSH2 0x1A4 JUMP JUMPDEST DUP3 ADD SWAP2 SWAP1 PUSH0 MSTORE PUSH1 0x20 PUSH0 KECCAK256 SWAP1 JUMPDEST DUP2 SLOAD DUP2 MSTORE SWAP1 PUSH1 0x1 ADD SWAP1 PUSH1 0x20 ADD DUP1 DUP4 GT PUSH2 0x187 JUMPI DUP3 SWAP1 SUB PUSH1 0x1F AND DUP3 ADD SWAP2 JUMPDEST POP POP POP POP POP SWAP2 POP SWAP3 POP SWAP3 POP POP SWAP2 POP SWAP2 JUMP JUMPDEST PUSH0 PUSH1 0x40 MLOAD DUP1 PUSH1 0x40 ADD PUSH1 0x40 MSTORE DUP1 DUP5 DUP5 DUP1 DUP1 PUSH1 0x1F ADD PUSH1 0x20 DUP1 SWAP2 DIV MUL PUSH1 0x20 ADD PUSH1 0x40 MLOAD SWAP1 DUP2 ADD PUSH1 0x40 MSTORE DUP1 SWAP4 SWAP3 SWAP2 SWAP1 DUP2 DUP2 MSTORE PUSH1 0x20 ADD DUP4 DUP4 DUP1 DUP3 DUP5 CALLDATACOPY PUSH0 DUP2 DUP5 ADD MSTORE PUSH1 0x1F NOT PUSH1 0x1F DUP3 ADD AND SWAP1 POP DUP1 DUP4 ADD SWAP3 POP POP POP POP POP POP POP DUP2 MSTORE PUSH1 0x20 ADD PUSH0 ISZERO ISZERO DUP2 MSTORE POP SWAP1 DUP1 PUSH1 0x1 DUP2 SLOAD ADD DUP1 DUP3 SSTORE DUP1 SWAP2 POP POP PUSH1 0x1 SWAP1 SUB SWAP1 PUSH0 MSTORE PUSH1 0x20 PUSH0 KECCAK256 SWAP1 PUSH1 0x2 MUL ADD PUSH0 SWAP1 SWAP2 SWAP1 SWAP2 SWAP1 SWAP2 POP PUSH0 DUP3 ADD MLOAD DUP2 PUSH0 ADD SWAP1 DUP2 PUSH2 0x249 SWAP2 SWAP1 PUSH2 0x921 JUMP JUMPDEST POP PUSH1 0x20 DUP3 ADD MLOAD DUP2 PUSH1 0x1 ADD PUSH0 PUSH2 0x100 EXP DUP2 SLOAD DUP2 PUSH1 0xFF MUL NOT AND SWAP1 DUP4 ISZERO ISZERO MUL OR SWAP1 SSTORE POP POP POP PUSH0 PUSH1 0x40 MLOAD DUP1 PUSH1 0x40 ADD PUSH1 0x40 MSTORE DUP1 DUP5 DUP5 DUP1 DUP1 PUSH1 0x1F ADD PUSH1 0x20 DUP1 SWAP2 DIV MUL PUSH1 0x20 ADD PUSH1 0x40 MLOAD SWAP1 DUP2 ADD PUSH1 0x40 MSTORE DUP1 SWAP4 SWAP3 SWAP2 SWAP1 DUP2 DUP2 MSTORE PUSH1 0x20 ADD DUP4 DUP4 DUP1 DUP3 DUP5 CALLDATACOPY PUSH0 DUP2 DUP5 ADD MSTORE PUSH1 0x1F NOT PUSH1 0x1F DUP3 ADD AND SWAP1 POP DUP1 DUP4 ADD SWAP3 POP POP POP POP POP POP POP DUP2 MSTORE PUSH1 0x20 ADD PUSH0 ISZERO ISZERO DUP2 MSTORE POP SWAP1 DUP1 PUSH1 0x1 DUP2 SLOAD ADD DUP1 DUP3 SSTORE DUP1 SWAP2 POP POP PUSH1 0x1 SWAP1 SUB SWAP1 PUSH0 MSTORE PUSH1 0x20 PUSH0 KECCAK256 SWAP1 PUSH1 0x2 MUL ADD PUSH0 SWAP1 SWAP2 SWAP1 SWAP2 SWAP1 SWAP2 POP PUSH0 DUP3 ADD MLOAD DUP2 PUSH0 ADD SWAP1 DUP2 PUSH2 0x2FF SWAP2 SWAP1 PUSH2 0x921 JUMP JUMPDEST POP PUSH1 0x20 DUP3 ADD MLOAD DUP2 PUSH1 0x1 ADD PUSH0 PUSH2 0x100 EXP DUP2 SLOAD DUP2 PUSH1 0xFF MUL NOT AND SWAP1 DUP4 ISZERO ISZERO MUL OR SWAP1 SSTORE POP POP POP PUSH2 0x329 PUSH2 0x4E8 JUMP JUMPDEST DUP3 DUP3 DUP1 DUP1 PUSH1 0x1F ADD PUSH1 0x20 DUP1 SWAP2 DIV MUL PUSH1 0x20 ADD PUSH1 0x40 MLOAD SWAP1 DUP2 ADD PUSH1 0x40 MSTORE DUP1 SWAP4 SWAP3 SWAP2 SWAP1 DUP2 DUP2 MSTORE PUSH1 0x20 ADD DUP4 DUP4 DUP1 DUP3 DUP5 CALLDATACOPY PUSH0 DUP2 DUP5 ADD MSTORE PUSH1 0x1F NOT PUSH1 0x1F DUP3 ADD AND SWAP1 POP DUP1 DUP4 ADD SWAP3 POP POP POP POP POP POP POP DUP2 PUSH0 ADD DUP2 SWAP1 MSTORE POP PUSH0 DUP2 SWAP1 DUP1 PUSH1 0x1 DUP2 SLOAD ADD DUP1 DUP3 SSTORE DUP1 SWAP2 POP POP PUSH1 0x1 SWAP1 SUB SWAP1 PUSH0 MSTORE PUSH1 0x20 PUSH0 KECCAK256 SWAP1 PUSH1 0x2 MUL ADD PUSH0 SWAP1 SWAP2 SWAP1 SWAP2 SWAP1 SWAP2 POP PUSH0 DUP3 ADD MLOAD DUP2 PUSH0 ADD SWAP1 DUP2 PUSH2 0x3AF SWAP2 SWAP1 PUSH2 0x921 JUMP JUMPDEST POP PUSH1 0x20 DUP3 ADD MLOAD DUP2 PUSH1 0x1 ADD PUSH0 PUSH2 0x100 EXP DUP2 SLOAD DUP2 PUSH1 0xFF MUL NOT AND SWAP1 DUP4 ISZERO ISZERO MUL OR SWAP1 SSTORE POP POP POP POP POP POP JUMP JUMPDEST PUSH0 DUP2 DUP2 SLOAD DUP2 LT PUSH2 0x3E4 JUMPI PUSH0 DUP1 REVERT JUMPDEST SWAP1 PUSH0 MSTORE PUSH1 0x20 PUSH0 KECCAK256 SWAP1 PUSH1 0x2 MUL ADD PUSH0 SWAP2 POP SWAP1 POP DUP1 PUSH0 ADD DUP1 SLOAD PUSH2 0x403 SWAP1 PUSH2 0x727 JUMP JUMPDEST DUP1 PUSH1 0x1F ADD PUSH1 0x20 DUP1 SWAP2 DIV MUL PUSH1 0x20 ADD PUSH1 0x40 MLOAD SWAP1 DUP2 ADD PUSH1 0x40 MSTORE DUP1 SWAP3 SWAP2 SWAP1 DUP2 DUP2 MSTORE PUSH1 0x20 ADD DUP3 DUP1 SLOAD PUSH2 0x42F SWAP1 PUSH2 0x727 JUMP JUMPDEST DUP1 ISZERO PUSH2 0x47A JUMPI DUP1 PUSH1 0x1F LT PUSH2 0x451 JUMPI PUSH2 0x100 DUP1 DUP4 SLOAD DIV MUL DUP4 MSTORE SWAP2 PUSH1 0x20 ADD SWAP2 PUSH2 0x47A JUMP JUMPDEST DUP3 ADD SWAP2 SWAP1 PUSH0 MSTORE PUSH1 0x20 PUSH0 KECCAK256 SWAP1 JUMPDEST DUP2 SLOAD DUP2 MSTORE SWAP1 PUSH1 0x1 ADD SWAP1 PUSH1 0x20 ADD DUP1 DUP4 GT PUSH2 0x45D JUMPI DUP3 SWAP1 SUB PUSH1 0x1F AND DUP3 ADD SWAP2 JUMPDEST POP POP POP POP POP SWAP1 DUP1 PUSH1 0x1 ADD PUSH0 SWAP1 SLOAD SWAP1 PUSH2 0x100 EXP SWAP1 DIV PUSH1 0xFF AND SWAP1 POP DUP3 JUMP JUMPDEST PUSH0 DUP1 DUP3 DUP2 SLOAD DUP2 LT PUSH2 0x4AA JUMPI PUSH2 0x4A9 PUSH2 0x6CD JUMP JUMPDEST JUMPDEST SWAP1 PUSH0 MSTORE PUSH1 0x20 PUSH0 KECCAK256 SWAP1 PUSH1 0x2 MUL ADD SWAP1 POP DUP1 PUSH1 0x1 ADD PUSH0 SWAP1 SLOAD SWAP1 PUSH2 0x100 EXP SWAP1 DIV PUSH1 0xFF AND ISZERO DUP2 PUSH1 0x1 ADD PUSH0 PUSH2 0x100 EXP DUP2 SLOAD DUP2 PUSH1 0xFF MUL NOT AND SWAP1 DUP4 ISZERO ISZERO MUL OR SWAP1 SSTORE POP POP POP JUMP JUMPDEST PUSH1 0x40 MLOAD DUP1 PUSH1 0x40 ADD PUSH1 0x40 MSTORE DUP1 PUSH1 0x60 DUP2 MSTORE PUSH1 0x20 ADD PUSH0 ISZERO ISZERO DUP2 MSTORE POP SWAP1 JUMP JUMPDEST PUSH0 DUP1 REVERT JUMPDEST PUSH0 DUP1 REVERT JUMPDEST PUSH0 DUP2 SWAP1 POP SWAP2 SWAP1 POP JUMP JUMPDEST PUSH2 0x51D DUP2 PUSH2 0x50B JUMP JUMPDEST DUP2 EQ PUSH2 0x527 JUMPI PUSH0 DUP1 REVERT JUMPDEST POP JUMP JUMPDEST PUSH0 DUP2 CALLDATALOAD SWAP1 POP PUSH2 0x538 DUP2 PUSH2 0x514 JUMP JUMPDEST SWAP3 SWAP2 POP POP JUMP JUMPDEST PUSH0 PUSH1 0x20 DUP3 DUP5 SUB SLT ISZERO PUSH2 0x553 JUMPI PUSH2 0x552 PUSH2 0x503 JUMP JUMPDEST JUMPDEST PUSH0 PUSH2 0x560 DUP5 DUP3 DUP6 ADD PUSH2 0x52A JUMP JUMPDEST SWAP2 POP POP SWAP3 SWAP2 POP POP JUMP JUMPDEST PUSH0 DUP2 MLOAD SWAP1 POP SWAP2 SWAP1 POP JUMP JUMPDEST PUSH0 DUP3 DUP3 MSTORE PUSH1 0x20 DUP3 ADD SWAP1 POP SWAP3 SWAP2 POP POP JUMP JUMPDEST DUP3 DUP2 DUP4 MCOPY PUSH0 DUP4 DUP4 ADD MSTORE POP POP POP JUMP JUMPDEST PUSH0 PUSH1 0x1F NOT PUSH1 0x1F DUP4 ADD AND SWAP1 POP SWAP2 SWAP1 POP JUMP JUMPDEST PUSH0 PUSH2 0x5AB DUP3 PUSH2 0x569 JUMP JUMPDEST PUSH2 0x5B5 DUP2 DUP6 PUSH2 0x573 JUMP JUMPDEST SWAP4 POP PUSH2 0x5C5 DUP2 DUP6 PUSH1 0x20 DUP7 ADD PUSH2 0x583 JUMP JUMPDEST PUSH2 0x5CE DUP2 PUSH2 0x591 JUMP JUMPDEST DUP5 ADD SWAP2 POP POP SWAP3 SWAP2 POP POP JUMP JUMPDEST PUSH0 DUP2 ISZERO ISZERO SWAP1 POP SWAP2 SWAP1 POP JUMP JUMPDEST PUSH2 0x5ED DUP2 PUSH2 0x5D9 JUMP JUMPDEST DUP3 MSTORE POP POP JUMP JUMPDEST PUSH0 PUSH1 0x40 DUP3 ADD SWAP1 POP DUP2 DUP2 SUB PUSH0 DUP4 ADD MSTORE PUSH2 0x60B DUP2 DUP6 PUSH2 0x5A1 JUMP JUMPDEST SWAP1 POP PUSH2 0x61A PUSH1 0x20 DUP4 ADD DUP5 PUSH2 0x5E4 JUMP JUMPDEST SWAP4 SWAP3 POP POP POP JUMP JUMPDEST PUSH0 DUP1 REVERT JUMPDEST PUSH0 DUP1 REVERT JUMPDEST PUSH0 DUP1 REVERT JUMPDEST PUSH0 DUP1 DUP4 PUSH1 0x1F DUP5 ADD SLT PUSH2 0x642 JUMPI PUSH2 0x641 PUSH2 0x621 JUMP JUMPDEST JUMPDEST DUP3 CALLDATALOAD SWAP1 POP PUSH8 0xFFFFFFFFFFFFFFFF DUP2 GT ISZERO PUSH2 0x65F JUMPI PUSH2 0x65E PUSH2 0x625 JUMP JUMPDEST JUMPDEST PUSH1 0x20 DUP4 ADD SWAP2 POP DUP4 PUSH1 0x1 DUP3 MUL DUP4 ADD GT ISZERO PUSH2 0x67B JUMPI PUSH2 0x67A PUSH2 0x629 JUMP JUMPDEST JUMPDEST SWAP3 POP SWAP3 SWAP1 POP JUMP JUMPDEST PUSH0 DUP1 PUSH1 0x20 DUP4 DUP6 SUB SLT ISZERO PUSH2 0x698 JUMPI PUSH2 0x697 PUSH2 0x503 JUMP JUMPDEST JUMPDEST PUSH0 DUP4 ADD CALLDATALOAD PUSH8 0xFFFFFFFFFFFFFFFF DUP2 GT ISZERO PUSH2 0x6B5 JUMPI PUSH2 0x6B4 PUSH2 0x507 JUMP JUMPDEST JUMPDEST PUSH2 0x6C1 DUP6 DUP3 DUP7 ADD PUSH2 0x62D JUMP JUMPDEST SWAP3 POP SWAP3 POP POP SWAP3 POP SWAP3 SWAP1 POP JUMP JUMPDEST PUSH32 0x4E487B7100000000000000000000000000000000000000000000000000000000 PUSH0 MSTORE PUSH1 0x32 PUSH1 0x4 MSTORE PUSH1 0x24 PUSH0 REVERT JUMPDEST PUSH32 0x4E487B7100000000000000000000000000000000000000000000000000000000 PUSH0 MSTORE PUSH1 0x22 PUSH1 0x4 MSTORE PUSH1 0x24 PUSH0 REVERT JUMPDEST PUSH0 PUSH1 0x2 DUP3 DIV SWAP1 POP PUSH1 0x1 DUP3 AND DUP1 PUSH2 0x73E JUMPI PUSH1 0x7F DUP3 AND SWAP2 POP JUMPDEST PUSH1 0x20 DUP3 LT DUP2 SUB PUSH2 0x751 JUMPI PUSH2 0x750 PUSH2 0x6FA JUMP JUMPDEST JUMPDEST POP SWAP2 SWAP1 POP JUMP JUMPDEST PUSH32 0x4E487B7100000000000000000000000000000000000000000000000000000000 PUSH0 MSTORE PUSH1 0x41 PUSH1 0x4 MSTORE PUSH1 0x24 PUSH0 REVERT JUMPDEST PUSH0 DUP2 SWAP1 POP DUP2 PUSH0 MSTORE PUSH1 0x20 PUSH0 KECCAK256 SWAP1 POP SWAP2 SWAP1 POP JUMP JUMPDEST PUSH0 PUSH1 0x20 PUSH1 0x1F DUP4 ADD DIV SWAP1 POP SWAP2 SWAP1 POP JUMP JUMPDEST PUSH0 DUP3 DUP3 SHL SWAP1 POP SWAP3 SWAP2 POP POP JUMP JUMPDEST PUSH0 PUSH1 0x8 DUP4 MUL PUSH2 0x7E0 PUSH32 0xFFFFFFFFFFFFFFFFFFFFFFFFFFFFFFFFFFFFFFFFFFFFFFFFFFFFFFFFFFFFFFFF DUP3 PUSH2 0x7A5 JUMP JUMPDEST PUSH2 0x7EA DUP7 DUP4 PUSH2 0x7A5 JUMP JUMPDEST SWAP6 POP DUP1 NOT DUP5 AND SWAP4 POP DUP1 DUP7 AND DUP5 OR SWAP3 POP POP POP SWAP4 SWAP3 POP POP POP JUMP JUMPDEST PUSH0 DUP2 SWAP1 POP SWAP2 SWAP1 POP JUMP JUMPDEST PUSH0 PUSH2 0x825 PUSH2 0x820 PUSH2 0x81B DUP5 PUSH2 0x50B JUMP JUMPDEST PUSH2 0x802 JUMP JUMPDEST PUSH2 0x50B JUMP JUMPDEST SWAP1 POP SWAP2 SWAP1 POP JUMP JUMPDEST PUSH0 DUP2 SWAP1 POP SWAP2 SWAP1 POP JUMP JUMPDEST PUSH2 0x83E DUP4 PUSH2 0x80B JUMP JUMPDEST PUSH2 0x852 PUSH2 0x84A DUP3 PUSH2 0x82C JUMP JUMPDEST DUP5 DUP5 SLOAD PUSH2 0x7B1 JUMP JUMPDEST DUP3 SSTORE POP POP POP POP JUMP JUMPDEST PUSH0 SWAP1 JUMP JUMPDEST PUSH2 0x866 PUSH2 0x85A JUMP JUMPDEST PUSH2 0x871 DUP2 DUP5 DUP5 PUSH2 0x835 JUMP JUMPDEST POP POP POP JUMP JUMPDEST JUMPDEST DUP2 DUP2 LT ISZERO PUSH2 0x894 JUMPI PUSH2 0x889 PUSH0 DUP3 PUSH2 0x85E JUMP JUMPDEST PUSH1 0x1 DUP2 ADD SWAP1 POP PUSH2 0x877 JUMP JUMPDEST POP POP JUMP JUMPDEST PUSH1 0x1F DUP3 GT ISZERO PUSH2 0x8D9 JUMPI PUSH2 0x8AA DUP2 PUSH2 0x784 JUMP JUMPDEST PUSH2 0x8B3 DUP5 PUSH2 0x796 JUMP JUMPDEST DUP2 ADD PUSH1 0x20 DUP6 LT ISZERO PUSH2 0x8C2 JUMPI DUP2 SWAP1 POP JUMPDEST PUSH2 0x8D6 PUSH2 0x8CE DUP6 PUSH2 0x796 JUMP JUMPDEST DUP4 ADD DUP3 PUSH2 0x876 JUMP JUMPDEST POP POP JUMPDEST POP POP POP JUMP JUMPDEST PUSH0 DUP3 DUP3 SHR SWAP1 POP SWAP3 SWAP2 POP POP JUMP JUMPDEST PUSH0 PUSH2 0x8F9 PUSH0 NOT DUP5 PUSH1 0x8 MUL PUSH2 0x8DE JUMP JUMPDEST NOT DUP1 DUP4 AND SWAP2 POP POP SWAP3 SWAP2 POP POP JUMP JUMPDEST PUSH0 PUSH2 0x911 DUP4 DUP4 PUSH2 0x8EA JUMP JUMPDEST SWAP2 POP DUP3 PUSH1 0x2 MUL DUP3 OR SWAP1 POP SWAP3 SWAP2 POP POP JUMP JUMPDEST PUSH2 0x92A DUP3 PUSH2 0x569 JUMP JUMPDEST PUSH8 0xFFFFFFFFFFFFFFFF DUP2 GT ISZERO PUSH2 0x943 JUMPI PUSH2 0x942 PUSH2 0x757 JUMP JUMPDEST JUMPDEST PUSH2 0x94D DUP3 SLOAD PUSH2 0x727 JUMP JUMPDEST PUSH2 0x958 DUP3 DUP3 DUP6 PUSH2 0x898 JUMP JUMPDEST PUSH0 PUSH1 0x20 SWAP1 POP PUSH1 0x1F DUP4 GT PUSH1 0x1 DUP2 EQ PUSH2 0x989 JUMPI PUSH0 DUP5 ISZERO PUSH2 0x977 JUMPI DUP3 DUP8 ADD MLOAD SWAP1 POP JUMPDEST PUSH2 0x981 DUP6 DUP3 PUSH2 0x906 JUMP JUMPDEST DUP7 SSTORE POP PUSH2 0x9E8 JUMP JUMPDEST PUSH1 0x1F NOT DUP5 AND PUSH2 0x997 DUP7 PUSH2 0x784 JUMP JUMPDEST PUSH0 JUMPDEST DUP3 DUP2 LT ISZERO PUSH2 0x9BE JUMPI DUP5 DUP10 ADD MLOAD DUP3 SSTORE PUSH1 0x1 DUP3 ADD SWAP2 POP PUSH1 0x20 DUP6 ADD SWAP5 POP PUSH1 0x20 DUP2 ADD SWAP1 POP PUSH2 0x999 JUMP JUMPDEST DUP7 DUP4 LT ISZERO PUSH2 0x9DB JUMPI DUP5 DUP10 ADD MLOAD PUSH2 0x9D7 PUSH1 0x1F DUP10 AND DUP3 PUSH2 0x8EA JUMP JUMPDEST DUP4 SSTORE POP JUMPDEST PUSH1 0x1 PUSH1 0x2 DUP9 MUL ADD DUP9 SSTORE POP POP POP JUMPDEST POP POP POP POP POP POP JUMP INVALID LOG2 PUSH5 0x6970667358 0x22 SLT KECCAK256 EQ 0xE6 0xCE ISZERO 0x4D KECCAK256 0xC9 0xCB BLOCKHASH 0x27 DUP12 0x24 0x2A DUP12 SWAP15 0xD 0xAB 0x2A MSTORE8 0xD5 0xDE TLOAD MSTORE8 0xE0 RETURN 0xBE ORIGIN SWAP11 SWAP10 0x25 0xE3 SWAP10 PUSH5 0x736F6C6343 STOP ADDMOD BYTE STOP CALLER "
				},
				"gasEstimates": {
					"creation": {
						"codeDepositCost": "519600",
						"executionCost": "554",
						"totalCost": "520154"
					},
					"external": {
						"completed(uint256)": "29062",
						"create(string)": "infinite",
						"get(uint256)": "infinite",
						"todos(uint256)": "infinite"
					}
				},
				"methodIdentifiers": {
					"completed(uint256)": "c0cca5ef",
					"create(string)": "b6a46b3b",
					"get(uint256)": "9507d39a",
					"todos(uint256)": "bc8bc2b4"
				}
			},
			"storageLayout": {
				"storage": [
					{
						"astId": 10,
						"contract": "contracts/todo.sol:todo",
						"label": "todos",
						"offset": 0,
						"slot": "0",
						"type": "t_array(t_struct(todo)6_storage)dyn_storage"
					}
				],
				"types": {
					"t_array(t_struct(todo)6_storage)dyn_storage": {
						"base": "t_struct(todo)6_storage",
						"encoding": "dynamic_array",
						"label": "struct todo.todo[]",
						"numberOfBytes": "32"
					},
					"t_bool": {
						"encoding": "inplace",
						"label": "bool",
						"numberOfBytes": "1"
					},
					"t_string_storage": {
						"encoding": "bytes",
						"label": "string",
						"numberOfBytes": "32"
					},
					"t_struct(todo)6_storage": {
						"encoding": "inplace",
						"label": "struct todo.todo",
						"members": [
							{
								"astId": 3,
								"contract": "contracts/todo.sol:todo",
								"label": "text",
								"offset": 0,
								"slot": "0",
								"type": "t_string_storage"
							},
							{
								"astId": 5,
								"contract": "contracts/todo.sol:todo",
								"label": "completed",
								"offset": 0,
								"slot": "1",
								"type": "t_bool"
							}
						],
						"numberOfBytes": "64"
					}
				}
			},
			"userdoc": {
				"kind": "user",
				"methods": {},
				"version": 1
			}
		}
	}
}