{
	"contracts/second program.sol": {
		"temparture": {
			"abi": [
				{
					"anonymous": false,
					"inputs": [
						{
							"indexed": false,
							"internalType": "int256",
							"name": "celi",
							"type": "int256"
						},
						{
							"indexed": false,
							"internalType": "int256",
							"name": "farh",
							"type": "int256"
						}
					],
					"name": "result",
					"type": "event"
				},
				{
					"inputs": [
						{
							"internalType": "int256",
							"name": "celi",
							"type": "int256"
						}
					],
					"name": "celitofahr",
					"outputs": [
						{
							"internalType": "int256",
							"name": "",
							"type": "int256"
						}
					],
					"stateMutability": "nonpayable",
					"type": "function"
				},
				{
					"inputs": [
						{
							"internalType": "uint256",
							"name": "celi",
							"type": "uint256"
						}
					],
					"name": "celitofahr2",
					"outputs": [
						{
							"internalType": "uint256",
							"name": "",
							"type": "uint256"
						}
					],
					"stateMutability": "nonpayable",
					"type": "function"
				},
				{
					"inputs": [
						{
							"internalType": "int256",
							"name": "farh",
							"type": "int256"
						}
					],
					"name": "farhatoceli",
					"outputs": [
						{
							"internalType": "int256",
							"name": "",
							"type": "int256"
						}
					],
					"stateMutability": "nonpayable",
					"type": "function"
				},
				{
					"inputs": [
						{
							"internalType": "uint256",
							"name": "farh",
							"type": "uint256"
						}
					],
					"name": "farhatoceli1",
					"outputs": [
						{
							"internalType": "uint256",
							"name": "",
							"type": "uint256"
						}
					],
					"stateMutability": "nonpayable",
					"type": "function"
				}
			],
			"devdoc": {
				"kind": "dev",
				"methods": {},
				"version": 1
			},
			"evm": {
				"assembly": "    /* \"contracts/second program.sol\":130:1036  contract temparture{... */\n  mstore(0x40, 0x80)\n  callvalue\n  dup1\n  iszero\n  tag_1\n  jumpi\n  0x00\n  dup1\n  revert\ntag_1:\n  pop\n  dataSize(sub_0)\n  dup1\n  dataOffset(sub_0)\n  0x00\n  codecopy\n  0x00\n  return\nstop\n\nsub_0: assembly {\n        /* \"contracts/second program.sol\":130:1036  contract temparture{... */\n      mstore(0x40, 0x80)\n      callvalue\n      dup1\n      iszero\n      tag_1\n      jumpi\n      0x00\n      dup1\n      revert\n    tag_1:\n      pop\n      jumpi(tag_2, lt(calldatasize, 0x04))\n      shr(0xe0, calldataload(0x00))\n      dup1\n      0x0bdf5797\n      eq\n      tag_3\n      jumpi\n      dup1\n      0x5ab26e5c\n      eq\n      tag_4\n      jumpi\n      dup1\n      0x6e66dec5\n      eq\n      tag_5\n      jumpi\n      dup1\n      0x96136d73\n      eq\n      tag_6\n      jumpi\n    tag_2:\n      0x00\n      dup1\n      revert\n        /* \"contracts/second program.sol\":639:805  function celitofahr(int celi) public returns (int){... */\n    tag_3:\n      tag_7\n      0x04\n      dup1\n      calldatasize\n      sub\n      dup2\n      add\n      swap1\n      tag_8\n      swap2\n      swap1\n      tag_9\n      jump\t// in\n    tag_8:\n      tag_10\n      jump\t// in\n    tag_7:\n      mload(0x40)\n      tag_11\n      swap2\n      swap1\n      tag_12\n      jump\t// in\n    tag_11:\n      mload(0x40)\n      dup1\n      swap2\n      sub\n      swap1\n      return\n        /* \"contracts/second program.sol\":866:1033  function celitofahr2 (uint celi) public returns (uint){... */\n    tag_4:\n      tag_13\n      0x04\n      dup1\n      calldatasize\n      sub\n      dup2\n      add\n      swap1\n      tag_14\n      swap2\n      swap1\n      tag_15\n      jump\t// in\n    tag_14:\n      tag_16\n      jump\t// in\n    tag_13:\n      mload(0x40)\n      tag_17\n      swap2\n      swap1\n      tag_18\n      jump\t// in\n    tag_17:\n      mload(0x40)\n      dup1\n      swap2\n      sub\n      swap1\n      return\n        /* \"contracts/second program.sol\":458:581  function farhatoceli1 (uint farh) public returns (uint){... */\n    tag_5:\n      tag_19\n      0x04\n      dup1\n      calldatasize\n      sub\n      dup2\n      add\n      swap1\n      tag_20\n      swap2\n      swap1\n      tag_15\n      jump\t// in\n    tag_20:\n      tag_21\n      jump\t// in\n    tag_19:\n      mload(0x40)\n      tag_22\n      swap2\n      swap1\n      tag_18\n      jump\t// in\n    tag_22:\n      mload(0x40)\n      dup1\n      swap2\n      sub\n      swap1\n      return\n        /* \"contracts/second program.sol\":240:452  function farhatoceli (int farh) public returns (int){... */\n    tag_6:\n      tag_23\n      0x04\n      dup1\n      calldatasize\n      sub\n      dup2\n      add\n      swap1\n      tag_24\n      swap2\n      swap1\n      tag_9\n      jump\t// in\n    tag_24:\n      tag_25\n      jump\t// in\n    tag_23:\n      mload(0x40)\n      tag_26\n      swap2\n      swap1\n      tag_12\n      jump\t// in\n    tag_26:\n      mload(0x40)\n      dup1\n      swap2\n      sub\n      swap1\n      return\n        /* \"contracts/second program.sol\":639:805  function celitofahr(int celi) public returns (int){... */\n    tag_10:\n        /* \"contracts/second program.sol\":685:688  int */\n      0x00\n        /* \"contracts/second program.sol\":700:708  int farh */\n      dup1\n        /* \"contracts/second program.sol\":728:730  32 */\n      0x20\n        /* \"contracts/second program.sol\":723:724  5 */\n      0x05\n        /* \"contracts/second program.sol\":719:720  9 */\n      0x09\n        /* \"contracts/second program.sol\":712:716  celi */\n      dup6\n        /* \"contracts/second program.sol\":712:720  celi * 9 */\n      tag_28\n      swap2\n      swap1\n      tag_29\n      jump\t// in\n    tag_28:\n        /* \"contracts/second program.sol\":712:724  celi * 9 / 5 */\n      tag_30\n      swap2\n      swap1\n      tag_31\n      jump\t// in\n    tag_30:\n        /* \"contracts/second program.sol\":711:730  (celi * 9 / 5) + 32 */\n      tag_32\n      swap2\n      swap1\n      tag_33\n      jump\t// in\n    tag_32:\n        /* \"contracts/second program.sol\":700:730  int farh = (celi * 9 / 5) + 32 */\n      swap1\n      pop\n        /* \"contracts/second program.sol\":772:776  farh */\n      dup1\n        /* \"contracts/second program.sol\":765:776  return farh */\n      swap2\n      pop\n      pop\n        /* \"contracts/second program.sol\":639:805  function celitofahr(int celi) public returns (int){... */\n      swap2\n      swap1\n      pop\n      jump\t// out\n        /* \"contracts/second program.sol\":866:1033  function celitofahr2 (uint celi) public returns (uint){... */\n    tag_16:\n        /* \"contracts/second program.sol\":915:919  uint */\n      0x00\n        /* \"contracts/second program.sol\":931:940  uint farh */\n      dup1\n        /* \"contracts/second program.sol\":958:960  32 */\n      0x20\n        /* \"contracts/second program.sol\":953:954  5 */\n      0x05\n        /* \"contracts/second program.sol\":951:952  9 */\n      0x09\n        /* \"contracts/second program.sol\":944:948  celi */\n      dup6\n        /* \"contracts/second program.sol\":944:952  celi * 9 */\n      tag_35\n      swap2\n      swap1\n      tag_36\n      jump\t// in\n    tag_35:\n        /* \"contracts/second program.sol\":944:954  celi * 9/5 */\n      tag_37\n      swap2\n      swap1\n      tag_38\n      jump\t// in\n    tag_37:\n        /* \"contracts/second program.sol\":943:960  (celi * 9/5) + 32 */\n      tag_39\n      swap2\n      swap1\n      tag_40\n      jump\t// in\n    tag_39:\n        /* \"contracts/second program.sol\":931:960  uint farh = (celi * 9/5) + 32 */\n      swap1\n      pop\n        /* \"contracts/second program.sol\":1002:1006  farh */\n      dup1\n        /* \"contracts/second program.sol\":995:1006  return farh */\n      swap2\n      pop\n      pop\n        /* \"contracts/second program.sol\":866:1033  function celitofahr2 (uint celi) public returns (uint){... */\n      swap2\n      swap1\n      pop\n      jump\t// out\n        /* \"contracts/second program.sol\":458:581  function farhatoceli1 (uint farh) public returns (uint){... */\n    tag_21:\n        /* \"contracts/second program.sol\":508:512  uint */\n      0x00\n        /* \"contracts/second program.sol\":524:533  uint celi */\n      dup1\n        /* \"contracts/second program.sol\":550:551  9 */\n      0x09\n        /* \"contracts/second program.sol\":548:549  5 */\n      0x05\n        /* \"contracts/second program.sol\":544:546  36 */\n      0x24\n        /* \"contracts/second program.sol\":537:541  farh */\n      dup6\n        /* \"contracts/second program.sol\":537:546  farh - 36 */\n      tag_42\n      swap2\n      swap1\n      tag_43\n      jump\t// in\n    tag_42:\n        /* \"contracts/second program.sol\":536:549  (farh - 36)*5 */\n      tag_44\n      swap2\n      swap1\n      tag_36\n      jump\t// in\n    tag_44:\n        /* \"contracts/second program.sol\":536:551  (farh - 36)*5/9 */\n      tag_45\n      swap2\n      swap1\n      tag_38\n      jump\t// in\n    tag_45:\n        /* \"contracts/second program.sol\":524:551  uint celi = (farh - 36)*5/9 */\n      swap1\n      pop\n        /* \"contracts/second program.sol\":569:573  celi */\n      dup1\n        /* \"contracts/second program.sol\":562:573  return celi */\n      swap2\n      pop\n      pop\n        /* \"contracts/second program.sol\":458:581  function farhatoceli1 (uint farh) public returns (uint){... */\n      swap2\n      swap1\n      pop\n      jump\t// out\n        /* \"contracts/second program.sol\":240:452  function farhatoceli (int farh) public returns (int){... */\n    tag_25:\n        /* \"contracts/second program.sol\":288:291  int */\n      0x00\n        /* \"contracts/second program.sol\":303:311  int celi */\n      dup1\n        /* \"contracts/second program.sol\":328:329  9 */\n      0x09\n        /* \"contracts/second program.sol\":326:327  5 */\n      0x05\n        /* \"contracts/second program.sol\":322:324  36 */\n      0x24\n        /* \"contracts/second program.sol\":315:319  farh */\n      dup6\n        /* \"contracts/second program.sol\":315:324  farh - 36 */\n      tag_47\n      swap2\n      swap1\n      tag_48\n      jump\t// in\n    tag_47:\n        /* \"contracts/second program.sol\":314:327  (farh - 36)*5 */\n      tag_49\n      swap2\n      swap1\n      tag_29\n      jump\t// in\n    tag_49:\n        /* \"contracts/second program.sol\":314:329  (farh - 36)*5/9 */\n      tag_50\n      swap2\n      swap1\n      tag_31\n      jump\t// in\n    tag_50:\n        /* \"contracts/second program.sol\":303:329  int celi = (farh - 36)*5/9 */\n      swap1\n      pop\n        /* \"contracts/second program.sol\":381:399  result(celi, farh) */\n      0x3c93eadbcf18be54efc565aa4639f8073067277757b38312d622551defd9d470\n        /* \"contracts/second program.sol\":388:392  celi */\n      dup2\n        /* \"contracts/second program.sol\":394:398  farh */\n      dup5\n        /* \"contracts/second program.sol\":381:399  result(celi, farh) */\n      mload(0x40)\n      tag_51\n      swap3\n      swap2\n      swap1\n      tag_52\n      jump\t// in\n    tag_51:\n      mload(0x40)\n      dup1\n      swap2\n      sub\n      swap1\n      log1\n        /* \"contracts/second program.sol\":417:421  celi */\n      dup1\n        /* \"contracts/second program.sol\":410:421  return celi */\n      swap2\n      pop\n      pop\n        /* \"contracts/second program.sol\":240:452  function farhatoceli (int farh) public returns (int){... */\n      swap2\n      swap1\n      pop\n      jump\t// out\n        /* \"#utility.yul\":88:205   */\n    tag_54:\n        /* \"#utility.yul\":197:198   */\n      0x00\n        /* \"#utility.yul\":194:195   */\n      dup1\n        /* \"#utility.yul\":187:199   */\n      revert\n        /* \"#utility.yul\":334:410   */\n    tag_56:\n        /* \"#utility.yul\":370:377   */\n      0x00\n        /* \"#utility.yul\":399:404   */\n      dup2\n        /* \"#utility.yul\":388:404   */\n      swap1\n      pop\n        /* \"#utility.yul\":334:410   */\n      swap2\n      swap1\n      pop\n      jump\t// out\n        /* \"#utility.yul\":416:536   */\n    tag_57:\n        /* \"#utility.yul\":488:511   */\n      tag_72\n        /* \"#utility.yul\":505:510   */\n      dup2\n        /* \"#utility.yul\":488:511   */\n      tag_56\n      jump\t// in\n    tag_72:\n        /* \"#utility.yul\":481:486   */\n      dup2\n        /* \"#utility.yul\":478:512   */\n      eq\n        /* \"#utility.yul\":468:530   */\n      tag_73\n      jumpi\n        /* \"#utility.yul\":526:527   */\n      0x00\n        /* \"#utility.yul\":523:524   */\n      dup1\n        /* \"#utility.yul\":516:528   */\n      revert\n        /* \"#utility.yul\":468:530   */\n    tag_73:\n        /* \"#utility.yul\":416:536   */\n      pop\n      jump\t// out\n        /* \"#utility.yul\":542:679   */\n    tag_58:\n        /* \"#utility.yul\":587:592   */\n      0x00\n        /* \"#utility.yul\":625:631   */\n      dup2\n        /* \"#utility.yul\":612:632   */\n      calldataload\n        /* \"#utility.yul\":603:632   */\n      swap1\n      pop\n        /* \"#utility.yul\":641:673   */\n      tag_75\n        /* \"#utility.yul\":667:672   */\n      dup2\n        /* \"#utility.yul\":641:673   */\n      tag_57\n      jump\t// in\n    tag_75:\n        /* \"#utility.yul\":542:679   */\n      swap3\n      swap2\n      pop\n      pop\n      jump\t// out\n        /* \"#utility.yul\":685:1012   */\n    tag_9:\n        /* \"#utility.yul\":743:749   */\n      0x00\n        /* \"#utility.yul\":792:794   */\n      0x20\n        /* \"#utility.yul\":780:789   */\n      dup3\n        /* \"#utility.yul\":771:778   */\n      dup5\n        /* \"#utility.yul\":767:790   */\n      sub\n        /* \"#utility.yul\":763:795   */\n      slt\n        /* \"#utility.yul\":760:879   */\n      iszero\n      tag_77\n      jumpi\n        /* \"#utility.yul\":798:877   */\n      tag_78\n      tag_54\n      jump\t// in\n    tag_78:\n        /* \"#utility.yul\":760:879   */\n    tag_77:\n        /* \"#utility.yul\":918:919   */\n      0x00\n        /* \"#utility.yul\":943:995   */\n      tag_79\n        /* \"#utility.yul\":987:994   */\n      dup5\n        /* \"#utility.yul\":978:984   */\n      dup3\n        /* \"#utility.yul\":967:976   */\n      dup6\n        /* \"#utility.yul\":963:985   */\n      add\n        /* \"#utility.yul\":943:995   */\n      tag_58\n      jump\t// in\n    tag_79:\n        /* \"#utility.yul\":933:995   */\n      swap2\n      pop\n        /* \"#utility.yul\":889:1005   */\n      pop\n        /* \"#utility.yul\":685:1012   */\n      swap3\n      swap2\n      pop\n      pop\n      jump\t// out\n        /* \"#utility.yul\":1018:1133   */\n    tag_59:\n        /* \"#utility.yul\":1103:1126   */\n      tag_81\n        /* \"#utility.yul\":1120:1125   */\n      dup2\n        /* \"#utility.yul\":1103:1126   */\n      tag_56\n      jump\t// in\n    tag_81:\n        /* \"#utility.yul\":1098:1101   */\n      dup3\n        /* \"#utility.yul\":1091:1127   */\n      mstore\n        /* \"#utility.yul\":1018:1133   */\n      pop\n      pop\n      jump\t// out\n        /* \"#utility.yul\":1139:1357   */\n    tag_12:\n        /* \"#utility.yul\":1230:1234   */\n      0x00\n        /* \"#utility.yul\":1268:1270   */\n      0x20\n        /* \"#utility.yul\":1257:1266   */\n      dup3\n        /* \"#utility.yul\":1253:1271   */\n      add\n        /* \"#utility.yul\":1245:1271   */\n      swap1\n      pop\n        /* \"#utility.yul\":1281:1350   */\n      tag_83\n        /* \"#utility.yul\":1347:1348   */\n      0x00\n        /* \"#utility.yul\":1336:1345   */\n      dup4\n        /* \"#utility.yul\":1332:1349   */\n      add\n        /* \"#utility.yul\":1323:1329   */\n      dup5\n        /* \"#utility.yul\":1281:1350   */\n      tag_59\n      jump\t// in\n    tag_83:\n        /* \"#utility.yul\":1139:1357   */\n      swap3\n      swap2\n      pop\n      pop\n      jump\t// out\n        /* \"#utility.yul\":1363:1440   */\n    tag_60:\n        /* \"#utility.yul\":1400:1407   */\n      0x00\n        /* \"#utility.yul\":1429:1434   */\n      dup2\n        /* \"#utility.yul\":1418:1434   */\n      swap1\n      pop\n        /* \"#utility.yul\":1363:1440   */\n      swap2\n      swap1\n      pop\n      jump\t// out\n        /* \"#utility.yul\":1446:1568   */\n    tag_61:\n        /* \"#utility.yul\":1519:1543   */\n      tag_86\n        /* \"#utility.yul\":1537:1542   */\n      dup2\n        /* \"#utility.yul\":1519:1543   */\n      tag_60\n      jump\t// in\n    tag_86:\n        /* \"#utility.yul\":1512:1517   */\n      dup2\n        /* \"#utility.yul\":1509:1544   */\n      eq\n        /* \"#utility.yul\":1499:1562   */\n      tag_87\n      jumpi\n        /* \"#utility.yul\":1558:1559   */\n      0x00\n        /* \"#utility.yul\":1555:1556   */\n      dup1\n        /* \"#utility.yul\":1548:1560   */\n      revert\n        /* \"#utility.yul\":1499:1562   */\n    tag_87:\n        /* \"#utility.yul\":1446:1568   */\n      pop\n      jump\t// out\n        /* \"#utility.yul\":1574:1713   */\n    tag_62:\n        /* \"#utility.yul\":1620:1625   */\n      0x00\n        /* \"#utility.yul\":1658:1664   */\n      dup2\n        /* \"#utility.yul\":1645:1665   */\n      calldataload\n        /* \"#utility.yul\":1636:1665   */\n      swap1\n      pop\n        /* \"#utility.yul\":1674:1707   */\n      tag_89\n        /* \"#utility.yul\":1701:1706   */\n      dup2\n        /* \"#utility.yul\":1674:1707   */\n      tag_61\n      jump\t// in\n    tag_89:\n        /* \"#utility.yul\":1574:1713   */\n      swap3\n      swap2\n      pop\n      pop\n      jump\t// out\n        /* \"#utility.yul\":1719:2048   */\n    tag_15:\n        /* \"#utility.yul\":1778:1784   */\n      0x00\n        /* \"#utility.yul\":1827:1829   */\n      0x20\n        /* \"#utility.yul\":1815:1824   */\n      dup3\n        /* \"#utility.yul\":1806:1813   */\n      dup5\n        /* \"#utility.yul\":1802:1825   */\n      sub\n        /* \"#utility.yul\":1798:1830   */\n      slt\n        /* \"#utility.yul\":1795:1914   */\n      iszero\n      tag_91\n      jumpi\n        /* \"#utility.yul\":1833:1912   */\n      tag_92\n      tag_54\n      jump\t// in\n    tag_92:\n        /* \"#utility.yul\":1795:1914   */\n    tag_91:\n        /* \"#utility.yul\":1953:1954   */\n      0x00\n        /* \"#utility.yul\":1978:2031   */\n      tag_93\n        /* \"#utility.yul\":2023:2030   */\n      dup5\n        /* \"#utility.yul\":2014:2020   */\n      dup3\n        /* \"#utility.yul\":2003:2012   */\n      dup6\n        /* \"#utility.yul\":1999:2021   */\n      add\n        /* \"#utility.yul\":1978:2031   */\n      tag_62\n      jump\t// in\n    tag_93:\n        /* \"#utility.yul\":1968:2031   */\n      swap2\n      pop\n        /* \"#utility.yul\":1924:2041   */\n      pop\n        /* \"#utility.yul\":1719:2048   */\n      swap3\n      swap2\n      pop\n      pop\n      jump\t// out\n        /* \"#utility.yul\":2054:2172   */\n    tag_63:\n        /* \"#utility.yul\":2141:2165   */\n      tag_95\n        /* \"#utility.yul\":2159:2164   */\n      dup2\n        /* \"#utility.yul\":2141:2165   */\n      tag_60\n      jump\t// in\n    tag_95:\n        /* \"#utility.yul\":2136:2139   */\n      dup3\n        /* \"#utility.yul\":2129:2166   */\n      mstore\n        /* \"#utility.yul\":2054:2172   */\n      pop\n      pop\n      jump\t// out\n        /* \"#utility.yul\":2178:2400   */\n    tag_18:\n        /* \"#utility.yul\":2271:2275   */\n      0x00\n        /* \"#utility.yul\":2309:2311   */\n      0x20\n        /* \"#utility.yul\":2298:2307   */\n      dup3\n        /* \"#utility.yul\":2294:2312   */\n      add\n        /* \"#utility.yul\":2286:2312   */\n      swap1\n      pop\n        /* \"#utility.yul\":2322:2393   */\n      tag_97\n        /* \"#utility.yul\":2390:2391   */\n      0x00\n        /* \"#utility.yul\":2379:2388   */\n      dup4\n        /* \"#utility.yul\":2375:2392   */\n      add\n        /* \"#utility.yul\":2366:2372   */\n      dup5\n        /* \"#utility.yul\":2322:2393   */\n      tag_63\n      jump\t// in\n    tag_97:\n        /* \"#utility.yul\":2178:2400   */\n      swap3\n      swap2\n      pop\n      pop\n      jump\t// out\n        /* \"#utility.yul\":2406:2586   */\n    tag_64:\n        /* \"#utility.yul\":2454:2531   */\n      0x4e487b7100000000000000000000000000000000000000000000000000000000\n        /* \"#utility.yul\":2451:2452   */\n      0x00\n        /* \"#utility.yul\":2444:2532   */\n      mstore\n        /* \"#utility.yul\":2551:2555   */\n      0x11\n        /* \"#utility.yul\":2548:2549   */\n      0x04\n        /* \"#utility.yul\":2541:2556   */\n      mstore\n        /* \"#utility.yul\":2575:2579   */\n      0x24\n        /* \"#utility.yul\":2572:2573   */\n      0x00\n        /* \"#utility.yul\":2565:2580   */\n      revert\n        /* \"#utility.yul\":2592:3148   */\n    tag_29:\n        /* \"#utility.yul\":2631:2638   */\n      0x00\n        /* \"#utility.yul\":2654:2673   */\n      tag_100\n        /* \"#utility.yul\":2671:2672   */\n      dup3\n        /* \"#utility.yul\":2654:2673   */\n      tag_56\n      jump\t// in\n    tag_100:\n        /* \"#utility.yul\":2649:2673   */\n      swap2\n      pop\n        /* \"#utility.yul\":2687:2706   */\n      tag_101\n        /* \"#utility.yul\":2704:2705   */\n      dup4\n        /* \"#utility.yul\":2687:2706   */\n      tag_56\n      jump\t// in\n    tag_101:\n        /* \"#utility.yul\":2682:2706   */\n      swap3\n      pop\n        /* \"#utility.yul\":2741:2742   */\n      dup3\n        /* \"#utility.yul\":2738:2739   */\n      dup3\n        /* \"#utility.yul\":2734:2743   */\n      mul\n        /* \"#utility.yul\":2763:2792   */\n      tag_102\n        /* \"#utility.yul\":2780:2791   */\n      dup2\n        /* \"#utility.yul\":2763:2792   */\n      tag_56\n      jump\t// in\n    tag_102:\n        /* \"#utility.yul\":2752:2792   */\n      swap2\n      pop\n        /* \"#utility.yul\":2850:2916   */\n      0x8000000000000000000000000000000000000000000000000000000000000000\n        /* \"#utility.yul\":2847:2848   */\n      dup5\n        /* \"#utility.yul\":2844:2917   */\n      eq\n        /* \"#utility.yul\":2840:2841   */\n      0x00\n        /* \"#utility.yul\":2837:2838   */\n      dup5\n        /* \"#utility.yul\":2833:2842   */\n      slt\n        /* \"#utility.yul\":2829:2918   */\n      and\n        /* \"#utility.yul\":2826:2941   */\n      iszero\n      tag_103\n      jumpi\n        /* \"#utility.yul\":2921:2939   */\n      tag_104\n      tag_64\n      jump\t// in\n    tag_104:\n        /* \"#utility.yul\":2826:2941   */\n    tag_103:\n        /* \"#utility.yul\":3091:3092   */\n      dup3\n        /* \"#utility.yul\":3082:3089   */\n      dup3\n        /* \"#utility.yul\":3077:3093   */\n      sdiv\n        /* \"#utility.yul\":3074:3075   */\n      dup5\n        /* \"#utility.yul\":3071:3094   */\n      eq\n        /* \"#utility.yul\":3051:3052   */\n      dup4\n        /* \"#utility.yul\":3044:3053   */\n      iszero\n        /* \"#utility.yul\":3024:3108   */\n      or\n        /* \"#utility.yul\":3001:3141   */\n      tag_105\n      jumpi\n        /* \"#utility.yul\":3121:3139   */\n      tag_106\n      tag_64\n      jump\t// in\n    tag_106:\n        /* \"#utility.yul\":3001:3141   */\n    tag_105:\n        /* \"#utility.yul\":2639:3148   */\n      pop\n        /* \"#utility.yul\":2592:3148   */\n      swap3\n      swap2\n      pop\n      pop\n      jump\t// out\n        /* \"#utility.yul\":3154:3334   */\n    tag_65:\n        /* \"#utility.yul\":3202:3279   */\n      0x4e487b7100000000000000000000000000000000000000000000000000000000\n        /* \"#utility.yul\":3199:3200   */\n      0x00\n        /* \"#utility.yul\":3192:3280   */\n      mstore\n        /* \"#utility.yul\":3299:3303   */\n      0x12\n        /* \"#utility.yul\":3296:3297   */\n      0x04\n        /* \"#utility.yul\":3289:3304   */\n      mstore\n        /* \"#utility.yul\":3323:3327   */\n      0x24\n        /* \"#utility.yul\":3320:3321   */\n      0x00\n        /* \"#utility.yul\":3313:3328   */\n      revert\n        /* \"#utility.yul\":3340:3725   */\n    tag_31:\n        /* \"#utility.yul\":3379:3380   */\n      0x00\n        /* \"#utility.yul\":3396:3415   */\n      tag_109\n        /* \"#utility.yul\":3413:3414   */\n      dup3\n        /* \"#utility.yul\":3396:3415   */\n      tag_56\n      jump\t// in\n    tag_109:\n        /* \"#utility.yul\":3391:3415   */\n      swap2\n      pop\n        /* \"#utility.yul\":3429:3448   */\n      tag_110\n        /* \"#utility.yul\":3446:3447   */\n      dup4\n        /* \"#utility.yul\":3429:3448   */\n      tag_56\n      jump\t// in\n    tag_110:\n        /* \"#utility.yul\":3424:3448   */\n      swap3\n      pop\n        /* \"#utility.yul\":3467:3468   */\n      dup3\n        /* \"#utility.yul\":3457:3492   */\n      tag_111\n      jumpi\n        /* \"#utility.yul\":3472:3490   */\n      tag_112\n      tag_65\n      jump\t// in\n    tag_112:\n        /* \"#utility.yul\":3457:3492   */\n    tag_111:\n        /* \"#utility.yul\":3658:3659   */\n      0x01\n        /* \"#utility.yul\":3655:3656   */\n      0x00\n        /* \"#utility.yul\":3651:3660   */\n      sub\n        /* \"#utility.yul\":3648:3649   */\n      dup4\n        /* \"#utility.yul\":3645:3661   */\n      eq\n        /* \"#utility.yul\":3564:3630   */\n      0x8000000000000000000000000000000000000000000000000000000000000000\n        /* \"#utility.yul\":3561:3562   */\n      dup4\n        /* \"#utility.yul\":3558:3631   */\n      eq\n        /* \"#utility.yul\":3541:3671   */\n      and\n        /* \"#utility.yul\":3538:3694   */\n      iszero\n      tag_113\n      jumpi\n        /* \"#utility.yul\":3674:3692   */\n      tag_114\n      tag_64\n      jump\t// in\n    tag_114:\n        /* \"#utility.yul\":3538:3694   */\n    tag_113:\n        /* \"#utility.yul\":3717:3718   */\n      dup3\n        /* \"#utility.yul\":3714:3715   */\n      dup3\n        /* \"#utility.yul\":3709:3719   */\n      sdiv\n        /* \"#utility.yul\":3704:3719   */\n      swap1\n      pop\n        /* \"#utility.yul\":3340:3725   */\n      swap3\n      swap2\n      pop\n      pop\n      jump\t// out\n        /* \"#utility.yul\":3731:4106   */\n    tag_33:\n        /* \"#utility.yul\":3770:3773   */\n      0x00\n        /* \"#utility.yul\":3789:3808   */\n      tag_116\n        /* \"#utility.yul\":3806:3807   */\n      dup3\n        /* \"#utility.yul\":3789:3808   */\n      tag_56\n      jump\t// in\n    tag_116:\n        /* \"#utility.yul\":3784:3808   */\n      swap2\n      pop\n        /* \"#utility.yul\":3822:3841   */\n      tag_117\n        /* \"#utility.yul\":3839:3840   */\n      dup4\n        /* \"#utility.yul\":3822:3841   */\n      tag_56\n      jump\t// in\n    tag_117:\n        /* \"#utility.yul\":3817:3841   */\n      swap3\n      pop\n        /* \"#utility.yul\":3864:3865   */\n      dup3\n        /* \"#utility.yul\":3861:3862   */\n      dup3\n        /* \"#utility.yul\":3857:3866   */\n      add\n        /* \"#utility.yul\":3850:3866   */\n      swap1\n      pop\n        /* \"#utility.yul\":4062:4063   */\n      dup3\n        /* \"#utility.yul\":4057:4060   */\n      dup2\n        /* \"#utility.yul\":4053:4064   */\n      slt\n        /* \"#utility.yul\":4046:4065   */\n      iszero\n        /* \"#utility.yul\":4042:4043   */\n      0x00\n        /* \"#utility.yul\":4039:4040   */\n      dup4\n        /* \"#utility.yul\":4035:4044   */\n      slt\n        /* \"#utility.yul\":4031:4066   */\n      and\n        /* \"#utility.yul\":4014:4015   */\n      dup4\n        /* \"#utility.yul\":4009:4012   */\n      dup3\n        /* \"#utility.yul\":4005:4016   */\n      slt\n        /* \"#utility.yul\":4000:4001   */\n      0x00\n        /* \"#utility.yul\":3997:3998   */\n      dup5\n        /* \"#utility.yul\":3993:4002   */\n      slt\n        /* \"#utility.yul\":3986:4003   */\n      iszero\n        /* \"#utility.yul\":3982:4017   */\n      and\n        /* \"#utility.yul\":3966:4076   */\n      or\n        /* \"#utility.yul\":3963:4099   */\n      iszero\n      tag_118\n      jumpi\n        /* \"#utility.yul\":4079:4097   */\n      tag_119\n      tag_64\n      jump\t// in\n    tag_119:\n        /* \"#utility.yul\":3963:4099   */\n    tag_118:\n        /* \"#utility.yul\":3731:4106   */\n      swap3\n      swap2\n      pop\n      pop\n      jump\t// out\n        /* \"#utility.yul\":4112:4522   */\n    tag_36:\n        /* \"#utility.yul\":4152:4159   */\n      0x00\n        /* \"#utility.yul\":4175:4195   */\n      tag_121\n        /* \"#utility.yul\":4193:4194   */\n      dup3\n        /* \"#utility.yul\":4175:4195   */\n      tag_60\n      jump\t// in\n    tag_121:\n        /* \"#utility.yul\":4170:4195   */\n      swap2\n      pop\n        /* \"#utility.yul\":4209:4229   */\n      tag_122\n        /* \"#utility.yul\":4227:4228   */\n      dup4\n        /* \"#utility.yul\":4209:4229   */\n      tag_60\n      jump\t// in\n    tag_122:\n        /* \"#utility.yul\":4204:4229   */\n      swap3\n      pop\n        /* \"#utility.yul\":4264:4265   */\n      dup3\n        /* \"#utility.yul\":4261:4262   */\n      dup3\n        /* \"#utility.yul\":4257:4266   */\n      mul\n        /* \"#utility.yul\":4286:4316   */\n      tag_123\n        /* \"#utility.yul\":4304:4315   */\n      dup2\n        /* \"#utility.yul\":4286:4316   */\n      tag_60\n      jump\t// in\n    tag_123:\n        /* \"#utility.yul\":4275:4316   */\n      swap2\n      pop\n        /* \"#utility.yul\":4465:4466   */\n      dup3\n        /* \"#utility.yul\":4456:4463   */\n      dup3\n        /* \"#utility.yul\":4452:4467   */\n      div\n        /* \"#utility.yul\":4449:4450   */\n      dup5\n        /* \"#utility.yul\":4446:4468   */\n      eq\n        /* \"#utility.yul\":4426:4427   */\n      dup4\n        /* \"#utility.yul\":4419:4428   */\n      iszero\n        /* \"#utility.yul\":4399:4482   */\n      or\n        /* \"#utility.yul\":4376:4515   */\n      tag_124\n      jumpi\n        /* \"#utility.yul\":4495:4513   */\n      tag_125\n      tag_64\n      jump\t// in\n    tag_125:\n        /* \"#utility.yul\":4376:4515   */\n    tag_124:\n        /* \"#utility.yul\":4160:4522   */\n      pop\n        /* \"#utility.yul\":4112:4522   */\n      swap3\n      swap2\n      pop\n      pop\n      jump\t// out\n        /* \"#utility.yul\":4528:4713   */\n    tag_38:\n        /* \"#utility.yul\":4568:4569   */\n      0x00\n        /* \"#utility.yul\":4585:4605   */\n      tag_127\n        /* \"#utility.yul\":4603:4604   */\n      dup3\n        /* \"#utility.yul\":4585:4605   */\n      tag_60\n      jump\t// in\n    tag_127:\n        /* \"#utility.yul\":4580:4605   */\n      swap2\n      pop\n        /* \"#utility.yul\":4619:4639   */\n      tag_128\n        /* \"#utility.yul\":4637:4638   */\n      dup4\n        /* \"#utility.yul\":4619:4639   */\n      tag_60\n      jump\t// in\n    tag_128:\n        /* \"#utility.yul\":4614:4639   */\n      swap3\n      pop\n        /* \"#utility.yul\":4658:4659   */\n      dup3\n        /* \"#utility.yul\":4648:4683   */\n      tag_129\n      jumpi\n        /* \"#utility.yul\":4663:4681   */\n      tag_130\n      tag_65\n      jump\t// in\n    tag_130:\n        /* \"#utility.yul\":4648:4683   */\n    tag_129:\n        /* \"#utility.yul\":4705:4706   */\n      dup3\n        /* \"#utility.yul\":4702:4703   */\n      dup3\n        /* \"#utility.yul\":4698:4707   */\n      div\n        /* \"#utility.yul\":4693:4707   */\n      swap1\n      pop\n        /* \"#utility.yul\":4528:4713   */\n      swap3\n      swap2\n      pop\n      pop\n      jump\t// out\n        /* \"#utility.yul\":4719:4910   */\n    tag_40:\n        /* \"#utility.yul\":4759:4762   */\n      0x00\n        /* \"#utility.yul\":4778:4798   */\n      tag_132\n        /* \"#utility.yul\":4796:4797   */\n      dup3\n        /* \"#utility.yul\":4778:4798   */\n      tag_60\n      jump\t// in\n    tag_132:\n        /* \"#utility.yul\":4773:4798   */\n      swap2\n      pop\n        /* \"#utility.yul\":4812:4832   */\n      tag_133\n        /* \"#utility.yul\":4830:4831   */\n      dup4\n        /* \"#utility.yul\":4812:4832   */\n      tag_60\n      jump\t// in\n    tag_133:\n        /* \"#utility.yul\":4807:4832   */\n      swap3\n      pop\n        /* \"#utility.yul\":4855:4856   */\n      dup3\n        /* \"#utility.yul\":4852:4853   */\n      dup3\n        /* \"#utility.yul\":4848:4857   */\n      add\n        /* \"#utility.yul\":4841:4857   */\n      swap1\n      pop\n        /* \"#utility.yul\":4876:4879   */\n      dup1\n        /* \"#utility.yul\":4873:4874   */\n      dup3\n        /* \"#utility.yul\":4870:4880   */\n      gt\n        /* \"#utility.yul\":4867:4903   */\n      iszero\n      tag_134\n      jumpi\n        /* \"#utility.yul\":4883:4901   */\n      tag_135\n      tag_64\n      jump\t// in\n    tag_135:\n        /* \"#utility.yul\":4867:4903   */\n    tag_134:\n        /* \"#utility.yul\":4719:4910   */\n      swap3\n      swap2\n      pop\n      pop\n      jump\t// out\n        /* \"#utility.yul\":4916:5110   */\n    tag_43:\n        /* \"#utility.yul\":4956:4960   */\n      0x00\n        /* \"#utility.yul\":4976:4996   */\n      tag_137\n        /* \"#utility.yul\":4994:4995   */\n      dup3\n        /* \"#utility.yul\":4976:4996   */\n      tag_60\n      jump\t// in\n    tag_137:\n        /* \"#utility.yul\":4971:4996   */\n      swap2\n      pop\n        /* \"#utility.yul\":5010:5030   */\n      tag_138\n        /* \"#utility.yul\":5028:5029   */\n      dup4\n        /* \"#utility.yul\":5010:5030   */\n      tag_60\n      jump\t// in\n    tag_138:\n        /* \"#utility.yul\":5005:5030   */\n      swap3\n      pop\n        /* \"#utility.yul\":5054:5055   */\n      dup3\n        /* \"#utility.yul\":5051:5052   */\n      dup3\n        /* \"#utility.yul\":5047:5056   */\n      sub\n        /* \"#utility.yul\":5039:5056   */\n      swap1\n      pop\n        /* \"#utility.yul\":5078:5079   */\n      dup2\n        /* \"#utility.yul\":5072:5076   */\n      dup2\n        /* \"#utility.yul\":5069:5080   */\n      gt\n        /* \"#utility.yul\":5066:5103   */\n      iszero\n      tag_139\n      jumpi\n        /* \"#utility.yul\":5083:5101   */\n      tag_140\n      tag_64\n      jump\t// in\n    tag_140:\n        /* \"#utility.yul\":5066:5103   */\n    tag_139:\n        /* \"#utility.yul\":4916:5110   */\n      swap3\n      swap2\n      pop\n      pop\n      jump\t// out\n        /* \"#utility.yul\":5116:5488   */\n    tag_48:\n        /* \"#utility.yul\":5155:5159   */\n      0x00\n        /* \"#utility.yul\":5175:5194   */\n      tag_142\n        /* \"#utility.yul\":5192:5193   */\n      dup3\n        /* \"#utility.yul\":5175:5194   */\n      tag_56\n      jump\t// in\n    tag_142:\n        /* \"#utility.yul\":5170:5194   */\n      swap2\n      pop\n        /* \"#utility.yul\":5208:5227   */\n      tag_143\n        /* \"#utility.yul\":5225:5226   */\n      dup4\n        /* \"#utility.yul\":5208:5227   */\n      tag_56\n      jump\t// in\n    tag_143:\n        /* \"#utility.yul\":5203:5227   */\n      swap3\n      pop\n        /* \"#utility.yul\":5251:5252   */\n      dup3\n        /* \"#utility.yul\":5248:5249   */\n      dup3\n        /* \"#utility.yul\":5244:5253   */\n      sub\n        /* \"#utility.yul\":5236:5253   */\n      swap1\n      pop\n        /* \"#utility.yul\":5445:5446   */\n      dup2\n        /* \"#utility.yul\":5439:5443   */\n      dup2\n        /* \"#utility.yul\":5435:5447   */\n      slt\n        /* \"#utility.yul\":5431:5432   */\n      0x00\n        /* \"#utility.yul\":5428:5429   */\n      dup5\n        /* \"#utility.yul\":5424:5433   */\n      slt\n        /* \"#utility.yul\":5420:5448   */\n      and\n        /* \"#utility.yul\":5403:5404   */\n      dup3\n        /* \"#utility.yul\":5397:5401   */\n      dup3\n        /* \"#utility.yul\":5393:5405   */\n      sgt\n        /* \"#utility.yul\":5388:5389   */\n      0x00\n        /* \"#utility.yul\":5385:5386   */\n      dup6\n        /* \"#utility.yul\":5381:5390   */\n      slt\n        /* \"#utility.yul\":5374:5391   */\n      iszero\n        /* \"#utility.yul\":5370:5406   */\n      and\n        /* \"#utility.yul\":5354:5458   */\n      or\n        /* \"#utility.yul\":5351:5481   */\n      iszero\n      tag_144\n      jumpi\n        /* \"#utility.yul\":5461:5479   */\n      tag_145\n      tag_64\n      jump\t// in\n    tag_145:\n        /* \"#utility.yul\":5351:5481   */\n    tag_144:\n        /* \"#utility.yul\":5116:5488   */\n      swap3\n      swap2\n      pop\n      pop\n      jump\t// out\n        /* \"#utility.yul\":5494:5818   */\n    tag_52:\n        /* \"#utility.yul\":5611:5615   */\n      0x00\n        /* \"#utility.yul\":5649:5651   */\n      0x40\n        /* \"#utility.yul\":5638:5647   */\n      dup3\n        /* \"#utility.yul\":5634:5652   */\n      add\n        /* \"#utility.yul\":5626:5652   */\n      swap1\n      pop\n        /* \"#utility.yul\":5662:5731   */\n      tag_147\n        /* \"#utility.yul\":5728:5729   */\n      0x00\n        /* \"#utility.yul\":5717:5726   */\n      dup4\n        /* \"#utility.yul\":5713:5730   */\n      add\n        /* \"#utility.yul\":5704:5710   */\n      dup6\n        /* \"#utility.yul\":5662:5731   */\n      tag_59\n      jump\t// in\n    tag_147:\n        /* \"#utility.yul\":5741:5811   */\n      tag_148\n        /* \"#utility.yul\":5807:5809   */\n      0x20\n        /* \"#utility.yul\":5796:5805   */\n      dup4\n        /* \"#utility.yul\":5792:5810   */\n      add\n        /* \"#utility.yul\":5783:5789   */\n      dup5\n        /* \"#utility.yul\":5741:5811   */\n      tag_59\n      jump\t// in\n    tag_148:\n        /* \"#utility.yul\":5494:5818   */\n      swap4\n      swap3\n      pop\n      pop\n      pop\n      jump\t// out\n\n    auxdata: 0xa26469706673582212204b4384b4c5b755b612a4b45f6906b6c2e7245e1174b4bfd9239140e338cddfe464736f6c634300081a0033\n}\n",
				"bytecode": {
					"linkReferences": {},
					"object": "6080604052348015600e575f80fd5b5061060c8061001c5f395ff3fe608060405234801561000f575f80fd5b506004361061004a575f3560e01c80630bdf57971461004e5780635ab26e5c1461007e5780636e66dec5146100ae57806396136d73146100de575b5f80fd5b61006860048036038101906100639190610246565b61010e565b6040516100759190610280565b60405180910390f35b610098600480360381019061009391906102cc565b610140565b6040516100a59190610306565b60405180910390f35b6100c860048036038101906100c391906102cc565b610172565b6040516100d59190610306565b60405180910390f35b6100f860048036038101906100f39190610246565b6101a4565b6040516101059190610280565b60405180910390f35b5f8060206005600985610121919061034c565b61012b91906103ef565b6101359190610457565b905080915050919050565b5f80602060056009856101539190610498565b61015d91906104d9565b6101679190610509565b905080915050919050565b5f8060096005602485610185919061053c565b61018f9190610498565b61019991906104d9565b905080915050919050565b5f80600960056024856101b7919061056f565b6101c1919061034c565b6101cb91906103ef565b90507f3c93eadbcf18be54efc565aa4639f8073067277757b38312d622551defd9d47081846040516101fe9291906105af565b60405180910390a180915050919050565b5f80fd5b5f819050919050565b61022581610213565b811461022f575f80fd5b50565b5f813590506102408161021c565b92915050565b5f6020828403121561025b5761025a61020f565b5b5f61026884828501610232565b91505092915050565b61027a81610213565b82525050565b5f6020820190506102935f830184610271565b92915050565b5f819050919050565b6102ab81610299565b81146102b5575f80fd5b50565b5f813590506102c6816102a2565b92915050565b5f602082840312156102e1576102e061020f565b5b5f6102ee848285016102b8565b91505092915050565b61030081610299565b82525050565b5f6020820190506103195f8301846102f7565b92915050565b7f4e487b71000000000000000000000000000000000000000000000000000000005f52601160045260245ffd5b5f61035682610213565b915061036183610213565b925082820261036f81610213565b91507f800000000000000000000000000000000000000000000000000000000000000084145f841216156103a6576103a561031f565b5b82820584148315176103bb576103ba61031f565b5b5092915050565b7f4e487b71000000000000000000000000000000000000000000000000000000005f52601260045260245ffd5b5f6103f982610213565b915061040483610213565b925082610414576104136103c2565b5b60015f0383147f80000000000000000000000000000000000000000000000000000000000000008314161561044c5761044b61031f565b5b828205905092915050565b5f61046182610213565b915061046c83610213565b92508282019050828112155f8312168382125f8412151617156104925761049161031f565b5b92915050565b5f6104a282610299565b91506104ad83610299565b92508282026104bb81610299565b915082820484148315176104d2576104d161031f565b5b5092915050565b5f6104e382610299565b91506104ee83610299565b9250826104fe576104fd6103c2565b5b828204905092915050565b5f61051382610299565b915061051e83610299565b92508282019050808211156105365761053561031f565b5b92915050565b5f61054682610299565b915061055183610299565b92508282039050818111156105695761056861031f565b5b92915050565b5f61057982610213565b915061058483610213565b925082820390508181125f8412168282135f8512151617156105a9576105a861031f565b5b92915050565b5f6040820190506105c25f830185610271565b6105cf6020830184610271565b939250505056fea26469706673582212204b4384b4c5b755b612a4b45f6906b6c2e7245e1174b4bfd9239140e338cddfe464736f6c634300081a0033",
					"opcodes": "PUSH1 0x80 PUSH1 0x40 MSTORE CALLVALUE DUP1 ISZERO PUSH1 0xE JUMPI PUSH0 DUP1 REVERT JUMPDEST POP PUSH2 0x60C DUP1 PUSH2 0x1C PUSH0 CODECOPY PUSH0 RETURN INVALID PUSH1 0x80 PUSH1 0x40 MSTORE CALLVALUE DUP1 ISZERO PUSH2 0xF JUMPI PUSH0 DUP1 REVERT JUMPDEST POP PUSH1 0x4 CALLDATASIZE LT PUSH2 0x4A JUMPI PUSH0 CALLDATALOAD PUSH1 0xE0 SHR DUP1 PUSH4 0xBDF5797 EQ PUSH2 0x4E JUMPI DUP1 PUSH4 0x5AB26E5C EQ PUSH2 0x7E JUMPI DUP1 PUSH4 0x6E66DEC5 EQ PUSH2 0xAE JUMPI DUP1 PUSH4 0x96136D73 EQ PUSH2 0xDE JUMPI JUMPDEST PUSH0 DUP1 REVERT JUMPDEST PUSH2 0x68 PUSH1 0x4 DUP1 CALLDATASIZE SUB DUP2 ADD SWAP1 PUSH2 0x63 SWAP2 SWAP1 PUSH2 0x246 JUMP JUMPDEST PUSH2 0x10E JUMP JUMPDEST PUSH1 0x40 MLOAD PUSH2 0x75 SWAP2 SWAP1 PUSH2 0x280 JUMP JUMPDEST PUSH1 0x40 MLOAD DUP1 SWAP2 SUB SWAP1 RETURN JUMPDEST PUSH2 0x98 PUSH1 0x4 DUP1 CALLDATASIZE SUB DUP2 ADD SWAP1 PUSH2 0x93 SWAP2 SWAP1 PUSH2 0x2CC JUMP JUMPDEST PUSH2 0x140 JUMP JUMPDEST PUSH1 0x40 MLOAD PUSH2 0xA5 SWAP2 SWAP1 PUSH2 0x306 JUMP JUMPDEST PUSH1 0x40 MLOAD DUP1 SWAP2 SUB SWAP1 RETURN JUMPDEST PUSH2 0xC8 PUSH1 0x4 DUP1 CALLDATASIZE SUB DUP2 ADD SWAP1 PUSH2 0xC3 SWAP2 SWAP1 PUSH2 0x2CC JUMP JUMPDEST PUSH2 0x172 JUMP JUMPDEST PUSH1 0x40 MLOAD PUSH2 0xD5 SWAP2 SWAP1 PUSH2 0x306 JUMP JUMPDEST PUSH1 0x40 MLOAD DUP1 SWAP2 SUB SWAP1 RETURN JUMPDEST PUSH2 0xF8 PUSH1 0x4 DUP1 CALLDATASIZE SUB DUP2 ADD SWAP1 PUSH2 0xF3 SWAP2 SWAP1 PUSH2 0x246 JUMP JUMPDEST PUSH2 0x1A4 JUMP JUMPDEST PUSH1 0x40 MLOAD PUSH2 0x105 SWAP2 SWAP1 PUSH2 0x280 JUMP JUMPDEST PUSH1 0x40 MLOAD DUP1 SWAP2 SUB SWAP1 RETURN JUMPDEST PUSH0 DUP1 PUSH1 0x20 PUSH1 0x5 PUSH1 0x9 DUP6 PUSH2 0x121 SWAP2 SWAP1 PUSH2 0x34C JUMP JUMPDEST PUSH2 0x12B SWAP2 SWAP1 PUSH2 0x3EF JUMP JUMPDEST PUSH2 0x135 SWAP2 SWAP1 PUSH2 0x457 JUMP JUMPDEST SWAP1 POP DUP1 SWAP2 POP POP SWAP2 SWAP1 POP JUMP JUMPDEST PUSH0 DUP1 PUSH1 0x20 PUSH1 0x5 PUSH1 0x9 DUP6 PUSH2 0x153 SWAP2 SWAP1 PUSH2 0x498 JUMP JUMPDEST PUSH2 0x15D SWAP2 SWAP1 PUSH2 0x4D9 JUMP JUMPDEST PUSH2 0x167 SWAP2 SWAP1 PUSH2 0x509 JUMP JUMPDEST SWAP1 POP DUP1 SWAP2 POP POP SWAP2 SWAP1 POP JUMP JUMPDEST PUSH0 DUP1 PUSH1 0x9 PUSH1 0x5 PUSH1 0x24 DUP6 PUSH2 0x185 SWAP2 SWAP1 PUSH2 0x53C JUMP JUMPDEST PUSH2 0x18F SWAP2 SWAP1 PUSH2 0x498 JUMP JUMPDEST PUSH2 0x199 SWAP2 SWAP1 PUSH2 0x4D9 JUMP JUMPDEST SWAP1 POP DUP1 SWAP2 POP POP SWAP2 SWAP1 POP JUMP JUMPDEST PUSH0 DUP1 PUSH1 0x9 PUSH1 0x5 PUSH1 0x24 DUP6 PUSH2 0x1B7 SWAP2 SWAP1 PUSH2 0x56F JUMP JUMPDEST PUSH2 0x1C1 SWAP2 SWAP1 PUSH2 0x34C JUMP JUMPDEST PUSH2 0x1CB SWAP2 SWAP1 PUSH2 0x3EF JUMP JUMPDEST SWAP1 POP PUSH32 0x3C93EADBCF18BE54EFC565AA4639F8073067277757B38312D622551DEFD9D470 DUP2 DUP5 PUSH1 0x40 MLOAD PUSH2 0x1FE SWAP3 SWAP2 SWAP1 PUSH2 0x5AF JUMP JUMPDEST PUSH1 0x40 MLOAD DUP1 SWAP2 SUB SWAP1 LOG1 DUP1 SWAP2 POP POP SWAP2 SWAP1 POP JUMP JUMPDEST PUSH0 DUP1 REVERT JUMPDEST PUSH0 DUP2 SWAP1 POP SWAP2 SWAP1 POP JUMP JUMPDEST PUSH2 0x225 DUP2 PUSH2 0x213 JUMP JUMPDEST DUP2 EQ PUSH2 0x22F JUMPI PUSH0 DUP1 REVERT JUMPDEST POP JUMP JUMPDEST PUSH0 DUP2 CALLDATALOAD SWAP1 POP PUSH2 0x240 DUP2 PUSH2 0x21C JUMP JUMPDEST SWAP3 SWAP2 POP POP JUMP JUMPDEST PUSH0 PUSH1 0x20 DUP3 DUP5 SUB SLT ISZERO PUSH2 0x25B JUMPI PUSH2 0x25A PUSH2 0x20F JUMP JUMPDEST JUMPDEST PUSH0 PUSH2 0x268 DUP5 DUP3 DUP6 ADD PUSH2 0x232 JUMP JUMPDEST SWAP2 POP POP SWAP3 SWAP2 POP POP JUMP JUMPDEST PUSH2 0x27A DUP2 PUSH2 0x213 JUMP JUMPDEST DUP3 MSTORE POP POP JUMP JUMPDEST PUSH0 PUSH1 0x20 DUP3 ADD SWAP1 POP PUSH2 0x293 PUSH0 DUP4 ADD DUP5 PUSH2 0x271 JUMP JUMPDEST SWAP3 SWAP2 POP POP JUMP JUMPDEST PUSH0 DUP2 SWAP1 POP SWAP2 SWAP1 POP JUMP JUMPDEST PUSH2 0x2AB DUP2 PUSH2 0x299 JUMP JUMPDEST DUP2 EQ PUSH2 0x2B5 JUMPI PUSH0 DUP1 REVERT JUMPDEST POP JUMP JUMPDEST PUSH0 DUP2 CALLDATALOAD SWAP1 POP PUSH2 0x2C6 DUP2 PUSH2 0x2A2 JUMP JUMPDEST SWAP3 SWAP2 POP POP JUMP JUMPDEST PUSH0 PUSH1 0x20 DUP3 DUP5 SUB SLT ISZERO PUSH2 0x2E1 JUMPI PUSH2 0x2E0 PUSH2 0x20F JUMP JUMPDEST JUMPDEST PUSH0 PUSH2 0x2EE DUP5 DUP3 DUP6 ADD PUSH2 0x2B8 JUMP JUMPDEST SWAP2 POP POP SWAP3 SWAP2 POP POP JUMP JUMPDEST PUSH2 0x300 DUP2 PUSH2 0x299 JUMP JUMPDEST DUP3 MSTORE POP POP JUMP JUMPDEST PUSH0 PUSH1 0x20 DUP3 ADD SWAP1 POP PUSH2 0x319 PUSH0 DUP4 ADD DUP5 PUSH2 0x2F7 JUMP JUMPDEST SWAP3 SWAP2 POP POP JUMP JUMPDEST PUSH32 0x4E487B7100000000000000000000000000000000000000000000000000000000 PUSH0 MSTORE PUSH1 0x11 PUSH1 0x4 MSTORE PUSH1 0x24 PUSH0 REVERT JUMPDEST PUSH0 PUSH2 0x356 DUP3 PUSH2 0x213 JUMP JUMPDEST SWAP2 POP PUSH2 0x361 DUP4 PUSH2 0x213 JUMP JUMPDEST SWAP3 POP DUP3 DUP3 MUL PUSH2 0x36F DUP2 PUSH2 0x213 JUMP JUMPDEST SWAP2 POP PUSH32 0x8000000000000000000000000000000000000000000000000000000000000000 DUP5 EQ PUSH0 DUP5 SLT AND ISZERO PUSH2 0x3A6 JUMPI PUSH2 0x3A5 PUSH2 0x31F JUMP JUMPDEST JUMPDEST DUP3 DUP3 SDIV DUP5 EQ DUP4 ISZERO OR PUSH2 0x3BB JUMPI PUSH2 0x3BA PUSH2 0x31F JUMP JUMPDEST JUMPDEST POP SWAP3 SWAP2 POP POP JUMP JUMPDEST PUSH32 0x4E487B7100000000000000000000000000000000000000000000000000000000 PUSH0 MSTORE PUSH1 0x12 PUSH1 0x4 MSTORE PUSH1 0x24 PUSH0 REVERT JUMPDEST PUSH0 PUSH2 0x3F9 DUP3 PUSH2 0x213 JUMP JUMPDEST SWAP2 POP PUSH2 0x404 DUP4 PUSH2 0x213 JUMP JUMPDEST SWAP3 POP DUP3 PUSH2 0x414 JUMPI PUSH2 0x413 PUSH2 0x3C2 JUMP JUMPDEST JUMPDEST PUSH1 0x1 PUSH0 SUB DUP4 EQ PUSH32 0x8000000000000000000000000000000000000000000000000000000000000000 DUP4 EQ AND ISZERO PUSH2 0x44C JUMPI PUSH2 0x44B PUSH2 0x31F JUMP JUMPDEST JUMPDEST DUP3 DUP3 SDIV SWAP1 POP SWAP3 SWAP2 POP POP JUMP JUMPDEST PUSH0 PUSH2 0x461 DUP3 PUSH2 0x213 JUMP JUMPDEST SWAP2 POP PUSH2 0x46C DUP4 PUSH2 0x213 JUMP JUMPDEST SWAP3 POP DUP3 DUP3 ADD SWAP1 POP DUP3 DUP2 SLT ISZERO PUSH0 DUP4 SLT AND DUP4 DUP3 SLT PUSH0 DUP5 SLT ISZERO AND OR ISZERO PUSH2 0x492 JUMPI PUSH2 0x491 PUSH2 0x31F JUMP JUMPDEST JUMPDEST SWAP3 SWAP2 POP POP JUMP JUMPDEST PUSH0 PUSH2 0x4A2 DUP3 PUSH2 0x299 JUMP JUMPDEST SWAP2 POP PUSH2 0x4AD DUP4 PUSH2 0x299 JUMP JUMPDEST SWAP3 POP DUP3 DUP3 MUL PUSH2 0x4BB DUP2 PUSH2 0x299 JUMP JUMPDEST SWAP2 POP DUP3 DUP3 DIV DUP5 EQ DUP4 ISZERO OR PUSH2 0x4D2 JUMPI PUSH2 0x4D1 PUSH2 0x31F JUMP JUMPDEST JUMPDEST POP SWAP3 SWAP2 POP POP JUMP JUMPDEST PUSH0 PUSH2 0x4E3 DUP3 PUSH2 0x299 JUMP JUMPDEST SWAP2 POP PUSH2 0x4EE DUP4 PUSH2 0x299 JUMP JUMPDEST SWAP3 POP DUP3 PUSH2 0x4FE JUMPI PUSH2 0x4FD PUSH2 0x3C2 JUMP JUMPDEST JUMPDEST DUP3 DUP3 DIV SWAP1 POP SWAP3 SWAP2 POP POP JUMP JUMPDEST PUSH0 PUSH2 0x513 DUP3 PUSH2 0x299 JUMP JUMPDEST SWAP2 POP PUSH2 0x51E DUP4 PUSH2 0x299 JUMP JUMPDEST SWAP3 POP DUP3 DUP3 ADD SWAP1 POP DUP1 DUP3 GT ISZERO PUSH2 0x536 JUMPI PUSH2 0x535 PUSH2 0x31F JUMP JUMPDEST JUMPDEST SWAP3 SWAP2 POP POP JUMP JUMPDEST PUSH0 PUSH2 0x546 DUP3 PUSH2 0x299 JUMP JUMPDEST SWAP2 POP PUSH2 0x551 DUP4 PUSH2 0x299 JUMP JUMPDEST SWAP3 POP DUP3 DUP3 SUB SWAP1 POP DUP2 DUP2 GT ISZERO PUSH2 0x569 JUMPI PUSH2 0x568 PUSH2 0x31F JUMP JUMPDEST JUMPDEST SWAP3 SWAP2 POP POP JUMP JUMPDEST PUSH0 PUSH2 0x579 DUP3 PUSH2 0x213 JUMP JUMPDEST SWAP2 POP PUSH2 0x584 DUP4 PUSH2 0x213 JUMP JUMPDEST SWAP3 POP DUP3 DUP3 SUB SWAP1 POP DUP2 DUP2 SLT PUSH0 DUP5 SLT AND DUP3 DUP3 SGT PUSH0 DUP6 SLT ISZERO AND OR ISZERO PUSH2 0x5A9 JUMPI PUSH2 0x5A8 PUSH2 0x31F JUMP JUMPDEST JUMPDEST SWAP3 SWAP2 POP POP JUMP JUMPDEST PUSH0 PUSH1 0x40 DUP3 ADD SWAP1 POP PUSH2 0x5C2 PUSH0 DUP4 ADD DUP6 PUSH2 0x271 JUMP JUMPDEST PUSH2 0x5CF PUSH1 0x20 DUP4 ADD DUP5 PUSH2 0x271 JUMP JUMPDEST SWAP4 SWAP3 POP POP POP JUMP INVALID LOG2 PUSH5 0x6970667358 0x22 SLT KECCAK256 0x4B NUMBER DUP5 0xB4 0xC5 0xB7 SSTORE 0xB6 SLT LOG4 0xB4 PUSH0 PUSH10 0x6B6C2E7245E1174B4BF 0xD9 0x23 SWAP2 BLOCKHASH 0xE3 CODESIZE 0xCD 0xDF 0xE4 PUSH5 0x736F6C6343 STOP ADDMOD BYTE STOP CALLER "
				},
				"gasEstimates": {
					"creation": {
						"codeDepositCost": "309600",
						"executionCost": "347",
						"totalCost": "309947"
					},
					"external": {
						"celitofahr(int256)": "infinite",
						"celitofahr2(uint256)": "infinite",
						"farhatoceli(int256)": "infinite",
						"farhatoceli1(uint256)": "infinite"
					}
				},
				"methodIdentifiers": {
					"celitofahr(int256)": "0bdf5797",
					"celitofahr2(uint256)": "5ab26e5c",
					"farhatoceli(int256)": "96136d73",
					"farhatoceli1(uint256)": "6e66dec5"
				}
			},
			"storageLayout": {
				"storage": [],
				"types": null
			},
			"userdoc": {
				"kind": "user",
				"methods": {},
				"version": 1
			}
		}
	}
}