{
	"contracts/My World.sol": {
		"KAIRAA": {
			"abi": [
				{
					"inputs": [],
					"stateMutability": "nonpayable",
					"type": "constructor"
				},
				{
					"anonymous": false,
					"inputs": [
						{
							"indexed": true,
							"internalType": "address",
							"name": "owner",
							"type": "address"
						},
						{
							"indexed": true,
							"internalType": "address",
							"name": "spender",
							"type": "address"
						},
						{
							"indexed": false,
							"internalType": "uint256",
							"name": "value",
							"type": "uint256"
						}
					],
					"name": "Approval",
					"type": "event"
				},
				{
					"anonymous": false,
					"inputs": [
						{
							"indexed": true,
							"internalType": "address",
							"name": "previousOwner",
							"type": "address"
						},
						{
							"indexed": true,
							"internalType": "address",
							"name": "newOwner",
							"type": "address"
						}
					],
					"name": "OwnershipTransferred",
					"type": "event"
				},
				{
					"anonymous": false,
					"inputs": [
						{
							"indexed": true,
							"internalType": "address",
							"name": "account",
							"type": "address"
						}
					],
					"name": "Paused",
					"type": "event"
				},
				{
					"anonymous": false,
					"inputs": [
						{
							"indexed": true,
							"internalType": "address",
							"name": "from",
							"type": "address"
						},
						{
							"indexed": true,
							"internalType": "address",
							"name": "to",
							"type": "address"
						},
						{
							"indexed": false,
							"internalType": "uint256",
							"name": "value",
							"type": "uint256"
						}
					],
					"name": "Transfer",
					"type": "event"
				},
				{
					"anonymous": false,
					"inputs": [
						{
							"indexed": true,
							"internalType": "address",
							"name": "account",
							"type": "address"
						}
					],
					"name": "Unpaused",
					"type": "event"
				},
				{
					"inputs": [
						{
							"internalType": "address",
							"name": "owner",
							"type": "address"
						},
						{
							"internalType": "address",
							"name": "spender",
							"type": "address"
						}
					],
					"name": "allowance",
					"outputs": [
						{
							"internalType": "uint256",
							"name": "",
							"type": "uint256"
						}
					],
					"stateMutability": "view",
					"type": "function"
				},
				{
					"inputs": [
						{
							"internalType": "address",
							"name": "spender",
							"type": "address"
						},
						{
							"internalType": "uint256",
							"name": "amount",
							"type": "uint256"
						}
					],
					"name": "approve",
					"outputs": [
						{
							"internalType": "bool",
							"name": "",
							"type": "bool"
						}
					],
					"stateMutability": "nonpayable",
					"type": "function"
				},
				{
					"inputs": [
						{
							"internalType": "address",
							"name": "account",
							"type": "address"
						}
					],
					"name": "balanceOf",
					"outputs": [
						{
							"internalType": "uint256",
							"name": "",
							"type": "uint256"
						}
					],
					"stateMutability": "view",
					"type": "function"
				},
				{
					"inputs": [
						{
							"internalType": "uint256",
							"name": "amount",
							"type": "uint256"
						}
					],
					"name": "burn",
					"outputs": [],
					"stateMutability": "nonpayable",
					"type": "function"
				},
				{
					"inputs": [
						{
							"internalType": "address",
							"name": "account",
							"type": "address"
						},
						{
							"internalType": "uint256",
							"name": "amount",
							"type": "uint256"
						}
					],
					"name": "burnFrom",
					"outputs": [],
					"stateMutability": "nonpayable",
					"type": "function"
				},
				{
					"inputs": [],
					"name": "decimals",
					"outputs": [
						{
							"internalType": "uint8",
							"name": "",
							"type": "uint8"
						}
					],
					"stateMutability": "view",
					"type": "function"
				},
				{
					"inputs": [
						{
							"internalType": "address",
							"name": "spender",
							"type": "address"
						},
						{
							"internalType": "uint256",
							"name": "subtractedValue",
							"type": "uint256"
						}
					],
					"name": "decreaseAllowance",
					"outputs": [
						{
							"internalType": "bool",
							"name": "",
							"type": "bool"
						}
					],
					"stateMutability": "nonpayable",
					"type": "function"
				},
				{
					"inputs": [
						{
							"internalType": "address",
							"name": "spender",
							"type": "address"
						},
						{
							"internalType": "uint256",
							"name": "addedValue",
							"type": "uint256"
						}
					],
					"name": "increaseAllowance",
					"outputs": [
						{
							"internalType": "bool",
							"name": "",
							"type": "bool"
						}
					],
					"stateMutability": "nonpayable",
					"type": "function"
				},
				{
					"inputs": [],
					"name": "maxSupply",
					"outputs": [
						{
							"internalType": "uint256",
							"name": "",
							"type": "uint256"
						}
					],
					"stateMutability": "view",
					"type": "function"
				},
				{
					"inputs": [
						{
							"internalType": "address",
							"name": "to",
							"type": "address"
						},
						{
							"internalType": "uint256",
							"name": "amount",
							"type": "uint256"
						}
					],
					"name": "mint",
					"outputs": [],
					"stateMutability": "nonpayable",
					"type": "function"
				},
				{
					"inputs": [],
					"name": "name",
					"outputs": [
						{
							"internalType": "string",
							"name": "",
							"type": "string"
						}
					],
					"stateMutability": "view",
					"type": "function"
				},
				{
					"inputs": [],
					"name": "owner",
					"outputs": [
						{
							"internalType": "address",
							"name": "",
							"type": "address"
						}
					],
					"stateMutability": "view",
					"type": "function"
				},
				{
					"inputs": [],
					"name": "pause",
					"outputs": [],
					"stateMutability": "nonpayable",
					"type": "function"
				},
				{
					"inputs": [],
					"name": "paused",
					"outputs": [
						{
							"internalType": "bool",
							"name": "",
							"type": "bool"
						}
					],
					"stateMutability": "view",
					"type": "function"
				},
				{
					"inputs": [],
					"name": "renounceOwnership",
					"outputs": [],
					"stateMutability": "nonpayable",
					"type": "function"
				},
				{
					"inputs": [],
					"name": "symbol",
					"outputs": [
						{
							"internalType": "string",
							"name": "",
							"type": "string"
						}
					],
					"stateMutability": "view",
					"type": "function"
				},
				{
					"inputs": [],
					"name": "totalSupply",
					"outputs": [
						{
							"internalType": "uint256",
							"name": "",
							"type": "uint256"
						}
					],
					"stateMutability": "view",
					"type": "function"
				},
				{
					"inputs": [
						{
							"internalType": "address",
							"name": "to",
							"type": "address"
						},
						{
							"internalType": "uint256",
							"name": "amount",
							"type": "uint256"
						}
					],
					"name": "transfer",
					"outputs": [
						{
							"internalType": "bool",
							"name": "",
							"type": "bool"
						}
					],
					"stateMutability": "nonpayable",
					"type": "function"
				},
				{
					"inputs": [
						{
							"internalType": "address",
							"name": "from",
							"type": "address"
						},
						{
							"internalType": "address",
							"name": "to",
							"type": "address"
						},
						{
							"internalType": "uint256",
							"name": "amount",
							"type": "uint256"
						}
					],
					"name": "transferFrom",
					"outputs": [
						{
							"internalType": "bool",
							"name": "",
							"type": "bool"
						}
					],
					"stateMutability": "nonpayable",
					"type": "function"
				},
				{
					"inputs": [
						{
							"internalType": "address",
							"name": "newOwner",
							"type": "address"
						}
					],
					"name": "transferOwnership",
					"outputs": [],
					"stateMutability": "nonpayable",
					"type": "function"
				},
				{
					"inputs": [],
					"name": "unpause",
					"outputs": [],
					"stateMutability": "nonpayable",
					"type": "function"
				},
				{
					"inputs": [
						{
							"internalType": "uint256",
							"name": "_supply",
							"type": "uint256"
						}
					],
					"name": "updateMaxSupply",
					"outputs": [
						{
							"internalType": "bool",
							"name": "",
							"type": "bool"
						}
					],
					"stateMutability": "nonpayable",
					"type": "function"
				}
			],
			"devdoc": {
				"kind": "dev",
				"methods": {},
				"version": 1
			},
			"evm": {
				"assembly": "    /* \"contracts/My World.sol\":3140:8585  contract KAIRAA is Ownable, Pausable, IERC20, IERC20Metadata {... */\n  mstore(0x40, 0x80)\n    /* \"contracts/My World.sol\":3208:3241  string private _name = \"MY WORLD\" */\n  mload(0x40)\n  dup1\n  0x40\n  add\n  0x40\n  mstore\n  dup1\n  0x08\n  dup2\n  mstore\n  0x20\n  add\n  0x4d5920574f524c44000000000000000000000000000000000000000000000000\n  dup2\n  mstore\n  pop\n  0x01\n  swap1\n  dup2\n  tag_1\n  swap2\n  swap1\n  tag_2\n  jump\t// in\ntag_1:\n  pop\n    /* \"contracts/My World.sol\":3248:3277  string private _symbol = \"MW\" */\n  mload(0x40)\n  dup1\n  0x40\n  add\n  0x40\n  mstore\n  dup1\n  0x02\n  dup2\n  mstore\n  0x20\n  add\n  0x4d57000000000000000000000000000000000000000000000000000000000000\n  dup2\n  mstore\n  pop\n  0x02\n  swap1\n  dup2\n  tag_3\n  swap2\n  swap1\n  tag_2\n  jump\t// in\ntag_3:\n  pop\n    /* \"contracts/My World.sol\":3348:3369  6693690369 * 10 ** 18 */\n  0x15a0e412003178f897640000\n    /* \"contracts/My World.sol\":3319:3369  uint256 private _maxSupply = 6693690369 * 10 ** 18 */\n  0x04\n  sstore\n    /* \"contracts/My World.sol\":3506:3576  constructor() {... */\n  callvalue\n  dup1\n  iszero\n  tag_4\n  jumpi\n  0x00\n  dup1\n  revert\ntag_4:\n  pop\n    /* \"contracts/My World.sol\":497:529  _transferOwnership(_msgSender()) */\n  tag_9\n    /* \"contracts/My World.sol\":516:528  _msgSender() */\n  tag_10\n    /* \"contracts/My World.sol\":516:526  _msgSender */\n  shl(0x20, tag_11)\n    /* \"contracts/My World.sol\":516:528  _msgSender() */\n  0x20\n  shr\n  jump\t// in\ntag_10:\n    /* \"contracts/My World.sol\":497:515  _transferOwnership */\n  shl(0x20, tag_12)\n    /* \"contracts/My World.sol\":497:529  _transferOwnership(_msgSender()) */\n  0x20\n  shr\n  jump\t// in\ntag_9:\n    /* \"contracts/My World.sol\":1536:1541  false */\n  0x00\n    /* \"contracts/My World.sol\":1526:1533  _paused */\n  dup1\n  0x14\n    /* \"contracts/My World.sol\":1526:1541  _paused = false */\n  0x0100\n  exp\n  dup2\n  sload\n  dup2\n  0xff\n  mul\n  not\n  and\n  swap1\n  dup4\n  iszero\n  iszero\n  mul\n  or\n  swap1\n  sstore\n  pop\n    /* \"contracts/My World.sol\":3531:3568  _mint(owner(), 3693690369 * 10 ** 18) */\n  tag_15\n    /* \"contracts/My World.sol\":3537:3544  owner() */\n  tag_16\n    /* \"contracts/My World.sol\":3537:3542  owner */\n  shl(0x20, tag_17)\n    /* \"contracts/My World.sol\":3537:3544  owner() */\n  0x20\n  shr\n  jump\t// in\ntag_16:\n    /* \"contracts/My World.sol\":3546:3567  3693690369 * 10 ** 18 */\n  0x0bef595c20bff841df640000\n    /* \"contracts/My World.sol\":3531:3536  _mint */\n  shl(0x20, tag_18)\n    /* \"contracts/My World.sol\":3531:3568  _mint(owner(), 3693690369 * 10 ** 18) */\n  0x20\n  shr\n  jump\t// in\ntag_15:\n    /* \"contracts/My World.sol\":3140:8585  contract KAIRAA is Ownable, Pausable, IERC20, IERC20Metadata {... */\n  jump(tag_19)\n    /* \"contracts/My World.sol\":99:189  function _msgSender() internal view returns (address) {... */\ntag_11:\n    /* \"contracts/My World.sol\":144:151  address */\n  0x00\n    /* \"contracts/My World.sol\":171:181  msg.sender */\n  caller\n    /* \"contracts/My World.sol\":164:181  return msg.sender */\n  swap1\n  pop\n    /* \"contracts/My World.sol\":99:189  function _msgSender() internal view returns (address) {... */\n  swap1\n  jump\t// out\n    /* \"contracts/My World.sol\":1145:1328  function _transferOwnership(address newOwner) internal {... */\ntag_12:\n    /* \"contracts/My World.sol\":1211:1227  address oldOwner */\n  0x00\n    /* \"contracts/My World.sol\":1230:1236  _owner */\n  dup1\n  0x00\n  swap1\n  sload\n  swap1\n  0x0100\n  exp\n  swap1\n  div\n  0xffffffffffffffffffffffffffffffffffffffff\n  and\n    /* \"contracts/My World.sol\":1211:1236  address oldOwner = _owner */\n  swap1\n  pop\n    /* \"contracts/My World.sol\":1256:1264  newOwner */\n  dup2\n    /* \"contracts/My World.sol\":1247:1253  _owner */\n  0x00\n  dup1\n    /* \"contracts/My World.sol\":1247:1264  _owner = newOwner */\n  0x0100\n  exp\n  dup2\n  sload\n  dup2\n  0xffffffffffffffffffffffffffffffffffffffff\n  mul\n  not\n  and\n  swap1\n  dup4\n  0xffffffffffffffffffffffffffffffffffffffff\n  and\n  mul\n  or\n  swap1\n  sstore\n  pop\n    /* \"contracts/My World.sol\":1311:1319  newOwner */\n  dup2\n    /* \"contracts/My World.sol\":1280:1320  OwnershipTransferred(oldOwner, newOwner) */\n  0xffffffffffffffffffffffffffffffffffffffff\n  and\n    /* \"contracts/My World.sol\":1301:1309  oldOwner */\n  dup2\n    /* \"contracts/My World.sol\":1280:1320  OwnershipTransferred(oldOwner, newOwner) */\n  0xffffffffffffffffffffffffffffffffffffffff\n  and\n  0x8be0079c531659141344cd1fd0a4f28419497f9722a3daafe3b4186f6b6457e0\n  mload(0x40)\n  mload(0x40)\n  dup1\n  swap2\n  sub\n  swap1\n  log3\n    /* \"contracts/My World.sol\":1200:1328  {... */\n  pop\n    /* \"contracts/My World.sol\":1145:1328  function _transferOwnership(address newOwner) internal {... */\n  pop\n  jump\t// out\n    /* \"contracts/My World.sol\":618:697  function owner() public view returns (address) {... */\ntag_17:\n    /* \"contracts/My World.sol\":656:663  address */\n  0x00\n    /* \"contracts/My World.sol\":683:689  _owner */\n  dup1\n  0x00\n  swap1\n  sload\n  swap1\n  0x0100\n  exp\n  swap1\n  div\n  0xffffffffffffffffffffffffffffffffffffffff\n  and\n    /* \"contracts/My World.sol\":676:689  return _owner */\n  swap1\n  pop\n    /* \"contracts/My World.sol\":618:697  function owner() public view returns (address) {... */\n  swap1\n  jump\t// out\n    /* \"contracts/My World.sol\":7081:7349  function _mint(address account, uint256 amount) internal {... */\ntag_18:\n    /* \"contracts/My World.sol\":7176:7177  0 */\n  0x00\n    /* \"contracts/My World.sol\":7157:7178  account != address(0) */\n  0xffffffffffffffffffffffffffffffffffffffff\n  and\n    /* \"contracts/My World.sol\":7157:7164  account */\n  dup3\n    /* \"contracts/My World.sol\":7157:7178  account != address(0) */\n  0xffffffffffffffffffffffffffffffffffffffff\n  and\n  sub\n    /* \"contracts/My World.sol\":7149:7214  require(account != address(0), \"ERC20: mint to the zero address\") */\n  tag_24\n  jumpi\n  mload(0x40)\n  0x08c379a000000000000000000000000000000000000000000000000000000000\n  dup2\n  mstore\n  0x04\n  add\n  tag_25\n  swap1\n  tag_26\n  jump\t// in\ntag_25:\n  mload(0x40)\n  dup1\n  swap2\n  sub\n  swap1\n  revert\ntag_24:\n    /* \"contracts/My World.sol\":7243:7249  amount */\n  dup1\n    /* \"contracts/My World.sol\":7227:7239  _totalSupply */\n  0x03\n  0x00\n    /* \"contracts/My World.sol\":7227:7249  _totalSupply += amount */\n  dup3\n  dup3\n  sload\n  tag_27\n  swap2\n  swap1\n  tag_28\n  jump\t// in\ntag_27:\n  swap3\n  pop\n  pop\n  dup2\n  swap1\n  sstore\n  pop\n    /* \"contracts/My World.sol\":7282:7288  amount */\n  dup1\n    /* \"contracts/My World.sol\":7260:7269  _balances */\n  0x05\n    /* \"contracts/My World.sol\":7260:7278  _balances[account] */\n  0x00\n    /* \"contracts/My World.sol\":7270:7277  account */\n  dup5\n    /* \"contracts/My World.sol\":7260:7278  _balances[account] */\n  0xffffffffffffffffffffffffffffffffffffffff\n  and\n  0xffffffffffffffffffffffffffffffffffffffff\n  and\n  dup2\n  mstore\n  0x20\n  add\n  swap1\n  dup2\n  mstore\n  0x20\n  add\n  0x00\n  keccak256\n  0x00\n    /* \"contracts/My World.sol\":7260:7288  _balances[account] += amount */\n  dup3\n  dup3\n  sload\n  tag_29\n  swap2\n  swap1\n  tag_28\n  jump\t// in\ntag_29:\n  swap3\n  pop\n  pop\n  dup2\n  swap1\n  sstore\n  pop\n    /* \"contracts/My World.sol\":7325:7332  account */\n  dup2\n    /* \"contracts/My World.sol\":7304:7341  Transfer(address(0), account, amount) */\n  0xffffffffffffffffffffffffffffffffffffffff\n  and\n    /* \"contracts/My World.sol\":7321:7322  0 */\n  0x00\n    /* \"contracts/My World.sol\":7304:7341  Transfer(address(0), account, amount) */\n  0xffffffffffffffffffffffffffffffffffffffff\n  and\n  0xddf252ad1be2c89b69c2b068fc378daa952ba7f163c4a11628f55a4df523b3ef\n    /* \"contracts/My World.sol\":7334:7340  amount */\n  dup4\n    /* \"contracts/My World.sol\":7304:7341  Transfer(address(0), account, amount) */\n  mload(0x40)\n  tag_30\n  swap2\n  swap1\n  tag_31\n  jump\t// in\ntag_30:\n  mload(0x40)\n  dup1\n  swap2\n  sub\n  swap1\n  log3\n    /* \"contracts/My World.sol\":7081:7349  function _mint(address account, uint256 amount) internal {... */\n  pop\n  pop\n  jump\t// out\n    /* \"#utility.yul\":7:106   */\ntag_32:\n    /* \"#utility.yul\":59:65   */\n  0x00\n    /* \"#utility.yul\":93:98   */\n  dup2\n    /* \"#utility.yul\":87:99   */\n  mload\n    /* \"#utility.yul\":77:99   */\n  swap1\n  pop\n    /* \"#utility.yul\":7:106   */\n  swap2\n  swap1\n  pop\n  jump\t// out\n    /* \"#utility.yul\":112:292   */\ntag_33:\n    /* \"#utility.yul\":160:237   */\n  0x4e487b7100000000000000000000000000000000000000000000000000000000\n    /* \"#utility.yul\":157:158   */\n  0x00\n    /* \"#utility.yul\":150:238   */\n  mstore\n    /* \"#utility.yul\":257:261   */\n  0x41\n    /* \"#utility.yul\":254:255   */\n  0x04\n    /* \"#utility.yul\":247:262   */\n  mstore\n    /* \"#utility.yul\":281:285   */\n  0x24\n    /* \"#utility.yul\":278:279   */\n  0x00\n    /* \"#utility.yul\":271:286   */\n  revert\n    /* \"#utility.yul\":298:478   */\ntag_34:\n    /* \"#utility.yul\":346:423   */\n  0x4e487b7100000000000000000000000000000000000000000000000000000000\n    /* \"#utility.yul\":343:344   */\n  0x00\n    /* \"#utility.yul\":336:424   */\n  mstore\n    /* \"#utility.yul\":443:447   */\n  0x22\n    /* \"#utility.yul\":440:441   */\n  0x04\n    /* \"#utility.yul\":433:448   */\n  mstore\n    /* \"#utility.yul\":467:471   */\n  0x24\n    /* \"#utility.yul\":464:465   */\n  0x00\n    /* \"#utility.yul\":457:472   */\n  revert\n    /* \"#utility.yul\":484:804   */\ntag_35:\n    /* \"#utility.yul\":528:534   */\n  0x00\n    /* \"#utility.yul\":565:566   */\n  0x02\n    /* \"#utility.yul\":559:563   */\n  dup3\n    /* \"#utility.yul\":555:567   */\n  div\n    /* \"#utility.yul\":545:567   */\n  swap1\n  pop\n    /* \"#utility.yul\":612:613   */\n  0x01\n    /* \"#utility.yul\":606:610   */\n  dup3\n    /* \"#utility.yul\":602:614   */\n  and\n    /* \"#utility.yul\":633:651   */\n  dup1\n    /* \"#utility.yul\":623:704   */\n  tag_62\n  jumpi\n    /* \"#utility.yul\":689:693   */\n  0x7f\n    /* \"#utility.yul\":681:687   */\n  dup3\n    /* \"#utility.yul\":677:694   */\n  and\n    /* \"#utility.yul\":667:694   */\n  swap2\n  pop\n    /* \"#utility.yul\":623:704   */\ntag_62:\n    /* \"#utility.yul\":751:753   */\n  0x20\n    /* \"#utility.yul\":743:749   */\n  dup3\n    /* \"#utility.yul\":740:754   */\n  lt\n    /* \"#utility.yul\":720:738   */\n  dup2\n    /* \"#utility.yul\":717:755   */\n  sub\n    /* \"#utility.yul\":714:798   */\n  tag_63\n  jumpi\n    /* \"#utility.yul\":770:788   */\n  tag_64\n  tag_34\n  jump\t// in\ntag_64:\n    /* \"#utility.yul\":714:798   */\ntag_63:\n    /* \"#utility.yul\":535:804   */\n  pop\n    /* \"#utility.yul\":484:804   */\n  swap2\n  swap1\n  pop\n  jump\t// out\n    /* \"#utility.yul\":810:951   */\ntag_36:\n    /* \"#utility.yul\":859:863   */\n  0x00\n    /* \"#utility.yul\":882:885   */\n  dup2\n    /* \"#utility.yul\":874:885   */\n  swap1\n  pop\n    /* \"#utility.yul\":905:908   */\n  dup2\n    /* \"#utility.yul\":902:903   */\n  0x00\n    /* \"#utility.yul\":895:909   */\n  mstore\n    /* \"#utility.yul\":939:943   */\n  0x20\n    /* \"#utility.yul\":936:937   */\n  0x00\n    /* \"#utility.yul\":926:944   */\n  keccak256\n    /* \"#utility.yul\":918:944   */\n  swap1\n  pop\n    /* \"#utility.yul\":810:951   */\n  swap2\n  swap1\n  pop\n  jump\t// out\n    /* \"#utility.yul\":957:1050   */\ntag_37:\n    /* \"#utility.yul\":994:1000   */\n  0x00\n    /* \"#utility.yul\":1041:1043   */\n  0x20\n    /* \"#utility.yul\":1036:1038   */\n  0x1f\n    /* \"#utility.yul\":1029:1034   */\n  dup4\n    /* \"#utility.yul\":1025:1039   */\n  add\n    /* \"#utility.yul\":1021:1044   */\n  div\n    /* \"#utility.yul\":1011:1044   */\n  swap1\n  pop\n    /* \"#utility.yul\":957:1050   */\n  swap2\n  swap1\n  pop\n  jump\t// out\n    /* \"#utility.yul\":1056:1163   */\ntag_38:\n    /* \"#utility.yul\":1100:1108   */\n  0x00\n    /* \"#utility.yul\":1150:1155   */\n  dup3\n    /* \"#utility.yul\":1144:1148   */\n  dup3\n    /* \"#utility.yul\":1140:1156   */\n  shl\n    /* \"#utility.yul\":1119:1156   */\n  swap1\n  pop\n    /* \"#utility.yul\":1056:1163   */\n  swap3\n  swap2\n  pop\n  pop\n  jump\t// out\n    /* \"#utility.yul\":1169:1562   */\ntag_39:\n    /* \"#utility.yul\":1238:1244   */\n  0x00\n    /* \"#utility.yul\":1288:1289   */\n  0x08\n    /* \"#utility.yul\":1276:1286   */\n  dup4\n    /* \"#utility.yul\":1272:1290   */\n  mul\n    /* \"#utility.yul\":1311:1408   */\n  tag_69\n    /* \"#utility.yul\":1341:1407   */\n  0xffffffffffffffffffffffffffffffffffffffffffffffffffffffffffffffff\n    /* \"#utility.yul\":1330:1339   */\n  dup3\n    /* \"#utility.yul\":1311:1408   */\n  tag_38\n  jump\t// in\ntag_69:\n    /* \"#utility.yul\":1429:1468   */\n  tag_70\n    /* \"#utility.yul\":1459:1467   */\n  dup7\n    /* \"#utility.yul\":1448:1457   */\n  dup4\n    /* \"#utility.yul\":1429:1468   */\n  tag_38\n  jump\t// in\ntag_70:\n    /* \"#utility.yul\":1417:1468   */\n  swap6\n  pop\n    /* \"#utility.yul\":1501:1505   */\n  dup1\n    /* \"#utility.yul\":1497:1506   */\n  not\n    /* \"#utility.yul\":1490:1495   */\n  dup5\n    /* \"#utility.yul\":1486:1507   */\n  and\n    /* \"#utility.yul\":1477:1507   */\n  swap4\n  pop\n    /* \"#utility.yul\":1550:1554   */\n  dup1\n    /* \"#utility.yul\":1540:1548   */\n  dup7\n    /* \"#utility.yul\":1536:1555   */\n  and\n    /* \"#utility.yul\":1529:1534   */\n  dup5\n    /* \"#utility.yul\":1526:1556   */\n  or\n    /* \"#utility.yul\":1516:1556   */\n  swap3\n  pop\n    /* \"#utility.yul\":1245:1562   */\n  pop\n  pop\n    /* \"#utility.yul\":1169:1562   */\n  swap4\n  swap3\n  pop\n  pop\n  pop\n  jump\t// out\n    /* \"#utility.yul\":1568:1645   */\ntag_40:\n    /* \"#utility.yul\":1605:1612   */\n  0x00\n    /* \"#utility.yul\":1634:1639   */\n  dup2\n    /* \"#utility.yul\":1623:1639   */\n  swap1\n  pop\n    /* \"#utility.yul\":1568:1645   */\n  swap2\n  swap1\n  pop\n  jump\t// out\n    /* \"#utility.yul\":1651:1711   */\ntag_41:\n    /* \"#utility.yul\":1679:1682   */\n  0x00\n    /* \"#utility.yul\":1700:1705   */\n  dup2\n    /* \"#utility.yul\":1693:1705   */\n  swap1\n  pop\n    /* \"#utility.yul\":1651:1711   */\n  swap2\n  swap1\n  pop\n  jump\t// out\n    /* \"#utility.yul\":1717:1859   */\ntag_42:\n    /* \"#utility.yul\":1767:1776   */\n  0x00\n    /* \"#utility.yul\":1800:1853   */\n  tag_74\n    /* \"#utility.yul\":1818:1852   */\n  tag_75\n    /* \"#utility.yul\":1827:1851   */\n  tag_76\n    /* \"#utility.yul\":1845:1850   */\n  dup5\n    /* \"#utility.yul\":1827:1851   */\n  tag_40\n  jump\t// in\ntag_76:\n    /* \"#utility.yul\":1818:1852   */\n  tag_41\n  jump\t// in\ntag_75:\n    /* \"#utility.yul\":1800:1853   */\n  tag_40\n  jump\t// in\ntag_74:\n    /* \"#utility.yul\":1787:1853   */\n  swap1\n  pop\n    /* \"#utility.yul\":1717:1859   */\n  swap2\n  swap1\n  pop\n  jump\t// out\n    /* \"#utility.yul\":1865:1940   */\ntag_43:\n    /* \"#utility.yul\":1908:1911   */\n  0x00\n    /* \"#utility.yul\":1929:1934   */\n  dup2\n    /* \"#utility.yul\":1922:1934   */\n  swap1\n  pop\n    /* \"#utility.yul\":1865:1940   */\n  swap2\n  swap1\n  pop\n  jump\t// out\n    /* \"#utility.yul\":1946:2215   */\ntag_44:\n    /* \"#utility.yul\":2056:2095   */\n  tag_79\n    /* \"#utility.yul\":2087:2094   */\n  dup4\n    /* \"#utility.yul\":2056:2095   */\n  tag_42\n  jump\t// in\ntag_79:\n    /* \"#utility.yul\":2117:2208   */\n  tag_80\n    /* \"#utility.yul\":2166:2207   */\n  tag_81\n    /* \"#utility.yul\":2190:2206   */\n  dup3\n    /* \"#utility.yul\":2166:2207   */\n  tag_43\n  jump\t// in\ntag_81:\n    /* \"#utility.yul\":2158:2164   */\n  dup5\n    /* \"#utility.yul\":2151:2155   */\n  dup5\n    /* \"#utility.yul\":2145:2156   */\n  sload\n    /* \"#utility.yul\":2117:2208   */\n  tag_39\n  jump\t// in\ntag_80:\n    /* \"#utility.yul\":2111:2115   */\n  dup3\n    /* \"#utility.yul\":2104:2209   */\n  sstore\n    /* \"#utility.yul\":2022:2215   */\n  pop\n    /* \"#utility.yul\":1946:2215   */\n  pop\n  pop\n  pop\n  jump\t// out\n    /* \"#utility.yul\":2221:2294   */\ntag_45:\n    /* \"#utility.yul\":2266:2269   */\n  0x00\n    /* \"#utility.yul\":2221:2294   */\n  swap1\n  jump\t// out\n    /* \"#utility.yul\":2300:2489   */\ntag_46:\n    /* \"#utility.yul\":2377:2409   */\n  tag_84\n  tag_45\n  jump\t// in\ntag_84:\n    /* \"#utility.yul\":2418:2483   */\n  tag_85\n    /* \"#utility.yul\":2476:2482   */\n  dup2\n    /* \"#utility.yul\":2468:2474   */\n  dup5\n    /* \"#utility.yul\":2462:2466   */\n  dup5\n    /* \"#utility.yul\":2418:2483   */\n  tag_44\n  jump\t// in\ntag_85:\n    /* \"#utility.yul\":2353:2489   */\n  pop\n    /* \"#utility.yul\":2300:2489   */\n  pop\n  pop\n  jump\t// out\n    /* \"#utility.yul\":2495:2681   */\ntag_47:\n    /* \"#utility.yul\":2555:2675   */\ntag_87:\n    /* \"#utility.yul\":2572:2575   */\n  dup2\n    /* \"#utility.yul\":2565:2570   */\n  dup2\n    /* \"#utility.yul\":2562:2576   */\n  lt\n    /* \"#utility.yul\":2555:2675   */\n  iszero\n  tag_89\n  jumpi\n    /* \"#utility.yul\":2626:2665   */\n  tag_90\n    /* \"#utility.yul\":2663:2664   */\n  0x00\n    /* \"#utility.yul\":2656:2661   */\n  dup3\n    /* \"#utility.yul\":2626:2665   */\n  tag_46\n  jump\t// in\ntag_90:\n    /* \"#utility.yul\":2599:2600   */\n  0x01\n    /* \"#utility.yul\":2592:2597   */\n  dup2\n    /* \"#utility.yul\":2588:2601   */\n  add\n    /* \"#utility.yul\":2579:2601   */\n  swap1\n  pop\n    /* \"#utility.yul\":2555:2675   */\n  jump(tag_87)\ntag_89:\n    /* \"#utility.yul\":2495:2681   */\n  pop\n  pop\n  jump\t// out\n    /* \"#utility.yul\":2687:3230   */\ntag_48:\n    /* \"#utility.yul\":2788:2790   */\n  0x1f\n    /* \"#utility.yul\":2783:2786   */\n  dup3\n    /* \"#utility.yul\":2780:2791   */\n  gt\n    /* \"#utility.yul\":2777:3223   */\n  iszero\n  tag_92\n  jumpi\n    /* \"#utility.yul\":2822:2860   */\n  tag_93\n    /* \"#utility.yul\":2854:2859   */\n  dup2\n    /* \"#utility.yul\":2822:2860   */\n  tag_36\n  jump\t// in\ntag_93:\n    /* \"#utility.yul\":2906:2935   */\n  tag_94\n    /* \"#utility.yul\":2924:2934   */\n  dup5\n    /* \"#utility.yul\":2906:2935   */\n  tag_37\n  jump\t// in\ntag_94:\n    /* \"#utility.yul\":2896:2904   */\n  dup2\n    /* \"#utility.yul\":2892:2936   */\n  add\n    /* \"#utility.yul\":3089:3091   */\n  0x20\n    /* \"#utility.yul\":3077:3087   */\n  dup6\n    /* \"#utility.yul\":3074:3092   */\n  lt\n    /* \"#utility.yul\":3071:3120   */\n  iszero\n  tag_95\n  jumpi\n    /* \"#utility.yul\":3110:3118   */\n  dup2\n    /* \"#utility.yul\":3095:3118   */\n  swap1\n  pop\n    /* \"#utility.yul\":3071:3120   */\ntag_95:\n    /* \"#utility.yul\":3133:3213   */\n  tag_96\n    /* \"#utility.yul\":3189:3211   */\n  tag_97\n    /* \"#utility.yul\":3207:3210   */\n  dup6\n    /* \"#utility.yul\":3189:3211   */\n  tag_37\n  jump\t// in\ntag_97:\n    /* \"#utility.yul\":3179:3187   */\n  dup4\n    /* \"#utility.yul\":3175:3212   */\n  add\n    /* \"#utility.yul\":3162:3173   */\n  dup3\n    /* \"#utility.yul\":3133:3213   */\n  tag_47\n  jump\t// in\ntag_96:\n    /* \"#utility.yul\":2792:3223   */\n  pop\n  pop\n    /* \"#utility.yul\":2777:3223   */\ntag_92:\n    /* \"#utility.yul\":2687:3230   */\n  pop\n  pop\n  pop\n  jump\t// out\n    /* \"#utility.yul\":3236:3353   */\ntag_49:\n    /* \"#utility.yul\":3290:3298   */\n  0x00\n    /* \"#utility.yul\":3340:3345   */\n  dup3\n    /* \"#utility.yul\":3334:3338   */\n  dup3\n    /* \"#utility.yul\":3330:3346   */\n  shr\n    /* \"#utility.yul\":3309:3346   */\n  swap1\n  pop\n    /* \"#utility.yul\":3236:3353   */\n  swap3\n  swap2\n  pop\n  pop\n  jump\t// out\n    /* \"#utility.yul\":3359:3528   */\ntag_50:\n    /* \"#utility.yul\":3403:3409   */\n  0x00\n    /* \"#utility.yul\":3436:3487   */\n  tag_100\n    /* \"#utility.yul\":3484:3485   */\n  0x00\n    /* \"#utility.yul\":3480:3486   */\n  not\n    /* \"#utility.yul\":3472:3477   */\n  dup5\n    /* \"#utility.yul\":3469:3470   */\n  0x08\n    /* \"#utility.yul\":3465:3478   */\n  mul\n    /* \"#utility.yul\":3436:3487   */\n  tag_49\n  jump\t// in\ntag_100:\n    /* \"#utility.yul\":3432:3488   */\n  not\n    /* \"#utility.yul\":3517:3521   */\n  dup1\n    /* \"#utility.yul\":3511:3515   */\n  dup4\n    /* \"#utility.yul\":3507:3522   */\n  and\n    /* \"#utility.yul\":3497:3522   */\n  swap2\n  pop\n    /* \"#utility.yul\":3410:3528   */\n  pop\n    /* \"#utility.yul\":3359:3528   */\n  swap3\n  swap2\n  pop\n  pop\n  jump\t// out\n    /* \"#utility.yul\":3533:3828   */\ntag_51:\n    /* \"#utility.yul\":3609:3613   */\n  0x00\n    /* \"#utility.yul\":3755:3784   */\n  tag_102\n    /* \"#utility.yul\":3780:3783   */\n  dup4\n    /* \"#utility.yul\":3774:3778   */\n  dup4\n    /* \"#utility.yul\":3755:3784   */\n  tag_50\n  jump\t// in\ntag_102:\n    /* \"#utility.yul\":3747:3784   */\n  swap2\n  pop\n    /* \"#utility.yul\":3817:3820   */\n  dup3\n    /* \"#utility.yul\":3814:3815   */\n  0x02\n    /* \"#utility.yul\":3810:3821   */\n  mul\n    /* \"#utility.yul\":3804:3808   */\n  dup3\n    /* \"#utility.yul\":3801:3822   */\n  or\n    /* \"#utility.yul\":3793:3822   */\n  swap1\n  pop\n    /* \"#utility.yul\":3533:3828   */\n  swap3\n  swap2\n  pop\n  pop\n  jump\t// out\n    /* \"#utility.yul\":3833:5228   */\ntag_2:\n    /* \"#utility.yul\":3950:3987   */\n  tag_104\n    /* \"#utility.yul\":3983:3986   */\n  dup3\n    /* \"#utility.yul\":3950:3987   */\n  tag_32\n  jump\t// in\ntag_104:\n    /* \"#utility.yul\":4052:4070   */\n  0xffffffffffffffff\n    /* \"#utility.yul\":4044:4050   */\n  dup2\n    /* \"#utility.yul\":4041:4071   */\n  gt\n    /* \"#utility.yul\":4038:4094   */\n  iszero\n  tag_105\n  jumpi\n    /* \"#utility.yul\":4074:4092   */\n  tag_106\n  tag_33\n  jump\t// in\ntag_106:\n    /* \"#utility.yul\":4038:4094   */\ntag_105:\n    /* \"#utility.yul\":4118:4156   */\n  tag_107\n    /* \"#utility.yul\":4150:4154   */\n  dup3\n    /* \"#utility.yul\":4144:4155   */\n  sload\n    /* \"#utility.yul\":4118:4156   */\n  tag_35\n  jump\t// in\ntag_107:\n    /* \"#utility.yul\":4203:4270   */\n  tag_108\n    /* \"#utility.yul\":4263:4269   */\n  dup3\n    /* \"#utility.yul\":4255:4261   */\n  dup3\n    /* \"#utility.yul\":4249:4253   */\n  dup6\n    /* \"#utility.yul\":4203:4270   */\n  tag_48\n  jump\t// in\ntag_108:\n    /* \"#utility.yul\":4297:4298   */\n  0x00\n    /* \"#utility.yul\":4321:4325   */\n  0x20\n    /* \"#utility.yul\":4308:4325   */\n  swap1\n  pop\n    /* \"#utility.yul\":4353:4355   */\n  0x1f\n    /* \"#utility.yul\":4345:4351   */\n  dup4\n    /* \"#utility.yul\":4342:4356   */\n  gt\n    /* \"#utility.yul\":4370:4371   */\n  0x01\n    /* \"#utility.yul\":4365:4983   */\n  dup2\n  eq\n  tag_110\n  jumpi\n    /* \"#utility.yul\":5027:5028   */\n  0x00\n    /* \"#utility.yul\":5044:5050   */\n  dup5\n    /* \"#utility.yul\":5041:5118   */\n  iszero\n  tag_111\n  jumpi\n    /* \"#utility.yul\":5093:5102   */\n  dup3\n    /* \"#utility.yul\":5088:5091   */\n  dup8\n    /* \"#utility.yul\":5084:5103   */\n  add\n    /* \"#utility.yul\":5078:5104   */\n  mload\n    /* \"#utility.yul\":5069:5104   */\n  swap1\n  pop\n    /* \"#utility.yul\":5041:5118   */\ntag_111:\n    /* \"#utility.yul\":5144:5211   */\n  tag_112\n    /* \"#utility.yul\":5204:5210   */\n  dup6\n    /* \"#utility.yul\":5197:5202   */\n  dup3\n    /* \"#utility.yul\":5144:5211   */\n  tag_51\n  jump\t// in\ntag_112:\n    /* \"#utility.yul\":5138:5142   */\n  dup7\n    /* \"#utility.yul\":5131:5212   */\n  sstore\n    /* \"#utility.yul\":5000:5222   */\n  pop\n    /* \"#utility.yul\":4335:5222   */\n  jump(tag_109)\n    /* \"#utility.yul\":4365:4983   */\ntag_110:\n    /* \"#utility.yul\":4417:4421   */\n  0x1f\n    /* \"#utility.yul\":4413:4422   */\n  not\n    /* \"#utility.yul\":4405:4411   */\n  dup5\n    /* \"#utility.yul\":4401:4423   */\n  and\n    /* \"#utility.yul\":4451:4488   */\n  tag_113\n    /* \"#utility.yul\":4483:4487   */\n  dup7\n    /* \"#utility.yul\":4451:4488   */\n  tag_36\n  jump\t// in\ntag_113:\n    /* \"#utility.yul\":4510:4511   */\n  0x00\n    /* \"#utility.yul\":4524:4732   */\ntag_114:\n    /* \"#utility.yul\":4538:4545   */\n  dup3\n    /* \"#utility.yul\":4535:4536   */\n  dup2\n    /* \"#utility.yul\":4532:4546   */\n  lt\n    /* \"#utility.yul\":4524:4732   */\n  iszero\n  tag_116\n  jumpi\n    /* \"#utility.yul\":4617:4626   */\n  dup5\n    /* \"#utility.yul\":4612:4615   */\n  dup10\n    /* \"#utility.yul\":4608:4627   */\n  add\n    /* \"#utility.yul\":4602:4628   */\n  mload\n    /* \"#utility.yul\":4594:4600   */\n  dup3\n    /* \"#utility.yul\":4587:4629   */\n  sstore\n    /* \"#utility.yul\":4668:4669   */\n  0x01\n    /* \"#utility.yul\":4660:4666   */\n  dup3\n    /* \"#utility.yul\":4656:4670   */\n  add\n    /* \"#utility.yul\":4646:4670   */\n  swap2\n  pop\n    /* \"#utility.yul\":4715:4717   */\n  0x20\n    /* \"#utility.yul\":4704:4713   */\n  dup6\n    /* \"#utility.yul\":4700:4718   */\n  add\n    /* \"#utility.yul\":4687:4718   */\n  swap5\n  pop\n    /* \"#utility.yul\":4561:4565   */\n  0x20\n    /* \"#utility.yul\":4558:4559   */\n  dup2\n    /* \"#utility.yul\":4554:4566   */\n  add\n    /* \"#utility.yul\":4549:4566   */\n  swap1\n  pop\n    /* \"#utility.yul\":4524:4732   */\n  jump(tag_114)\ntag_116:\n    /* \"#utility.yul\":4760:4766   */\n  dup7\n    /* \"#utility.yul\":4751:4758   */\n  dup4\n    /* \"#utility.yul\":4748:4767   */\n  lt\n    /* \"#utility.yul\":4745:4924   */\n  iszero\n  tag_117\n  jumpi\n    /* \"#utility.yul\":4818:4827   */\n  dup5\n    /* \"#utility.yul\":4813:4816   */\n  dup10\n    /* \"#utility.yul\":4809:4828   */\n  add\n    /* \"#utility.yul\":4803:4829   */\n  mload\n    /* \"#utility.yul\":4861:4909   */\n  tag_118\n    /* \"#utility.yul\":4903:4907   */\n  0x1f\n    /* \"#utility.yul\":4895:4901   */\n  dup10\n    /* \"#utility.yul\":4891:4908   */\n  and\n    /* \"#utility.yul\":4880:4889   */\n  dup3\n    /* \"#utility.yul\":4861:4909   */\n  tag_50\n  jump\t// in\ntag_118:\n    /* \"#utility.yul\":4853:4859   */\n  dup4\n    /* \"#utility.yul\":4846:4910   */\n  sstore\n    /* \"#utility.yul\":4768:4924   */\n  pop\n    /* \"#utility.yul\":4745:4924   */\ntag_117:\n    /* \"#utility.yul\":4970:4971   */\n  0x01\n    /* \"#utility.yul\":4966:4967   */\n  0x02\n    /* \"#utility.yul\":4958:4964   */\n  dup9\n    /* \"#utility.yul\":4954:4968   */\n  mul\n    /* \"#utility.yul\":4950:4972   */\n  add\n    /* \"#utility.yul\":4944:4948   */\n  dup9\n    /* \"#utility.yul\":4937:4973   */\n  sstore\n    /* \"#utility.yul\":4372:4983   */\n  pop\n  pop\n  pop\n    /* \"#utility.yul\":4335:5222   */\ntag_109:\n  pop\n    /* \"#utility.yul\":3925:5228   */\n  pop\n  pop\n  pop\n    /* \"#utility.yul\":3833:5228   */\n  pop\n  pop\n  jump\t// out\n    /* \"#utility.yul\":5234:5403   */\ntag_52:\n    /* \"#utility.yul\":5318:5329   */\n  0x00\n    /* \"#utility.yul\":5352:5358   */\n  dup3\n    /* \"#utility.yul\":5347:5350   */\n  dup3\n    /* \"#utility.yul\":5340:5359   */\n  mstore\n    /* \"#utility.yul\":5392:5396   */\n  0x20\n    /* \"#utility.yul\":5387:5390   */\n  dup3\n    /* \"#utility.yul\":5383:5397   */\n  add\n    /* \"#utility.yul\":5368:5397   */\n  swap1\n  pop\n    /* \"#utility.yul\":5234:5403   */\n  swap3\n  swap2\n  pop\n  pop\n  jump\t// out\n    /* \"#utility.yul\":5409:5590   */\ntag_53:\n    /* \"#utility.yul\":5549:5582   */\n  0x45524332303a206d696e7420746f20746865207a65726f206164647265737300\n    /* \"#utility.yul\":5545:5546   */\n  0x00\n    /* \"#utility.yul\":5537:5543   */\n  dup3\n    /* \"#utility.yul\":5533:5547   */\n  add\n    /* \"#utility.yul\":5526:5583   */\n  mstore\n    /* \"#utility.yul\":5409:5590   */\n  pop\n  jump\t// out\n    /* \"#utility.yul\":5596:5962   */\ntag_54:\n    /* \"#utility.yul\":5738:5741   */\n  0x00\n    /* \"#utility.yul\":5759:5826   */\n  tag_122\n    /* \"#utility.yul\":5823:5825   */\n  0x1f\n    /* \"#utility.yul\":5818:5821   */\n  dup4\n    /* \"#utility.yul\":5759:5826   */\n  tag_52\n  jump\t// in\ntag_122:\n    /* \"#utility.yul\":5752:5826   */\n  swap2\n  pop\n    /* \"#utility.yul\":5835:5928   */\n  tag_123\n    /* \"#utility.yul\":5924:5927   */\n  dup3\n    /* \"#utility.yul\":5835:5928   */\n  tag_53\n  jump\t// in\ntag_123:\n    /* \"#utility.yul\":5953:5955   */\n  0x20\n    /* \"#utility.yul\":5948:5951   */\n  dup3\n    /* \"#utility.yul\":5944:5956   */\n  add\n    /* \"#utility.yul\":5937:5956   */\n  swap1\n  pop\n    /* \"#utility.yul\":5596:5962   */\n  swap2\n  swap1\n  pop\n  jump\t// out\n    /* \"#utility.yul\":5968:6387   */\ntag_26:\n    /* \"#utility.yul\":6134:6138   */\n  0x00\n    /* \"#utility.yul\":6172:6174   */\n  0x20\n    /* \"#utility.yul\":6161:6170   */\n  dup3\n    /* \"#utility.yul\":6157:6175   */\n  add\n    /* \"#utility.yul\":6149:6175   */\n  swap1\n  pop\n    /* \"#utility.yul\":6221:6230   */\n  dup2\n    /* \"#utility.yul\":6215:6219   */\n  dup2\n    /* \"#utility.yul\":6211:6231   */\n  sub\n    /* \"#utility.yul\":6207:6208   */\n  0x00\n    /* \"#utility.yul\":6196:6205   */\n  dup4\n    /* \"#utility.yul\":6192:6209   */\n  add\n    /* \"#utility.yul\":6185:6232   */\n  mstore\n    /* \"#utility.yul\":6249:6380   */\n  tag_125\n    /* \"#utility.yul\":6375:6379   */\n  dup2\n    /* \"#utility.yul\":6249:6380   */\n  tag_54\n  jump\t// in\ntag_125:\n    /* \"#utility.yul\":6241:6380   */\n  swap1\n  pop\n    /* \"#utility.yul\":5968:6387   */\n  swap2\n  swap1\n  pop\n  jump\t// out\n    /* \"#utility.yul\":6393:6573   */\ntag_55:\n    /* \"#utility.yul\":6441:6518   */\n  0x4e487b7100000000000000000000000000000000000000000000000000000000\n    /* \"#utility.yul\":6438:6439   */\n  0x00\n    /* \"#utility.yul\":6431:6519   */\n  mstore\n    /* \"#utility.yul\":6538:6542   */\n  0x11\n    /* \"#utility.yul\":6535:6536   */\n  0x04\n    /* \"#utility.yul\":6528:6543   */\n  mstore\n    /* \"#utility.yul\":6562:6566   */\n  0x24\n    /* \"#utility.yul\":6559:6560   */\n  0x00\n    /* \"#utility.yul\":6552:6567   */\n  revert\n    /* \"#utility.yul\":6579:6770   */\ntag_28:\n    /* \"#utility.yul\":6619:6622   */\n  0x00\n    /* \"#utility.yul\":6638:6658   */\n  tag_128\n    /* \"#utility.yul\":6656:6657   */\n  dup3\n    /* \"#utility.yul\":6638:6658   */\n  tag_40\n  jump\t// in\ntag_128:\n    /* \"#utility.yul\":6633:6658   */\n  swap2\n  pop\n    /* \"#utility.yul\":6672:6692   */\n  tag_129\n    /* \"#utility.yul\":6690:6691   */\n  dup4\n    /* \"#utility.yul\":6672:6692   */\n  tag_40\n  jump\t// in\ntag_129:\n    /* \"#utility.yul\":6667:6692   */\n  swap3\n  pop\n    /* \"#utility.yul\":6715:6716   */\n  dup3\n    /* \"#utility.yul\":6712:6713   */\n  dup3\n    /* \"#utility.yul\":6708:6717   */\n  add\n    /* \"#utility.yul\":6701:6717   */\n  swap1\n  pop\n    /* \"#utility.yul\":6736:6739   */\n  dup1\n    /* \"#utility.yul\":6733:6734   */\n  dup3\n    /* \"#utility.yul\":6730:6740   */\n  gt\n    /* \"#utility.yul\":6727:6763   */\n  iszero\n  tag_130\n  jumpi\n    /* \"#utility.yul\":6743:6761   */\n  tag_131\n  tag_55\n  jump\t// in\ntag_131:\n    /* \"#utility.yul\":6727:6763   */\ntag_130:\n    /* \"#utility.yul\":6579:6770   */\n  swap3\n  swap2\n  pop\n  pop\n  jump\t// out\n    /* \"#utility.yul\":6776:6894   */\ntag_56:\n    /* \"#utility.yul\":6863:6887   */\n  tag_133\n    /* \"#utility.yul\":6881:6886   */\n  dup2\n    /* \"#utility.yul\":6863:6887   */\n  tag_40\n  jump\t// in\ntag_133:\n    /* \"#utility.yul\":6858:6861   */\n  dup3\n    /* \"#utility.yul\":6851:6888   */\n  mstore\n    /* \"#utility.yul\":6776:6894   */\n  pop\n  pop\n  jump\t// out\n    /* \"#utility.yul\":6900:7122   */\ntag_31:\n    /* \"#utility.yul\":6993:6997   */\n  0x00\n    /* \"#utility.yul\":7031:7033   */\n  0x20\n    /* \"#utility.yul\":7020:7029   */\n  dup3\n    /* \"#utility.yul\":7016:7034   */\n  add\n    /* \"#utility.yul\":7008:7034   */\n  swap1\n  pop\n    /* \"#utility.yul\":7044:7115   */\n  tag_135\n    /* \"#utility.yul\":7112:7113   */\n  0x00\n    /* \"#utility.yul\":7101:7110   */\n  dup4\n    /* \"#utility.yul\":7097:7114   */\n  add\n    /* \"#utility.yul\":7088:7094   */\n  dup5\n    /* \"#utility.yul\":7044:7115   */\n  tag_56\n  jump\t// in\ntag_135:\n    /* \"#utility.yul\":6900:7122   */\n  swap3\n  swap2\n  pop\n  pop\n  jump\t// out\n    /* \"contracts/My World.sol\":3140:8585  contract KAIRAA is Ownable, Pausable, IERC20, IERC20Metadata {... */\ntag_19:\n  dataSize(sub_0)\n  dup1\n  dataOffset(sub_0)\n  0x00\n  codecopy\n  0x00\n  return\nstop\n\nsub_0: assembly {\n        /* \"contracts/My World.sol\":3140:8585  contract KAIRAA is Ownable, Pausable, IERC20, IERC20Metadata {... */\n      mstore(0x40, 0x80)\n      callvalue\n      dup1\n      iszero\n      tag_1\n      jumpi\n      0x00\n      dup1\n      revert\n    tag_1:\n      pop\n      jumpi(tag_2, lt(calldatasize, 0x04))\n      shr(0xe0, calldataload(0x00))\n      dup1\n      0x715018a6\n      gt\n      tag_25\n      jumpi\n      dup1\n      0xa457c2d7\n      gt\n      tag_26\n      jumpi\n      dup1\n      0xa457c2d7\n      eq\n      tag_19\n      jumpi\n      dup1\n      0xa9059cbb\n      eq\n      tag_20\n      jumpi\n      dup1\n      0xd5abeb01\n      eq\n      tag_21\n      jumpi\n      dup1\n      0xdd62ed3e\n      eq\n      tag_22\n      jumpi\n      dup1\n      0xf103b433\n      eq\n      tag_23\n      jumpi\n      dup1\n      0xf2fde38b\n      eq\n      tag_24\n      jumpi\n      jump(tag_2)\n    tag_26:\n      dup1\n      0x715018a6\n      eq\n      tag_14\n      jumpi\n      dup1\n      0x79cc6790\n      eq\n      tag_15\n      jumpi\n      dup1\n      0x8456cb59\n      eq\n      tag_16\n      jumpi\n      dup1\n      0x8da5cb5b\n      eq\n      tag_17\n      jumpi\n      dup1\n      0x95d89b41\n      eq\n      tag_18\n      jumpi\n      jump(tag_2)\n    tag_25:\n      dup1\n      0x39509351\n      gt\n      tag_27\n      jumpi\n      dup1\n      0x39509351\n      eq\n      tag_8\n      jumpi\n      dup1\n      0x3f4ba83a\n      eq\n      tag_9\n      jumpi\n      dup1\n      0x40c10f19\n      eq\n      tag_10\n      jumpi\n      dup1\n      0x42966c68\n      eq\n      tag_11\n      jumpi\n      dup1\n      0x5c975abb\n      eq\n      tag_12\n      jumpi\n      dup1\n      0x70a08231\n      eq\n      tag_13\n      jumpi\n      jump(tag_2)\n    tag_27:\n      dup1\n      0x06fdde03\n      eq\n      tag_3\n      jumpi\n      dup1\n      0x095ea7b3\n      eq\n      tag_4\n      jumpi\n      dup1\n      0x18160ddd\n      eq\n      tag_5\n      jumpi\n      dup1\n      0x23b872dd\n      eq\n      tag_6\n      jumpi\n      dup1\n      0x313ce567\n      eq\n      tag_7\n      jumpi\n    tag_2:\n      0x00\n      dup1\n      revert\n        /* \"contracts/My World.sol\":3584:3669  function name() external view returns (string memory) {... */\n    tag_3:\n      tag_28\n      tag_29\n      jump\t// in\n    tag_28:\n      mload(0x40)\n      tag_30\n      swap2\n      swap1\n      tag_31\n      jump\t// in\n    tag_30:\n      mload(0x40)\n      dup1\n      swap2\n      sub\n      swap1\n      return\n        /* \"contracts/My World.sol\":4660:4846  function approve(address spender, uint256 amount) external returns (bool) {... */\n    tag_4:\n      tag_32\n      0x04\n      dup1\n      calldatasize\n      sub\n      dup2\n      add\n      swap1\n      tag_33\n      swap2\n      swap1\n      tag_34\n      jump\t// in\n    tag_33:\n      tag_35\n      jump\t// in\n    tag_32:\n      mload(0x40)\n      tag_36\n      swap2\n      swap1\n      tag_37\n      jump\t// in\n    tag_36:\n      mload(0x40)\n      dup1\n      swap2\n      sub\n      swap1\n      return\n        /* \"contracts/My World.sol\":3868:3961  function totalSupply() external view returns (uint256) {... */\n    tag_5:\n      tag_38\n      tag_39\n      jump\t// in\n    tag_38:\n      mload(0x40)\n      tag_40\n      swap2\n      swap1\n      tag_41\n      jump\t// in\n    tag_40:\n      mload(0x40)\n      dup1\n      swap2\n      sub\n      swap1\n      return\n        /* \"contracts/My World.sol\":4854:5114  function transferFrom(address from, address to, uint256 amount) external whenNotPaused returns (bool) {... */\n    tag_6:\n      tag_42\n      0x04\n      dup1\n      calldatasize\n      sub\n      dup2\n      add\n      swap1\n      tag_43\n      swap2\n      swap1\n      tag_44\n      jump\t// in\n    tag_43:\n      tag_45\n      jump\t// in\n    tag_42:\n      mload(0x40)\n      tag_46\n      swap2\n      swap1\n      tag_37\n      jump\t// in\n    tag_46:\n      mload(0x40)\n      dup1\n      swap2\n      sub\n      swap1\n      return\n        /* \"contracts/My World.sol\":3774:3860  function decimals() external view virtual returns (uint8) {... */\n    tag_7:\n      tag_47\n      tag_48\n      jump\t// in\n    tag_47:\n      mload(0x40)\n      tag_49\n      swap2\n      swap1\n      tag_50\n      jump\t// in\n    tag_49:\n      mload(0x40)\n      dup1\n      swap2\n      sub\n      swap1\n      return\n        /* \"contracts/My World.sol\":5122:5354  function increaseAllowance(address spender, uint256 addedValue) external returns (bool) {... */\n    tag_8:\n      tag_51\n      0x04\n      dup1\n      calldatasize\n      sub\n      dup2\n      add\n      swap1\n      tag_52\n      swap2\n      swap1\n      tag_34\n      jump\t// in\n    tag_52:\n      tag_53\n      jump\t// in\n    tag_51:\n      mload(0x40)\n      tag_54\n      swap2\n      swap1\n      tag_37\n      jump\t// in\n    tag_54:\n      mload(0x40)\n      dup1\n      swap2\n      sub\n      swap1\n      return\n        /* \"contracts/My World.sol\":5871:5938  function unpause() external onlyOwner {... */\n    tag_9:\n      tag_55\n      tag_56\n      jump\t// in\n    tag_55:\n      stop\n        /* \"contracts/My World.sol\":5946:6136  function mint(address to, uint256 amount) external onlyOwner {... */\n    tag_10:\n      tag_57\n      0x04\n      dup1\n      calldatasize\n      sub\n      dup2\n      add\n      swap1\n      tag_58\n      swap2\n      swap1\n      tag_34\n      jump\t// in\n    tag_58:\n      tag_59\n      jump\t// in\n    tag_57:\n      stop\n        /* \"contracts/My World.sol\":6144:6229  function burn(uint256 amount) external {... */\n    tag_11:\n      tag_60\n      0x04\n      dup1\n      calldatasize\n      sub\n      dup2\n      add\n      swap1\n      tag_61\n      swap2\n      swap1\n      tag_62\n      jump\t// in\n    tag_61:\n      tag_63\n      jump\t// in\n    tag_60:\n      stop\n        /* \"contracts/My World.sol\":1717:1795  function paused() public view returns (bool) {... */\n    tag_12:\n      tag_64\n      tag_65\n      jump\t// in\n    tag_64:\n      mload(0x40)\n      tag_66\n      swap2\n      swap1\n      tag_37\n      jump\t// in\n    tag_66:\n      mload(0x40)\n      dup1\n      swap2\n      sub\n      swap1\n      return\n        /* \"contracts/My World.sol\":3969:4081  function balanceOf(address account) external view returns (uint256) {... */\n    tag_13:\n      tag_67\n      0x04\n      dup1\n      calldatasize\n      sub\n      dup2\n      add\n      swap1\n      tag_68\n      swap2\n      swap1\n      tag_69\n      jump\t// in\n    tag_68:\n      tag_70\n      jump\t// in\n    tag_67:\n      mload(0x40)\n      tag_71\n      swap2\n      swap1\n      tag_41\n      jump\t// in\n    tag_71:\n      mload(0x40)\n      dup1\n      swap2\n      sub\n      swap1\n      return\n        /* \"contracts/My World.sol\":837:934  function renounceOwnership() external onlyOwner {... */\n    tag_14:\n      tag_72\n      tag_73\n      jump\t// in\n    tag_72:\n      stop\n        /* \"contracts/My World.sol\":6237:6395  function burnFrom(address account, uint256 amount) external {... */\n    tag_15:\n      tag_74\n      0x04\n      dup1\n      calldatasize\n      sub\n      dup2\n      add\n      swap1\n      tag_75\n      swap2\n      swap1\n      tag_34\n      jump\t// in\n    tag_75:\n      tag_76\n      jump\t// in\n    tag_74:\n      stop\n        /* \"contracts/My World.sol\":5800:5863  function pause() external onlyOwner {... */\n    tag_16:\n      tag_77\n      tag_78\n      jump\t// in\n    tag_77:\n      stop\n        /* \"contracts/My World.sol\":618:697  function owner() public view returns (address) {... */\n    tag_17:\n      tag_79\n      tag_80\n      jump\t// in\n    tag_79:\n      mload(0x40)\n      tag_81\n      swap2\n      swap1\n      tag_82\n      jump\t// in\n    tag_81:\n      mload(0x40)\n      dup1\n      swap2\n      sub\n      swap1\n      return\n        /* \"contracts/My World.sol\":3677:3766  function symbol() external view returns (string memory) {... */\n    tag_18:\n      tag_83\n      tag_84\n      jump\t// in\n    tag_83:\n      mload(0x40)\n      tag_85\n      swap2\n      swap1\n      tag_31\n      jump\t// in\n    tag_85:\n      mload(0x40)\n      dup1\n      swap2\n      sub\n      swap1\n      return\n        /* \"contracts/My World.sol\":5362:5792  function decreaseAllowance(address spender, uint256 subtractedValue) external returns (bool) {... */\n    tag_19:\n      tag_86\n      0x04\n      dup1\n      calldatasize\n      sub\n      dup2\n      add\n      swap1\n      tag_87\n      swap2\n      swap1\n      tag_34\n      jump\t// in\n    tag_87:\n      tag_88\n      jump\t// in\n    tag_86:\n      mload(0x40)\n      tag_89\n      swap2\n      swap1\n      tag_37\n      jump\t// in\n    tag_89:\n      mload(0x40)\n      dup1\n      swap2\n      sub\n      swap1\n      return\n        /* \"contracts/My World.sol\":4460:4652  function transfer(address to, uint256 amount) external whenNotPaused returns (bool) {... */\n    tag_20:\n      tag_90\n      0x04\n      dup1\n      calldatasize\n      sub\n      dup2\n      add\n      swap1\n      tag_91\n      swap2\n      swap1\n      tag_34\n      jump\t// in\n    tag_91:\n      tag_92\n      jump\t// in\n    tag_90:\n      mload(0x40)\n      tag_93\n      swap2\n      swap1\n      tag_37\n      jump\t// in\n    tag_93:\n      mload(0x40)\n      dup1\n      swap2\n      sub\n      swap1\n      return\n        /* \"contracts/My World.sol\":4089:4178  function maxSupply() external view returns (uint256) {... */\n    tag_21:\n      tag_94\n      tag_95\n      jump\t// in\n    tag_94:\n      mload(0x40)\n      tag_96\n      swap2\n      swap1\n      tag_41\n      jump\t// in\n    tag_96:\n      mload(0x40)\n      dup1\n      swap2\n      sub\n      swap1\n      return\n        /* \"contracts/My World.sol\":6403:6537  function allowance(address owner, address spender) public view returns (uint256) {... */\n    tag_22:\n      tag_97\n      0x04\n      dup1\n      calldatasize\n      sub\n      dup2\n      add\n      swap1\n      tag_98\n      swap2\n      swap1\n      tag_99\n      jump\t// in\n    tag_98:\n      tag_100\n      jump\t// in\n    tag_97:\n      mload(0x40)\n      tag_101\n      swap2\n      swap1\n      tag_41\n      jump\t// in\n    tag_101:\n      mload(0x40)\n      dup1\n      swap2\n      sub\n      swap1\n      return\n        /* \"contracts/My World.sol\":4186:4452  function updateMaxSupply(uint256 _supply) external onlyOwner returns (bool) {... */\n    tag_23:\n      tag_102\n      0x04\n      dup1\n      calldatasize\n      sub\n      dup2\n      add\n      swap1\n      tag_103\n      swap2\n      swap1\n      tag_62\n      jump\t// in\n    tag_103:\n      tag_104\n      jump\t// in\n    tag_102:\n      mload(0x40)\n      tag_105\n      swap2\n      swap1\n      tag_37\n      jump\t// in\n    tag_105:\n      mload(0x40)\n      dup1\n      swap2\n      sub\n      swap1\n      return\n        /* \"contracts/My World.sol\":942:1137  function transferOwnership(address newOwner) external onlyOwner {... */\n    tag_24:\n      tag_106\n      0x04\n      dup1\n      calldatasize\n      sub\n      dup2\n      add\n      swap1\n      tag_107\n      swap2\n      swap1\n      tag_69\n      jump\t// in\n    tag_107:\n      tag_108\n      jump\t// in\n    tag_106:\n      stop\n        /* \"contracts/My World.sol\":3584:3669  function name() external view returns (string memory) {... */\n    tag_29:\n        /* \"contracts/My World.sol\":3623:3636  string memory */\n      0x60\n        /* \"contracts/My World.sol\":3656:3661  _name */\n      0x01\n        /* \"contracts/My World.sol\":3649:3661  return _name */\n      dup1\n      sload\n      tag_110\n      swap1\n      tag_111\n      jump\t// in\n    tag_110:\n      dup1\n      0x1f\n      add\n      0x20\n      dup1\n      swap2\n      div\n      mul\n      0x20\n      add\n      mload(0x40)\n      swap1\n      dup2\n      add\n      0x40\n      mstore\n      dup1\n      swap3\n      swap2\n      swap1\n      dup2\n      dup2\n      mstore\n      0x20\n      add\n      dup3\n      dup1\n      sload\n      tag_112\n      swap1\n      tag_111\n      jump\t// in\n    tag_112:\n      dup1\n      iszero\n      tag_113\n      jumpi\n      dup1\n      0x1f\n      lt\n      tag_114\n      jumpi\n      0x0100\n      dup1\n      dup4\n      sload\n      div\n      mul\n      dup4\n      mstore\n      swap2\n      0x20\n      add\n      swap2\n      jump(tag_113)\n    tag_114:\n      dup3\n      add\n      swap2\n      swap1\n      0x00\n      mstore\n      keccak256(0x00, 0x20)\n      swap1\n    tag_115:\n      dup2\n      sload\n      dup2\n      mstore\n      swap1\n      0x01\n      add\n      swap1\n      0x20\n      add\n      dup1\n      dup4\n      gt\n      tag_115\n      jumpi\n      dup3\n      swap1\n      sub\n      0x1f\n      and\n      dup3\n      add\n      swap2\n    tag_113:\n      pop\n      pop\n      pop\n      pop\n      pop\n      swap1\n      pop\n        /* \"contracts/My World.sol\":3584:3669  function name() external view returns (string memory) {... */\n      swap1\n      jump\t// out\n        /* \"contracts/My World.sol\":4660:4846  function approve(address spender, uint256 amount) external returns (bool) {... */\n    tag_35:\n        /* \"contracts/My World.sol\":4728:4732  bool */\n      0x00\n        /* \"contracts/My World.sol\":4745:4758  address owner */\n      dup1\n        /* \"contracts/My World.sol\":4761:4773  _msgSender() */\n      tag_117\n        /* \"contracts/My World.sol\":4761:4771  _msgSender */\n      tag_118\n        /* \"contracts/My World.sol\":4761:4773  _msgSender() */\n      jump\t// in\n    tag_117:\n        /* \"contracts/My World.sol\":4745:4773  address owner = _msgSender() */\n      swap1\n      pop\n        /* \"contracts/My World.sol\":4784:4816  _approve(owner, spender, amount) */\n      tag_119\n        /* \"contracts/My World.sol\":4793:4798  owner */\n      dup2\n        /* \"contracts/My World.sol\":4800:4807  spender */\n      dup6\n        /* \"contracts/My World.sol\":4809:4815  amount */\n      dup6\n        /* \"contracts/My World.sol\":4784:4792  _approve */\n      tag_120\n        /* \"contracts/My World.sol\":4784:4816  _approve(owner, spender, amount) */\n      jump\t// in\n    tag_119:\n        /* \"contracts/My World.sol\":4834:4838  true */\n      0x01\n        /* \"contracts/My World.sol\":4827:4838  return true */\n      swap2\n      pop\n      pop\n        /* \"contracts/My World.sol\":4660:4846  function approve(address spender, uint256 amount) external returns (bool) {... */\n      swap3\n      swap2\n      pop\n      pop\n      jump\t// out\n        /* \"contracts/My World.sol\":3868:3961  function totalSupply() external view returns (uint256) {... */\n    tag_39:\n        /* \"contracts/My World.sol\":3914:3921  uint256 */\n      0x00\n        /* \"contracts/My World.sol\":3941:3953  _totalSupply */\n      sload(0x03)\n        /* \"contracts/My World.sol\":3934:3953  return _totalSupply */\n      swap1\n      pop\n        /* \"contracts/My World.sol\":3868:3961  function totalSupply() external view returns (uint256) {... */\n      swap1\n      jump\t// out\n        /* \"contracts/My World.sol\":4854:5114  function transferFrom(address from, address to, uint256 amount) external whenNotPaused returns (bool) {... */\n    tag_45:\n        /* \"contracts/My World.sol\":4950:4954  bool */\n      0x00\n        /* \"contracts/My World.sol\":1593:1612  _requireNotPaused() */\n      tag_123\n        /* \"contracts/My World.sol\":1593:1610  _requireNotPaused */\n      tag_124\n        /* \"contracts/My World.sol\":1593:1612  _requireNotPaused() */\n      jump\t// in\n    tag_123:\n        /* \"contracts/My World.sol\":4967:4982  address spender */\n      0x00\n        /* \"contracts/My World.sol\":4985:4997  _msgSender() */\n      tag_126\n        /* \"contracts/My World.sol\":4985:4995  _msgSender */\n      tag_118\n        /* \"contracts/My World.sol\":4985:4997  _msgSender() */\n      jump\t// in\n    tag_126:\n        /* \"contracts/My World.sol\":4967:4997  address spender = _msgSender() */\n      swap1\n      pop\n        /* \"contracts/My World.sol\":5008:5046  _spendAllowance(from, spender, amount) */\n      tag_127\n        /* \"contracts/My World.sol\":5024:5028  from */\n      dup6\n        /* \"contracts/My World.sol\":5030:5037  spender */\n      dup3\n        /* \"contracts/My World.sol\":5039:5045  amount */\n      dup6\n        /* \"contracts/My World.sol\":5008:5023  _spendAllowance */\n      tag_128\n        /* \"contracts/My World.sol\":5008:5046  _spendAllowance(from, spender, amount) */\n      jump\t// in\n    tag_127:\n        /* \"contracts/My World.sol\":5057:5084  _transfer(from, to, amount) */\n      tag_129\n        /* \"contracts/My World.sol\":5067:5071  from */\n      dup6\n        /* \"contracts/My World.sol\":5073:5075  to */\n      dup6\n        /* \"contracts/My World.sol\":5077:5083  amount */\n      dup6\n        /* \"contracts/My World.sol\":5057:5066  _transfer */\n      tag_130\n        /* \"contracts/My World.sol\":5057:5084  _transfer(from, to, amount) */\n      jump\t// in\n    tag_129:\n        /* \"contracts/My World.sol\":5102:5106  true */\n      0x01\n        /* \"contracts/My World.sol\":5095:5106  return true */\n      swap2\n      pop\n      pop\n        /* \"contracts/My World.sol\":4854:5114  function transferFrom(address from, address to, uint256 amount) external whenNotPaused returns (bool) {... */\n      swap4\n      swap3\n      pop\n      pop\n      pop\n      jump\t// out\n        /* \"contracts/My World.sol\":3774:3860  function decimals() external view virtual returns (uint8) {... */\n    tag_48:\n        /* \"contracts/My World.sol\":3825:3830  uint8 */\n      0x00\n        /* \"contracts/My World.sol\":3850:3852  18 */\n      0x12\n        /* \"contracts/My World.sol\":3843:3852  return 18 */\n      swap1\n      pop\n        /* \"contracts/My World.sol\":3774:3860  function decimals() external view virtual returns (uint8) {... */\n      swap1\n      jump\t// out\n        /* \"contracts/My World.sol\":5122:5354  function increaseAllowance(address spender, uint256 addedValue) external returns (bool) {... */\n    tag_53:\n        /* \"contracts/My World.sol\":5204:5208  bool */\n      0x00\n        /* \"contracts/My World.sol\":5221:5234  address owner */\n      dup1\n        /* \"contracts/My World.sol\":5237:5249  _msgSender() */\n      tag_133\n        /* \"contracts/My World.sol\":5237:5247  _msgSender */\n      tag_118\n        /* \"contracts/My World.sol\":5237:5249  _msgSender() */\n      jump\t// in\n    tag_133:\n        /* \"contracts/My World.sol\":5221:5249  address owner = _msgSender() */\n      swap1\n      pop\n        /* \"contracts/My World.sol\":5260:5324  _approve(owner, spender, allowance(owner, spender) + addedValue) */\n      tag_134\n        /* \"contracts/My World.sol\":5269:5274  owner */\n      dup2\n        /* \"contracts/My World.sol\":5276:5283  spender */\n      dup6\n        /* \"contracts/My World.sol\":5313:5323  addedValue */\n      dup6\n        /* \"contracts/My World.sol\":5285:5310  allowance(owner, spender) */\n      tag_135\n        /* \"contracts/My World.sol\":5295:5300  owner */\n      dup6\n        /* \"contracts/My World.sol\":5302:5309  spender */\n      dup10\n        /* \"contracts/My World.sol\":5285:5294  allowance */\n      tag_100\n        /* \"contracts/My World.sol\":5285:5310  allowance(owner, spender) */\n      jump\t// in\n    tag_135:\n        /* \"contracts/My World.sol\":5285:5323  allowance(owner, spender) + addedValue */\n      tag_136\n      swap2\n      swap1\n      tag_137\n      jump\t// in\n    tag_136:\n        /* \"contracts/My World.sol\":5260:5268  _approve */\n      tag_120\n        /* \"contracts/My World.sol\":5260:5324  _approve(owner, spender, allowance(owner, spender) + addedValue) */\n      jump\t// in\n    tag_134:\n        /* \"contracts/My World.sol\":5342:5346  true */\n      0x01\n        /* \"contracts/My World.sol\":5335:5346  return true */\n      swap2\n      pop\n      pop\n        /* \"contracts/My World.sol\":5122:5354  function increaseAllowance(address spender, uint256 addedValue) external returns (bool) {... */\n      swap3\n      swap2\n      pop\n      pop\n      jump\t// out\n        /* \"contracts/My World.sol\":5871:5938  function unpause() external onlyOwner {... */\n    tag_56:\n        /* \"contracts/My World.sol\":577:590  _checkOwner() */\n      tag_139\n        /* \"contracts/My World.sol\":577:588  _checkOwner */\n      tag_140\n        /* \"contracts/My World.sol\":577:590  _checkOwner() */\n      jump\t// in\n    tag_139:\n        /* \"contracts/My World.sol\":5920:5930  _unpause() */\n      tag_142\n        /* \"contracts/My World.sol\":5920:5928  _unpause */\n      tag_143\n        /* \"contracts/My World.sol\":5920:5930  _unpause() */\n      jump\t// in\n    tag_142:\n        /* \"contracts/My World.sol\":5871:5938  function unpause() external onlyOwner {... */\n      jump\t// out\n        /* \"contracts/My World.sol\":5946:6136  function mint(address to, uint256 amount) external onlyOwner {... */\n    tag_59:\n        /* \"contracts/My World.sol\":577:590  _checkOwner() */\n      tag_145\n        /* \"contracts/My World.sol\":577:588  _checkOwner */\n      tag_140\n        /* \"contracts/My World.sol\":577:590  _checkOwner() */\n      jump\t// in\n    tag_145:\n        /* \"contracts/My World.sol\":6018:6035  _mint(to, amount) */\n      tag_147\n        /* \"contracts/My World.sol\":6024:6026  to */\n      dup3\n        /* \"contracts/My World.sol\":6028:6034  amount */\n      dup3\n        /* \"contracts/My World.sol\":6018:6023  _mint */\n      tag_148\n        /* \"contracts/My World.sol\":6018:6035  _mint(to, amount) */\n      jump\t// in\n    tag_147:\n        /* \"contracts/My World.sol\":6070:6080  _maxSupply */\n      sload(0x04)\n        /* \"contracts/My World.sol\":6054:6066  _totalSupply */\n      sload(0x03)\n        /* \"contracts/My World.sol\":6054:6080  _totalSupply <= _maxSupply */\n      gt\n      iszero\n        /* \"contracts/My World.sol\":6046:6128  require(_totalSupply <= _maxSupply, \"totalSupply should be lesser than maxSupply\") */\n      tag_149\n      jumpi\n      mload(0x40)\n      0x08c379a000000000000000000000000000000000000000000000000000000000\n      dup2\n      mstore\n      0x04\n      add\n      tag_150\n      swap1\n      tag_151\n      jump\t// in\n    tag_150:\n      mload(0x40)\n      dup1\n      swap2\n      sub\n      swap1\n      revert\n    tag_149:\n        /* \"contracts/My World.sol\":5946:6136  function mint(address to, uint256 amount) external onlyOwner {... */\n      pop\n      pop\n      jump\t// out\n        /* \"contracts/My World.sol\":6144:6229  function burn(uint256 amount) external {... */\n    tag_63:\n        /* \"contracts/My World.sol\":6194:6221  _burn(_msgSender(), amount) */\n      tag_153\n        /* \"contracts/My World.sol\":6200:6212  _msgSender() */\n      tag_154\n        /* \"contracts/My World.sol\":6200:6210  _msgSender */\n      tag_118\n        /* \"contracts/My World.sol\":6200:6212  _msgSender() */\n      jump\t// in\n    tag_154:\n        /* \"contracts/My World.sol\":6214:6220  amount */\n      dup3\n        /* \"contracts/My World.sol\":6194:6199  _burn */\n      tag_155\n        /* \"contracts/My World.sol\":6194:6221  _burn(_msgSender(), amount) */\n      jump\t// in\n    tag_153:\n        /* \"contracts/My World.sol\":6144:6229  function burn(uint256 amount) external {... */\n      pop\n      jump\t// out\n        /* \"contracts/My World.sol\":1717:1795  function paused() public view returns (bool) {... */\n    tag_65:\n        /* \"contracts/My World.sol\":1756:1760  bool */\n      0x00\n        /* \"contracts/My World.sol\":1780:1787  _paused */\n      dup1\n      0x14\n      swap1\n      sload\n      swap1\n      0x0100\n      exp\n      swap1\n      div\n      0xff\n      and\n        /* \"contracts/My World.sol\":1773:1787  return _paused */\n      swap1\n      pop\n        /* \"contracts/My World.sol\":1717:1795  function paused() public view returns (bool) {... */\n      swap1\n      jump\t// out\n        /* \"contracts/My World.sol\":3969:4081  function balanceOf(address account) external view returns (uint256) {... */\n    tag_70:\n        /* \"contracts/My World.sol\":4028:4035  uint256 */\n      0x00\n        /* \"contracts/My World.sol\":4055:4064  _balances */\n      0x05\n        /* \"contracts/My World.sol\":4055:4073  _balances[account] */\n      0x00\n        /* \"contracts/My World.sol\":4065:4072  account */\n      dup4\n        /* \"contracts/My World.sol\":4055:4073  _balances[account] */\n      0xffffffffffffffffffffffffffffffffffffffff\n      and\n      0xffffffffffffffffffffffffffffffffffffffff\n      and\n      dup2\n      mstore\n      0x20\n      add\n      swap1\n      dup2\n      mstore\n      0x20\n      add\n      0x00\n      keccak256\n      sload\n        /* \"contracts/My World.sol\":4048:4073  return _balances[account] */\n      swap1\n      pop\n        /* \"contracts/My World.sol\":3969:4081  function balanceOf(address account) external view returns (uint256) {... */\n      swap2\n      swap1\n      pop\n      jump\t// out\n        /* \"contracts/My World.sol\":837:934  function renounceOwnership() external onlyOwner {... */\n    tag_73:\n        /* \"contracts/My World.sol\":577:590  _checkOwner() */\n      tag_159\n        /* \"contracts/My World.sol\":577:588  _checkOwner */\n      tag_140\n        /* \"contracts/My World.sol\":577:590  _checkOwner() */\n      jump\t// in\n    tag_159:\n        /* \"contracts/My World.sol\":896:926  _transferOwnership(address(0)) */\n      tag_161\n        /* \"contracts/My World.sol\":923:924  0 */\n      0x00\n        /* \"contracts/My World.sol\":896:914  _transferOwnership */\n      tag_162\n        /* \"contracts/My World.sol\":896:926  _transferOwnership(address(0)) */\n      jump\t// in\n    tag_161:\n        /* \"contracts/My World.sol\":837:934  function renounceOwnership() external onlyOwner {... */\n      jump\t// out\n        /* \"contracts/My World.sol\":6237:6395  function burnFrom(address account, uint256 amount) external {... */\n    tag_76:\n        /* \"contracts/My World.sol\":6308:6354  _spendAllowance(account, _msgSender(), amount) */\n      tag_164\n        /* \"contracts/My World.sol\":6324:6331  account */\n      dup3\n        /* \"contracts/My World.sol\":6333:6345  _msgSender() */\n      tag_165\n        /* \"contracts/My World.sol\":6333:6343  _msgSender */\n      tag_118\n        /* \"contracts/My World.sol\":6333:6345  _msgSender() */\n      jump\t// in\n    tag_165:\n        /* \"contracts/My World.sol\":6347:6353  amount */\n      dup4\n        /* \"contracts/My World.sol\":6308:6323  _spendAllowance */\n      tag_128\n        /* \"contracts/My World.sol\":6308:6354  _spendAllowance(account, _msgSender(), amount) */\n      jump\t// in\n    tag_164:\n        /* \"contracts/My World.sol\":6365:6387  _burn(account, amount) */\n      tag_166\n        /* \"contracts/My World.sol\":6371:6378  account */\n      dup3\n        /* \"contracts/My World.sol\":6380:6386  amount */\n      dup3\n        /* \"contracts/My World.sol\":6365:6370  _burn */\n      tag_155\n        /* \"contracts/My World.sol\":6365:6387  _burn(account, amount) */\n      jump\t// in\n    tag_166:\n        /* \"contracts/My World.sol\":6237:6395  function burnFrom(address account, uint256 amount) external {... */\n      pop\n      pop\n      jump\t// out\n        /* \"contracts/My World.sol\":5800:5863  function pause() external onlyOwner {... */\n    tag_78:\n        /* \"contracts/My World.sol\":577:590  _checkOwner() */\n      tag_168\n        /* \"contracts/My World.sol\":577:588  _checkOwner */\n      tag_140\n        /* \"contracts/My World.sol\":577:590  _checkOwner() */\n      jump\t// in\n    tag_168:\n        /* \"contracts/My World.sol\":5847:5855  _pause() */\n      tag_170\n        /* \"contracts/My World.sol\":5847:5853  _pause */\n      tag_171\n        /* \"contracts/My World.sol\":5847:5855  _pause() */\n      jump\t// in\n    tag_170:\n        /* \"contracts/My World.sol\":5800:5863  function pause() external onlyOwner {... */\n      jump\t// out\n        /* \"contracts/My World.sol\":618:697  function owner() public view returns (address) {... */\n    tag_80:\n        /* \"contracts/My World.sol\":656:663  address */\n      0x00\n        /* \"contracts/My World.sol\":683:689  _owner */\n      dup1\n      0x00\n      swap1\n      sload\n      swap1\n      0x0100\n      exp\n      swap1\n      div\n      0xffffffffffffffffffffffffffffffffffffffff\n      and\n        /* \"contracts/My World.sol\":676:689  return _owner */\n      swap1\n      pop\n        /* \"contracts/My World.sol\":618:697  function owner() public view returns (address) {... */\n      swap1\n      jump\t// out\n        /* \"contracts/My World.sol\":3677:3766  function symbol() external view returns (string memory) {... */\n    tag_84:\n        /* \"contracts/My World.sol\":3718:3731  string memory */\n      0x60\n        /* \"contracts/My World.sol\":3751:3758  _symbol */\n      0x02\n        /* \"contracts/My World.sol\":3744:3758  return _symbol */\n      dup1\n      sload\n      tag_174\n      swap1\n      tag_111\n      jump\t// in\n    tag_174:\n      dup1\n      0x1f\n      add\n      0x20\n      dup1\n      swap2\n      div\n      mul\n      0x20\n      add\n      mload(0x40)\n      swap1\n      dup2\n      add\n      0x40\n      mstore\n      dup1\n      swap3\n      swap2\n      swap1\n      dup2\n      dup2\n      mstore\n      0x20\n      add\n      dup3\n      dup1\n      sload\n      tag_175\n      swap1\n      tag_111\n      jump\t// in\n    tag_175:\n      dup1\n      iszero\n      tag_176\n      jumpi\n      dup1\n      0x1f\n      lt\n      tag_177\n      jumpi\n      0x0100\n      dup1\n      dup4\n      sload\n      div\n      mul\n      dup4\n      mstore\n      swap2\n      0x20\n      add\n      swap2\n      jump(tag_176)\n    tag_177:\n      dup3\n      add\n      swap2\n      swap1\n      0x00\n      mstore\n      keccak256(0x00, 0x20)\n      swap1\n    tag_178:\n      dup2\n      sload\n      dup2\n      mstore\n      swap1\n      0x01\n      add\n      swap1\n      0x20\n      add\n      dup1\n      dup4\n      gt\n      tag_178\n      jumpi\n      dup3\n      swap1\n      sub\n      0x1f\n      and\n      dup3\n      add\n      swap2\n    tag_176:\n      pop\n      pop\n      pop\n      pop\n      pop\n      swap1\n      pop\n        /* \"contracts/My World.sol\":3677:3766  function symbol() external view returns (string memory) {... */\n      swap1\n      jump\t// out\n        /* \"contracts/My World.sol\":5362:5792  function decreaseAllowance(address spender, uint256 subtractedValue) external returns (bool) {... */\n    tag_88:\n        /* \"contracts/My World.sol\":5449:5453  bool */\n      0x00\n        /* \"contracts/My World.sol\":5466:5479  address owner */\n      dup1\n        /* \"contracts/My World.sol\":5482:5494  _msgSender() */\n      tag_180\n        /* \"contracts/My World.sol\":5482:5492  _msgSender */\n      tag_118\n        /* \"contracts/My World.sol\":5482:5494  _msgSender() */\n      jump\t// in\n    tag_180:\n        /* \"contracts/My World.sol\":5466:5494  address owner = _msgSender() */\n      swap1\n      pop\n        /* \"contracts/My World.sol\":5505:5529  uint256 currentAllowance */\n      0x00\n        /* \"contracts/My World.sol\":5532:5557  allowance(owner, spender) */\n      tag_181\n        /* \"contracts/My World.sol\":5542:5547  owner */\n      dup3\n        /* \"contracts/My World.sol\":5549:5556  spender */\n      dup7\n        /* \"contracts/My World.sol\":5532:5541  allowance */\n      tag_100\n        /* \"contracts/My World.sol\":5532:5557  allowance(owner, spender) */\n      jump\t// in\n    tag_181:\n        /* \"contracts/My World.sol\":5505:5557  uint256 currentAllowance = allowance(owner, spender) */\n      swap1\n      pop\n        /* \"contracts/My World.sol\":5596:5611  subtractedValue */\n      dup4\n        /* \"contracts/My World.sol\":5576:5592  currentAllowance */\n      dup2\n        /* \"contracts/My World.sol\":5576:5611  currentAllowance >= subtractedValue */\n      lt\n      iszero\n        /* \"contracts/My World.sol\":5568:5653  require(currentAllowance >= subtractedValue, \"ERC20: decreased allowance below zero\") */\n      tag_182\n      jumpi\n      mload(0x40)\n      0x08c379a000000000000000000000000000000000000000000000000000000000\n      dup2\n      mstore\n      0x04\n      add\n      tag_183\n      swap1\n      tag_184\n      jump\t// in\n    tag_183:\n      mload(0x40)\n      dup1\n      swap2\n      sub\n      swap1\n      revert\n    tag_182:\n        /* \"contracts/My World.sol\":5689:5749  _approve(owner, spender, currentAllowance - subtractedValue) */\n      tag_185\n        /* \"contracts/My World.sol\":5698:5703  owner */\n      dup3\n        /* \"contracts/My World.sol\":5705:5712  spender */\n      dup7\n        /* \"contracts/My World.sol\":5733:5748  subtractedValue */\n      dup7\n        /* \"contracts/My World.sol\":5714:5730  currentAllowance */\n      dup5\n        /* \"contracts/My World.sol\":5714:5748  currentAllowance - subtractedValue */\n      sub\n        /* \"contracts/My World.sol\":5689:5697  _approve */\n      tag_120\n        /* \"contracts/My World.sol\":5689:5749  _approve(owner, spender, currentAllowance - subtractedValue) */\n      jump\t// in\n    tag_185:\n        /* \"contracts/My World.sol\":5780:5784  true */\n      0x01\n        /* \"contracts/My World.sol\":5773:5784  return true */\n      swap3\n      pop\n      pop\n      pop\n        /* \"contracts/My World.sol\":5362:5792  function decreaseAllowance(address spender, uint256 subtractedValue) external returns (bool) {... */\n      swap3\n      swap2\n      pop\n      pop\n      jump\t// out\n        /* \"contracts/My World.sol\":4460:4652  function transfer(address to, uint256 amount) external whenNotPaused returns (bool) {... */\n    tag_92:\n        /* \"contracts/My World.sol\":4538:4542  bool */\n      0x00\n        /* \"contracts/My World.sol\":1593:1612  _requireNotPaused() */\n      tag_187\n        /* \"contracts/My World.sol\":1593:1610  _requireNotPaused */\n      tag_124\n        /* \"contracts/My World.sol\":1593:1612  _requireNotPaused() */\n      jump\t// in\n    tag_187:\n        /* \"contracts/My World.sol\":4555:4568  address owner */\n      0x00\n        /* \"contracts/My World.sol\":4571:4583  _msgSender() */\n      tag_189\n        /* \"contracts/My World.sol\":4571:4581  _msgSender */\n      tag_118\n        /* \"contracts/My World.sol\":4571:4583  _msgSender() */\n      jump\t// in\n    tag_189:\n        /* \"contracts/My World.sol\":4555:4583  address owner = _msgSender() */\n      swap1\n      pop\n        /* \"contracts/My World.sol\":4594:4622  _transfer(owner, to, amount) */\n      tag_190\n        /* \"contracts/My World.sol\":4604:4609  owner */\n      dup2\n        /* \"contracts/My World.sol\":4611:4613  to */\n      dup6\n        /* \"contracts/My World.sol\":4615:4621  amount */\n      dup6\n        /* \"contracts/My World.sol\":4594:4603  _transfer */\n      tag_130\n        /* \"contracts/My World.sol\":4594:4622  _transfer(owner, to, amount) */\n      jump\t// in\n    tag_190:\n        /* \"contracts/My World.sol\":4640:4644  true */\n      0x01\n        /* \"contracts/My World.sol\":4633:4644  return true */\n      swap2\n      pop\n      pop\n        /* \"contracts/My World.sol\":4460:4652  function transfer(address to, uint256 amount) external whenNotPaused returns (bool) {... */\n      swap3\n      swap2\n      pop\n      pop\n      jump\t// out\n        /* \"contracts/My World.sol\":4089:4178  function maxSupply() external view returns (uint256) {... */\n    tag_95:\n        /* \"contracts/My World.sol\":4133:4140  uint256 */\n      0x00\n        /* \"contracts/My World.sol\":4160:4170  _maxSupply */\n      sload(0x04)\n        /* \"contracts/My World.sol\":4153:4170  return _maxSupply */\n      swap1\n      pop\n        /* \"contracts/My World.sol\":4089:4178  function maxSupply() external view returns (uint256) {... */\n      swap1\n      jump\t// out\n        /* \"contracts/My World.sol\":6403:6537  function allowance(address owner, address spender) public view returns (uint256) {... */\n    tag_100:\n        /* \"contracts/My World.sol\":6475:6482  uint256 */\n      0x00\n        /* \"contracts/My World.sol\":6502:6513  _allowances */\n      0x06\n        /* \"contracts/My World.sol\":6502:6520  _allowances[owner] */\n      0x00\n        /* \"contracts/My World.sol\":6514:6519  owner */\n      dup5\n        /* \"contracts/My World.sol\":6502:6520  _allowances[owner] */\n      0xffffffffffffffffffffffffffffffffffffffff\n      and\n      0xffffffffffffffffffffffffffffffffffffffff\n      and\n      dup2\n      mstore\n      0x20\n      add\n      swap1\n      dup2\n      mstore\n      0x20\n      add\n      0x00\n      keccak256\n        /* \"contracts/My World.sol\":6502:6529  _allowances[owner][spender] */\n      0x00\n        /* \"contracts/My World.sol\":6521:6528  spender */\n      dup4\n        /* \"contracts/My World.sol\":6502:6529  _allowances[owner][spender] */\n      0xffffffffffffffffffffffffffffffffffffffff\n      and\n      0xffffffffffffffffffffffffffffffffffffffff\n      and\n      dup2\n      mstore\n      0x20\n      add\n      swap1\n      dup2\n      mstore\n      0x20\n      add\n      0x00\n      keccak256\n      sload\n        /* \"contracts/My World.sol\":6495:6529  return _allowances[owner][spender] */\n      swap1\n      pop\n        /* \"contracts/My World.sol\":6403:6537  function allowance(address owner, address spender) public view returns (uint256) {... */\n      swap3\n      swap2\n      pop\n      pop\n      jump\t// out\n        /* \"contracts/My World.sol\":4186:4452  function updateMaxSupply(uint256 _supply) external onlyOwner returns (bool) {... */\n    tag_104:\n        /* \"contracts/My World.sol\":4256:4260  bool */\n      0x00\n        /* \"contracts/My World.sol\":577:590  _checkOwner() */\n      tag_194\n        /* \"contracts/My World.sol\":577:588  _checkOwner */\n      tag_140\n        /* \"contracts/My World.sol\":577:590  _checkOwner() */\n      jump\t// in\n    tag_194:\n        /* \"contracts/My World.sol\":4291:4292  0 */\n      0x00\n        /* \"contracts/My World.sol\":4281:4288  _supply */\n      dup3\n        /* \"contracts/My World.sol\":4281:4292  _supply > 0 */\n      gt\n        /* \"contracts/My World.sol\":4273:4311  require(_supply > 0, \"Invalid Supply\") */\n      tag_196\n      jumpi\n      mload(0x40)\n      0x08c379a000000000000000000000000000000000000000000000000000000000\n      dup2\n      mstore\n      0x04\n      add\n      tag_197\n      swap1\n      tag_198\n      jump\t// in\n    tag_197:\n      mload(0x40)\n      dup1\n      swap2\n      sub\n      swap1\n      revert\n    tag_196:\n        /* \"contracts/My World.sol\":4335:4342  _supply */\n      dup2\n        /* \"contracts/My World.sol\":4322:4332  _maxSupply */\n      0x04\n        /* \"contracts/My World.sol\":4322:4342  _maxSupply = _supply */\n      dup2\n      swap1\n      sstore\n      pop\n        /* \"contracts/My World.sol\":4375:4387  _totalSupply */\n      sload(0x03)\n        /* \"contracts/My World.sol\":4361:4371  _maxSupply */\n      sload(0x04)\n        /* \"contracts/My World.sol\":4361:4387  _maxSupply >= _totalSupply */\n      lt\n      iszero\n        /* \"contracts/My World.sol\":4353:4422  require(_maxSupply >= _totalSupply, \"Supply lesser than totalSupply\") */\n      tag_199\n      jumpi\n      mload(0x40)\n      0x08c379a000000000000000000000000000000000000000000000000000000000\n      dup2\n      mstore\n      0x04\n      add\n      tag_200\n      swap1\n      tag_201\n      jump\t// in\n    tag_200:\n      mload(0x40)\n      dup1\n      swap2\n      sub\n      swap1\n      revert\n    tag_199:\n        /* \"contracts/My World.sol\":4440:4444  true */\n      0x01\n        /* \"contracts/My World.sol\":4433:4444  return true */\n      swap1\n      pop\n        /* \"contracts/My World.sol\":4186:4452  function updateMaxSupply(uint256 _supply) external onlyOwner returns (bool) {... */\n      swap2\n      swap1\n      pop\n      jump\t// out\n        /* \"contracts/My World.sol\":942:1137  function transferOwnership(address newOwner) external onlyOwner {... */\n    tag_108:\n        /* \"contracts/My World.sol\":577:590  _checkOwner() */\n      tag_203\n        /* \"contracts/My World.sol\":577:588  _checkOwner */\n      tag_140\n        /* \"contracts/My World.sol\":577:590  _checkOwner() */\n      jump\t// in\n    tag_203:\n        /* \"contracts/My World.sol\":1045:1046  0 */\n      0x00\n        /* \"contracts/My World.sol\":1025:1047  newOwner != address(0) */\n      0xffffffffffffffffffffffffffffffffffffffff\n      and\n        /* \"contracts/My World.sol\":1025:1033  newOwner */\n      dup2\n        /* \"contracts/My World.sol\":1025:1047  newOwner != address(0) */\n      0xffffffffffffffffffffffffffffffffffffffff\n      and\n      sub\n        /* \"contracts/My World.sol\":1017:1090  require(newOwner != address(0), \"Ownable: new owner is the zero address\") */\n      tag_205\n      jumpi\n      mload(0x40)\n      0x08c379a000000000000000000000000000000000000000000000000000000000\n      dup2\n      mstore\n      0x04\n      add\n      tag_206\n      swap1\n      tag_207\n      jump\t// in\n    tag_206:\n      mload(0x40)\n      dup1\n      swap2\n      sub\n      swap1\n      revert\n    tag_205:\n        /* \"contracts/My World.sol\":1101:1129  _transferOwnership(newOwner) */\n      tag_208\n        /* \"contracts/My World.sol\":1120:1128  newOwner */\n      dup2\n        /* \"contracts/My World.sol\":1101:1119  _transferOwnership */\n      tag_162\n        /* \"contracts/My World.sol\":1101:1129  _transferOwnership(newOwner) */\n      jump\t// in\n    tag_208:\n        /* \"contracts/My World.sol\":942:1137  function transferOwnership(address newOwner) external onlyOwner {... */\n      pop\n      jump\t// out\n        /* \"contracts/My World.sol\":99:189  function _msgSender() internal view returns (address) {... */\n    tag_118:\n        /* \"contracts/My World.sol\":144:151  address */\n      0x00\n        /* \"contracts/My World.sol\":171:181  msg.sender */\n      caller\n        /* \"contracts/My World.sol\":164:181  return msg.sender */\n      swap1\n      pop\n        /* \"contracts/My World.sol\":99:189  function _msgSender() internal view returns (address) {... */\n      swap1\n      jump\t// out\n        /* \"contracts/My World.sol\":7825:8163  function _approve(address owner, address spender, uint256 amount) internal {... */\n    tag_120:\n        /* \"contracts/My World.sol\":7936:7937  0 */\n      0x00\n        /* \"contracts/My World.sol\":7919:7938  owner != address(0) */\n      0xffffffffffffffffffffffffffffffffffffffff\n      and\n        /* \"contracts/My World.sol\":7919:7924  owner */\n      dup4\n        /* \"contracts/My World.sol\":7919:7938  owner != address(0) */\n      0xffffffffffffffffffffffffffffffffffffffff\n      and\n      sub\n        /* \"contracts/My World.sol\":7911:7979  require(owner != address(0), \"ERC20: approve from the zero address\") */\n      tag_211\n      jumpi\n      mload(0x40)\n      0x08c379a000000000000000000000000000000000000000000000000000000000\n      dup2\n      mstore\n      0x04\n      add\n      tag_212\n      swap1\n      tag_213\n      jump\t// in\n    tag_212:\n      mload(0x40)\n      dup1\n      swap2\n      sub\n      swap1\n      revert\n    tag_211:\n        /* \"contracts/My World.sol\":8017:8018  0 */\n      0x00\n        /* \"contracts/My World.sol\":7998:8019  spender != address(0) */\n      0xffffffffffffffffffffffffffffffffffffffff\n      and\n        /* \"contracts/My World.sol\":7998:8005  spender */\n      dup3\n        /* \"contracts/My World.sol\":7998:8019  spender != address(0) */\n      0xffffffffffffffffffffffffffffffffffffffff\n      and\n      sub\n        /* \"contracts/My World.sol\":7990:8058  require(spender != address(0), \"ERC20: approve to the zero address\") */\n      tag_214\n      jumpi\n      mload(0x40)\n      0x08c379a000000000000000000000000000000000000000000000000000000000\n      dup2\n      mstore\n      0x04\n      add\n      tag_215\n      swap1\n      tag_216\n      jump\t// in\n    tag_215:\n      mload(0x40)\n      dup1\n      swap2\n      sub\n      swap1\n      revert\n    tag_214:\n        /* \"contracts/My World.sol\":8101:8107  amount */\n      dup1\n        /* \"contracts/My World.sol\":8071:8082  _allowances */\n      0x06\n        /* \"contracts/My World.sol\":8071:8089  _allowances[owner] */\n      0x00\n        /* \"contracts/My World.sol\":8083:8088  owner */\n      dup6\n        /* \"contracts/My World.sol\":8071:8089  _allowances[owner] */\n      0xffffffffffffffffffffffffffffffffffffffff\n      and\n      0xffffffffffffffffffffffffffffffffffffffff\n      and\n      dup2\n      mstore\n      0x20\n      add\n      swap1\n      dup2\n      mstore\n      0x20\n      add\n      0x00\n      keccak256\n        /* \"contracts/My World.sol\":8071:8098  _allowances[owner][spender] */\n      0x00\n        /* \"contracts/My World.sol\":8090:8097  spender */\n      dup5\n        /* \"contracts/My World.sol\":8071:8098  _allowances[owner][spender] */\n      0xffffffffffffffffffffffffffffffffffffffff\n      and\n      0xffffffffffffffffffffffffffffffffffffffff\n      and\n      dup2\n      mstore\n      0x20\n      add\n      swap1\n      dup2\n      mstore\n      0x20\n      add\n      0x00\n      keccak256\n        /* \"contracts/My World.sol\":8071:8107  _allowances[owner][spender] = amount */\n      dup2\n      swap1\n      sstore\n      pop\n        /* \"contracts/My World.sol\":8139:8146  spender */\n      dup2\n        /* \"contracts/My World.sol\":8123:8155  Approval(owner, spender, amount) */\n      0xffffffffffffffffffffffffffffffffffffffff\n      and\n        /* \"contracts/My World.sol\":8132:8137  owner */\n      dup4\n        /* \"contracts/My World.sol\":8123:8155  Approval(owner, spender, amount) */\n      0xffffffffffffffffffffffffffffffffffffffff\n      and\n      0x8c5be1e5ebec7d5bd14f71427d1e84f3dd0314c0f7b2291e5b200ac8c7c3b925\n        /* \"contracts/My World.sol\":8148:8154  amount */\n      dup4\n        /* \"contracts/My World.sol\":8123:8155  Approval(owner, spender, amount) */\n      mload(0x40)\n      tag_217\n      swap2\n      swap1\n      tag_41\n      jump\t// in\n    tag_217:\n      mload(0x40)\n      dup1\n      swap2\n      sub\n      swap1\n      log3\n        /* \"contracts/My World.sol\":7825:8163  function _approve(address owner, address spender, uint256 amount) internal {... */\n      pop\n      pop\n      pop\n      jump\t// out\n        /* \"contracts/My World.sol\":1803:1903  function _requireNotPaused() internal view {... */\n    tag_124:\n        /* \"contracts/My World.sol\":1866:1874  paused() */\n      tag_219\n        /* \"contracts/My World.sol\":1866:1872  paused */\n      tag_65\n        /* \"contracts/My World.sol\":1866:1874  paused() */\n      jump\t// in\n    tag_219:\n        /* \"contracts/My World.sol\":1865:1874  !paused() */\n      iszero\n        /* \"contracts/My World.sol\":1857:1895  require(!paused(), \"Pausable: paused\") */\n      tag_220\n      jumpi\n      mload(0x40)\n      0x08c379a000000000000000000000000000000000000000000000000000000000\n      dup2\n      mstore\n      0x04\n      add\n      tag_221\n      swap1\n      tag_222\n      jump\t// in\n    tag_221:\n      mload(0x40)\n      dup1\n      swap2\n      sub\n      swap1\n      revert\n    tag_220:\n        /* \"contracts/My World.sol\":1803:1903  function _requireNotPaused() internal view {... */\n      jump\t// out\n        /* \"contracts/My World.sol\":8171:8582  function _spendAllowance(address owner, address spender, uint256 amount) internal {... */\n    tag_128:\n        /* \"contracts/My World.sol\":8264:8288  uint256 currentAllowance */\n      0x00\n        /* \"contracts/My World.sol\":8291:8316  allowance(owner, spender) */\n      tag_224\n        /* \"contracts/My World.sol\":8301:8306  owner */\n      dup5\n        /* \"contracts/My World.sol\":8308:8315  spender */\n      dup5\n        /* \"contracts/My World.sol\":8291:8300  allowance */\n      tag_100\n        /* \"contracts/My World.sol\":8291:8316  allowance(owner, spender) */\n      jump\t// in\n    tag_224:\n        /* \"contracts/My World.sol\":8264:8316  uint256 currentAllowance = allowance(owner, spender) */\n      swap1\n      pop\n        /* \"contracts/My World.sol\":8351:8368  type(uint256).max */\n      0xffffffffffffffffffffffffffffffffffffffffffffffffffffffffffffffff\n        /* \"contracts/My World.sol\":8331:8347  currentAllowance */\n      dup2\n        /* \"contracts/My World.sol\":8331:8368  currentAllowance != type(uint256).max */\n      eq\n        /* \"contracts/My World.sol\":8327:8575  if (currentAllowance != type(uint256).max) {... */\n      tag_225\n      jumpi\n        /* \"contracts/My World.sol\":8413:8419  amount */\n      dup2\n        /* \"contracts/My World.sol\":8393:8409  currentAllowance */\n      dup2\n        /* \"contracts/My World.sol\":8393:8419  currentAllowance >= amount */\n      lt\n      iszero\n        /* \"contracts/My World.sol\":8385:8453  require(currentAllowance >= amount, \"ERC20: insufficient allowance\") */\n      tag_226\n      jumpi\n      mload(0x40)\n      0x08c379a000000000000000000000000000000000000000000000000000000000\n      dup2\n      mstore\n      0x04\n      add\n      tag_227\n      swap1\n      tag_228\n      jump\t// in\n    tag_227:\n      mload(0x40)\n      dup1\n      swap2\n      sub\n      swap1\n      revert\n    tag_226:\n        /* \"contracts/My World.sol\":8497:8548  _approve(owner, spender, currentAllowance - amount) */\n      tag_229\n        /* \"contracts/My World.sol\":8506:8511  owner */\n      dup5\n        /* \"contracts/My World.sol\":8513:8520  spender */\n      dup5\n        /* \"contracts/My World.sol\":8541:8547  amount */\n      dup5\n        /* \"contracts/My World.sol\":8522:8538  currentAllowance */\n      dup5\n        /* \"contracts/My World.sol\":8522:8547  currentAllowance - amount */\n      sub\n        /* \"contracts/My World.sol\":8497:8505  _approve */\n      tag_120\n        /* \"contracts/My World.sol\":8497:8548  _approve(owner, spender, currentAllowance - amount) */\n      jump\t// in\n    tag_229:\n        /* \"contracts/My World.sol\":8327:8575  if (currentAllowance != type(uint256).max) {... */\n    tag_225:\n        /* \"contracts/My World.sol\":8253:8582  {... */\n      pop\n        /* \"contracts/My World.sol\":8171:8582  function _spendAllowance(address owner, address spender, uint256 amount) internal {... */\n      pop\n      pop\n      pop\n      jump\t// out\n        /* \"contracts/My World.sol\":6545:7073  function _transfer(address from, address to, uint256 amount) internal {... */\n    tag_130:\n        /* \"contracts/My World.sol\":6650:6651  0 */\n      0x00\n        /* \"contracts/My World.sol\":6634:6652  from != address(0) */\n      0xffffffffffffffffffffffffffffffffffffffff\n      and\n        /* \"contracts/My World.sol\":6634:6638  from */\n      dup4\n        /* \"contracts/My World.sol\":6634:6652  from != address(0) */\n      0xffffffffffffffffffffffffffffffffffffffff\n      and\n      sub\n        /* \"contracts/My World.sol\":6626:6694  require(from != address(0), \"ERC20: transfer from the zero address\") */\n      tag_231\n      jumpi\n      mload(0x40)\n      0x08c379a000000000000000000000000000000000000000000000000000000000\n      dup2\n      mstore\n      0x04\n      add\n      tag_232\n      swap1\n      tag_233\n      jump\t// in\n    tag_232:\n      mload(0x40)\n      dup1\n      swap2\n      sub\n      swap1\n      revert\n    tag_231:\n        /* \"contracts/My World.sol\":6727:6728  0 */\n      0x00\n        /* \"contracts/My World.sol\":6713:6729  to != address(0) */\n      0xffffffffffffffffffffffffffffffffffffffff\n      and\n        /* \"contracts/My World.sol\":6713:6715  to */\n      dup3\n        /* \"contracts/My World.sol\":6713:6729  to != address(0) */\n      0xffffffffffffffffffffffffffffffffffffffff\n      and\n      sub\n        /* \"contracts/My World.sol\":6705:6769  require(to != address(0), \"ERC20: transfer to the zero address\") */\n      tag_234\n      jumpi\n      mload(0x40)\n      0x08c379a000000000000000000000000000000000000000000000000000000000\n      dup2\n      mstore\n      0x04\n      add\n      tag_235\n      swap1\n      tag_236\n      jump\t// in\n    tag_235:\n      mload(0x40)\n      dup1\n      swap2\n      sub\n      swap1\n      revert\n    tag_234:\n        /* \"contracts/My World.sol\":6782:6801  uint256 fromBalance */\n      0x00\n        /* \"contracts/My World.sol\":6804:6813  _balances */\n      0x05\n        /* \"contracts/My World.sol\":6804:6819  _balances[from] */\n      0x00\n        /* \"contracts/My World.sol\":6814:6818  from */\n      dup6\n        /* \"contracts/My World.sol\":6804:6819  _balances[from] */\n      0xffffffffffffffffffffffffffffffffffffffff\n      and\n      0xffffffffffffffffffffffffffffffffffffffff\n      and\n      dup2\n      mstore\n      0x20\n      add\n      swap1\n      dup2\n      mstore\n      0x20\n      add\n      0x00\n      keccak256\n      sload\n        /* \"contracts/My World.sol\":6782:6819  uint256 fromBalance = _balances[from] */\n      swap1\n      pop\n        /* \"contracts/My World.sol\":6853:6859  amount */\n      dup2\n        /* \"contracts/My World.sol\":6838:6849  fromBalance */\n      dup2\n        /* \"contracts/My World.sol\":6838:6859  fromBalance >= amount */\n      lt\n      iszero\n        /* \"contracts/My World.sol\":6830:6902  require(fromBalance >= amount, \"ERC20: transfer amount exceeds balance\") */\n      tag_237\n      jumpi\n      mload(0x40)\n      0x08c379a000000000000000000000000000000000000000000000000000000000\n      dup2\n      mstore\n      0x04\n      add\n      tag_238\n      swap1\n      tag_239\n      jump\t// in\n    tag_238:\n      mload(0x40)\n      dup1\n      swap2\n      sub\n      swap1\n      revert\n    tag_237:\n        /* \"contracts/My World.sol\":6970:6976  amount */\n      dup2\n        /* \"contracts/My World.sol\":6956:6967  fromBalance */\n      dup2\n        /* \"contracts/My World.sol\":6956:6976  fromBalance - amount */\n      sub\n        /* \"contracts/My World.sol\":6938:6947  _balances */\n      0x05\n        /* \"contracts/My World.sol\":6938:6953  _balances[from] */\n      0x00\n        /* \"contracts/My World.sol\":6948:6952  from */\n      dup7\n        /* \"contracts/My World.sol\":6938:6953  _balances[from] */\n      0xffffffffffffffffffffffffffffffffffffffff\n      and\n      0xffffffffffffffffffffffffffffffffffffffff\n      and\n      dup2\n      mstore\n      0x20\n      add\n      swap1\n      dup2\n      mstore\n      0x20\n      add\n      0x00\n      keccak256\n        /* \"contracts/My World.sol\":6938:6976  _balances[from] = fromBalance - amount */\n      dup2\n      swap1\n      sstore\n      pop\n        /* \"contracts/My World.sol\":7015:7021  amount */\n      dup2\n        /* \"contracts/My World.sol\":6998:7007  _balances */\n      0x05\n        /* \"contracts/My World.sol\":6998:7011  _balances[to] */\n      0x00\n        /* \"contracts/My World.sol\":7008:7010  to */\n      dup6\n        /* \"contracts/My World.sol\":6998:7011  _balances[to] */\n      0xffffffffffffffffffffffffffffffffffffffff\n      and\n      0xffffffffffffffffffffffffffffffffffffffff\n      and\n      dup2\n      mstore\n      0x20\n      add\n      swap1\n      dup2\n      mstore\n      0x20\n      add\n      0x00\n      keccak256\n      0x00\n        /* \"contracts/My World.sol\":6998:7021  _balances[to] += amount */\n      dup3\n      dup3\n      sload\n      tag_240\n      swap2\n      swap1\n      tag_137\n      jump\t// in\n    tag_240:\n      swap3\n      pop\n      pop\n      dup2\n      swap1\n      sstore\n      pop\n        /* \"contracts/My World.sol\":7054:7056  to */\n      dup3\n        /* \"contracts/My World.sol\":7039:7065  Transfer(from, to, amount) */\n      0xffffffffffffffffffffffffffffffffffffffff\n      and\n        /* \"contracts/My World.sol\":7048:7052  from */\n      dup5\n        /* \"contracts/My World.sol\":7039:7065  Transfer(from, to, amount) */\n      0xffffffffffffffffffffffffffffffffffffffff\n      and\n      0xddf252ad1be2c89b69c2b068fc378daa952ba7f163c4a11628f55a4df523b3ef\n        /* \"contracts/My World.sol\":7058:7064  amount */\n      dup5\n        /* \"contracts/My World.sol\":7039:7065  Transfer(from, to, amount) */\n      mload(0x40)\n      tag_241\n      swap2\n      swap1\n      tag_41\n      jump\t// in\n    tag_241:\n      mload(0x40)\n      dup1\n      swap2\n      sub\n      swap1\n      log3\n        /* \"contracts/My World.sol\":6615:7073  {... */\n      pop\n        /* \"contracts/My World.sol\":6545:7073  function _transfer(address from, address to, uint256 amount) internal {... */\n      pop\n      pop\n      pop\n      jump\t// out\n        /* \"contracts/My World.sol\":705:829  function _checkOwner() internal view {... */\n    tag_140:\n        /* \"contracts/My World.sol\":772:784  _msgSender() */\n      tag_243\n        /* \"contracts/My World.sol\":772:782  _msgSender */\n      tag_118\n        /* \"contracts/My World.sol\":772:784  _msgSender() */\n      jump\t// in\n    tag_243:\n        /* \"contracts/My World.sol\":761:784  owner() == _msgSender() */\n      0xffffffffffffffffffffffffffffffffffffffff\n      and\n        /* \"contracts/My World.sol\":761:768  owner() */\n      tag_244\n        /* \"contracts/My World.sol\":761:766  owner */\n      tag_80\n        /* \"contracts/My World.sol\":761:768  owner() */\n      jump\t// in\n    tag_244:\n        /* \"contracts/My World.sol\":761:784  owner() == _msgSender() */\n      0xffffffffffffffffffffffffffffffffffffffff\n      and\n      eq\n        /* \"contracts/My World.sol\":753:821  require(owner() == _msgSender(), \"Ownable: caller is not the owner\") */\n      tag_245\n      jumpi\n      mload(0x40)\n      0x08c379a000000000000000000000000000000000000000000000000000000000\n      dup2\n      mstore\n      0x04\n      add\n      tag_246\n      swap1\n      tag_247\n      jump\t// in\n    tag_246:\n      mload(0x40)\n      dup1\n      swap2\n      sub\n      swap1\n      revert\n    tag_245:\n        /* \"contracts/My World.sol\":705:829  function _checkOwner() internal view {... */\n      jump\t// out\n        /* \"contracts/My World.sol\":2137:2249  function _unpause() internal whenPaused {... */\n    tag_143:\n        /* \"contracts/My World.sol\":1673:1689  _requirePaused() */\n      tag_249\n        /* \"contracts/My World.sol\":1673:1687  _requirePaused */\n      tag_250\n        /* \"contracts/My World.sol\":1673:1689  _requirePaused() */\n      jump\t// in\n    tag_249:\n        /* \"contracts/My World.sol\":2198:2203  false */\n      0x00\n        /* \"contracts/My World.sol\":2188:2195  _paused */\n      dup1\n      0x14\n        /* \"contracts/My World.sol\":2188:2203  _paused = false */\n      0x0100\n      exp\n      dup2\n      sload\n      dup2\n      0xff\n      mul\n      not\n      and\n      swap1\n      dup4\n      iszero\n      iszero\n      mul\n      or\n      swap1\n      sstore\n      pop\n        /* \"contracts/My World.sol\":2228:2240  _msgSender() */\n      tag_252\n        /* \"contracts/My World.sol\":2228:2238  _msgSender */\n      tag_118\n        /* \"contracts/My World.sol\":2228:2240  _msgSender() */\n      jump\t// in\n    tag_252:\n        /* \"contracts/My World.sol\":2219:2241  Unpaused(_msgSender()) */\n      0xffffffffffffffffffffffffffffffffffffffff\n      and\n      0x5db9ee0a495bf2e6ff9c91a7834c1ba4fdd244a5e8aa4e537bd38aeae4b073aa\n      mload(0x40)\n      mload(0x40)\n      dup1\n      swap2\n      sub\n      swap1\n      log2\n        /* \"contracts/My World.sol\":2137:2249  function _unpause() internal whenPaused {... */\n      jump\t// out\n        /* \"contracts/My World.sol\":7081:7349  function _mint(address account, uint256 amount) internal {... */\n    tag_148:\n        /* \"contracts/My World.sol\":7176:7177  0 */\n      0x00\n        /* \"contracts/My World.sol\":7157:7178  account != address(0) */\n      0xffffffffffffffffffffffffffffffffffffffff\n      and\n        /* \"contracts/My World.sol\":7157:7164  account */\n      dup3\n        /* \"contracts/My World.sol\":7157:7178  account != address(0) */\n      0xffffffffffffffffffffffffffffffffffffffff\n      and\n      sub\n        /* \"contracts/My World.sol\":7149:7214  require(account != address(0), \"ERC20: mint to the zero address\") */\n      tag_254\n      jumpi\n      mload(0x40)\n      0x08c379a000000000000000000000000000000000000000000000000000000000\n      dup2\n      mstore\n      0x04\n      add\n      tag_255\n      swap1\n      tag_256\n      jump\t// in\n    tag_255:\n      mload(0x40)\n      dup1\n      swap2\n      sub\n      swap1\n      revert\n    tag_254:\n        /* \"contracts/My World.sol\":7243:7249  amount */\n      dup1\n        /* \"contracts/My World.sol\":7227:7239  _totalSupply */\n      0x03\n      0x00\n        /* \"contracts/My World.sol\":7227:7249  _totalSupply += amount */\n      dup3\n      dup3\n      sload\n      tag_257\n      swap2\n      swap1\n      tag_137\n      jump\t// in\n    tag_257:\n      swap3\n      pop\n      pop\n      dup2\n      swap1\n      sstore\n      pop\n        /* \"contracts/My World.sol\":7282:7288  amount */\n      dup1\n        /* \"contracts/My World.sol\":7260:7269  _balances */\n      0x05\n        /* \"contracts/My World.sol\":7260:7278  _balances[account] */\n      0x00\n        /* \"contracts/My World.sol\":7270:7277  account */\n      dup5\n        /* \"contracts/My World.sol\":7260:7278  _balances[account] */\n      0xffffffffffffffffffffffffffffffffffffffff\n      and\n      0xffffffffffffffffffffffffffffffffffffffff\n      and\n      dup2\n      mstore\n      0x20\n      add\n      swap1\n      dup2\n      mstore\n      0x20\n      add\n      0x00\n      keccak256\n      0x00\n        /* \"contracts/My World.sol\":7260:7288  _balances[account] += amount */\n      dup3\n      dup3\n      sload\n      tag_258\n      swap2\n      swap1\n      tag_137\n      jump\t// in\n    tag_258:\n      swap3\n      pop\n      pop\n      dup2\n      swap1\n      sstore\n      pop\n        /* \"contracts/My World.sol\":7325:7332  account */\n      dup2\n        /* \"contracts/My World.sol\":7304:7341  Transfer(address(0), account, amount) */\n      0xffffffffffffffffffffffffffffffffffffffff\n      and\n        /* \"contracts/My World.sol\":7321:7322  0 */\n      0x00\n        /* \"contracts/My World.sol\":7304:7341  Transfer(address(0), account, amount) */\n      0xffffffffffffffffffffffffffffffffffffffff\n      and\n      0xddf252ad1be2c89b69c2b068fc378daa952ba7f163c4a11628f55a4df523b3ef\n        /* \"contracts/My World.sol\":7334:7340  amount */\n      dup4\n        /* \"contracts/My World.sol\":7304:7341  Transfer(address(0), account, amount) */\n      mload(0x40)\n      tag_259\n      swap2\n      swap1\n      tag_41\n      jump\t// in\n    tag_259:\n      mload(0x40)\n      dup1\n      swap2\n      sub\n      swap1\n      log3\n        /* \"contracts/My World.sol\":7081:7349  function _mint(address account, uint256 amount) internal {... */\n      pop\n      pop\n      jump\t// out\n        /* \"contracts/My World.sol\":7357:7817  function _burn(address account, uint256 amount) internal {... */\n    tag_155:\n        /* \"contracts/My World.sol\":7452:7453  0 */\n      0x00\n        /* \"contracts/My World.sol\":7433:7454  account != address(0) */\n      0xffffffffffffffffffffffffffffffffffffffff\n      and\n        /* \"contracts/My World.sol\":7433:7440  account */\n      dup3\n        /* \"contracts/My World.sol\":7433:7454  account != address(0) */\n      0xffffffffffffffffffffffffffffffffffffffff\n      and\n      sub\n        /* \"contracts/My World.sol\":7425:7492  require(account != address(0), \"ERC20: burn from the zero address\") */\n      tag_261\n      jumpi\n      mload(0x40)\n      0x08c379a000000000000000000000000000000000000000000000000000000000\n      dup2\n      mstore\n      0x04\n      add\n      tag_262\n      swap1\n      tag_263\n      jump\t// in\n    tag_262:\n      mload(0x40)\n      dup1\n      swap2\n      sub\n      swap1\n      revert\n    tag_261:\n        /* \"contracts/My World.sol\":7505:7527  uint256 accountBalance */\n      0x00\n        /* \"contracts/My World.sol\":7530:7539  _balances */\n      0x05\n        /* \"contracts/My World.sol\":7530:7548  _balances[account] */\n      0x00\n        /* \"contracts/My World.sol\":7540:7547  account */\n      dup5\n        /* \"contracts/My World.sol\":7530:7548  _balances[account] */\n      0xffffffffffffffffffffffffffffffffffffffff\n      and\n      0xffffffffffffffffffffffffffffffffffffffff\n      and\n      dup2\n      mstore\n      0x20\n      add\n      swap1\n      dup2\n      mstore\n      0x20\n      add\n      0x00\n      keccak256\n      sload\n        /* \"contracts/My World.sol\":7505:7548  uint256 accountBalance = _balances[account] */\n      swap1\n      pop\n        /* \"contracts/My World.sol\":7585:7591  amount */\n      dup2\n        /* \"contracts/My World.sol\":7567:7581  accountBalance */\n      dup2\n        /* \"contracts/My World.sol\":7567:7591  accountBalance >= amount */\n      lt\n      iszero\n        /* \"contracts/My World.sol\":7559:7630  require(accountBalance >= amount, \"ERC20: burn amount exceeds balance\") */\n      tag_264\n      jumpi\n      mload(0x40)\n      0x08c379a000000000000000000000000000000000000000000000000000000000\n      dup2\n      mstore\n      0x04\n      add\n      tag_265\n      swap1\n      tag_266\n      jump\t// in\n    tag_265:\n      mload(0x40)\n      dup1\n      swap2\n      sub\n      swap1\n      revert\n    tag_264:\n        /* \"contracts/My World.sol\":7704:7710  amount */\n      dup2\n        /* \"contracts/My World.sol\":7687:7701  accountBalance */\n      dup2\n        /* \"contracts/My World.sol\":7687:7710  accountBalance - amount */\n      sub\n        /* \"contracts/My World.sol\":7666:7675  _balances */\n      0x05\n        /* \"contracts/My World.sol\":7666:7684  _balances[account] */\n      0x00\n        /* \"contracts/My World.sol\":7676:7683  account */\n      dup6\n        /* \"contracts/My World.sol\":7666:7684  _balances[account] */\n      0xffffffffffffffffffffffffffffffffffffffff\n      and\n      0xffffffffffffffffffffffffffffffffffffffff\n      and\n      dup2\n      mstore\n      0x20\n      add\n      swap1\n      dup2\n      mstore\n      0x20\n      add\n      0x00\n      keccak256\n        /* \"contracts/My World.sol\":7666:7710  _balances[account] = accountBalance - amount */\n      dup2\n      swap1\n      sstore\n      pop\n        /* \"contracts/My World.sol\":7748:7754  amount */\n      dup2\n        /* \"contracts/My World.sol\":7732:7744  _totalSupply */\n      0x03\n      0x00\n        /* \"contracts/My World.sol\":7732:7754  _totalSupply -= amount */\n      dup3\n      dup3\n      sload\n      tag_267\n      swap2\n      swap1\n      tag_268\n      jump\t// in\n    tag_267:\n      swap3\n      pop\n      pop\n      dup2\n      swap1\n      sstore\n      pop\n        /* \"contracts/My World.sol\":7798:7799  0 */\n      0x00\n        /* \"contracts/My World.sol\":7772:7809  Transfer(account, address(0), amount) */\n      0xffffffffffffffffffffffffffffffffffffffff\n      and\n        /* \"contracts/My World.sol\":7781:7788  account */\n      dup4\n        /* \"contracts/My World.sol\":7772:7809  Transfer(account, address(0), amount) */\n      0xffffffffffffffffffffffffffffffffffffffff\n      and\n      0xddf252ad1be2c89b69c2b068fc378daa952ba7f163c4a11628f55a4df523b3ef\n        /* \"contracts/My World.sol\":7802:7808  amount */\n      dup5\n        /* \"contracts/My World.sol\":7772:7809  Transfer(account, address(0), amount) */\n      mload(0x40)\n      tag_269\n      swap2\n      swap1\n      tag_41\n      jump\t// in\n    tag_269:\n      mload(0x40)\n      dup1\n      swap2\n      sub\n      swap1\n      log3\n        /* \"contracts/My World.sol\":7414:7817  {... */\n      pop\n        /* \"contracts/My World.sol\":7357:7817  function _burn(address account, uint256 amount) internal {... */\n      pop\n      pop\n      jump\t// out\n        /* \"contracts/My World.sol\":1145:1328  function _transferOwnership(address newOwner) internal {... */\n    tag_162:\n        /* \"contracts/My World.sol\":1211:1227  address oldOwner */\n      0x00\n        /* \"contracts/My World.sol\":1230:1236  _owner */\n      dup1\n      0x00\n      swap1\n      sload\n      swap1\n      0x0100\n      exp\n      swap1\n      div\n      0xffffffffffffffffffffffffffffffffffffffff\n      and\n        /* \"contracts/My World.sol\":1211:1236  address oldOwner = _owner */\n      swap1\n      pop\n        /* \"contracts/My World.sol\":1256:1264  newOwner */\n      dup2\n        /* \"contracts/My World.sol\":1247:1253  _owner */\n      0x00\n      dup1\n        /* \"contracts/My World.sol\":1247:1264  _owner = newOwner */\n      0x0100\n      exp\n      dup2\n      sload\n      dup2\n      0xffffffffffffffffffffffffffffffffffffffff\n      mul\n      not\n      and\n      swap1\n      dup4\n      0xffffffffffffffffffffffffffffffffffffffff\n      and\n      mul\n      or\n      swap1\n      sstore\n      pop\n        /* \"contracts/My World.sol\":1311:1319  newOwner */\n      dup2\n        /* \"contracts/My World.sol\":1280:1320  OwnershipTransferred(oldOwner, newOwner) */\n      0xffffffffffffffffffffffffffffffffffffffff\n      and\n        /* \"contracts/My World.sol\":1301:1309  oldOwner */\n      dup2\n        /* \"contracts/My World.sol\":1280:1320  OwnershipTransferred(oldOwner, newOwner) */\n      0xffffffffffffffffffffffffffffffffffffffff\n      and\n      0x8be0079c531659141344cd1fd0a4f28419497f9722a3daafe3b4186f6b6457e0\n      mload(0x40)\n      mload(0x40)\n      dup1\n      swap2\n      sub\n      swap1\n      log3\n        /* \"contracts/My World.sol\":1200:1328  {... */\n      pop\n        /* \"contracts/My World.sol\":1145:1328  function _transferOwnership(address newOwner) internal {... */\n      pop\n      jump\t// out\n        /* \"contracts/My World.sol\":2019:2129  function _pause() internal whenNotPaused {... */\n    tag_171:\n        /* \"contracts/My World.sol\":1593:1612  _requireNotPaused() */\n      tag_272\n        /* \"contracts/My World.sol\":1593:1610  _requireNotPaused */\n      tag_124\n        /* \"contracts/My World.sol\":1593:1612  _requireNotPaused() */\n      jump\t// in\n    tag_272:\n        /* \"contracts/My World.sol\":2081:2085  true */\n      0x01\n        /* \"contracts/My World.sol\":2071:2078  _paused */\n      0x00\n      0x14\n        /* \"contracts/My World.sol\":2071:2085  _paused = true */\n      0x0100\n      exp\n      dup2\n      sload\n      dup2\n      0xff\n      mul\n      not\n      and\n      swap1\n      dup4\n      iszero\n      iszero\n      mul\n      or\n      swap1\n      sstore\n      pop\n        /* \"contracts/My World.sol\":2108:2120  _msgSender() */\n      tag_274\n        /* \"contracts/My World.sol\":2108:2118  _msgSender */\n      tag_118\n        /* \"contracts/My World.sol\":2108:2120  _msgSender() */\n      jump\t// in\n    tag_274:\n        /* \"contracts/My World.sol\":2101:2121  Paused(_msgSender()) */\n      0xffffffffffffffffffffffffffffffffffffffff\n      and\n      0x62e78cea01bee320cd4e420270b5ea74000d11b0c9f74754ebdbfc544b05a258\n      mload(0x40)\n      mload(0x40)\n      dup1\n      swap2\n      sub\n      swap1\n      log2\n        /* \"contracts/My World.sol\":2019:2129  function _pause() internal whenNotPaused {... */\n      jump\t// out\n        /* \"contracts/My World.sol\":1911:2011  function _requirePaused() internal view {... */\n    tag_250:\n        /* \"contracts/My World.sol\":1970:1978  paused() */\n      tag_276\n        /* \"contracts/My World.sol\":1970:1976  paused */\n      tag_65\n        /* \"contracts/My World.sol\":1970:1978  paused() */\n      jump\t// in\n    tag_276:\n        /* \"contracts/My World.sol\":1962:2003  require(paused(), \"Pausable: not paused\") */\n      tag_277\n      jumpi\n      mload(0x40)\n      0x08c379a000000000000000000000000000000000000000000000000000000000\n      dup2\n      mstore\n      0x04\n      add\n      tag_278\n      swap1\n      tag_279\n      jump\t// in\n    tag_278:\n      mload(0x40)\n      dup1\n      swap2\n      sub\n      swap1\n      revert\n    tag_277:\n        /* \"contracts/My World.sol\":1911:2011  function _requirePaused() internal view {... */\n      jump\t// out\n        /* \"#utility.yul\":7:106   */\n    tag_280:\n        /* \"#utility.yul\":59:65   */\n      0x00\n        /* \"#utility.yul\":93:98   */\n      dup2\n        /* \"#utility.yul\":87:99   */\n      mload\n        /* \"#utility.yul\":77:99   */\n      swap1\n      pop\n        /* \"#utility.yul\":7:106   */\n      swap2\n      swap1\n      pop\n      jump\t// out\n        /* \"#utility.yul\":112:281   */\n    tag_281:\n        /* \"#utility.yul\":196:207   */\n      0x00\n        /* \"#utility.yul\":230:236   */\n      dup3\n        /* \"#utility.yul\":225:228   */\n      dup3\n        /* \"#utility.yul\":218:237   */\n      mstore\n        /* \"#utility.yul\":270:274   */\n      0x20\n        /* \"#utility.yul\":265:268   */\n      dup3\n        /* \"#utility.yul\":261:275   */\n      add\n        /* \"#utility.yul\":246:275   */\n      swap1\n      pop\n        /* \"#utility.yul\":112:281   */\n      swap3\n      swap2\n      pop\n      pop\n      jump\t// out\n        /* \"#utility.yul\":287:533   */\n    tag_282:\n        /* \"#utility.yul\":368:369   */\n      0x00\n        /* \"#utility.yul\":378:491   */\n    tag_341:\n        /* \"#utility.yul\":392:398   */\n      dup4\n        /* \"#utility.yul\":389:390   */\n      dup2\n        /* \"#utility.yul\":386:399   */\n      lt\n        /* \"#utility.yul\":378:491   */\n      iszero\n      tag_343\n      jumpi\n        /* \"#utility.yul\":477:478   */\n      dup1\n        /* \"#utility.yul\":472:475   */\n      dup3\n        /* \"#utility.yul\":468:479   */\n      add\n        /* \"#utility.yul\":462:480   */\n      mload\n        /* \"#utility.yul\":458:459   */\n      dup2\n        /* \"#utility.yul\":453:456   */\n      dup5\n        /* \"#utility.yul\":449:460   */\n      add\n        /* \"#utility.yul\":442:481   */\n      mstore\n        /* \"#utility.yul\":414:416   */\n      0x20\n        /* \"#utility.yul\":411:412   */\n      dup2\n        /* \"#utility.yul\":407:417   */\n      add\n        /* \"#utility.yul\":402:417   */\n      swap1\n      pop\n        /* \"#utility.yul\":378:491   */\n      jump(tag_341)\n    tag_343:\n        /* \"#utility.yul\":525:526   */\n      0x00\n        /* \"#utility.yul\":516:522   */\n      dup5\n        /* \"#utility.yul\":511:514   */\n      dup5\n        /* \"#utility.yul\":507:523   */\n      add\n        /* \"#utility.yul\":500:527   */\n      mstore\n        /* \"#utility.yul\":349:533   */\n      pop\n        /* \"#utility.yul\":287:533   */\n      pop\n      pop\n      pop\n      jump\t// out\n        /* \"#utility.yul\":539:641   */\n    tag_283:\n        /* \"#utility.yul\":580:586   */\n      0x00\n        /* \"#utility.yul\":631:633   */\n      0x1f\n        /* \"#utility.yul\":627:634   */\n      not\n        /* \"#utility.yul\":622:624   */\n      0x1f\n        /* \"#utility.yul\":615:620   */\n      dup4\n        /* \"#utility.yul\":611:625   */\n      add\n        /* \"#utility.yul\":607:635   */\n      and\n        /* \"#utility.yul\":597:635   */\n      swap1\n      pop\n        /* \"#utility.yul\":539:641   */\n      swap2\n      swap1\n      pop\n      jump\t// out\n        /* \"#utility.yul\":647:1024   */\n    tag_284:\n        /* \"#utility.yul\":735:738   */\n      0x00\n        /* \"#utility.yul\":763:802   */\n      tag_346\n        /* \"#utility.yul\":796:801   */\n      dup3\n        /* \"#utility.yul\":763:802   */\n      tag_280\n      jump\t// in\n    tag_346:\n        /* \"#utility.yul\":818:889   */\n      tag_347\n        /* \"#utility.yul\":882:888   */\n      dup2\n        /* \"#utility.yul\":877:880   */\n      dup6\n        /* \"#utility.yul\":818:889   */\n      tag_281\n      jump\t// in\n    tag_347:\n        /* \"#utility.yul\":811:889   */\n      swap4\n      pop\n        /* \"#utility.yul\":898:963   */\n      tag_348\n        /* \"#utility.yul\":956:962   */\n      dup2\n        /* \"#utility.yul\":951:954   */\n      dup6\n        /* \"#utility.yul\":944:948   */\n      0x20\n        /* \"#utility.yul\":937:942   */\n      dup7\n        /* \"#utility.yul\":933:949   */\n      add\n        /* \"#utility.yul\":898:963   */\n      tag_282\n      jump\t// in\n    tag_348:\n        /* \"#utility.yul\":988:1017   */\n      tag_349\n        /* \"#utility.yul\":1010:1016   */\n      dup2\n        /* \"#utility.yul\":988:1017   */\n      tag_283\n      jump\t// in\n    tag_349:\n        /* \"#utility.yul\":983:986   */\n      dup5\n        /* \"#utility.yul\":979:1018   */\n      add\n        /* \"#utility.yul\":972:1018   */\n      swap2\n      pop\n        /* \"#utility.yul\":739:1024   */\n      pop\n        /* \"#utility.yul\":647:1024   */\n      swap3\n      swap2\n      pop\n      pop\n      jump\t// out\n        /* \"#utility.yul\":1030:1343   */\n    tag_31:\n        /* \"#utility.yul\":1143:1147   */\n      0x00\n        /* \"#utility.yul\":1181:1183   */\n      0x20\n        /* \"#utility.yul\":1170:1179   */\n      dup3\n        /* \"#utility.yul\":1166:1184   */\n      add\n        /* \"#utility.yul\":1158:1184   */\n      swap1\n      pop\n        /* \"#utility.yul\":1230:1239   */\n      dup2\n        /* \"#utility.yul\":1224:1228   */\n      dup2\n        /* \"#utility.yul\":1220:1240   */\n      sub\n        /* \"#utility.yul\":1216:1217   */\n      0x00\n        /* \"#utility.yul\":1205:1214   */\n      dup4\n        /* \"#utility.yul\":1201:1218   */\n      add\n        /* \"#utility.yul\":1194:1241   */\n      mstore\n        /* \"#utility.yul\":1258:1336   */\n      tag_351\n        /* \"#utility.yul\":1331:1335   */\n      dup2\n        /* \"#utility.yul\":1322:1328   */\n      dup5\n        /* \"#utility.yul\":1258:1336   */\n      tag_284\n      jump\t// in\n    tag_351:\n        /* \"#utility.yul\":1250:1336   */\n      swap1\n      pop\n        /* \"#utility.yul\":1030:1343   */\n      swap3\n      swap2\n      pop\n      pop\n      jump\t// out\n        /* \"#utility.yul\":1430:1547   */\n    tag_286:\n        /* \"#utility.yul\":1539:1540   */\n      0x00\n        /* \"#utility.yul\":1536:1537   */\n      dup1\n        /* \"#utility.yul\":1529:1541   */\n      revert\n        /* \"#utility.yul\":1676:1802   */\n    tag_288:\n        /* \"#utility.yul\":1713:1720   */\n      0x00\n        /* \"#utility.yul\":1753:1795   */\n      0xffffffffffffffffffffffffffffffffffffffff\n        /* \"#utility.yul\":1746:1751   */\n      dup3\n        /* \"#utility.yul\":1742:1796   */\n      and\n        /* \"#utility.yul\":1731:1796   */\n      swap1\n      pop\n        /* \"#utility.yul\":1676:1802   */\n      swap2\n      swap1\n      pop\n      jump\t// out\n        /* \"#utility.yul\":1808:1904   */\n    tag_289:\n        /* \"#utility.yul\":1845:1852   */\n      0x00\n        /* \"#utility.yul\":1874:1898   */\n      tag_357\n        /* \"#utility.yul\":1892:1897   */\n      dup3\n        /* \"#utility.yul\":1874:1898   */\n      tag_288\n      jump\t// in\n    tag_357:\n        /* \"#utility.yul\":1863:1898   */\n      swap1\n      pop\n        /* \"#utility.yul\":1808:1904   */\n      swap2\n      swap1\n      pop\n      jump\t// out\n        /* \"#utility.yul\":1910:2032   */\n    tag_290:\n        /* \"#utility.yul\":1983:2007   */\n      tag_359\n        /* \"#utility.yul\":2001:2006   */\n      dup2\n        /* \"#utility.yul\":1983:2007   */\n      tag_289\n      jump\t// in\n    tag_359:\n        /* \"#utility.yul\":1976:1981   */\n      dup2\n        /* \"#utility.yul\":1973:2008   */\n      eq\n        /* \"#utility.yul\":1963:2026   */\n      tag_360\n      jumpi\n        /* \"#utility.yul\":2022:2023   */\n      0x00\n        /* \"#utility.yul\":2019:2020   */\n      dup1\n        /* \"#utility.yul\":2012:2024   */\n      revert\n        /* \"#utility.yul\":1963:2026   */\n    tag_360:\n        /* \"#utility.yul\":1910:2032   */\n      pop\n      jump\t// out\n        /* \"#utility.yul\":2038:2177   */\n    tag_291:\n        /* \"#utility.yul\":2084:2089   */\n      0x00\n        /* \"#utility.yul\":2122:2128   */\n      dup2\n        /* \"#utility.yul\":2109:2129   */\n      calldataload\n        /* \"#utility.yul\":2100:2129   */\n      swap1\n      pop\n        /* \"#utility.yul\":2138:2171   */\n      tag_362\n        /* \"#utility.yul\":2165:2170   */\n      dup2\n        /* \"#utility.yul\":2138:2171   */\n      tag_290\n      jump\t// in\n    tag_362:\n        /* \"#utility.yul\":2038:2177   */\n      swap3\n      swap2\n      pop\n      pop\n      jump\t// out\n        /* \"#utility.yul\":2183:2260   */\n    tag_292:\n        /* \"#utility.yul\":2220:2227   */\n      0x00\n        /* \"#utility.yul\":2249:2254   */\n      dup2\n        /* \"#utility.yul\":2238:2254   */\n      swap1\n      pop\n        /* \"#utility.yul\":2183:2260   */\n      swap2\n      swap1\n      pop\n      jump\t// out\n        /* \"#utility.yul\":2266:2388   */\n    tag_293:\n        /* \"#utility.yul\":2339:2363   */\n      tag_365\n        /* \"#utility.yul\":2357:2362   */\n      dup2\n        /* \"#utility.yul\":2339:2363   */\n      tag_292\n      jump\t// in\n    tag_365:\n        /* \"#utility.yul\":2332:2337   */\n      dup2\n        /* \"#utility.yul\":2329:2364   */\n      eq\n        /* \"#utility.yul\":2319:2382   */\n      tag_366\n      jumpi\n        /* \"#utility.yul\":2378:2379   */\n      0x00\n        /* \"#utility.yul\":2375:2376   */\n      dup1\n        /* \"#utility.yul\":2368:2380   */\n      revert\n        /* \"#utility.yul\":2319:2382   */\n    tag_366:\n        /* \"#utility.yul\":2266:2388   */\n      pop\n      jump\t// out\n        /* \"#utility.yul\":2394:2533   */\n    tag_294:\n        /* \"#utility.yul\":2440:2445   */\n      0x00\n        /* \"#utility.yul\":2478:2484   */\n      dup2\n        /* \"#utility.yul\":2465:2485   */\n      calldataload\n        /* \"#utility.yul\":2456:2485   */\n      swap1\n      pop\n        /* \"#utility.yul\":2494:2527   */\n      tag_368\n        /* \"#utility.yul\":2521:2526   */\n      dup2\n        /* \"#utility.yul\":2494:2527   */\n      tag_293\n      jump\t// in\n    tag_368:\n        /* \"#utility.yul\":2394:2533   */\n      swap3\n      swap2\n      pop\n      pop\n      jump\t// out\n        /* \"#utility.yul\":2539:3013   */\n    tag_34:\n        /* \"#utility.yul\":2607:2613   */\n      0x00\n        /* \"#utility.yul\":2615:2621   */\n      dup1\n        /* \"#utility.yul\":2664:2666   */\n      0x40\n        /* \"#utility.yul\":2652:2661   */\n      dup4\n        /* \"#utility.yul\":2643:2650   */\n      dup6\n        /* \"#utility.yul\":2639:2662   */\n      sub\n        /* \"#utility.yul\":2635:2667   */\n      slt\n        /* \"#utility.yul\":2632:2751   */\n      iszero\n      tag_370\n      jumpi\n        /* \"#utility.yul\":2670:2749   */\n      tag_371\n      tag_286\n      jump\t// in\n    tag_371:\n        /* \"#utility.yul\":2632:2751   */\n    tag_370:\n        /* \"#utility.yul\":2790:2791   */\n      0x00\n        /* \"#utility.yul\":2815:2868   */\n      tag_372\n        /* \"#utility.yul\":2860:2867   */\n      dup6\n        /* \"#utility.yul\":2851:2857   */\n      dup3\n        /* \"#utility.yul\":2840:2849   */\n      dup7\n        /* \"#utility.yul\":2836:2858   */\n      add\n        /* \"#utility.yul\":2815:2868   */\n      tag_291\n      jump\t// in\n    tag_372:\n        /* \"#utility.yul\":2805:2868   */\n      swap3\n      pop\n        /* \"#utility.yul\":2761:2878   */\n      pop\n        /* \"#utility.yul\":2917:2919   */\n      0x20\n        /* \"#utility.yul\":2943:2996   */\n      tag_373\n        /* \"#utility.yul\":2988:2995   */\n      dup6\n        /* \"#utility.yul\":2979:2985   */\n      dup3\n        /* \"#utility.yul\":2968:2977   */\n      dup7\n        /* \"#utility.yul\":2964:2986   */\n      add\n        /* \"#utility.yul\":2943:2996   */\n      tag_294\n      jump\t// in\n    tag_373:\n        /* \"#utility.yul\":2933:2996   */\n      swap2\n      pop\n        /* \"#utility.yul\":2888:3006   */\n      pop\n        /* \"#utility.yul\":2539:3013   */\n      swap3\n      pop\n      swap3\n      swap1\n      pop\n      jump\t// out\n        /* \"#utility.yul\":3019:3109   */\n    tag_295:\n        /* \"#utility.yul\":3053:3060   */\n      0x00\n        /* \"#utility.yul\":3096:3101   */\n      dup2\n        /* \"#utility.yul\":3089:3102   */\n      iszero\n        /* \"#utility.yul\":3082:3103   */\n      iszero\n        /* \"#utility.yul\":3071:3103   */\n      swap1\n      pop\n        /* \"#utility.yul\":3019:3109   */\n      swap2\n      swap1\n      pop\n      jump\t// out\n        /* \"#utility.yul\":3115:3224   */\n    tag_296:\n        /* \"#utility.yul\":3196:3217   */\n      tag_376\n        /* \"#utility.yul\":3211:3216   */\n      dup2\n        /* \"#utility.yul\":3196:3217   */\n      tag_295\n      jump\t// in\n    tag_376:\n        /* \"#utility.yul\":3191:3194   */\n      dup3\n        /* \"#utility.yul\":3184:3218   */\n      mstore\n        /* \"#utility.yul\":3115:3224   */\n      pop\n      pop\n      jump\t// out\n        /* \"#utility.yul\":3230:3440   */\n    tag_37:\n        /* \"#utility.yul\":3317:3321   */\n      0x00\n        /* \"#utility.yul\":3355:3357   */\n      0x20\n        /* \"#utility.yul\":3344:3353   */\n      dup3\n        /* \"#utility.yul\":3340:3358   */\n      add\n        /* \"#utility.yul\":3332:3358   */\n      swap1\n      pop\n        /* \"#utility.yul\":3368:3433   */\n      tag_378\n        /* \"#utility.yul\":3430:3431   */\n      0x00\n        /* \"#utility.yul\":3419:3428   */\n      dup4\n        /* \"#utility.yul\":3415:3432   */\n      add\n        /* \"#utility.yul\":3406:3412   */\n      dup5\n        /* \"#utility.yul\":3368:3433   */\n      tag_296\n      jump\t// in\n    tag_378:\n        /* \"#utility.yul\":3230:3440   */\n      swap3\n      swap2\n      pop\n      pop\n      jump\t// out\n        /* \"#utility.yul\":3446:3564   */\n    tag_297:\n        /* \"#utility.yul\":3533:3557   */\n      tag_380\n        /* \"#utility.yul\":3551:3556   */\n      dup2\n        /* \"#utility.yul\":3533:3557   */\n      tag_292\n      jump\t// in\n    tag_380:\n        /* \"#utility.yul\":3528:3531   */\n      dup3\n        /* \"#utility.yul\":3521:3558   */\n      mstore\n        /* \"#utility.yul\":3446:3564   */\n      pop\n      pop\n      jump\t// out\n        /* \"#utility.yul\":3570:3792   */\n    tag_41:\n        /* \"#utility.yul\":3663:3667   */\n      0x00\n        /* \"#utility.yul\":3701:3703   */\n      0x20\n        /* \"#utility.yul\":3690:3699   */\n      dup3\n        /* \"#utility.yul\":3686:3704   */\n      add\n        /* \"#utility.yul\":3678:3704   */\n      swap1\n      pop\n        /* \"#utility.yul\":3714:3785   */\n      tag_382\n        /* \"#utility.yul\":3782:3783   */\n      0x00\n        /* \"#utility.yul\":3771:3780   */\n      dup4\n        /* \"#utility.yul\":3767:3784   */\n      add\n        /* \"#utility.yul\":3758:3764   */\n      dup5\n        /* \"#utility.yul\":3714:3785   */\n      tag_297\n      jump\t// in\n    tag_382:\n        /* \"#utility.yul\":3570:3792   */\n      swap3\n      swap2\n      pop\n      pop\n      jump\t// out\n        /* \"#utility.yul\":3798:4417   */\n    tag_44:\n        /* \"#utility.yul\":3875:3881   */\n      0x00\n        /* \"#utility.yul\":3883:3889   */\n      dup1\n        /* \"#utility.yul\":3891:3897   */\n      0x00\n        /* \"#utility.yul\":3940:3942   */\n      0x60\n        /* \"#utility.yul\":3928:3937   */\n      dup5\n        /* \"#utility.yul\":3919:3926   */\n      dup7\n        /* \"#utility.yul\":3915:3938   */\n      sub\n        /* \"#utility.yul\":3911:3943   */\n      slt\n        /* \"#utility.yul\":3908:4027   */\n      iszero\n      tag_384\n      jumpi\n        /* \"#utility.yul\":3946:4025   */\n      tag_385\n      tag_286\n      jump\t// in\n    tag_385:\n        /* \"#utility.yul\":3908:4027   */\n    tag_384:\n        /* \"#utility.yul\":4066:4067   */\n      0x00\n        /* \"#utility.yul\":4091:4144   */\n      tag_386\n        /* \"#utility.yul\":4136:4143   */\n      dup7\n        /* \"#utility.yul\":4127:4133   */\n      dup3\n        /* \"#utility.yul\":4116:4125   */\n      dup8\n        /* \"#utility.yul\":4112:4134   */\n      add\n        /* \"#utility.yul\":4091:4144   */\n      tag_291\n      jump\t// in\n    tag_386:\n        /* \"#utility.yul\":4081:4144   */\n      swap4\n      pop\n        /* \"#utility.yul\":4037:4154   */\n      pop\n        /* \"#utility.yul\":4193:4195   */\n      0x20\n        /* \"#utility.yul\":4219:4272   */\n      tag_387\n        /* \"#utility.yul\":4264:4271   */\n      dup7\n        /* \"#utility.yul\":4255:4261   */\n      dup3\n        /* \"#utility.yul\":4244:4253   */\n      dup8\n        /* \"#utility.yul\":4240:4262   */\n      add\n        /* \"#utility.yul\":4219:4272   */\n      tag_291\n      jump\t// in\n    tag_387:\n        /* \"#utility.yul\":4209:4272   */\n      swap3\n      pop\n        /* \"#utility.yul\":4164:4282   */\n      pop\n        /* \"#utility.yul\":4321:4323   */\n      0x40\n        /* \"#utility.yul\":4347:4400   */\n      tag_388\n        /* \"#utility.yul\":4392:4399   */\n      dup7\n        /* \"#utility.yul\":4383:4389   */\n      dup3\n        /* \"#utility.yul\":4372:4381   */\n      dup8\n        /* \"#utility.yul\":4368:4390   */\n      add\n        /* \"#utility.yul\":4347:4400   */\n      tag_294\n      jump\t// in\n    tag_388:\n        /* \"#utility.yul\":4337:4400   */\n      swap2\n      pop\n        /* \"#utility.yul\":4292:4410   */\n      pop\n        /* \"#utility.yul\":3798:4417   */\n      swap3\n      pop\n      swap3\n      pop\n      swap3\n      jump\t// out\n        /* \"#utility.yul\":4423:4509   */\n    tag_298:\n        /* \"#utility.yul\":4458:4465   */\n      0x00\n        /* \"#utility.yul\":4498:4502   */\n      0xff\n        /* \"#utility.yul\":4491:4496   */\n      dup3\n        /* \"#utility.yul\":4487:4503   */\n      and\n        /* \"#utility.yul\":4476:4503   */\n      swap1\n      pop\n        /* \"#utility.yul\":4423:4509   */\n      swap2\n      swap1\n      pop\n      jump\t// out\n        /* \"#utility.yul\":4515:4627   */\n    tag_299:\n        /* \"#utility.yul\":4598:4620   */\n      tag_391\n        /* \"#utility.yul\":4614:4619   */\n      dup2\n        /* \"#utility.yul\":4598:4620   */\n      tag_298\n      jump\t// in\n    tag_391:\n        /* \"#utility.yul\":4593:4596   */\n      dup3\n        /* \"#utility.yul\":4586:4621   */\n      mstore\n        /* \"#utility.yul\":4515:4627   */\n      pop\n      pop\n      jump\t// out\n        /* \"#utility.yul\":4633:4847   */\n    tag_50:\n        /* \"#utility.yul\":4722:4726   */\n      0x00\n        /* \"#utility.yul\":4760:4762   */\n      0x20\n        /* \"#utility.yul\":4749:4758   */\n      dup3\n        /* \"#utility.yul\":4745:4763   */\n      add\n        /* \"#utility.yul\":4737:4763   */\n      swap1\n      pop\n        /* \"#utility.yul\":4773:4840   */\n      tag_393\n        /* \"#utility.yul\":4837:4838   */\n      0x00\n        /* \"#utility.yul\":4826:4835   */\n      dup4\n        /* \"#utility.yul\":4822:4839   */\n      add\n        /* \"#utility.yul\":4813:4819   */\n      dup5\n        /* \"#utility.yul\":4773:4840   */\n      tag_299\n      jump\t// in\n    tag_393:\n        /* \"#utility.yul\":4633:4847   */\n      swap3\n      swap2\n      pop\n      pop\n      jump\t// out\n        /* \"#utility.yul\":4853:5182   */\n    tag_62:\n        /* \"#utility.yul\":4912:4918   */\n      0x00\n        /* \"#utility.yul\":4961:4963   */\n      0x20\n        /* \"#utility.yul\":4949:4958   */\n      dup3\n        /* \"#utility.yul\":4940:4947   */\n      dup5\n        /* \"#utility.yul\":4936:4959   */\n      sub\n        /* \"#utility.yul\":4932:4964   */\n      slt\n        /* \"#utility.yul\":4929:5048   */\n      iszero\n      tag_395\n      jumpi\n        /* \"#utility.yul\":4967:5046   */\n      tag_396\n      tag_286\n      jump\t// in\n    tag_396:\n        /* \"#utility.yul\":4929:5048   */\n    tag_395:\n        /* \"#utility.yul\":5087:5088   */\n      0x00\n        /* \"#utility.yul\":5112:5165   */\n      tag_397\n        /* \"#utility.yul\":5157:5164   */\n      dup5\n        /* \"#utility.yul\":5148:5154   */\n      dup3\n        /* \"#utility.yul\":5137:5146   */\n      dup6\n        /* \"#utility.yul\":5133:5155   */\n      add\n        /* \"#utility.yul\":5112:5165   */\n      tag_294\n      jump\t// in\n    tag_397:\n        /* \"#utility.yul\":5102:5165   */\n      swap2\n      pop\n        /* \"#utility.yul\":5058:5175   */\n      pop\n        /* \"#utility.yul\":4853:5182   */\n      swap3\n      swap2\n      pop\n      pop\n      jump\t// out\n        /* \"#utility.yul\":5188:5517   */\n    tag_69:\n        /* \"#utility.yul\":5247:5253   */\n      0x00\n        /* \"#utility.yul\":5296:5298   */\n      0x20\n        /* \"#utility.yul\":5284:5293   */\n      dup3\n        /* \"#utility.yul\":5275:5282   */\n      dup5\n        /* \"#utility.yul\":5271:5294   */\n      sub\n        /* \"#utility.yul\":5267:5299   */\n      slt\n        /* \"#utility.yul\":5264:5383   */\n      iszero\n      tag_399\n      jumpi\n        /* \"#utility.yul\":5302:5381   */\n      tag_400\n      tag_286\n      jump\t// in\n    tag_400:\n        /* \"#utility.yul\":5264:5383   */\n    tag_399:\n        /* \"#utility.yul\":5422:5423   */\n      0x00\n        /* \"#utility.yul\":5447:5500   */\n      tag_401\n        /* \"#utility.yul\":5492:5499   */\n      dup5\n        /* \"#utility.yul\":5483:5489   */\n      dup3\n        /* \"#utility.yul\":5472:5481   */\n      dup6\n        /* \"#utility.yul\":5468:5490   */\n      add\n        /* \"#utility.yul\":5447:5500   */\n      tag_291\n      jump\t// in\n    tag_401:\n        /* \"#utility.yul\":5437:5500   */\n      swap2\n      pop\n        /* \"#utility.yul\":5393:5510   */\n      pop\n        /* \"#utility.yul\":5188:5517   */\n      swap3\n      swap2\n      pop\n      pop\n      jump\t// out\n        /* \"#utility.yul\":5523:5641   */\n    tag_300:\n        /* \"#utility.yul\":5610:5634   */\n      tag_403\n        /* \"#utility.yul\":5628:5633   */\n      dup2\n        /* \"#utility.yul\":5610:5634   */\n      tag_289\n      jump\t// in\n    tag_403:\n        /* \"#utility.yul\":5605:5608   */\n      dup3\n        /* \"#utility.yul\":5598:5635   */\n      mstore\n        /* \"#utility.yul\":5523:5641   */\n      pop\n      pop\n      jump\t// out\n        /* \"#utility.yul\":5647:5869   */\n    tag_82:\n        /* \"#utility.yul\":5740:5744   */\n      0x00\n        /* \"#utility.yul\":5778:5780   */\n      0x20\n        /* \"#utility.yul\":5767:5776   */\n      dup3\n        /* \"#utility.yul\":5763:5781   */\n      add\n        /* \"#utility.yul\":5755:5781   */\n      swap1\n      pop\n        /* \"#utility.yul\":5791:5862   */\n      tag_405\n        /* \"#utility.yul\":5859:5860   */\n      0x00\n        /* \"#utility.yul\":5848:5857   */\n      dup4\n        /* \"#utility.yul\":5844:5861   */\n      add\n        /* \"#utility.yul\":5835:5841   */\n      dup5\n        /* \"#utility.yul\":5791:5862   */\n      tag_300\n      jump\t// in\n    tag_405:\n        /* \"#utility.yul\":5647:5869   */\n      swap3\n      swap2\n      pop\n      pop\n      jump\t// out\n        /* \"#utility.yul\":5875:6349   */\n    tag_99:\n        /* \"#utility.yul\":5943:5949   */\n      0x00\n        /* \"#utility.yul\":5951:5957   */\n      dup1\n        /* \"#utility.yul\":6000:6002   */\n      0x40\n        /* \"#utility.yul\":5988:5997   */\n      dup4\n        /* \"#utility.yul\":5979:5986   */\n      dup6\n        /* \"#utility.yul\":5975:5998   */\n      sub\n        /* \"#utility.yul\":5971:6003   */\n      slt\n        /* \"#utility.yul\":5968:6087   */\n      iszero\n      tag_407\n      jumpi\n        /* \"#utility.yul\":6006:6085   */\n      tag_408\n      tag_286\n      jump\t// in\n    tag_408:\n        /* \"#utility.yul\":5968:6087   */\n    tag_407:\n        /* \"#utility.yul\":6126:6127   */\n      0x00\n        /* \"#utility.yul\":6151:6204   */\n      tag_409\n        /* \"#utility.yul\":6196:6203   */\n      dup6\n        /* \"#utility.yul\":6187:6193   */\n      dup3\n        /* \"#utility.yul\":6176:6185   */\n      dup7\n        /* \"#utility.yul\":6172:6194   */\n      add\n        /* \"#utility.yul\":6151:6204   */\n      tag_291\n      jump\t// in\n    tag_409:\n        /* \"#utility.yul\":6141:6204   */\n      swap3\n      pop\n        /* \"#utility.yul\":6097:6214   */\n      pop\n        /* \"#utility.yul\":6253:6255   */\n      0x20\n        /* \"#utility.yul\":6279:6332   */\n      tag_410\n        /* \"#utility.yul\":6324:6331   */\n      dup6\n        /* \"#utility.yul\":6315:6321   */\n      dup3\n        /* \"#utility.yul\":6304:6313   */\n      dup7\n        /* \"#utility.yul\":6300:6322   */\n      add\n        /* \"#utility.yul\":6279:6332   */\n      tag_291\n      jump\t// in\n    tag_410:\n        /* \"#utility.yul\":6269:6332   */\n      swap2\n      pop\n        /* \"#utility.yul\":6224:6342   */\n      pop\n        /* \"#utility.yul\":5875:6349   */\n      swap3\n      pop\n      swap3\n      swap1\n      pop\n      jump\t// out\n        /* \"#utility.yul\":6355:6535   */\n    tag_301:\n        /* \"#utility.yul\":6403:6480   */\n      0x4e487b7100000000000000000000000000000000000000000000000000000000\n        /* \"#utility.yul\":6400:6401   */\n      0x00\n        /* \"#utility.yul\":6393:6481   */\n      mstore\n        /* \"#utility.yul\":6500:6504   */\n      0x22\n        /* \"#utility.yul\":6497:6498   */\n      0x04\n        /* \"#utility.yul\":6490:6505   */\n      mstore\n        /* \"#utility.yul\":6524:6528   */\n      0x24\n        /* \"#utility.yul\":6521:6522   */\n      0x00\n        /* \"#utility.yul\":6514:6529   */\n      revert\n        /* \"#utility.yul\":6541:6861   */\n    tag_111:\n        /* \"#utility.yul\":6585:6591   */\n      0x00\n        /* \"#utility.yul\":6622:6623   */\n      0x02\n        /* \"#utility.yul\":6616:6620   */\n      dup3\n        /* \"#utility.yul\":6612:6624   */\n      div\n        /* \"#utility.yul\":6602:6624   */\n      swap1\n      pop\n        /* \"#utility.yul\":6669:6670   */\n      0x01\n        /* \"#utility.yul\":6663:6667   */\n      dup3\n        /* \"#utility.yul\":6659:6671   */\n      and\n        /* \"#utility.yul\":6690:6708   */\n      dup1\n        /* \"#utility.yul\":6680:6761   */\n      tag_413\n      jumpi\n        /* \"#utility.yul\":6746:6750   */\n      0x7f\n        /* \"#utility.yul\":6738:6744   */\n      dup3\n        /* \"#utility.yul\":6734:6751   */\n      and\n        /* \"#utility.yul\":6724:6751   */\n      swap2\n      pop\n        /* \"#utility.yul\":6680:6761   */\n    tag_413:\n        /* \"#utility.yul\":6808:6810   */\n      0x20\n        /* \"#utility.yul\":6800:6806   */\n      dup3\n        /* \"#utility.yul\":6797:6811   */\n      lt\n        /* \"#utility.yul\":6777:6795   */\n      dup2\n        /* \"#utility.yul\":6774:6812   */\n      sub\n        /* \"#utility.yul\":6771:6855   */\n      tag_414\n      jumpi\n        /* \"#utility.yul\":6827:6845   */\n      tag_415\n      tag_301\n      jump\t// in\n    tag_415:\n        /* \"#utility.yul\":6771:6855   */\n    tag_414:\n        /* \"#utility.yul\":6592:6861   */\n      pop\n        /* \"#utility.yul\":6541:6861   */\n      swap2\n      swap1\n      pop\n      jump\t// out\n        /* \"#utility.yul\":6867:7047   */\n    tag_302:\n        /* \"#utility.yul\":6915:6992   */\n      0x4e487b7100000000000000000000000000000000000000000000000000000000\n        /* \"#utility.yul\":6912:6913   */\n      0x00\n        /* \"#utility.yul\":6905:6993   */\n      mstore\n        /* \"#utility.yul\":7012:7016   */\n      0x11\n        /* \"#utility.yul\":7009:7010   */\n      0x04\n        /* \"#utility.yul\":7002:7017   */\n      mstore\n        /* \"#utility.yul\":7036:7040   */\n      0x24\n        /* \"#utility.yul\":7033:7034   */\n      0x00\n        /* \"#utility.yul\":7026:7041   */\n      revert\n        /* \"#utility.yul\":7053:7244   */\n    tag_137:\n        /* \"#utility.yul\":7093:7096   */\n      0x00\n        /* \"#utility.yul\":7112:7132   */\n      tag_418\n        /* \"#utility.yul\":7130:7131   */\n      dup3\n        /* \"#utility.yul\":7112:7132   */\n      tag_292\n      jump\t// in\n    tag_418:\n        /* \"#utility.yul\":7107:7132   */\n      swap2\n      pop\n        /* \"#utility.yul\":7146:7166   */\n      tag_419\n        /* \"#utility.yul\":7164:7165   */\n      dup4\n        /* \"#utility.yul\":7146:7166   */\n      tag_292\n      jump\t// in\n    tag_419:\n        /* \"#utility.yul\":7141:7166   */\n      swap3\n      pop\n        /* \"#utility.yul\":7189:7190   */\n      dup3\n        /* \"#utility.yul\":7186:7187   */\n      dup3\n        /* \"#utility.yul\":7182:7191   */\n      add\n        /* \"#utility.yul\":7175:7191   */\n      swap1\n      pop\n        /* \"#utility.yul\":7210:7213   */\n      dup1\n        /* \"#utility.yul\":7207:7208   */\n      dup3\n        /* \"#utility.yul\":7204:7214   */\n      gt\n        /* \"#utility.yul\":7201:7237   */\n      iszero\n      tag_420\n      jumpi\n        /* \"#utility.yul\":7217:7235   */\n      tag_421\n      tag_302\n      jump\t// in\n    tag_421:\n        /* \"#utility.yul\":7201:7237   */\n    tag_420:\n        /* \"#utility.yul\":7053:7244   */\n      swap3\n      swap2\n      pop\n      pop\n      jump\t// out\n        /* \"#utility.yul\":7250:7480   */\n    tag_303:\n        /* \"#utility.yul\":7390:7424   */\n      0x746f74616c537570706c792073686f756c64206265206c657373657220746861\n        /* \"#utility.yul\":7386:7387   */\n      0x00\n        /* \"#utility.yul\":7378:7384   */\n      dup3\n        /* \"#utility.yul\":7374:7388   */\n      add\n        /* \"#utility.yul\":7367:7425   */\n      mstore\n        /* \"#utility.yul\":7459:7472   */\n      0x6e206d6178537570706c79000000000000000000000000000000000000000000\n        /* \"#utility.yul\":7454:7456   */\n      0x20\n        /* \"#utility.yul\":7446:7452   */\n      dup3\n        /* \"#utility.yul\":7442:7457   */\n      add\n        /* \"#utility.yul\":7435:7473   */\n      mstore\n        /* \"#utility.yul\":7250:7480   */\n      pop\n      jump\t// out\n        /* \"#utility.yul\":7486:7852   */\n    tag_304:\n        /* \"#utility.yul\":7628:7631   */\n      0x00\n        /* \"#utility.yul\":7649:7716   */\n      tag_424\n        /* \"#utility.yul\":7713:7715   */\n      0x2b\n        /* \"#utility.yul\":7708:7711   */\n      dup4\n        /* \"#utility.yul\":7649:7716   */\n      tag_281\n      jump\t// in\n    tag_424:\n        /* \"#utility.yul\":7642:7716   */\n      swap2\n      pop\n        /* \"#utility.yul\":7725:7818   */\n      tag_425\n        /* \"#utility.yul\":7814:7817   */\n      dup3\n        /* \"#utility.yul\":7725:7818   */\n      tag_303\n      jump\t// in\n    tag_425:\n        /* \"#utility.yul\":7843:7845   */\n      0x40\n        /* \"#utility.yul\":7838:7841   */\n      dup3\n        /* \"#utility.yul\":7834:7846   */\n      add\n        /* \"#utility.yul\":7827:7846   */\n      swap1\n      pop\n        /* \"#utility.yul\":7486:7852   */\n      swap2\n      swap1\n      pop\n      jump\t// out\n        /* \"#utility.yul\":7858:8277   */\n    tag_151:\n        /* \"#utility.yul\":8024:8028   */\n      0x00\n        /* \"#utility.yul\":8062:8064   */\n      0x20\n        /* \"#utility.yul\":8051:8060   */\n      dup3\n        /* \"#utility.yul\":8047:8065   */\n      add\n        /* \"#utility.yul\":8039:8065   */\n      swap1\n      pop\n        /* \"#utility.yul\":8111:8120   */\n      dup2\n        /* \"#utility.yul\":8105:8109   */\n      dup2\n        /* \"#utility.yul\":8101:8121   */\n      sub\n        /* \"#utility.yul\":8097:8098   */\n      0x00\n        /* \"#utility.yul\":8086:8095   */\n      dup4\n        /* \"#utility.yul\":8082:8099   */\n      add\n        /* \"#utility.yul\":8075:8122   */\n      mstore\n        /* \"#utility.yul\":8139:8270   */\n      tag_427\n        /* \"#utility.yul\":8265:8269   */\n      dup2\n        /* \"#utility.yul\":8139:8270   */\n      tag_304\n      jump\t// in\n    tag_427:\n        /* \"#utility.yul\":8131:8270   */\n      swap1\n      pop\n        /* \"#utility.yul\":7858:8277   */\n      swap2\n      swap1\n      pop\n      jump\t// out\n        /* \"#utility.yul\":8283:8507   */\n    tag_305:\n        /* \"#utility.yul\":8423:8457   */\n      0x45524332303a2064656372656173656420616c6c6f77616e63652062656c6f77\n        /* \"#utility.yul\":8419:8420   */\n      0x00\n        /* \"#utility.yul\":8411:8417   */\n      dup3\n        /* \"#utility.yul\":8407:8421   */\n      add\n        /* \"#utility.yul\":8400:8458   */\n      mstore\n        /* \"#utility.yul\":8492:8499   */\n      0x207a65726f000000000000000000000000000000000000000000000000000000\n        /* \"#utility.yul\":8487:8489   */\n      0x20\n        /* \"#utility.yul\":8479:8485   */\n      dup3\n        /* \"#utility.yul\":8475:8490   */\n      add\n        /* \"#utility.yul\":8468:8500   */\n      mstore\n        /* \"#utility.yul\":8283:8507   */\n      pop\n      jump\t// out\n        /* \"#utility.yul\":8513:8879   */\n    tag_306:\n        /* \"#utility.yul\":8655:8658   */\n      0x00\n        /* \"#utility.yul\":8676:8743   */\n      tag_430\n        /* \"#utility.yul\":8740:8742   */\n      0x25\n        /* \"#utility.yul\":8735:8738   */\n      dup4\n        /* \"#utility.yul\":8676:8743   */\n      tag_281\n      jump\t// in\n    tag_430:\n        /* \"#utility.yul\":8669:8743   */\n      swap2\n      pop\n        /* \"#utility.yul\":8752:8845   */\n      tag_431\n        /* \"#utility.yul\":8841:8844   */\n      dup3\n        /* \"#utility.yul\":8752:8845   */\n      tag_305\n      jump\t// in\n    tag_431:\n        /* \"#utility.yul\":8870:8872   */\n      0x40\n        /* \"#utility.yul\":8865:8868   */\n      dup3\n        /* \"#utility.yul\":8861:8873   */\n      add\n        /* \"#utility.yul\":8854:8873   */\n      swap1\n      pop\n        /* \"#utility.yul\":8513:8879   */\n      swap2\n      swap1\n      pop\n      jump\t// out\n        /* \"#utility.yul\":8885:9304   */\n    tag_184:\n        /* \"#utility.yul\":9051:9055   */\n      0x00\n        /* \"#utility.yul\":9089:9091   */\n      0x20\n        /* \"#utility.yul\":9078:9087   */\n      dup3\n        /* \"#utility.yul\":9074:9092   */\n      add\n        /* \"#utility.yul\":9066:9092   */\n      swap1\n      pop\n        /* \"#utility.yul\":9138:9147   */\n      dup2\n        /* \"#utility.yul\":9132:9136   */\n      dup2\n        /* \"#utility.yul\":9128:9148   */\n      sub\n        /* \"#utility.yul\":9124:9125   */\n      0x00\n        /* \"#utility.yul\":9113:9122   */\n      dup4\n        /* \"#utility.yul\":9109:9126   */\n      add\n        /* \"#utility.yul\":9102:9149   */\n      mstore\n        /* \"#utility.yul\":9166:9297   */\n      tag_433\n        /* \"#utility.yul\":9292:9296   */\n      dup2\n        /* \"#utility.yul\":9166:9297   */\n      tag_306\n      jump\t// in\n    tag_433:\n        /* \"#utility.yul\":9158:9297   */\n      swap1\n      pop\n        /* \"#utility.yul\":8885:9304   */\n      swap2\n      swap1\n      pop\n      jump\t// out\n        /* \"#utility.yul\":9310:9474   */\n    tag_307:\n        /* \"#utility.yul\":9450:9466   */\n      0x496e76616c696420537570706c79000000000000000000000000000000000000\n        /* \"#utility.yul\":9446:9447   */\n      0x00\n        /* \"#utility.yul\":9438:9444   */\n      dup3\n        /* \"#utility.yul\":9434:9448   */\n      add\n        /* \"#utility.yul\":9427:9467   */\n      mstore\n        /* \"#utility.yul\":9310:9474   */\n      pop\n      jump\t// out\n        /* \"#utility.yul\":9480:9846   */\n    tag_308:\n        /* \"#utility.yul\":9622:9625   */\n      0x00\n        /* \"#utility.yul\":9643:9710   */\n      tag_436\n        /* \"#utility.yul\":9707:9709   */\n      0x0e\n        /* \"#utility.yul\":9702:9705   */\n      dup4\n        /* \"#utility.yul\":9643:9710   */\n      tag_281\n      jump\t// in\n    tag_436:\n        /* \"#utility.yul\":9636:9710   */\n      swap2\n      pop\n        /* \"#utility.yul\":9719:9812   */\n      tag_437\n        /* \"#utility.yul\":9808:9811   */\n      dup3\n        /* \"#utility.yul\":9719:9812   */\n      tag_307\n      jump\t// in\n    tag_437:\n        /* \"#utility.yul\":9837:9839   */\n      0x20\n        /* \"#utility.yul\":9832:9835   */\n      dup3\n        /* \"#utility.yul\":9828:9840   */\n      add\n        /* \"#utility.yul\":9821:9840   */\n      swap1\n      pop\n        /* \"#utility.yul\":9480:9846   */\n      swap2\n      swap1\n      pop\n      jump\t// out\n        /* \"#utility.yul\":9852:10271   */\n    tag_198:\n        /* \"#utility.yul\":10018:10022   */\n      0x00\n        /* \"#utility.yul\":10056:10058   */\n      0x20\n        /* \"#utility.yul\":10045:10054   */\n      dup3\n        /* \"#utility.yul\":10041:10059   */\n      add\n        /* \"#utility.yul\":10033:10059   */\n      swap1\n      pop\n        /* \"#utility.yul\":10105:10114   */\n      dup2\n        /* \"#utility.yul\":10099:10103   */\n      dup2\n        /* \"#utility.yul\":10095:10115   */\n      sub\n        /* \"#utility.yul\":10091:10092   */\n      0x00\n        /* \"#utility.yul\":10080:10089   */\n      dup4\n        /* \"#utility.yul\":10076:10093   */\n      add\n        /* \"#utility.yul\":10069:10116   */\n      mstore\n        /* \"#utility.yul\":10133:10264   */\n      tag_439\n        /* \"#utility.yul\":10259:10263   */\n      dup2\n        /* \"#utility.yul\":10133:10264   */\n      tag_308\n      jump\t// in\n    tag_439:\n        /* \"#utility.yul\":10125:10264   */\n      swap1\n      pop\n        /* \"#utility.yul\":9852:10271   */\n      swap2\n      swap1\n      pop\n      jump\t// out\n        /* \"#utility.yul\":10277:10457   */\n    tag_309:\n        /* \"#utility.yul\":10417:10449   */\n      0x537570706c79206c6573736572207468616e20746f74616c537570706c790000\n        /* \"#utility.yul\":10413:10414   */\n      0x00\n        /* \"#utility.yul\":10405:10411   */\n      dup3\n        /* \"#utility.yul\":10401:10415   */\n      add\n        /* \"#utility.yul\":10394:10450   */\n      mstore\n        /* \"#utility.yul\":10277:10457   */\n      pop\n      jump\t// out\n        /* \"#utility.yul\":10463:10829   */\n    tag_310:\n        /* \"#utility.yul\":10605:10608   */\n      0x00\n        /* \"#utility.yul\":10626:10693   */\n      tag_442\n        /* \"#utility.yul\":10690:10692   */\n      0x1e\n        /* \"#utility.yul\":10685:10688   */\n      dup4\n        /* \"#utility.yul\":10626:10693   */\n      tag_281\n      jump\t// in\n    tag_442:\n        /* \"#utility.yul\":10619:10693   */\n      swap2\n      pop\n        /* \"#utility.yul\":10702:10795   */\n      tag_443\n        /* \"#utility.yul\":10791:10794   */\n      dup3\n        /* \"#utility.yul\":10702:10795   */\n      tag_309\n      jump\t// in\n    tag_443:\n        /* \"#utility.yul\":10820:10822   */\n      0x20\n        /* \"#utility.yul\":10815:10818   */\n      dup3\n        /* \"#utility.yul\":10811:10823   */\n      add\n        /* \"#utility.yul\":10804:10823   */\n      swap1\n      pop\n        /* \"#utility.yul\":10463:10829   */\n      swap2\n      swap1\n      pop\n      jump\t// out\n        /* \"#utility.yul\":10835:11254   */\n    tag_201:\n        /* \"#utility.yul\":11001:11005   */\n      0x00\n        /* \"#utility.yul\":11039:11041   */\n      0x20\n        /* \"#utility.yul\":11028:11037   */\n      dup3\n        /* \"#utility.yul\":11024:11042   */\n      add\n        /* \"#utility.yul\":11016:11042   */\n      swap1\n      pop\n        /* \"#utility.yul\":11088:11097   */\n      dup2\n        /* \"#utility.yul\":11082:11086   */\n      dup2\n        /* \"#utility.yul\":11078:11098   */\n      sub\n        /* \"#utility.yul\":11074:11075   */\n      0x00\n        /* \"#utility.yul\":11063:11072   */\n      dup4\n        /* \"#utility.yul\":11059:11076   */\n      add\n        /* \"#utility.yul\":11052:11099   */\n      mstore\n        /* \"#utility.yul\":11116:11247   */\n      tag_445\n        /* \"#utility.yul\":11242:11246   */\n      dup2\n        /* \"#utility.yul\":11116:11247   */\n      tag_310\n      jump\t// in\n    tag_445:\n        /* \"#utility.yul\":11108:11247   */\n      swap1\n      pop\n        /* \"#utility.yul\":10835:11254   */\n      swap2\n      swap1\n      pop\n      jump\t// out\n        /* \"#utility.yul\":11260:11485   */\n    tag_311:\n        /* \"#utility.yul\":11400:11434   */\n      0x4f776e61626c653a206e6577206f776e657220697320746865207a65726f2061\n        /* \"#utility.yul\":11396:11397   */\n      0x00\n        /* \"#utility.yul\":11388:11394   */\n      dup3\n        /* \"#utility.yul\":11384:11398   */\n      add\n        /* \"#utility.yul\":11377:11435   */\n      mstore\n        /* \"#utility.yul\":11469:11477   */\n      0x6464726573730000000000000000000000000000000000000000000000000000\n        /* \"#utility.yul\":11464:11466   */\n      0x20\n        /* \"#utility.yul\":11456:11462   */\n      dup3\n        /* \"#utility.yul\":11452:11467   */\n      add\n        /* \"#utility.yul\":11445:11478   */\n      mstore\n        /* \"#utility.yul\":11260:11485   */\n      pop\n      jump\t// out\n        /* \"#utility.yul\":11491:11857   */\n    tag_312:\n        /* \"#utility.yul\":11633:11636   */\n      0x00\n        /* \"#utility.yul\":11654:11721   */\n      tag_448\n        /* \"#utility.yul\":11718:11720   */\n      0x26\n        /* \"#utility.yul\":11713:11716   */\n      dup4\n        /* \"#utility.yul\":11654:11721   */\n      tag_281\n      jump\t// in\n    tag_448:\n        /* \"#utility.yul\":11647:11721   */\n      swap2\n      pop\n        /* \"#utility.yul\":11730:11823   */\n      tag_449\n        /* \"#utility.yul\":11819:11822   */\n      dup3\n        /* \"#utility.yul\":11730:11823   */\n      tag_311\n      jump\t// in\n    tag_449:\n        /* \"#utility.yul\":11848:11850   */\n      0x40\n        /* \"#utility.yul\":11843:11846   */\n      dup3\n        /* \"#utility.yul\":11839:11851   */\n      add\n        /* \"#utility.yul\":11832:11851   */\n      swap1\n      pop\n        /* \"#utility.yul\":11491:11857   */\n      swap2\n      swap1\n      pop\n      jump\t// out\n        /* \"#utility.yul\":11863:12282   */\n    tag_207:\n        /* \"#utility.yul\":12029:12033   */\n      0x00\n        /* \"#utility.yul\":12067:12069   */\n      0x20\n        /* \"#utility.yul\":12056:12065   */\n      dup3\n        /* \"#utility.yul\":12052:12070   */\n      add\n        /* \"#utility.yul\":12044:12070   */\n      swap1\n      pop\n        /* \"#utility.yul\":12116:12125   */\n      dup2\n        /* \"#utility.yul\":12110:12114   */\n      dup2\n        /* \"#utility.yul\":12106:12126   */\n      sub\n        /* \"#utility.yul\":12102:12103   */\n      0x00\n        /* \"#utility.yul\":12091:12100   */\n      dup4\n        /* \"#utility.yul\":12087:12104   */\n      add\n        /* \"#utility.yul\":12080:12127   */\n      mstore\n        /* \"#utility.yul\":12144:12275   */\n      tag_451\n        /* \"#utility.yul\":12270:12274   */\n      dup2\n        /* \"#utility.yul\":12144:12275   */\n      tag_312\n      jump\t// in\n    tag_451:\n        /* \"#utility.yul\":12136:12275   */\n      swap1\n      pop\n        /* \"#utility.yul\":11863:12282   */\n      swap2\n      swap1\n      pop\n      jump\t// out\n        /* \"#utility.yul\":12288:12511   */\n    tag_313:\n        /* \"#utility.yul\":12428:12462   */\n      0x45524332303a20617070726f76652066726f6d20746865207a65726f20616464\n        /* \"#utility.yul\":12424:12425   */\n      0x00\n        /* \"#utility.yul\":12416:12422   */\n      dup3\n        /* \"#utility.yul\":12412:12426   */\n      add\n        /* \"#utility.yul\":12405:12463   */\n      mstore\n        /* \"#utility.yul\":12497:12503   */\n      0x7265737300000000000000000000000000000000000000000000000000000000\n        /* \"#utility.yul\":12492:12494   */\n      0x20\n        /* \"#utility.yul\":12484:12490   */\n      dup3\n        /* \"#utility.yul\":12480:12495   */\n      add\n        /* \"#utility.yul\":12473:12504   */\n      mstore\n        /* \"#utility.yul\":12288:12511   */\n      pop\n      jump\t// out\n        /* \"#utility.yul\":12517:12883   */\n    tag_314:\n        /* \"#utility.yul\":12659:12662   */\n      0x00\n        /* \"#utility.yul\":12680:12747   */\n      tag_454\n        /* \"#utility.yul\":12744:12746   */\n      0x24\n        /* \"#utility.yul\":12739:12742   */\n      dup4\n        /* \"#utility.yul\":12680:12747   */\n      tag_281\n      jump\t// in\n    tag_454:\n        /* \"#utility.yul\":12673:12747   */\n      swap2\n      pop\n        /* \"#utility.yul\":12756:12849   */\n      tag_455\n        /* \"#utility.yul\":12845:12848   */\n      dup3\n        /* \"#utility.yul\":12756:12849   */\n      tag_313\n      jump\t// in\n    tag_455:\n        /* \"#utility.yul\":12874:12876   */\n      0x40\n        /* \"#utility.yul\":12869:12872   */\n      dup3\n        /* \"#utility.yul\":12865:12877   */\n      add\n        /* \"#utility.yul\":12858:12877   */\n      swap1\n      pop\n        /* \"#utility.yul\":12517:12883   */\n      swap2\n      swap1\n      pop\n      jump\t// out\n        /* \"#utility.yul\":12889:13308   */\n    tag_213:\n        /* \"#utility.yul\":13055:13059   */\n      0x00\n        /* \"#utility.yul\":13093:13095   */\n      0x20\n        /* \"#utility.yul\":13082:13091   */\n      dup3\n        /* \"#utility.yul\":13078:13096   */\n      add\n        /* \"#utility.yul\":13070:13096   */\n      swap1\n      pop\n        /* \"#utility.yul\":13142:13151   */\n      dup2\n        /* \"#utility.yul\":13136:13140   */\n      dup2\n        /* \"#utility.yul\":13132:13152   */\n      sub\n        /* \"#utility.yul\":13128:13129   */\n      0x00\n        /* \"#utility.yul\":13117:13126   */\n      dup4\n        /* \"#utility.yul\":13113:13130   */\n      add\n        /* \"#utility.yul\":13106:13153   */\n      mstore\n        /* \"#utility.yul\":13170:13301   */\n      tag_457\n        /* \"#utility.yul\":13296:13300   */\n      dup2\n        /* \"#utility.yul\":13170:13301   */\n      tag_314\n      jump\t// in\n    tag_457:\n        /* \"#utility.yul\":13162:13301   */\n      swap1\n      pop\n        /* \"#utility.yul\":12889:13308   */\n      swap2\n      swap1\n      pop\n      jump\t// out\n        /* \"#utility.yul\":13314:13535   */\n    tag_315:\n        /* \"#utility.yul\":13454:13488   */\n      0x45524332303a20617070726f766520746f20746865207a65726f206164647265\n        /* \"#utility.yul\":13450:13451   */\n      0x00\n        /* \"#utility.yul\":13442:13448   */\n      dup3\n        /* \"#utility.yul\":13438:13452   */\n      add\n        /* \"#utility.yul\":13431:13489   */\n      mstore\n        /* \"#utility.yul\":13523:13527   */\n      0x7373000000000000000000000000000000000000000000000000000000000000\n        /* \"#utility.yul\":13518:13520   */\n      0x20\n        /* \"#utility.yul\":13510:13516   */\n      dup3\n        /* \"#utility.yul\":13506:13521   */\n      add\n        /* \"#utility.yul\":13499:13528   */\n      mstore\n        /* \"#utility.yul\":13314:13535   */\n      pop\n      jump\t// out\n        /* \"#utility.yul\":13541:13907   */\n    tag_316:\n        /* \"#utility.yul\":13683:13686   */\n      0x00\n        /* \"#utility.yul\":13704:13771   */\n      tag_460\n        /* \"#utility.yul\":13768:13770   */\n      0x22\n        /* \"#utility.yul\":13763:13766   */\n      dup4\n        /* \"#utility.yul\":13704:13771   */\n      tag_281\n      jump\t// in\n    tag_460:\n        /* \"#utility.yul\":13697:13771   */\n      swap2\n      pop\n        /* \"#utility.yul\":13780:13873   */\n      tag_461\n        /* \"#utility.yul\":13869:13872   */\n      dup3\n        /* \"#utility.yul\":13780:13873   */\n      tag_315\n      jump\t// in\n    tag_461:\n        /* \"#utility.yul\":13898:13900   */\n      0x40\n        /* \"#utility.yul\":13893:13896   */\n      dup3\n        /* \"#utility.yul\":13889:13901   */\n      add\n        /* \"#utility.yul\":13882:13901   */\n      swap1\n      pop\n        /* \"#utility.yul\":13541:13907   */\n      swap2\n      swap1\n      pop\n      jump\t// out\n        /* \"#utility.yul\":13913:14332   */\n    tag_216:\n        /* \"#utility.yul\":14079:14083   */\n      0x00\n        /* \"#utility.yul\":14117:14119   */\n      0x20\n        /* \"#utility.yul\":14106:14115   */\n      dup3\n        /* \"#utility.yul\":14102:14120   */\n      add\n        /* \"#utility.yul\":14094:14120   */\n      swap1\n      pop\n        /* \"#utility.yul\":14166:14175   */\n      dup2\n        /* \"#utility.yul\":14160:14164   */\n      dup2\n        /* \"#utility.yul\":14156:14176   */\n      sub\n        /* \"#utility.yul\":14152:14153   */\n      0x00\n        /* \"#utility.yul\":14141:14150   */\n      dup4\n        /* \"#utility.yul\":14137:14154   */\n      add\n        /* \"#utility.yul\":14130:14177   */\n      mstore\n        /* \"#utility.yul\":14194:14325   */\n      tag_463\n        /* \"#utility.yul\":14320:14324   */\n      dup2\n        /* \"#utility.yul\":14194:14325   */\n      tag_316\n      jump\t// in\n    tag_463:\n        /* \"#utility.yul\":14186:14325   */\n      swap1\n      pop\n        /* \"#utility.yul\":13913:14332   */\n      swap2\n      swap1\n      pop\n      jump\t// out\n        /* \"#utility.yul\":14338:14504   */\n    tag_317:\n        /* \"#utility.yul\":14478:14496   */\n      0x5061757361626c653a2070617573656400000000000000000000000000000000\n        /* \"#utility.yul\":14474:14475   */\n      0x00\n        /* \"#utility.yul\":14466:14472   */\n      dup3\n        /* \"#utility.yul\":14462:14476   */\n      add\n        /* \"#utility.yul\":14455:14497   */\n      mstore\n        /* \"#utility.yul\":14338:14504   */\n      pop\n      jump\t// out\n        /* \"#utility.yul\":14510:14876   */\n    tag_318:\n        /* \"#utility.yul\":14652:14655   */\n      0x00\n        /* \"#utility.yul\":14673:14740   */\n      tag_466\n        /* \"#utility.yul\":14737:14739   */\n      0x10\n        /* \"#utility.yul\":14732:14735   */\n      dup4\n        /* \"#utility.yul\":14673:14740   */\n      tag_281\n      jump\t// in\n    tag_466:\n        /* \"#utility.yul\":14666:14740   */\n      swap2\n      pop\n        /* \"#utility.yul\":14749:14842   */\n      tag_467\n        /* \"#utility.yul\":14838:14841   */\n      dup3\n        /* \"#utility.yul\":14749:14842   */\n      tag_317\n      jump\t// in\n    tag_467:\n        /* \"#utility.yul\":14867:14869   */\n      0x20\n        /* \"#utility.yul\":14862:14865   */\n      dup3\n        /* \"#utility.yul\":14858:14870   */\n      add\n        /* \"#utility.yul\":14851:14870   */\n      swap1\n      pop\n        /* \"#utility.yul\":14510:14876   */\n      swap2\n      swap1\n      pop\n      jump\t// out\n        /* \"#utility.yul\":14882:15301   */\n    tag_222:\n        /* \"#utility.yul\":15048:15052   */\n      0x00\n        /* \"#utility.yul\":15086:15088   */\n      0x20\n        /* \"#utility.yul\":15075:15084   */\n      dup3\n        /* \"#utility.yul\":15071:15089   */\n      add\n        /* \"#utility.yul\":15063:15089   */\n      swap1\n      pop\n        /* \"#utility.yul\":15135:15144   */\n      dup2\n        /* \"#utility.yul\":15129:15133   */\n      dup2\n        /* \"#utility.yul\":15125:15145   */\n      sub\n        /* \"#utility.yul\":15121:15122   */\n      0x00\n        /* \"#utility.yul\":15110:15119   */\n      dup4\n        /* \"#utility.yul\":15106:15123   */\n      add\n        /* \"#utility.yul\":15099:15146   */\n      mstore\n        /* \"#utility.yul\":15163:15294   */\n      tag_469\n        /* \"#utility.yul\":15289:15293   */\n      dup2\n        /* \"#utility.yul\":15163:15294   */\n      tag_318\n      jump\t// in\n    tag_469:\n        /* \"#utility.yul\":15155:15294   */\n      swap1\n      pop\n        /* \"#utility.yul\":14882:15301   */\n      swap2\n      swap1\n      pop\n      jump\t// out\n        /* \"#utility.yul\":15307:15486   */\n    tag_319:\n        /* \"#utility.yul\":15447:15478   */\n      0x45524332303a20696e73756666696369656e7420616c6c6f77616e6365000000\n        /* \"#utility.yul\":15443:15444   */\n      0x00\n        /* \"#utility.yul\":15435:15441   */\n      dup3\n        /* \"#utility.yul\":15431:15445   */\n      add\n        /* \"#utility.yul\":15424:15479   */\n      mstore\n        /* \"#utility.yul\":15307:15486   */\n      pop\n      jump\t// out\n        /* \"#utility.yul\":15492:15858   */\n    tag_320:\n        /* \"#utility.yul\":15634:15637   */\n      0x00\n        /* \"#utility.yul\":15655:15722   */\n      tag_472\n        /* \"#utility.yul\":15719:15721   */\n      0x1d\n        /* \"#utility.yul\":15714:15717   */\n      dup4\n        /* \"#utility.yul\":15655:15722   */\n      tag_281\n      jump\t// in\n    tag_472:\n        /* \"#utility.yul\":15648:15722   */\n      swap2\n      pop\n        /* \"#utility.yul\":15731:15824   */\n      tag_473\n        /* \"#utility.yul\":15820:15823   */\n      dup3\n        /* \"#utility.yul\":15731:15824   */\n      tag_319\n      jump\t// in\n    tag_473:\n        /* \"#utility.yul\":15849:15851   */\n      0x20\n        /* \"#utility.yul\":15844:15847   */\n      dup3\n        /* \"#utility.yul\":15840:15852   */\n      add\n        /* \"#utility.yul\":15833:15852   */\n      swap1\n      pop\n        /* \"#utility.yul\":15492:15858   */\n      swap2\n      swap1\n      pop\n      jump\t// out\n        /* \"#utility.yul\":15864:16283   */\n    tag_228:\n        /* \"#utility.yul\":16030:16034   */\n      0x00\n        /* \"#utility.yul\":16068:16070   */\n      0x20\n        /* \"#utility.yul\":16057:16066   */\n      dup3\n        /* \"#utility.yul\":16053:16071   */\n      add\n        /* \"#utility.yul\":16045:16071   */\n      swap1\n      pop\n        /* \"#utility.yul\":16117:16126   */\n      dup2\n        /* \"#utility.yul\":16111:16115   */\n      dup2\n        /* \"#utility.yul\":16107:16127   */\n      sub\n        /* \"#utility.yul\":16103:16104   */\n      0x00\n        /* \"#utility.yul\":16092:16101   */\n      dup4\n        /* \"#utility.yul\":16088:16105   */\n      add\n        /* \"#utility.yul\":16081:16128   */\n      mstore\n        /* \"#utility.yul\":16145:16276   */\n      tag_475\n        /* \"#utility.yul\":16271:16275   */\n      dup2\n        /* \"#utility.yul\":16145:16276   */\n      tag_320\n      jump\t// in\n    tag_475:\n        /* \"#utility.yul\":16137:16276   */\n      swap1\n      pop\n        /* \"#utility.yul\":15864:16283   */\n      swap2\n      swap1\n      pop\n      jump\t// out\n        /* \"#utility.yul\":16289:16513   */\n    tag_321:\n        /* \"#utility.yul\":16429:16463   */\n      0x45524332303a207472616e736665722066726f6d20746865207a65726f206164\n        /* \"#utility.yul\":16425:16426   */\n      0x00\n        /* \"#utility.yul\":16417:16423   */\n      dup3\n        /* \"#utility.yul\":16413:16427   */\n      add\n        /* \"#utility.yul\":16406:16464   */\n      mstore\n        /* \"#utility.yul\":16498:16505   */\n      0x6472657373000000000000000000000000000000000000000000000000000000\n        /* \"#utility.yul\":16493:16495   */\n      0x20\n        /* \"#utility.yul\":16485:16491   */\n      dup3\n        /* \"#utility.yul\":16481:16496   */\n      add\n        /* \"#utility.yul\":16474:16506   */\n      mstore\n        /* \"#utility.yul\":16289:16513   */\n      pop\n      jump\t// out\n        /* \"#utility.yul\":16519:16885   */\n    tag_322:\n        /* \"#utility.yul\":16661:16664   */\n      0x00\n        /* \"#utility.yul\":16682:16749   */\n      tag_478\n        /* \"#utility.yul\":16746:16748   */\n      0x25\n        /* \"#utility.yul\":16741:16744   */\n      dup4\n        /* \"#utility.yul\":16682:16749   */\n      tag_281\n      jump\t// in\n    tag_478:\n        /* \"#utility.yul\":16675:16749   */\n      swap2\n      pop\n        /* \"#utility.yul\":16758:16851   */\n      tag_479\n        /* \"#utility.yul\":16847:16850   */\n      dup3\n        /* \"#utility.yul\":16758:16851   */\n      tag_321\n      jump\t// in\n    tag_479:\n        /* \"#utility.yul\":16876:16878   */\n      0x40\n        /* \"#utility.yul\":16871:16874   */\n      dup3\n        /* \"#utility.yul\":16867:16879   */\n      add\n        /* \"#utility.yul\":16860:16879   */\n      swap1\n      pop\n        /* \"#utility.yul\":16519:16885   */\n      swap2\n      swap1\n      pop\n      jump\t// out\n        /* \"#utility.yul\":16891:17310   */\n    tag_233:\n        /* \"#utility.yul\":17057:17061   */\n      0x00\n        /* \"#utility.yul\":17095:17097   */\n      0x20\n        /* \"#utility.yul\":17084:17093   */\n      dup3\n        /* \"#utility.yul\":17080:17098   */\n      add\n        /* \"#utility.yul\":17072:17098   */\n      swap1\n      pop\n        /* \"#utility.yul\":17144:17153   */\n      dup2\n        /* \"#utility.yul\":17138:17142   */\n      dup2\n        /* \"#utility.yul\":17134:17154   */\n      sub\n        /* \"#utility.yul\":17130:17131   */\n      0x00\n        /* \"#utility.yul\":17119:17128   */\n      dup4\n        /* \"#utility.yul\":17115:17132   */\n      add\n        /* \"#utility.yul\":17108:17155   */\n      mstore\n        /* \"#utility.yul\":17172:17303   */\n      tag_481\n        /* \"#utility.yul\":17298:17302   */\n      dup2\n        /* \"#utility.yul\":17172:17303   */\n      tag_322\n      jump\t// in\n    tag_481:\n        /* \"#utility.yul\":17164:17303   */\n      swap1\n      pop\n        /* \"#utility.yul\":16891:17310   */\n      swap2\n      swap1\n      pop\n      jump\t// out\n        /* \"#utility.yul\":17316:17538   */\n    tag_323:\n        /* \"#utility.yul\":17456:17490   */\n      0x45524332303a207472616e7366657220746f20746865207a65726f2061646472\n        /* \"#utility.yul\":17452:17453   */\n      0x00\n        /* \"#utility.yul\":17444:17450   */\n      dup3\n        /* \"#utility.yul\":17440:17454   */\n      add\n        /* \"#utility.yul\":17433:17491   */\n      mstore\n        /* \"#utility.yul\":17525:17530   */\n      0x6573730000000000000000000000000000000000000000000000000000000000\n        /* \"#utility.yul\":17520:17522   */\n      0x20\n        /* \"#utility.yul\":17512:17518   */\n      dup3\n        /* \"#utility.yul\":17508:17523   */\n      add\n        /* \"#utility.yul\":17501:17531   */\n      mstore\n        /* \"#utility.yul\":17316:17538   */\n      pop\n      jump\t// out\n        /* \"#utility.yul\":17544:17910   */\n    tag_324:\n        /* \"#utility.yul\":17686:17689   */\n      0x00\n        /* \"#utility.yul\":17707:17774   */\n      tag_484\n        /* \"#utility.yul\":17771:17773   */\n      0x23\n        /* \"#utility.yul\":17766:17769   */\n      dup4\n        /* \"#utility.yul\":17707:17774   */\n      tag_281\n      jump\t// in\n    tag_484:\n        /* \"#utility.yul\":17700:17774   */\n      swap2\n      pop\n        /* \"#utility.yul\":17783:17876   */\n      tag_485\n        /* \"#utility.yul\":17872:17875   */\n      dup3\n        /* \"#utility.yul\":17783:17876   */\n      tag_323\n      jump\t// in\n    tag_485:\n        /* \"#utility.yul\":17901:17903   */\n      0x40\n        /* \"#utility.yul\":17896:17899   */\n      dup3\n        /* \"#utility.yul\":17892:17904   */\n      add\n        /* \"#utility.yul\":17885:17904   */\n      swap1\n      pop\n        /* \"#utility.yul\":17544:17910   */\n      swap2\n      swap1\n      pop\n      jump\t// out\n        /* \"#utility.yul\":17916:18335   */\n    tag_236:\n        /* \"#utility.yul\":18082:18086   */\n      0x00\n        /* \"#utility.yul\":18120:18122   */\n      0x20\n        /* \"#utility.yul\":18109:18118   */\n      dup3\n        /* \"#utility.yul\":18105:18123   */\n      add\n        /* \"#utility.yul\":18097:18123   */\n      swap1\n      pop\n        /* \"#utility.yul\":18169:18178   */\n      dup2\n        /* \"#utility.yul\":18163:18167   */\n      dup2\n        /* \"#utility.yul\":18159:18179   */\n      sub\n        /* \"#utility.yul\":18155:18156   */\n      0x00\n        /* \"#utility.yul\":18144:18153   */\n      dup4\n        /* \"#utility.yul\":18140:18157   */\n      add\n        /* \"#utility.yul\":18133:18180   */\n      mstore\n        /* \"#utility.yul\":18197:18328   */\n      tag_487\n        /* \"#utility.yul\":18323:18327   */\n      dup2\n        /* \"#utility.yul\":18197:18328   */\n      tag_324\n      jump\t// in\n    tag_487:\n        /* \"#utility.yul\":18189:18328   */\n      swap1\n      pop\n        /* \"#utility.yul\":17916:18335   */\n      swap2\n      swap1\n      pop\n      jump\t// out\n        /* \"#utility.yul\":18341:18566   */\n    tag_325:\n        /* \"#utility.yul\":18481:18515   */\n      0x45524332303a207472616e7366657220616d6f756e7420657863656564732062\n        /* \"#utility.yul\":18477:18478   */\n      0x00\n        /* \"#utility.yul\":18469:18475   */\n      dup3\n        /* \"#utility.yul\":18465:18479   */\n      add\n        /* \"#utility.yul\":18458:18516   */\n      mstore\n        /* \"#utility.yul\":18550:18558   */\n      0x616c616e63650000000000000000000000000000000000000000000000000000\n        /* \"#utility.yul\":18545:18547   */\n      0x20\n        /* \"#utility.yul\":18537:18543   */\n      dup3\n        /* \"#utility.yul\":18533:18548   */\n      add\n        /* \"#utility.yul\":18526:18559   */\n      mstore\n        /* \"#utility.yul\":18341:18566   */\n      pop\n      jump\t// out\n        /* \"#utility.yul\":18572:18938   */\n    tag_326:\n        /* \"#utility.yul\":18714:18717   */\n      0x00\n        /* \"#utility.yul\":18735:18802   */\n      tag_490\n        /* \"#utility.yul\":18799:18801   */\n      0x26\n        /* \"#utility.yul\":18794:18797   */\n      dup4\n        /* \"#utility.yul\":18735:18802   */\n      tag_281\n      jump\t// in\n    tag_490:\n        /* \"#utility.yul\":18728:18802   */\n      swap2\n      pop\n        /* \"#utility.yul\":18811:18904   */\n      tag_491\n        /* \"#utility.yul\":18900:18903   */\n      dup3\n        /* \"#utility.yul\":18811:18904   */\n      tag_325\n      jump\t// in\n    tag_491:\n        /* \"#utility.yul\":18929:18931   */\n      0x40\n        /* \"#utility.yul\":18924:18927   */\n      dup3\n        /* \"#utility.yul\":18920:18932   */\n      add\n        /* \"#utility.yul\":18913:18932   */\n      swap1\n      pop\n        /* \"#utility.yul\":18572:18938   */\n      swap2\n      swap1\n      pop\n      jump\t// out\n        /* \"#utility.yul\":18944:19363   */\n    tag_239:\n        /* \"#utility.yul\":19110:19114   */\n      0x00\n        /* \"#utility.yul\":19148:19150   */\n      0x20\n        /* \"#utility.yul\":19137:19146   */\n      dup3\n        /* \"#utility.yul\":19133:19151   */\n      add\n        /* \"#utility.yul\":19125:19151   */\n      swap1\n      pop\n        /* \"#utility.yul\":19197:19206   */\n      dup2\n        /* \"#utility.yul\":19191:19195   */\n      dup2\n        /* \"#utility.yul\":19187:19207   */\n      sub\n        /* \"#utility.yul\":19183:19184   */\n      0x00\n        /* \"#utility.yul\":19172:19181   */\n      dup4\n        /* \"#utility.yul\":19168:19185   */\n      add\n        /* \"#utility.yul\":19161:19208   */\n      mstore\n        /* \"#utility.yul\":19225:19356   */\n      tag_493\n        /* \"#utility.yul\":19351:19355   */\n      dup2\n        /* \"#utility.yul\":19225:19356   */\n      tag_326\n      jump\t// in\n    tag_493:\n        /* \"#utility.yul\":19217:19356   */\n      swap1\n      pop\n        /* \"#utility.yul\":18944:19363   */\n      swap2\n      swap1\n      pop\n      jump\t// out\n        /* \"#utility.yul\":19369:19551   */\n    tag_327:\n        /* \"#utility.yul\":19509:19543   */\n      0x4f776e61626c653a2063616c6c6572206973206e6f7420746865206f776e6572\n        /* \"#utility.yul\":19505:19506   */\n      0x00\n        /* \"#utility.yul\":19497:19503   */\n      dup3\n        /* \"#utility.yul\":19493:19507   */\n      add\n        /* \"#utility.yul\":19486:19544   */\n      mstore\n        /* \"#utility.yul\":19369:19551   */\n      pop\n      jump\t// out\n        /* \"#utility.yul\":19557:19923   */\n    tag_328:\n        /* \"#utility.yul\":19699:19702   */\n      0x00\n        /* \"#utility.yul\":19720:19787   */\n      tag_496\n        /* \"#utility.yul\":19784:19786   */\n      0x20\n        /* \"#utility.yul\":19779:19782   */\n      dup4\n        /* \"#utility.yul\":19720:19787   */\n      tag_281\n      jump\t// in\n    tag_496:\n        /* \"#utility.yul\":19713:19787   */\n      swap2\n      pop\n        /* \"#utility.yul\":19796:19889   */\n      tag_497\n        /* \"#utility.yul\":19885:19888   */\n      dup3\n        /* \"#utility.yul\":19796:19889   */\n      tag_327\n      jump\t// in\n    tag_497:\n        /* \"#utility.yul\":19914:19916   */\n      0x20\n        /* \"#utility.yul\":19909:19912   */\n      dup3\n        /* \"#utility.yul\":19905:19917   */\n      add\n        /* \"#utility.yul\":19898:19917   */\n      swap1\n      pop\n        /* \"#utility.yul\":19557:19923   */\n      swap2\n      swap1\n      pop\n      jump\t// out\n        /* \"#utility.yul\":19929:20348   */\n    tag_247:\n        /* \"#utility.yul\":20095:20099   */\n      0x00\n        /* \"#utility.yul\":20133:20135   */\n      0x20\n        /* \"#utility.yul\":20122:20131   */\n      dup3\n        /* \"#utility.yul\":20118:20136   */\n      add\n        /* \"#utility.yul\":20110:20136   */\n      swap1\n      pop\n        /* \"#utility.yul\":20182:20191   */\n      dup2\n        /* \"#utility.yul\":20176:20180   */\n      dup2\n        /* \"#utility.yul\":20172:20192   */\n      sub\n        /* \"#utility.yul\":20168:20169   */\n      0x00\n        /* \"#utility.yul\":20157:20166   */\n      dup4\n        /* \"#utility.yul\":20153:20170   */\n      add\n        /* \"#utility.yul\":20146:20193   */\n      mstore\n        /* \"#utility.yul\":20210:20341   */\n      tag_499\n        /* \"#utility.yul\":20336:20340   */\n      dup2\n        /* \"#utility.yul\":20210:20341   */\n      tag_328\n      jump\t// in\n    tag_499:\n        /* \"#utility.yul\":20202:20341   */\n      swap1\n      pop\n        /* \"#utility.yul\":19929:20348   */\n      swap2\n      swap1\n      pop\n      jump\t// out\n        /* \"#utility.yul\":20354:20535   */\n    tag_329:\n        /* \"#utility.yul\":20494:20527   */\n      0x45524332303a206d696e7420746f20746865207a65726f206164647265737300\n        /* \"#utility.yul\":20490:20491   */\n      0x00\n        /* \"#utility.yul\":20482:20488   */\n      dup3\n        /* \"#utility.yul\":20478:20492   */\n      add\n        /* \"#utility.yul\":20471:20528   */\n      mstore\n        /* \"#utility.yul\":20354:20535   */\n      pop\n      jump\t// out\n        /* \"#utility.yul\":20541:20907   */\n    tag_330:\n        /* \"#utility.yul\":20683:20686   */\n      0x00\n        /* \"#utility.yul\":20704:20771   */\n      tag_502\n        /* \"#utility.yul\":20768:20770   */\n      0x1f\n        /* \"#utility.yul\":20763:20766   */\n      dup4\n        /* \"#utility.yul\":20704:20771   */\n      tag_281\n      jump\t// in\n    tag_502:\n        /* \"#utility.yul\":20697:20771   */\n      swap2\n      pop\n        /* \"#utility.yul\":20780:20873   */\n      tag_503\n        /* \"#utility.yul\":20869:20872   */\n      dup3\n        /* \"#utility.yul\":20780:20873   */\n      tag_329\n      jump\t// in\n    tag_503:\n        /* \"#utility.yul\":20898:20900   */\n      0x20\n        /* \"#utility.yul\":20893:20896   */\n      dup3\n        /* \"#utility.yul\":20889:20901   */\n      add\n        /* \"#utility.yul\":20882:20901   */\n      swap1\n      pop\n        /* \"#utility.yul\":20541:20907   */\n      swap2\n      swap1\n      pop\n      jump\t// out\n        /* \"#utility.yul\":20913:21332   */\n    tag_256:\n        /* \"#utility.yul\":21079:21083   */\n      0x00\n        /* \"#utility.yul\":21117:21119   */\n      0x20\n        /* \"#utility.yul\":21106:21115   */\n      dup3\n        /* \"#utility.yul\":21102:21120   */\n      add\n        /* \"#utility.yul\":21094:21120   */\n      swap1\n      pop\n        /* \"#utility.yul\":21166:21175   */\n      dup2\n        /* \"#utility.yul\":21160:21164   */\n      dup2\n        /* \"#utility.yul\":21156:21176   */\n      sub\n        /* \"#utility.yul\":21152:21153   */\n      0x00\n        /* \"#utility.yul\":21141:21150   */\n      dup4\n        /* \"#utility.yul\":21137:21154   */\n      add\n        /* \"#utility.yul\":21130:21177   */\n      mstore\n        /* \"#utility.yul\":21194:21325   */\n      tag_505\n        /* \"#utility.yul\":21320:21324   */\n      dup2\n        /* \"#utility.yul\":21194:21325   */\n      tag_330\n      jump\t// in\n    tag_505:\n        /* \"#utility.yul\":21186:21325   */\n      swap1\n      pop\n        /* \"#utility.yul\":20913:21332   */\n      swap2\n      swap1\n      pop\n      jump\t// out\n        /* \"#utility.yul\":21338:21558   */\n    tag_331:\n        /* \"#utility.yul\":21478:21512   */\n      0x45524332303a206275726e2066726f6d20746865207a65726f20616464726573\n        /* \"#utility.yul\":21474:21475   */\n      0x00\n        /* \"#utility.yul\":21466:21472   */\n      dup3\n        /* \"#utility.yul\":21462:21476   */\n      add\n        /* \"#utility.yul\":21455:21513   */\n      mstore\n        /* \"#utility.yul\":21547:21550   */\n      0x7300000000000000000000000000000000000000000000000000000000000000\n        /* \"#utility.yul\":21542:21544   */\n      0x20\n        /* \"#utility.yul\":21534:21540   */\n      dup3\n        /* \"#utility.yul\":21530:21545   */\n      add\n        /* \"#utility.yul\":21523:21551   */\n      mstore\n        /* \"#utility.yul\":21338:21558   */\n      pop\n      jump\t// out\n        /* \"#utility.yul\":21564:21930   */\n    tag_332:\n        /* \"#utility.yul\":21706:21709   */\n      0x00\n        /* \"#utility.yul\":21727:21794   */\n      tag_508\n        /* \"#utility.yul\":21791:21793   */\n      0x21\n        /* \"#utility.yul\":21786:21789   */\n      dup4\n        /* \"#utility.yul\":21727:21794   */\n      tag_281\n      jump\t// in\n    tag_508:\n        /* \"#utility.yul\":21720:21794   */\n      swap2\n      pop\n        /* \"#utility.yul\":21803:21896   */\n      tag_509\n        /* \"#utility.yul\":21892:21895   */\n      dup3\n        /* \"#utility.yul\":21803:21896   */\n      tag_331\n      jump\t// in\n    tag_509:\n        /* \"#utility.yul\":21921:21923   */\n      0x40\n        /* \"#utility.yul\":21916:21919   */\n      dup3\n        /* \"#utility.yul\":21912:21924   */\n      add\n        /* \"#utility.yul\":21905:21924   */\n      swap1\n      pop\n        /* \"#utility.yul\":21564:21930   */\n      swap2\n      swap1\n      pop\n      jump\t// out\n        /* \"#utility.yul\":21936:22355   */\n    tag_263:\n        /* \"#utility.yul\":22102:22106   */\n      0x00\n        /* \"#utility.yul\":22140:22142   */\n      0x20\n        /* \"#utility.yul\":22129:22138   */\n      dup3\n        /* \"#utility.yul\":22125:22143   */\n      add\n        /* \"#utility.yul\":22117:22143   */\n      swap1\n      pop\n        /* \"#utility.yul\":22189:22198   */\n      dup2\n        /* \"#utility.yul\":22183:22187   */\n      dup2\n        /* \"#utility.yul\":22179:22199   */\n      sub\n        /* \"#utility.yul\":22175:22176   */\n      0x00\n        /* \"#utility.yul\":22164:22173   */\n      dup4\n        /* \"#utility.yul\":22160:22177   */\n      add\n        /* \"#utility.yul\":22153:22200   */\n      mstore\n        /* \"#utility.yul\":22217:22348   */\n      tag_511\n        /* \"#utility.yul\":22343:22347   */\n      dup2\n        /* \"#utility.yul\":22217:22348   */\n      tag_332\n      jump\t// in\n    tag_511:\n        /* \"#utility.yul\":22209:22348   */\n      swap1\n      pop\n        /* \"#utility.yul\":21936:22355   */\n      swap2\n      swap1\n      pop\n      jump\t// out\n        /* \"#utility.yul\":22361:22582   */\n    tag_333:\n        /* \"#utility.yul\":22501:22535   */\n      0x45524332303a206275726e20616d6f756e7420657863656564732062616c616e\n        /* \"#utility.yul\":22497:22498   */\n      0x00\n        /* \"#utility.yul\":22489:22495   */\n      dup3\n        /* \"#utility.yul\":22485:22499   */\n      add\n        /* \"#utility.yul\":22478:22536   */\n      mstore\n        /* \"#utility.yul\":22570:22574   */\n      0x6365000000000000000000000000000000000000000000000000000000000000\n        /* \"#utility.yul\":22565:22567   */\n      0x20\n        /* \"#utility.yul\":22557:22563   */\n      dup3\n        /* \"#utility.yul\":22553:22568   */\n      add\n        /* \"#utility.yul\":22546:22575   */\n      mstore\n        /* \"#utility.yul\":22361:22582   */\n      pop\n      jump\t// out\n        /* \"#utility.yul\":22588:22954   */\n    tag_334:\n        /* \"#utility.yul\":22730:22733   */\n      0x00\n        /* \"#utility.yul\":22751:22818   */\n      tag_514\n        /* \"#utility.yul\":22815:22817   */\n      0x22\n        /* \"#utility.yul\":22810:22813   */\n      dup4\n        /* \"#utility.yul\":22751:22818   */\n      tag_281\n      jump\t// in\n    tag_514:\n        /* \"#utility.yul\":22744:22818   */\n      swap2\n      pop\n        /* \"#utility.yul\":22827:22920   */\n      tag_515\n        /* \"#utility.yul\":22916:22919   */\n      dup3\n        /* \"#utility.yul\":22827:22920   */\n      tag_333\n      jump\t// in\n    tag_515:\n        /* \"#utility.yul\":22945:22947   */\n      0x40\n        /* \"#utility.yul\":22940:22943   */\n      dup3\n        /* \"#utility.yul\":22936:22948   */\n      add\n        /* \"#utility.yul\":22929:22948   */\n      swap1\n      pop\n        /* \"#utility.yul\":22588:22954   */\n      swap2\n      swap1\n      pop\n      jump\t// out\n        /* \"#utility.yul\":22960:23379   */\n    tag_266:\n        /* \"#utility.yul\":23126:23130   */\n      0x00\n        /* \"#utility.yul\":23164:23166   */\n      0x20\n        /* \"#utility.yul\":23153:23162   */\n      dup3\n        /* \"#utility.yul\":23149:23167   */\n      add\n        /* \"#utility.yul\":23141:23167   */\n      swap1\n      pop\n        /* \"#utility.yul\":23213:23222   */\n      dup2\n        /* \"#utility.yul\":23207:23211   */\n      dup2\n        /* \"#utility.yul\":23203:23223   */\n      sub\n        /* \"#utility.yul\":23199:23200   */\n      0x00\n        /* \"#utility.yul\":23188:23197   */\n      dup4\n        /* \"#utility.yul\":23184:23201   */\n      add\n        /* \"#utility.yul\":23177:23224   */\n      mstore\n        /* \"#utility.yul\":23241:23372   */\n      tag_517\n        /* \"#utility.yul\":23367:23371   */\n      dup2\n        /* \"#utility.yul\":23241:23372   */\n      tag_334\n      jump\t// in\n    tag_517:\n        /* \"#utility.yul\":23233:23372   */\n      swap1\n      pop\n        /* \"#utility.yul\":22960:23379   */\n      swap2\n      swap1\n      pop\n      jump\t// out\n        /* \"#utility.yul\":23385:23579   */\n    tag_268:\n        /* \"#utility.yul\":23425:23429   */\n      0x00\n        /* \"#utility.yul\":23445:23465   */\n      tag_519\n        /* \"#utility.yul\":23463:23464   */\n      dup3\n        /* \"#utility.yul\":23445:23465   */\n      tag_292\n      jump\t// in\n    tag_519:\n        /* \"#utility.yul\":23440:23465   */\n      swap2\n      pop\n        /* \"#utility.yul\":23479:23499   */\n      tag_520\n        /* \"#utility.yul\":23497:23498   */\n      dup4\n        /* \"#utility.yul\":23479:23499   */\n      tag_292\n      jump\t// in\n    tag_520:\n        /* \"#utility.yul\":23474:23499   */\n      swap3\n      pop\n        /* \"#utility.yul\":23523:23524   */\n      dup3\n        /* \"#utility.yul\":23520:23521   */\n      dup3\n        /* \"#utility.yul\":23516:23525   */\n      sub\n        /* \"#utility.yul\":23508:23525   */\n      swap1\n      pop\n        /* \"#utility.yul\":23547:23548   */\n      dup2\n        /* \"#utility.yul\":23541:23545   */\n      dup2\n        /* \"#utility.yul\":23538:23549   */\n      gt\n        /* \"#utility.yul\":23535:23572   */\n      iszero\n      tag_521\n      jumpi\n        /* \"#utility.yul\":23552:23570   */\n      tag_522\n      tag_302\n      jump\t// in\n    tag_522:\n        /* \"#utility.yul\":23535:23572   */\n    tag_521:\n        /* \"#utility.yul\":23385:23579   */\n      swap3\n      swap2\n      pop\n      pop\n      jump\t// out\n        /* \"#utility.yul\":23585:23755   */\n    tag_335:\n        /* \"#utility.yul\":23725:23747   */\n      0x5061757361626c653a206e6f7420706175736564000000000000000000000000\n        /* \"#utility.yul\":23721:23722   */\n      0x00\n        /* \"#utility.yul\":23713:23719   */\n      dup3\n        /* \"#utility.yul\":23709:23723   */\n      add\n        /* \"#utility.yul\":23702:23748   */\n      mstore\n        /* \"#utility.yul\":23585:23755   */\n      pop\n      jump\t// out\n        /* \"#utility.yul\":23761:24127   */\n    tag_336:\n        /* \"#utility.yul\":23903:23906   */\n      0x00\n        /* \"#utility.yul\":23924:23991   */\n      tag_525\n        /* \"#utility.yul\":23988:23990   */\n      0x14\n        /* \"#utility.yul\":23983:23986   */\n      dup4\n        /* \"#utility.yul\":23924:23991   */\n      tag_281\n      jump\t// in\n    tag_525:\n        /* \"#utility.yul\":23917:23991   */\n      swap2\n      pop\n        /* \"#utility.yul\":24000:24093   */\n      tag_526\n        /* \"#utility.yul\":24089:24092   */\n      dup3\n        /* \"#utility.yul\":24000:24093   */\n      tag_335\n      jump\t// in\n    tag_526:\n        /* \"#utility.yul\":24118:24120   */\n      0x20\n        /* \"#utility.yul\":24113:24116   */\n      dup3\n        /* \"#utility.yul\":24109:24121   */\n      add\n        /* \"#utility.yul\":24102:24121   */\n      swap1\n      pop\n        /* \"#utility.yul\":23761:24127   */\n      swap2\n      swap1\n      pop\n      jump\t// out\n        /* \"#utility.yul\":24133:24552   */\n    tag_279:\n        /* \"#utility.yul\":24299:24303   */\n      0x00\n        /* \"#utility.yul\":24337:24339   */\n      0x20\n        /* \"#utility.yul\":24326:24335   */\n      dup3\n        /* \"#utility.yul\":24322:24340   */\n      add\n        /* \"#utility.yul\":24314:24340   */\n      swap1\n      pop\n        /* \"#utility.yul\":24386:24395   */\n      dup2\n        /* \"#utility.yul\":24380:24384   */\n      dup2\n        /* \"#utility.yul\":24376:24396   */\n      sub\n        /* \"#utility.yul\":24372:24373   */\n      0x00\n        /* \"#utility.yul\":24361:24370   */\n      dup4\n        /* \"#utility.yul\":24357:24374   */\n      add\n        /* \"#utility.yul\":24350:24397   */\n      mstore\n        /* \"#utility.yul\":24414:24545   */\n      tag_528\n        /* \"#utility.yul\":24540:24544   */\n      dup2\n        /* \"#utility.yul\":24414:24545   */\n      tag_336\n      jump\t// in\n    tag_528:\n        /* \"#utility.yul\":24406:24545   */\n      swap1\n      pop\n        /* \"#utility.yul\":24133:24552   */\n      swap2\n      swap1\n      pop\n      jump\t// out\n\n    auxdata: 0xa26469706673582212205eb321507940b86123f0f849aa32ab2e4b6ad32702ca12f0589698839e10893b64736f6c63430008110033\n}\n",
				"bytecode": {
					"linkReferences": {},
					"object": "60806040526040518060400160405280600881526020017f4d5920574f524c44000000000000000000000000000000000000000000000000815250600190816200004a9190620005dd565b506040518060400160405280600281526020017f4d5700000000000000000000000000000000000000000000000000000000000081525060029081620000919190620005dd565b506b15a0e412003178f897640000600455348015620000af57600080fd5b50620000d0620000c46200011d60201b60201c565b6200012560201b60201c565b60008060146101000a81548160ff02191690831515021790555062000117620000fe620001e960201b60201c565b6b0bef595c20bff841df6400006200021260201b60201c565b620007df565b600033905090565b60008060009054906101000a900473ffffffffffffffffffffffffffffffffffffffff169050816000806101000a81548173ffffffffffffffffffffffffffffffffffffffff021916908373ffffffffffffffffffffffffffffffffffffffff1602179055508173ffffffffffffffffffffffffffffffffffffffff168173ffffffffffffffffffffffffffffffffffffffff167f8be0079c531659141344cd1fd0a4f28419497f9722a3daafe3b4186f6b6457e060405160405180910390a35050565b60008060009054906101000a900473ffffffffffffffffffffffffffffffffffffffff16905090565b600073ffffffffffffffffffffffffffffffffffffffff168273ffffffffffffffffffffffffffffffffffffffff160362000284576040517f08c379a00000000000000000000000000000000000000000000000000000000081526004016200027b9062000725565b60405180910390fd5b806003600082825462000298919062000776565b9250508190555080600560008473ffffffffffffffffffffffffffffffffffffffff1673ffffffffffffffffffffffffffffffffffffffff1681526020019081526020016000206000828254620002f0919062000776565b925050819055508173ffffffffffffffffffffffffffffffffffffffff16600073ffffffffffffffffffffffffffffffffffffffff167fddf252ad1be2c89b69c2b068fc378daa952ba7f163c4a11628f55a4df523b3ef83604051620003579190620007c2565b60405180910390a35050565b600081519050919050565b7f4e487b7100000000000000000000000000000000000000000000000000000000600052604160045260246000fd5b7f4e487b7100000000000000000000000000000000000000000000000000000000600052602260045260246000fd5b60006002820490506001821680620003e557607f821691505b602082108103620003fb57620003fa6200039d565b5b50919050565b60008190508160005260206000209050919050565b60006020601f8301049050919050565b600082821b905092915050565b600060088302620004657fffffffffffffffffffffffffffffffffffffffffffffffffffffffffffffffff8262000426565b62000471868362000426565b95508019841693508086168417925050509392505050565b6000819050919050565b6000819050919050565b6000620004be620004b8620004b28462000489565b62000493565b62000489565b9050919050565b6000819050919050565b620004da836200049d565b620004f2620004e982620004c5565b84845462000433565b825550505050565b600090565b62000509620004fa565b62000516818484620004cf565b505050565b5b818110156200053e5762000532600082620004ff565b6001810190506200051c565b5050565b601f8211156200058d57620005578162000401565b620005628462000416565b8101602085101562000572578190505b6200058a620005818562000416565b8301826200051b565b50505b505050565b600082821c905092915050565b6000620005b26000198460080262000592565b1980831691505092915050565b6000620005cd83836200059f565b9150826002028217905092915050565b620005e88262000363565b67ffffffffffffffff8111156200060457620006036200036e565b5b620006108254620003cc565b6200061d82828562000542565b600060209050601f83116001811462000655576000841562000640578287015190505b6200064c8582620005bf565b865550620006bc565b601f198416620006658662000401565b60005b828110156200068f5784890151825560018201915060208501945060208101905062000668565b86831015620006af5784890151620006ab601f8916826200059f565b8355505b6001600288020188555050505b505050505050565b600082825260208201905092915050565b7f45524332303a206d696e7420746f20746865207a65726f206164647265737300600082015250565b60006200070d601f83620006c4565b91506200071a82620006d5565b602082019050919050565b600060208201905081810360008301526200074081620006fe565b9050919050565b7f4e487b7100000000000000000000000000000000000000000000000000000000600052601160045260246000fd5b6000620007838262000489565b9150620007908362000489565b9250828201905080821115620007ab57620007aa62000747565b5b92915050565b620007bc8162000489565b82525050565b6000602082019050620007d96000830184620007b1565b92915050565b61212d80620007ef6000396000f3fe608060405234801561001057600080fd5b50600436106101425760003560e01c8063715018a6116100b8578063a457c2d71161007c578063a457c2d71461032d578063a9059cbb1461035d578063d5abeb011461038d578063dd62ed3e146103ab578063f103b433146103db578063f2fde38b1461040b57610142565b8063715018a6146102c157806379cc6790146102cb5780638456cb59146102e75780638da5cb5b146102f157806395d89b411461030f57610142565b8063395093511161010a57806339509351146102015780633f4ba83a1461023157806340c10f191461023b57806342966c68146102575780635c975abb1461027357806370a082311461029157610142565b806306fdde0314610147578063095ea7b31461016557806318160ddd1461019557806323b872dd146101b3578063313ce567146101e3575b600080fd5b61014f610427565b60405161015c91906114af565b60405180910390f35b61017f600480360381019061017a919061156a565b6104b9565b60405161018c91906115c5565b60405180910390f35b61019d6104dc565b6040516101aa91906115ef565b60405180910390f35b6101cd60048036038101906101c8919061160a565b6104e6565b6040516101da91906115c5565b60405180910390f35b6101eb61051e565b6040516101f89190611679565b60405180910390f35b61021b6004803603810190610216919061156a565b610527565b60405161022891906115c5565b60405180910390f35b61023961055e565b005b6102556004803603810190610250919061156a565b610570565b005b610271600480360381019061026c9190611694565b6105cd565b005b61027b6105e1565b60405161028891906115c5565b60405180910390f35b6102ab60048036038101906102a691906116c1565b6105f7565b6040516102b891906115ef565b60405180910390f35b6102c9610640565b005b6102e560048036038101906102e0919061156a565b610654565b005b6102ef610674565b005b6102f9610686565b60405161030691906116fd565b60405180910390f35b6103176106af565b60405161032491906114af565b60405180910390f35b6103476004803603810190610342919061156a565b610741565b60405161035491906115c5565b60405180910390f35b6103776004803603810190610372919061156a565b6107b8565b60405161038491906115c5565b60405180910390f35b6103956107e4565b6040516103a291906115ef565b60405180910390f35b6103c560048036038101906103c09190611718565b6107ee565b6040516103d291906115ef565b60405180910390f35b6103f560048036038101906103f09190611694565b610875565b60405161040291906115c5565b60405180910390f35b610425600480360381019061042091906116c1565b610919565b005b60606001805461043690611787565b80601f016020809104026020016040519081016040528092919081815260200182805461046290611787565b80156104af5780601f10610484576101008083540402835291602001916104af565b820191906000526020600020905b81548152906001019060200180831161049257829003601f168201915b5050505050905090565b6000806104c461099c565b90506104d18185856109a4565b600191505092915050565b6000600354905090565b60006104f0610b6d565b60006104fa61099c565b9050610507858285610bb7565b610512858585610c43565b60019150509392505050565b60006012905090565b60008061053261099c565b905061055381858561054485896107ee565b61054e91906117e7565b6109a4565b600191505092915050565b610566610eaf565b61056e610f2d565b565b610578610eaf565b6105828282610f9b565b60045460035411156105c9576040517f08c379a00000000000000000000000000000000000000000000000000000000081526004016105c09061188d565b60405180910390fd5b5050565b6105de6105d861099c565b826110e3565b50565b60008060149054906101000a900460ff16905090565b6000600560008373ffffffffffffffffffffffffffffffffffffffff1673ffffffffffffffffffffffffffffffffffffffff168152602001908152602001600020549050919050565b610648610eaf565b61065260006112a3565b565b6106668261066061099c565b83610bb7565b61067082826110e3565b5050565b61067c610eaf565b610684611367565b565b60008060009054906101000a900473ffffffffffffffffffffffffffffffffffffffff16905090565b6060600280546106be90611787565b80601f01602080910402602001604051908101604052809291908181526020018280546106ea90611787565b80156107375780601f1061070c57610100808354040283529160200191610737565b820191906000526020600020905b81548152906001019060200180831161071a57829003601f168201915b5050505050905090565b60008061074c61099c565b9050600061075a82866107ee565b90508381101561079f576040517f08c379a00000000000000000000000000000000000000000000000000000000081526004016107969061191f565b60405180910390fd5b6107ac82868684036109a4565b60019250505092915050565b60006107c2610b6d565b60006107cc61099c565b90506107d9818585610c43565b600191505092915050565b6000600454905090565b6000600660008473ffffffffffffffffffffffffffffffffffffffff1673ffffffffffffffffffffffffffffffffffffffff16815260200190815260200160002060008373ffffffffffffffffffffffffffffffffffffffff1673ffffffffffffffffffffffffffffffffffffffff16815260200190815260200160002054905092915050565b600061087f610eaf565b600082116108c2576040517f08c379a00000000000000000000000000000000000000000000000000000000081526004016108b99061198b565b60405180910390fd5b816004819055506003546004541015610910576040517f08c379a0000000000000000000000000000000000000000000000000000000008152600401610907906119f7565b60405180910390fd5b60019050919050565b610921610eaf565b600073ffffffffffffffffffffffffffffffffffffffff168173ffffffffffffffffffffffffffffffffffffffff1603610990576040517f08c379a000000000000000000000000000000000000000000000000000000000815260040161098790611a89565b60405180910390fd5b610999816112a3565b50565b600033905090565b600073ffffffffffffffffffffffffffffffffffffffff168373ffffffffffffffffffffffffffffffffffffffff1603610a13576040517f08c379a0000000000000000000000000000000000000000000000000000000008152600401610a0a90611b1b565b60405180910390fd5b600073ffffffffffffffffffffffffffffffffffffffff168273ffffffffffffffffffffffffffffffffffffffff1603610a82576040517f08c379a0000000000000000000000000000000000000000000000000000000008152600401610a7990611bad565b60405180910390fd5b80600660008573ffffffffffffffffffffffffffffffffffffffff1673ffffffffffffffffffffffffffffffffffffffff16815260200190815260200160002060008473ffffffffffffffffffffffffffffffffffffffff1673ffffffffffffffffffffffffffffffffffffffff168152602001908152602001600020819055508173ffffffffffffffffffffffffffffffffffffffff168373ffffffffffffffffffffffffffffffffffffffff167f8c5be1e5ebec7d5bd14f71427d1e84f3dd0314c0f7b2291e5b200ac8c7c3b92583604051610b6091906115ef565b60405180910390a3505050565b610b756105e1565b15610bb5576040517f08c379a0000000000000000000000000000000000000000000000000000000008152600401610bac90611c19565b60405180910390fd5b565b6000610bc384846107ee565b90507fffffffffffffffffffffffffffffffffffffffffffffffffffffffffffffffff8114610c3d5781811015610c2f576040517f08c379a0000000000000000000000000000000000000000000000000000000008152600401610c2690611c85565b60405180910390fd5b610c3c84848484036109a4565b5b50505050565b600073ffffffffffffffffffffffffffffffffffffffff168373ffffffffffffffffffffffffffffffffffffffff1603610cb2576040517f08c379a0000000000000000000000000000000000000000000000000000000008152600401610ca990611d17565b60405180910390fd5b600073ffffffffffffffffffffffffffffffffffffffff168273ffffffffffffffffffffffffffffffffffffffff1603610d21576040517f08c379a0000000000000000000000000000000000000000000000000000000008152600401610d1890611da9565b60405180910390fd5b6000600560008573ffffffffffffffffffffffffffffffffffffffff1673ffffffffffffffffffffffffffffffffffffffff16815260200190815260200160002054905081811015610da8576040517f08c379a0000000000000000000000000000000000000000000000000000000008152600401610d9f90611e3b565b60405180910390fd5b818103600560008673ffffffffffffffffffffffffffffffffffffffff1673ffffffffffffffffffffffffffffffffffffffff1681526020019081526020016000208190555081600560008573ffffffffffffffffffffffffffffffffffffffff1673ffffffffffffffffffffffffffffffffffffffff1681526020019081526020016000206000828254610e3d91906117e7565b925050819055508273ffffffffffffffffffffffffffffffffffffffff168473ffffffffffffffffffffffffffffffffffffffff167fddf252ad1be2c89b69c2b068fc378daa952ba7f163c4a11628f55a4df523b3ef84604051610ea191906115ef565b60405180910390a350505050565b610eb761099c565b73ffffffffffffffffffffffffffffffffffffffff16610ed5610686565b73ffffffffffffffffffffffffffffffffffffffff1614610f2b576040517f08c379a0000000000000000000000000000000000000000000000000000000008152600401610f2290611ea7565b60405180910390fd5b565b610f356113d6565b60008060146101000a81548160ff021916908315150217905550610f5761099c565b73ffffffffffffffffffffffffffffffffffffffff167f5db9ee0a495bf2e6ff9c91a7834c1ba4fdd244a5e8aa4e537bd38aeae4b073aa60405160405180910390a2565b600073ffffffffffffffffffffffffffffffffffffffff168273ffffffffffffffffffffffffffffffffffffffff160361100a576040517f08c379a000000000000000000000000000000000000000000000000000000000815260040161100190611f13565b60405180910390fd5b806003600082825461101c91906117e7565b9250508190555080600560008473ffffffffffffffffffffffffffffffffffffffff1673ffffffffffffffffffffffffffffffffffffffff168152602001908152602001600020600082825461107291906117e7565b925050819055508173ffffffffffffffffffffffffffffffffffffffff16600073ffffffffffffffffffffffffffffffffffffffff167fddf252ad1be2c89b69c2b068fc378daa952ba7f163c4a11628f55a4df523b3ef836040516110d791906115ef565b60405180910390a35050565b600073ffffffffffffffffffffffffffffffffffffffff168273ffffffffffffffffffffffffffffffffffffffff1603611152576040517f08c379a000000000000000000000000000000000000000000000000000000000815260040161114990611fa5565b60405180910390fd5b6000600560008473ffffffffffffffffffffffffffffffffffffffff1673ffffffffffffffffffffffffffffffffffffffff168152602001908152602001600020549050818110156111d9576040517f08c379a00000000000000000000000000000000000000000000000000000000081526004016111d090612037565b60405180910390fd5b818103600560008573ffffffffffffffffffffffffffffffffffffffff1673ffffffffffffffffffffffffffffffffffffffff1681526020019081526020016000208190555081600360008282546112319190612057565b92505081905550600073ffffffffffffffffffffffffffffffffffffffff168373ffffffffffffffffffffffffffffffffffffffff167fddf252ad1be2c89b69c2b068fc378daa952ba7f163c4a11628f55a4df523b3ef8460405161129691906115ef565b60405180910390a3505050565b60008060009054906101000a900473ffffffffffffffffffffffffffffffffffffffff169050816000806101000a81548173ffffffffffffffffffffffffffffffffffffffff021916908373ffffffffffffffffffffffffffffffffffffffff1602179055508173ffffffffffffffffffffffffffffffffffffffff168173ffffffffffffffffffffffffffffffffffffffff167f8be0079c531659141344cd1fd0a4f28419497f9722a3daafe3b4186f6b6457e060405160405180910390a35050565b61136f610b6d565b6001600060146101000a81548160ff02191690831515021790555061139261099c565b73ffffffffffffffffffffffffffffffffffffffff167f62e78cea01bee320cd4e420270b5ea74000d11b0c9f74754ebdbfc544b05a25860405160405180910390a2565b6113de6105e1565b61141d576040517f08c379a0000000000000000000000000000000000000000000000000000000008152600401611414906120d7565b60405180910390fd5b565b600081519050919050565b600082825260208201905092915050565b60005b8381101561145957808201518184015260208101905061143e565b60008484015250505050565b6000601f19601f8301169050919050565b60006114818261141f565b61148b818561142a565b935061149b81856020860161143b565b6114a481611465565b840191505092915050565b600060208201905081810360008301526114c98184611476565b905092915050565b600080fd5b600073ffffffffffffffffffffffffffffffffffffffff82169050919050565b6000611501826114d6565b9050919050565b611511816114f6565b811461151c57600080fd5b50565b60008135905061152e81611508565b92915050565b6000819050919050565b61154781611534565b811461155257600080fd5b50565b6000813590506115648161153e565b92915050565b60008060408385031215611581576115806114d1565b5b600061158f8582860161151f565b92505060206115a085828601611555565b9150509250929050565b60008115159050919050565b6115bf816115aa565b82525050565b60006020820190506115da60008301846115b6565b92915050565b6115e981611534565b82525050565b600060208201905061160460008301846115e0565b92915050565b600080600060608486031215611623576116226114d1565b5b60006116318682870161151f565b93505060206116428682870161151f565b925050604061165386828701611555565b9150509250925092565b600060ff82169050919050565b6116738161165d565b82525050565b600060208201905061168e600083018461166a565b92915050565b6000602082840312156116aa576116a96114d1565b5b60006116b884828501611555565b91505092915050565b6000602082840312156116d7576116d66114d1565b5b60006116e58482850161151f565b91505092915050565b6116f7816114f6565b82525050565b600060208201905061171260008301846116ee565b92915050565b6000806040838503121561172f5761172e6114d1565b5b600061173d8582860161151f565b925050602061174e8582860161151f565b9150509250929050565b7f4e487b7100000000000000000000000000000000000000000000000000000000600052602260045260246000fd5b6000600282049050600182168061179f57607f821691505b6020821081036117b2576117b1611758565b5b50919050565b7f4e487b7100000000000000000000000000000000000000000000000000000000600052601160045260246000fd5b60006117f282611534565b91506117fd83611534565b9250828201905080821115611815576118146117b8565b5b92915050565b7f746f74616c537570706c792073686f756c64206265206c65737365722074686160008201527f6e206d6178537570706c79000000000000000000000000000000000000000000602082015250565b6000611877602b8361142a565b91506118828261181b565b604082019050919050565b600060208201905081810360008301526118a68161186a565b9050919050565b7f45524332303a2064656372656173656420616c6c6f77616e63652062656c6f7760008201527f207a65726f000000000000000000000000000000000000000000000000000000602082015250565b600061190960258361142a565b9150611914826118ad565b604082019050919050565b60006020820190508181036000830152611938816118fc565b9050919050565b7f496e76616c696420537570706c79000000000000000000000000000000000000600082015250565b6000611975600e8361142a565b91506119808261193f565b602082019050919050565b600060208201905081810360008301526119a481611968565b9050919050565b7f537570706c79206c6573736572207468616e20746f74616c537570706c790000600082015250565b60006119e1601e8361142a565b91506119ec826119ab565b602082019050919050565b60006020820190508181036000830152611a10816119d4565b9050919050565b7f4f776e61626c653a206e6577206f776e657220697320746865207a65726f206160008201527f6464726573730000000000000000000000000000000000000000000000000000602082015250565b6000611a7360268361142a565b9150611a7e82611a17565b604082019050919050565b60006020820190508181036000830152611aa281611a66565b9050919050565b7f45524332303a20617070726f76652066726f6d20746865207a65726f2061646460008201527f7265737300000000000000000000000000000000000000000000000000000000602082015250565b6000611b0560248361142a565b9150611b1082611aa9565b604082019050919050565b60006020820190508181036000830152611b3481611af8565b9050919050565b7f45524332303a20617070726f766520746f20746865207a65726f20616464726560008201527f7373000000000000000000000000000000000000000000000000000000000000602082015250565b6000611b9760228361142a565b9150611ba282611b3b565b604082019050919050565b60006020820190508181036000830152611bc681611b8a565b9050919050565b7f5061757361626c653a2070617573656400000000000000000000000000000000600082015250565b6000611c0360108361142a565b9150611c0e82611bcd565b602082019050919050565b60006020820190508181036000830152611c3281611bf6565b9050919050565b7f45524332303a20696e73756666696369656e7420616c6c6f77616e6365000000600082015250565b6000611c6f601d8361142a565b9150611c7a82611c39565b602082019050919050565b60006020820190508181036000830152611c9e81611c62565b9050919050565b7f45524332303a207472616e736665722066726f6d20746865207a65726f20616460008201527f6472657373000000000000000000000000000000000000000000000000000000602082015250565b6000611d0160258361142a565b9150611d0c82611ca5565b604082019050919050565b60006020820190508181036000830152611d3081611cf4565b9050919050565b7f45524332303a207472616e7366657220746f20746865207a65726f206164647260008201527f6573730000000000000000000000000000000000000000000000000000000000602082015250565b6000611d9360238361142a565b9150611d9e82611d37565b604082019050919050565b60006020820190508181036000830152611dc281611d86565b9050919050565b7f45524332303a207472616e7366657220616d6f756e742065786365656473206260008201527f616c616e63650000000000000000000000000000000000000000000000000000602082015250565b6000611e2560268361142a565b9150611e3082611dc9565b604082019050919050565b60006020820190508181036000830152611e5481611e18565b9050919050565b7f4f776e61626c653a2063616c6c6572206973206e6f7420746865206f776e6572600082015250565b6000611e9160208361142a565b9150611e9c82611e5b565b602082019050919050565b60006020820190508181036000830152611ec081611e84565b9050919050565b7f45524332303a206d696e7420746f20746865207a65726f206164647265737300600082015250565b6000611efd601f8361142a565b9150611f0882611ec7565b602082019050919050565b60006020820190508181036000830152611f2c81611ef0565b9050919050565b7f45524332303a206275726e2066726f6d20746865207a65726f2061646472657360008201527f7300000000000000000000000000000000000000000000000000000000000000602082015250565b6000611f8f60218361142a565b9150611f9a82611f33565b604082019050919050565b60006020820190508181036000830152611fbe81611f82565b9050919050565b7f45524332303a206275726e20616d6f756e7420657863656564732062616c616e60008201527f6365000000000000000000000000000000000000000000000000000000000000602082015250565b600061202160228361142a565b915061202c82611fc5565b604082019050919050565b6000602082019050818103600083015261205081612014565b9050919050565b600061206282611534565b915061206d83611534565b9250828203905081811115612085576120846117b8565b5b92915050565b7f5061757361626c653a206e6f7420706175736564000000000000000000000000600082015250565b60006120c160148361142a565b91506120cc8261208b565b602082019050919050565b600060208201905081810360008301526120f0816120b4565b905091905056fea26469706673582212205eb321507940b86123f0f849aa32ab2e4b6ad32702ca12f0589698839e10893b64736f6c63430008110033",
					"opcodes": "PUSH1 0x80 PUSH1 0x40 MSTORE PUSH1 0x40 MLOAD DUP1 PUSH1 0x40 ADD PUSH1 0x40 MSTORE DUP1 PUSH1 0x8 DUP2 MSTORE PUSH1 0x20 ADD PUSH32 0x4D5920574F524C44000000000000000000000000000000000000000000000000 DUP2 MSTORE POP PUSH1 0x1 SWAP1 DUP2 PUSH3 0x4A SWAP2 SWAP1 PUSH3 0x5DD JUMP JUMPDEST POP PUSH1 0x40 MLOAD DUP1 PUSH1 0x40 ADD PUSH1 0x40 MSTORE DUP1 PUSH1 0x2 DUP2 MSTORE PUSH1 0x20 ADD PUSH32 0x4D57000000000000000000000000000000000000000000000000000000000000 DUP2 MSTORE POP PUSH1 0x2 SWAP1 DUP2 PUSH3 0x91 SWAP2 SWAP1 PUSH3 0x5DD JUMP JUMPDEST POP PUSH12 0x15A0E412003178F897640000 PUSH1 0x4 SSTORE CALLVALUE DUP1 ISZERO PUSH3 0xAF JUMPI PUSH1 0x0 DUP1 REVERT JUMPDEST POP PUSH3 0xD0 PUSH3 0xC4 PUSH3 0x11D PUSH1 0x20 SHL PUSH1 0x20 SHR JUMP JUMPDEST PUSH3 0x125 PUSH1 0x20 SHL PUSH1 0x20 SHR JUMP JUMPDEST PUSH1 0x0 DUP1 PUSH1 0x14 PUSH2 0x100 EXP DUP2 SLOAD DUP2 PUSH1 0xFF MUL NOT AND SWAP1 DUP4 ISZERO ISZERO MUL OR SWAP1 SSTORE POP PUSH3 0x117 PUSH3 0xFE PUSH3 0x1E9 PUSH1 0x20 SHL PUSH1 0x20 SHR JUMP JUMPDEST PUSH12 0xBEF595C20BFF841DF640000 PUSH3 0x212 PUSH1 0x20 SHL PUSH1 0x20 SHR JUMP JUMPDEST PUSH3 0x7DF JUMP JUMPDEST PUSH1 0x0 CALLER SWAP1 POP SWAP1 JUMP JUMPDEST PUSH1 0x0 DUP1 PUSH1 0x0 SWAP1 SLOAD SWAP1 PUSH2 0x100 EXP SWAP1 DIV PUSH20 0xFFFFFFFFFFFFFFFFFFFFFFFFFFFFFFFFFFFFFFFF AND SWAP1 POP DUP2 PUSH1 0x0 DUP1 PUSH2 0x100 EXP DUP2 SLOAD DUP2 PUSH20 0xFFFFFFFFFFFFFFFFFFFFFFFFFFFFFFFFFFFFFFFF MUL NOT AND SWAP1 DUP4 PUSH20 0xFFFFFFFFFFFFFFFFFFFFFFFFFFFFFFFFFFFFFFFF AND MUL OR SWAP1 SSTORE POP DUP2 PUSH20 0xFFFFFFFFFFFFFFFFFFFFFFFFFFFFFFFFFFFFFFFF AND DUP2 PUSH20 0xFFFFFFFFFFFFFFFFFFFFFFFFFFFFFFFFFFFFFFFF AND PUSH32 0x8BE0079C531659141344CD1FD0A4F28419497F9722A3DAAFE3B4186F6B6457E0 PUSH1 0x40 MLOAD PUSH1 0x40 MLOAD DUP1 SWAP2 SUB SWAP1 LOG3 POP POP JUMP JUMPDEST PUSH1 0x0 DUP1 PUSH1 0x0 SWAP1 SLOAD SWAP1 PUSH2 0x100 EXP SWAP1 DIV PUSH20 0xFFFFFFFFFFFFFFFFFFFFFFFFFFFFFFFFFFFFFFFF AND SWAP1 POP SWAP1 JUMP JUMPDEST PUSH1 0x0 PUSH20 0xFFFFFFFFFFFFFFFFFFFFFFFFFFFFFFFFFFFFFFFF AND DUP3 PUSH20 0xFFFFFFFFFFFFFFFFFFFFFFFFFFFFFFFFFFFFFFFF AND SUB PUSH3 0x284 JUMPI PUSH1 0x40 MLOAD PUSH32 0x8C379A000000000000000000000000000000000000000000000000000000000 DUP2 MSTORE PUSH1 0x4 ADD PUSH3 0x27B SWAP1 PUSH3 0x725 JUMP JUMPDEST PUSH1 0x40 MLOAD DUP1 SWAP2 SUB SWAP1 REVERT JUMPDEST DUP1 PUSH1 0x3 PUSH1 0x0 DUP3 DUP3 SLOAD PUSH3 0x298 SWAP2 SWAP1 PUSH3 0x776 JUMP JUMPDEST SWAP3 POP POP DUP2 SWAP1 SSTORE POP DUP1 PUSH1 0x5 PUSH1 0x0 DUP5 PUSH20 0xFFFFFFFFFFFFFFFFFFFFFFFFFFFFFFFFFFFFFFFF AND PUSH20 0xFFFFFFFFFFFFFFFFFFFFFFFFFFFFFFFFFFFFFFFF AND DUP2 MSTORE PUSH1 0x20 ADD SWAP1 DUP2 MSTORE PUSH1 0x20 ADD PUSH1 0x0 KECCAK256 PUSH1 0x0 DUP3 DUP3 SLOAD PUSH3 0x2F0 SWAP2 SWAP1 PUSH3 0x776 JUMP JUMPDEST SWAP3 POP POP DUP2 SWAP1 SSTORE POP DUP2 PUSH20 0xFFFFFFFFFFFFFFFFFFFFFFFFFFFFFFFFFFFFFFFF AND PUSH1 0x0 PUSH20 0xFFFFFFFFFFFFFFFFFFFFFFFFFFFFFFFFFFFFFFFF AND PUSH32 0xDDF252AD1BE2C89B69C2B068FC378DAA952BA7F163C4A11628F55A4DF523B3EF DUP4 PUSH1 0x40 MLOAD PUSH3 0x357 SWAP2 SWAP1 PUSH3 0x7C2 JUMP JUMPDEST PUSH1 0x40 MLOAD DUP1 SWAP2 SUB SWAP1 LOG3 POP POP JUMP JUMPDEST PUSH1 0x0 DUP2 MLOAD SWAP1 POP SWAP2 SWAP1 POP JUMP JUMPDEST PUSH32 0x4E487B7100000000000000000000000000000000000000000000000000000000 PUSH1 0x0 MSTORE PUSH1 0x41 PUSH1 0x4 MSTORE PUSH1 0x24 PUSH1 0x0 REVERT JUMPDEST PUSH32 0x4E487B7100000000000000000000000000000000000000000000000000000000 PUSH1 0x0 MSTORE PUSH1 0x22 PUSH1 0x4 MSTORE PUSH1 0x24 PUSH1 0x0 REVERT JUMPDEST PUSH1 0x0 PUSH1 0x2 DUP3 DIV SWAP1 POP PUSH1 0x1 DUP3 AND DUP1 PUSH3 0x3E5 JUMPI PUSH1 0x7F DUP3 AND SWAP2 POP JUMPDEST PUSH1 0x20 DUP3 LT DUP2 SUB PUSH3 0x3FB JUMPI PUSH3 0x3FA PUSH3 0x39D JUMP JUMPDEST JUMPDEST POP SWAP2 SWAP1 POP JUMP JUMPDEST PUSH1 0x0 DUP2 SWAP1 POP DUP2 PUSH1 0x0 MSTORE PUSH1 0x20 PUSH1 0x0 KECCAK256 SWAP1 POP SWAP2 SWAP1 POP JUMP JUMPDEST PUSH1 0x0 PUSH1 0x20 PUSH1 0x1F DUP4 ADD DIV SWAP1 POP SWAP2 SWAP1 POP JUMP JUMPDEST PUSH1 0x0 DUP3 DUP3 SHL SWAP1 POP SWAP3 SWAP2 POP POP JUMP JUMPDEST PUSH1 0x0 PUSH1 0x8 DUP4 MUL PUSH3 0x465 PUSH32 0xFFFFFFFFFFFFFFFFFFFFFFFFFFFFFFFFFFFFFFFFFFFFFFFFFFFFFFFFFFFFFFFF DUP3 PUSH3 0x426 JUMP JUMPDEST PUSH3 0x471 DUP7 DUP4 PUSH3 0x426 JUMP JUMPDEST SWAP6 POP DUP1 NOT DUP5 AND SWAP4 POP DUP1 DUP7 AND DUP5 OR SWAP3 POP POP POP SWAP4 SWAP3 POP POP POP JUMP JUMPDEST PUSH1 0x0 DUP2 SWAP1 POP SWAP2 SWAP1 POP JUMP JUMPDEST PUSH1 0x0 DUP2 SWAP1 POP SWAP2 SWAP1 POP JUMP JUMPDEST PUSH1 0x0 PUSH3 0x4BE PUSH3 0x4B8 PUSH3 0x4B2 DUP5 PUSH3 0x489 JUMP JUMPDEST PUSH3 0x493 JUMP JUMPDEST PUSH3 0x489 JUMP JUMPDEST SWAP1 POP SWAP2 SWAP1 POP JUMP JUMPDEST PUSH1 0x0 DUP2 SWAP1 POP SWAP2 SWAP1 POP JUMP JUMPDEST PUSH3 0x4DA DUP4 PUSH3 0x49D JUMP JUMPDEST PUSH3 0x4F2 PUSH3 0x4E9 DUP3 PUSH3 0x4C5 JUMP JUMPDEST DUP5 DUP5 SLOAD PUSH3 0x433 JUMP JUMPDEST DUP3 SSTORE POP POP POP POP JUMP JUMPDEST PUSH1 0x0 SWAP1 JUMP JUMPDEST PUSH3 0x509 PUSH3 0x4FA JUMP JUMPDEST PUSH3 0x516 DUP2 DUP5 DUP5 PUSH3 0x4CF JUMP JUMPDEST POP POP POP JUMP JUMPDEST JUMPDEST DUP2 DUP2 LT ISZERO PUSH3 0x53E JUMPI PUSH3 0x532 PUSH1 0x0 DUP3 PUSH3 0x4FF JUMP JUMPDEST PUSH1 0x1 DUP2 ADD SWAP1 POP PUSH3 0x51C JUMP JUMPDEST POP POP JUMP JUMPDEST PUSH1 0x1F DUP3 GT ISZERO PUSH3 0x58D JUMPI PUSH3 0x557 DUP2 PUSH3 0x401 JUMP JUMPDEST PUSH3 0x562 DUP5 PUSH3 0x416 JUMP JUMPDEST DUP2 ADD PUSH1 0x20 DUP6 LT ISZERO PUSH3 0x572 JUMPI DUP2 SWAP1 POP JUMPDEST PUSH3 0x58A PUSH3 0x581 DUP6 PUSH3 0x416 JUMP JUMPDEST DUP4 ADD DUP3 PUSH3 0x51B JUMP JUMPDEST POP POP JUMPDEST POP POP POP JUMP JUMPDEST PUSH1 0x0 DUP3 DUP3 SHR SWAP1 POP SWAP3 SWAP2 POP POP JUMP JUMPDEST PUSH1 0x0 PUSH3 0x5B2 PUSH1 0x0 NOT DUP5 PUSH1 0x8 MUL PUSH3 0x592 JUMP JUMPDEST NOT DUP1 DUP4 AND SWAP2 POP POP SWAP3 SWAP2 POP POP JUMP JUMPDEST PUSH1 0x0 PUSH3 0x5CD DUP4 DUP4 PUSH3 0x59F JUMP JUMPDEST SWAP2 POP DUP3 PUSH1 0x2 MUL DUP3 OR SWAP1 POP SWAP3 SWAP2 POP POP JUMP JUMPDEST PUSH3 0x5E8 DUP3 PUSH3 0x363 JUMP JUMPDEST PUSH8 0xFFFFFFFFFFFFFFFF DUP2 GT ISZERO PUSH3 0x604 JUMPI PUSH3 0x603 PUSH3 0x36E JUMP JUMPDEST JUMPDEST PUSH3 0x610 DUP3 SLOAD PUSH3 0x3CC JUMP JUMPDEST PUSH3 0x61D DUP3 DUP3 DUP6 PUSH3 0x542 JUMP JUMPDEST PUSH1 0x0 PUSH1 0x20 SWAP1 POP PUSH1 0x1F DUP4 GT PUSH1 0x1 DUP2 EQ PUSH3 0x655 JUMPI PUSH1 0x0 DUP5 ISZERO PUSH3 0x640 JUMPI DUP3 DUP8 ADD MLOAD SWAP1 POP JUMPDEST PUSH3 0x64C DUP6 DUP3 PUSH3 0x5BF JUMP JUMPDEST DUP7 SSTORE POP PUSH3 0x6BC JUMP JUMPDEST PUSH1 0x1F NOT DUP5 AND PUSH3 0x665 DUP7 PUSH3 0x401 JUMP JUMPDEST PUSH1 0x0 JUMPDEST DUP3 DUP2 LT ISZERO PUSH3 0x68F JUMPI DUP5 DUP10 ADD MLOAD DUP3 SSTORE PUSH1 0x1 DUP3 ADD SWAP2 POP PUSH1 0x20 DUP6 ADD SWAP5 POP PUSH1 0x20 DUP2 ADD SWAP1 POP PUSH3 0x668 JUMP JUMPDEST DUP7 DUP4 LT ISZERO PUSH3 0x6AF JUMPI DUP5 DUP10 ADD MLOAD PUSH3 0x6AB PUSH1 0x1F DUP10 AND DUP3 PUSH3 0x59F JUMP JUMPDEST DUP4 SSTORE POP JUMPDEST PUSH1 0x1 PUSH1 0x2 DUP9 MUL ADD DUP9 SSTORE POP POP POP JUMPDEST POP POP POP POP POP POP JUMP JUMPDEST PUSH1 0x0 DUP3 DUP3 MSTORE PUSH1 0x20 DUP3 ADD SWAP1 POP SWAP3 SWAP2 POP POP JUMP JUMPDEST PUSH32 0x45524332303A206D696E7420746F20746865207A65726F206164647265737300 PUSH1 0x0 DUP3 ADD MSTORE POP JUMP JUMPDEST PUSH1 0x0 PUSH3 0x70D PUSH1 0x1F DUP4 PUSH3 0x6C4 JUMP JUMPDEST SWAP2 POP PUSH3 0x71A DUP3 PUSH3 0x6D5 JUMP JUMPDEST PUSH1 0x20 DUP3 ADD SWAP1 POP SWAP2 SWAP1 POP JUMP JUMPDEST PUSH1 0x0 PUSH1 0x20 DUP3 ADD SWAP1 POP DUP2 DUP2 SUB PUSH1 0x0 DUP4 ADD MSTORE PUSH3 0x740 DUP2 PUSH3 0x6FE JUMP JUMPDEST SWAP1 POP SWAP2 SWAP1 POP JUMP JUMPDEST PUSH32 0x4E487B7100000000000000000000000000000000000000000000000000000000 PUSH1 0x0 MSTORE PUSH1 0x11 PUSH1 0x4 MSTORE PUSH1 0x24 PUSH1 0x0 REVERT JUMPDEST PUSH1 0x0 PUSH3 0x783 DUP3 PUSH3 0x489 JUMP JUMPDEST SWAP2 POP PUSH3 0x790 DUP4 PUSH3 0x489 JUMP JUMPDEST SWAP3 POP DUP3 DUP3 ADD SWAP1 POP DUP1 DUP3 GT ISZERO PUSH3 0x7AB JUMPI PUSH3 0x7AA PUSH3 0x747 JUMP JUMPDEST JUMPDEST SWAP3 SWAP2 POP POP JUMP JUMPDEST PUSH3 0x7BC DUP2 PUSH3 0x489 JUMP JUMPDEST DUP3 MSTORE POP POP JUMP JUMPDEST PUSH1 0x0 PUSH1 0x20 DUP3 ADD SWAP1 POP PUSH3 0x7D9 PUSH1 0x0 DUP4 ADD DUP5 PUSH3 0x7B1 JUMP JUMPDEST SWAP3 SWAP2 POP POP JUMP JUMPDEST PUSH2 0x212D DUP1 PUSH3 0x7EF PUSH1 0x0 CODECOPY PUSH1 0x0 RETURN INVALID PUSH1 0x80 PUSH1 0x40 MSTORE CALLVALUE DUP1 ISZERO PUSH2 0x10 JUMPI PUSH1 0x0 DUP1 REVERT JUMPDEST POP PUSH1 0x4 CALLDATASIZE LT PUSH2 0x142 JUMPI PUSH1 0x0 CALLDATALOAD PUSH1 0xE0 SHR DUP1 PUSH4 0x715018A6 GT PUSH2 0xB8 JUMPI DUP1 PUSH4 0xA457C2D7 GT PUSH2 0x7C JUMPI DUP1 PUSH4 0xA457C2D7 EQ PUSH2 0x32D JUMPI DUP1 PUSH4 0xA9059CBB EQ PUSH2 0x35D JUMPI DUP1 PUSH4 0xD5ABEB01 EQ PUSH2 0x38D JUMPI DUP1 PUSH4 0xDD62ED3E EQ PUSH2 0x3AB JUMPI DUP1 PUSH4 0xF103B433 EQ PUSH2 0x3DB JUMPI DUP1 PUSH4 0xF2FDE38B EQ PUSH2 0x40B JUMPI PUSH2 0x142 JUMP JUMPDEST DUP1 PUSH4 0x715018A6 EQ PUSH2 0x2C1 JUMPI DUP1 PUSH4 0x79CC6790 EQ PUSH2 0x2CB JUMPI DUP1 PUSH4 0x8456CB59 EQ PUSH2 0x2E7 JUMPI DUP1 PUSH4 0x8DA5CB5B EQ PUSH2 0x2F1 JUMPI DUP1 PUSH4 0x95D89B41 EQ PUSH2 0x30F JUMPI PUSH2 0x142 JUMP JUMPDEST DUP1 PUSH4 0x39509351 GT PUSH2 0x10A JUMPI DUP1 PUSH4 0x39509351 EQ PUSH2 0x201 JUMPI DUP1 PUSH4 0x3F4BA83A EQ PUSH2 0x231 JUMPI DUP1 PUSH4 0x40C10F19 EQ PUSH2 0x23B JUMPI DUP1 PUSH4 0x42966C68 EQ PUSH2 0x257 JUMPI DUP1 PUSH4 0x5C975ABB EQ PUSH2 0x273 JUMPI DUP1 PUSH4 0x70A08231 EQ PUSH2 0x291 JUMPI PUSH2 0x142 JUMP JUMPDEST DUP1 PUSH4 0x6FDDE03 EQ PUSH2 0x147 JUMPI DUP1 PUSH4 0x95EA7B3 EQ PUSH2 0x165 JUMPI DUP1 PUSH4 0x18160DDD EQ PUSH2 0x195 JUMPI DUP1 PUSH4 0x23B872DD EQ PUSH2 0x1B3 JUMPI DUP1 PUSH4 0x313CE567 EQ PUSH2 0x1E3 JUMPI JUMPDEST PUSH1 0x0 DUP1 REVERT JUMPDEST PUSH2 0x14F PUSH2 0x427 JUMP JUMPDEST PUSH1 0x40 MLOAD PUSH2 0x15C SWAP2 SWAP1 PUSH2 0x14AF JUMP JUMPDEST PUSH1 0x40 MLOAD DUP1 SWAP2 SUB SWAP1 RETURN JUMPDEST PUSH2 0x17F PUSH1 0x4 DUP1 CALLDATASIZE SUB DUP2 ADD SWAP1 PUSH2 0x17A SWAP2 SWAP1 PUSH2 0x156A JUMP JUMPDEST PUSH2 0x4B9 JUMP JUMPDEST PUSH1 0x40 MLOAD PUSH2 0x18C SWAP2 SWAP1 PUSH2 0x15C5 JUMP JUMPDEST PUSH1 0x40 MLOAD DUP1 SWAP2 SUB SWAP1 RETURN JUMPDEST PUSH2 0x19D PUSH2 0x4DC JUMP JUMPDEST PUSH1 0x40 MLOAD PUSH2 0x1AA SWAP2 SWAP1 PUSH2 0x15EF JUMP JUMPDEST PUSH1 0x40 MLOAD DUP1 SWAP2 SUB SWAP1 RETURN JUMPDEST PUSH2 0x1CD PUSH1 0x4 DUP1 CALLDATASIZE SUB DUP2 ADD SWAP1 PUSH2 0x1C8 SWAP2 SWAP1 PUSH2 0x160A JUMP JUMPDEST PUSH2 0x4E6 JUMP JUMPDEST PUSH1 0x40 MLOAD PUSH2 0x1DA SWAP2 SWAP1 PUSH2 0x15C5 JUMP JUMPDEST PUSH1 0x40 MLOAD DUP1 SWAP2 SUB SWAP1 RETURN JUMPDEST PUSH2 0x1EB PUSH2 0x51E JUMP JUMPDEST PUSH1 0x40 MLOAD PUSH2 0x1F8 SWAP2 SWAP1 PUSH2 0x1679 JUMP JUMPDEST PUSH1 0x40 MLOAD DUP1 SWAP2 SUB SWAP1 RETURN JUMPDEST PUSH2 0x21B PUSH1 0x4 DUP1 CALLDATASIZE SUB DUP2 ADD SWAP1 PUSH2 0x216 SWAP2 SWAP1 PUSH2 0x156A JUMP JUMPDEST PUSH2 0x527 JUMP JUMPDEST PUSH1 0x40 MLOAD PUSH2 0x228 SWAP2 SWAP1 PUSH2 0x15C5 JUMP JUMPDEST PUSH1 0x40 MLOAD DUP1 SWAP2 SUB SWAP1 RETURN JUMPDEST PUSH2 0x239 PUSH2 0x55E JUMP JUMPDEST STOP JUMPDEST PUSH2 0x255 PUSH1 0x4 DUP1 CALLDATASIZE SUB DUP2 ADD SWAP1 PUSH2 0x250 SWAP2 SWAP1 PUSH2 0x156A JUMP JUMPDEST PUSH2 0x570 JUMP JUMPDEST STOP JUMPDEST PUSH2 0x271 PUSH1 0x4 DUP1 CALLDATASIZE SUB DUP2 ADD SWAP1 PUSH2 0x26C SWAP2 SWAP1 PUSH2 0x1694 JUMP JUMPDEST PUSH2 0x5CD JUMP JUMPDEST STOP JUMPDEST PUSH2 0x27B PUSH2 0x5E1 JUMP JUMPDEST PUSH1 0x40 MLOAD PUSH2 0x288 SWAP2 SWAP1 PUSH2 0x15C5 JUMP JUMPDEST PUSH1 0x40 MLOAD DUP1 SWAP2 SUB SWAP1 RETURN JUMPDEST PUSH2 0x2AB PUSH1 0x4 DUP1 CALLDATASIZE SUB DUP2 ADD SWAP1 PUSH2 0x2A6 SWAP2 SWAP1 PUSH2 0x16C1 JUMP JUMPDEST PUSH2 0x5F7 JUMP JUMPDEST PUSH1 0x40 MLOAD PUSH2 0x2B8 SWAP2 SWAP1 PUSH2 0x15EF JUMP JUMPDEST PUSH1 0x40 MLOAD DUP1 SWAP2 SUB SWAP1 RETURN JUMPDEST PUSH2 0x2C9 PUSH2 0x640 JUMP JUMPDEST STOP JUMPDEST PUSH2 0x2E5 PUSH1 0x4 DUP1 CALLDATASIZE SUB DUP2 ADD SWAP1 PUSH2 0x2E0 SWAP2 SWAP1 PUSH2 0x156A JUMP JUMPDEST PUSH2 0x654 JUMP JUMPDEST STOP JUMPDEST PUSH2 0x2EF PUSH2 0x674 JUMP JUMPDEST STOP JUMPDEST PUSH2 0x2F9 PUSH2 0x686 JUMP JUMPDEST PUSH1 0x40 MLOAD PUSH2 0x306 SWAP2 SWAP1 PUSH2 0x16FD JUMP JUMPDEST PUSH1 0x40 MLOAD DUP1 SWAP2 SUB SWAP1 RETURN JUMPDEST PUSH2 0x317 PUSH2 0x6AF JUMP JUMPDEST PUSH1 0x40 MLOAD PUSH2 0x324 SWAP2 SWAP1 PUSH2 0x14AF JUMP JUMPDEST PUSH1 0x40 MLOAD DUP1 SWAP2 SUB SWAP1 RETURN JUMPDEST PUSH2 0x347 PUSH1 0x4 DUP1 CALLDATASIZE SUB DUP2 ADD SWAP1 PUSH2 0x342 SWAP2 SWAP1 PUSH2 0x156A JUMP JUMPDEST PUSH2 0x741 JUMP JUMPDEST PUSH1 0x40 MLOAD PUSH2 0x354 SWAP2 SWAP1 PUSH2 0x15C5 JUMP JUMPDEST PUSH1 0x40 MLOAD DUP1 SWAP2 SUB SWAP1 RETURN JUMPDEST PUSH2 0x377 PUSH1 0x4 DUP1 CALLDATASIZE SUB DUP2 ADD SWAP1 PUSH2 0x372 SWAP2 SWAP1 PUSH2 0x156A JUMP JUMPDEST PUSH2 0x7B8 JUMP JUMPDEST PUSH1 0x40 MLOAD PUSH2 0x384 SWAP2 SWAP1 PUSH2 0x15C5 JUMP JUMPDEST PUSH1 0x40 MLOAD DUP1 SWAP2 SUB SWAP1 RETURN JUMPDEST PUSH2 0x395 PUSH2 0x7E4 JUMP JUMPDEST PUSH1 0x40 MLOAD PUSH2 0x3A2 SWAP2 SWAP1 PUSH2 0x15EF JUMP JUMPDEST PUSH1 0x40 MLOAD DUP1 SWAP2 SUB SWAP1 RETURN JUMPDEST PUSH2 0x3C5 PUSH1 0x4 DUP1 CALLDATASIZE SUB DUP2 ADD SWAP1 PUSH2 0x3C0 SWAP2 SWAP1 PUSH2 0x1718 JUMP JUMPDEST PUSH2 0x7EE JUMP JUMPDEST PUSH1 0x40 MLOAD PUSH2 0x3D2 SWAP2 SWAP1 PUSH2 0x15EF JUMP JUMPDEST PUSH1 0x40 MLOAD DUP1 SWAP2 SUB SWAP1 RETURN JUMPDEST PUSH2 0x3F5 PUSH1 0x4 DUP1 CALLDATASIZE SUB DUP2 ADD SWAP1 PUSH2 0x3F0 SWAP2 SWAP1 PUSH2 0x1694 JUMP JUMPDEST PUSH2 0x875 JUMP JUMPDEST PUSH1 0x40 MLOAD PUSH2 0x402 SWAP2 SWAP1 PUSH2 0x15C5 JUMP JUMPDEST PUSH1 0x40 MLOAD DUP1 SWAP2 SUB SWAP1 RETURN JUMPDEST PUSH2 0x425 PUSH1 0x4 DUP1 CALLDATASIZE SUB DUP2 ADD SWAP1 PUSH2 0x420 SWAP2 SWAP1 PUSH2 0x16C1 JUMP JUMPDEST PUSH2 0x919 JUMP JUMPDEST STOP JUMPDEST PUSH1 0x60 PUSH1 0x1 DUP1 SLOAD PUSH2 0x436 SWAP1 PUSH2 0x1787 JUMP JUMPDEST DUP1 PUSH1 0x1F ADD PUSH1 0x20 DUP1 SWAP2 DIV MUL PUSH1 0x20 ADD PUSH1 0x40 MLOAD SWAP1 DUP2 ADD PUSH1 0x40 MSTORE DUP1 SWAP3 SWAP2 SWAP1 DUP2 DUP2 MSTORE PUSH1 0x20 ADD DUP3 DUP1 SLOAD PUSH2 0x462 SWAP1 PUSH2 0x1787 JUMP JUMPDEST DUP1 ISZERO PUSH2 0x4AF JUMPI DUP1 PUSH1 0x1F LT PUSH2 0x484 JUMPI PUSH2 0x100 DUP1 DUP4 SLOAD DIV MUL DUP4 MSTORE SWAP2 PUSH1 0x20 ADD SWAP2 PUSH2 0x4AF JUMP JUMPDEST DUP3 ADD SWAP2 SWAP1 PUSH1 0x0 MSTORE PUSH1 0x20 PUSH1 0x0 KECCAK256 SWAP1 JUMPDEST DUP2 SLOAD DUP2 MSTORE SWAP1 PUSH1 0x1 ADD SWAP1 PUSH1 0x20 ADD DUP1 DUP4 GT PUSH2 0x492 JUMPI DUP3 SWAP1 SUB PUSH1 0x1F AND DUP3 ADD SWAP2 JUMPDEST POP POP POP POP POP SWAP1 POP SWAP1 JUMP JUMPDEST PUSH1 0x0 DUP1 PUSH2 0x4C4 PUSH2 0x99C JUMP JUMPDEST SWAP1 POP PUSH2 0x4D1 DUP2 DUP6 DUP6 PUSH2 0x9A4 JUMP JUMPDEST PUSH1 0x1 SWAP2 POP POP SWAP3 SWAP2 POP POP JUMP JUMPDEST PUSH1 0x0 PUSH1 0x3 SLOAD SWAP1 POP SWAP1 JUMP JUMPDEST PUSH1 0x0 PUSH2 0x4F0 PUSH2 0xB6D JUMP JUMPDEST PUSH1 0x0 PUSH2 0x4FA PUSH2 0x99C JUMP JUMPDEST SWAP1 POP PUSH2 0x507 DUP6 DUP3 DUP6 PUSH2 0xBB7 JUMP JUMPDEST PUSH2 0x512 DUP6 DUP6 DUP6 PUSH2 0xC43 JUMP JUMPDEST PUSH1 0x1 SWAP2 POP POP SWAP4 SWAP3 POP POP POP JUMP JUMPDEST PUSH1 0x0 PUSH1 0x12 SWAP1 POP SWAP1 JUMP JUMPDEST PUSH1 0x0 DUP1 PUSH2 0x532 PUSH2 0x99C JUMP JUMPDEST SWAP1 POP PUSH2 0x553 DUP2 DUP6 DUP6 PUSH2 0x544 DUP6 DUP10 PUSH2 0x7EE JUMP JUMPDEST PUSH2 0x54E SWAP2 SWAP1 PUSH2 0x17E7 JUMP JUMPDEST PUSH2 0x9A4 JUMP JUMPDEST PUSH1 0x1 SWAP2 POP POP SWAP3 SWAP2 POP POP JUMP JUMPDEST PUSH2 0x566 PUSH2 0xEAF JUMP JUMPDEST PUSH2 0x56E PUSH2 0xF2D JUMP JUMPDEST JUMP JUMPDEST PUSH2 0x578 PUSH2 0xEAF JUMP JUMPDEST PUSH2 0x582 DUP3 DUP3 PUSH2 0xF9B JUMP JUMPDEST PUSH1 0x4 SLOAD PUSH1 0x3 SLOAD GT ISZERO PUSH2 0x5C9 JUMPI PUSH1 0x40 MLOAD PUSH32 0x8C379A000000000000000000000000000000000000000000000000000000000 DUP2 MSTORE PUSH1 0x4 ADD PUSH2 0x5C0 SWAP1 PUSH2 0x188D JUMP JUMPDEST PUSH1 0x40 MLOAD DUP1 SWAP2 SUB SWAP1 REVERT JUMPDEST POP POP JUMP JUMPDEST PUSH2 0x5DE PUSH2 0x5D8 PUSH2 0x99C JUMP JUMPDEST DUP3 PUSH2 0x10E3 JUMP JUMPDEST POP JUMP JUMPDEST PUSH1 0x0 DUP1 PUSH1 0x14 SWAP1 SLOAD SWAP1 PUSH2 0x100 EXP SWAP1 DIV PUSH1 0xFF AND SWAP1 POP SWAP1 JUMP JUMPDEST PUSH1 0x0 PUSH1 0x5 PUSH1 0x0 DUP4 PUSH20 0xFFFFFFFFFFFFFFFFFFFFFFFFFFFFFFFFFFFFFFFF AND PUSH20 0xFFFFFFFFFFFFFFFFFFFFFFFFFFFFFFFFFFFFFFFF AND DUP2 MSTORE PUSH1 0x20 ADD SWAP1 DUP2 MSTORE PUSH1 0x20 ADD PUSH1 0x0 KECCAK256 SLOAD SWAP1 POP SWAP2 SWAP1 POP JUMP JUMPDEST PUSH2 0x648 PUSH2 0xEAF JUMP JUMPDEST PUSH2 0x652 PUSH1 0x0 PUSH2 0x12A3 JUMP JUMPDEST JUMP JUMPDEST PUSH2 0x666 DUP3 PUSH2 0x660 PUSH2 0x99C JUMP JUMPDEST DUP4 PUSH2 0xBB7 JUMP JUMPDEST PUSH2 0x670 DUP3 DUP3 PUSH2 0x10E3 JUMP JUMPDEST POP POP JUMP JUMPDEST PUSH2 0x67C PUSH2 0xEAF JUMP JUMPDEST PUSH2 0x684 PUSH2 0x1367 JUMP JUMPDEST JUMP JUMPDEST PUSH1 0x0 DUP1 PUSH1 0x0 SWAP1 SLOAD SWAP1 PUSH2 0x100 EXP SWAP1 DIV PUSH20 0xFFFFFFFFFFFFFFFFFFFFFFFFFFFFFFFFFFFFFFFF AND SWAP1 POP SWAP1 JUMP JUMPDEST PUSH1 0x60 PUSH1 0x2 DUP1 SLOAD PUSH2 0x6BE SWAP1 PUSH2 0x1787 JUMP JUMPDEST DUP1 PUSH1 0x1F ADD PUSH1 0x20 DUP1 SWAP2 DIV MUL PUSH1 0x20 ADD PUSH1 0x40 MLOAD SWAP1 DUP2 ADD PUSH1 0x40 MSTORE DUP1 SWAP3 SWAP2 SWAP1 DUP2 DUP2 MSTORE PUSH1 0x20 ADD DUP3 DUP1 SLOAD PUSH2 0x6EA SWAP1 PUSH2 0x1787 JUMP JUMPDEST DUP1 ISZERO PUSH2 0x737 JUMPI DUP1 PUSH1 0x1F LT PUSH2 0x70C JUMPI PUSH2 0x100 DUP1 DUP4 SLOAD DIV MUL DUP4 MSTORE SWAP2 PUSH1 0x20 ADD SWAP2 PUSH2 0x737 JUMP JUMPDEST DUP3 ADD SWAP2 SWAP1 PUSH1 0x0 MSTORE PUSH1 0x20 PUSH1 0x0 KECCAK256 SWAP1 JUMPDEST DUP2 SLOAD DUP2 MSTORE SWAP1 PUSH1 0x1 ADD SWAP1 PUSH1 0x20 ADD DUP1 DUP4 GT PUSH2 0x71A JUMPI DUP3 SWAP1 SUB PUSH1 0x1F AND DUP3 ADD SWAP2 JUMPDEST POP POP POP POP POP SWAP1 POP SWAP1 JUMP JUMPDEST PUSH1 0x0 DUP1 PUSH2 0x74C PUSH2 0x99C JUMP JUMPDEST SWAP1 POP PUSH1 0x0 PUSH2 0x75A DUP3 DUP7 PUSH2 0x7EE JUMP JUMPDEST SWAP1 POP DUP4 DUP2 LT ISZERO PUSH2 0x79F JUMPI PUSH1 0x40 MLOAD PUSH32 0x8C379A000000000000000000000000000000000000000000000000000000000 DUP2 MSTORE PUSH1 0x4 ADD PUSH2 0x796 SWAP1 PUSH2 0x191F JUMP JUMPDEST PUSH1 0x40 MLOAD DUP1 SWAP2 SUB SWAP1 REVERT JUMPDEST PUSH2 0x7AC DUP3 DUP7 DUP7 DUP5 SUB PUSH2 0x9A4 JUMP JUMPDEST PUSH1 0x1 SWAP3 POP POP POP SWAP3 SWAP2 POP POP JUMP JUMPDEST PUSH1 0x0 PUSH2 0x7C2 PUSH2 0xB6D JUMP JUMPDEST PUSH1 0x0 PUSH2 0x7CC PUSH2 0x99C JUMP JUMPDEST SWAP1 POP PUSH2 0x7D9 DUP2 DUP6 DUP6 PUSH2 0xC43 JUMP JUMPDEST PUSH1 0x1 SWAP2 POP POP SWAP3 SWAP2 POP POP JUMP JUMPDEST PUSH1 0x0 PUSH1 0x4 SLOAD SWAP1 POP SWAP1 JUMP JUMPDEST PUSH1 0x0 PUSH1 0x6 PUSH1 0x0 DUP5 PUSH20 0xFFFFFFFFFFFFFFFFFFFFFFFFFFFFFFFFFFFFFFFF AND PUSH20 0xFFFFFFFFFFFFFFFFFFFFFFFFFFFFFFFFFFFFFFFF AND DUP2 MSTORE PUSH1 0x20 ADD SWAP1 DUP2 MSTORE PUSH1 0x20 ADD PUSH1 0x0 KECCAK256 PUSH1 0x0 DUP4 PUSH20 0xFFFFFFFFFFFFFFFFFFFFFFFFFFFFFFFFFFFFFFFF AND PUSH20 0xFFFFFFFFFFFFFFFFFFFFFFFFFFFFFFFFFFFFFFFF AND DUP2 MSTORE PUSH1 0x20 ADD SWAP1 DUP2 MSTORE PUSH1 0x20 ADD PUSH1 0x0 KECCAK256 SLOAD SWAP1 POP SWAP3 SWAP2 POP POP JUMP JUMPDEST PUSH1 0x0 PUSH2 0x87F PUSH2 0xEAF JUMP JUMPDEST PUSH1 0x0 DUP3 GT PUSH2 0x8C2 JUMPI PUSH1 0x40 MLOAD PUSH32 0x8C379A000000000000000000000000000000000000000000000000000000000 DUP2 MSTORE PUSH1 0x4 ADD PUSH2 0x8B9 SWAP1 PUSH2 0x198B JUMP JUMPDEST PUSH1 0x40 MLOAD DUP1 SWAP2 SUB SWAP1 REVERT JUMPDEST DUP2 PUSH1 0x4 DUP2 SWAP1 SSTORE POP PUSH1 0x3 SLOAD PUSH1 0x4 SLOAD LT ISZERO PUSH2 0x910 JUMPI PUSH1 0x40 MLOAD PUSH32 0x8C379A000000000000000000000000000000000000000000000000000000000 DUP2 MSTORE PUSH1 0x4 ADD PUSH2 0x907 SWAP1 PUSH2 0x19F7 JUMP JUMPDEST PUSH1 0x40 MLOAD DUP1 SWAP2 SUB SWAP1 REVERT JUMPDEST PUSH1 0x1 SWAP1 POP SWAP2 SWAP1 POP JUMP JUMPDEST PUSH2 0x921 PUSH2 0xEAF JUMP JUMPDEST PUSH1 0x0 PUSH20 0xFFFFFFFFFFFFFFFFFFFFFFFFFFFFFFFFFFFFFFFF AND DUP2 PUSH20 0xFFFFFFFFFFFFFFFFFFFFFFFFFFFFFFFFFFFFFFFF AND SUB PUSH2 0x990 JUMPI PUSH1 0x40 MLOAD PUSH32 0x8C379A000000000000000000000000000000000000000000000000000000000 DUP2 MSTORE PUSH1 0x4 ADD PUSH2 0x987 SWAP1 PUSH2 0x1A89 JUMP JUMPDEST PUSH1 0x40 MLOAD DUP1 SWAP2 SUB SWAP1 REVERT JUMPDEST PUSH2 0x999 DUP2 PUSH2 0x12A3 JUMP JUMPDEST POP JUMP JUMPDEST PUSH1 0x0 CALLER SWAP1 POP SWAP1 JUMP JUMPDEST PUSH1 0x0 PUSH20 0xFFFFFFFFFFFFFFFFFFFFFFFFFFFFFFFFFFFFFFFF AND DUP4 PUSH20 0xFFFFFFFFFFFFFFFFFFFFFFFFFFFFFFFFFFFFFFFF AND SUB PUSH2 0xA13 JUMPI PUSH1 0x40 MLOAD PUSH32 0x8C379A000000000000000000000000000000000000000000000000000000000 DUP2 MSTORE PUSH1 0x4 ADD PUSH2 0xA0A SWAP1 PUSH2 0x1B1B JUMP JUMPDEST PUSH1 0x40 MLOAD DUP1 SWAP2 SUB SWAP1 REVERT JUMPDEST PUSH1 0x0 PUSH20 0xFFFFFFFFFFFFFFFFFFFFFFFFFFFFFFFFFFFFFFFF AND DUP3 PUSH20 0xFFFFFFFFFFFFFFFFFFFFFFFFFFFFFFFFFFFFFFFF AND SUB PUSH2 0xA82 JUMPI PUSH1 0x40 MLOAD PUSH32 0x8C379A000000000000000000000000000000000000000000000000000000000 DUP2 MSTORE PUSH1 0x4 ADD PUSH2 0xA79 SWAP1 PUSH2 0x1BAD JUMP JUMPDEST PUSH1 0x40 MLOAD DUP1 SWAP2 SUB SWAP1 REVERT JUMPDEST DUP1 PUSH1 0x6 PUSH1 0x0 DUP6 PUSH20 0xFFFFFFFFFFFFFFFFFFFFFFFFFFFFFFFFFFFFFFFF AND PUSH20 0xFFFFFFFFFFFFFFFFFFFFFFFFFFFFFFFFFFFFFFFF AND DUP2 MSTORE PUSH1 0x20 ADD SWAP1 DUP2 MSTORE PUSH1 0x20 ADD PUSH1 0x0 KECCAK256 PUSH1 0x0 DUP5 PUSH20 0xFFFFFFFFFFFFFFFFFFFFFFFFFFFFFFFFFFFFFFFF AND PUSH20 0xFFFFFFFFFFFFFFFFFFFFFFFFFFFFFFFFFFFFFFFF AND DUP2 MSTORE PUSH1 0x20 ADD SWAP1 DUP2 MSTORE PUSH1 0x20 ADD PUSH1 0x0 KECCAK256 DUP2 SWAP1 SSTORE POP DUP2 PUSH20 0xFFFFFFFFFFFFFFFFFFFFFFFFFFFFFFFFFFFFFFFF AND DUP4 PUSH20 0xFFFFFFFFFFFFFFFFFFFFFFFFFFFFFFFFFFFFFFFF AND PUSH32 0x8C5BE1E5EBEC7D5BD14F71427D1E84F3DD0314C0F7B2291E5B200AC8C7C3B925 DUP4 PUSH1 0x40 MLOAD PUSH2 0xB60 SWAP2 SWAP1 PUSH2 0x15EF JUMP JUMPDEST PUSH1 0x40 MLOAD DUP1 SWAP2 SUB SWAP1 LOG3 POP POP POP JUMP JUMPDEST PUSH2 0xB75 PUSH2 0x5E1 JUMP JUMPDEST ISZERO PUSH2 0xBB5 JUMPI PUSH1 0x40 MLOAD PUSH32 0x8C379A000000000000000000000000000000000000000000000000000000000 DUP2 MSTORE PUSH1 0x4 ADD PUSH2 0xBAC SWAP1 PUSH2 0x1C19 JUMP JUMPDEST PUSH1 0x40 MLOAD DUP1 SWAP2 SUB SWAP1 REVERT JUMPDEST JUMP JUMPDEST PUSH1 0x0 PUSH2 0xBC3 DUP5 DUP5 PUSH2 0x7EE JUMP JUMPDEST SWAP1 POP PUSH32 0xFFFFFFFFFFFFFFFFFFFFFFFFFFFFFFFFFFFFFFFFFFFFFFFFFFFFFFFFFFFFFFFF DUP2 EQ PUSH2 0xC3D JUMPI DUP2 DUP2 LT ISZERO PUSH2 0xC2F JUMPI PUSH1 0x40 MLOAD PUSH32 0x8C379A000000000000000000000000000000000000000000000000000000000 DUP2 MSTORE PUSH1 0x4 ADD PUSH2 0xC26 SWAP1 PUSH2 0x1C85 JUMP JUMPDEST PUSH1 0x40 MLOAD DUP1 SWAP2 SUB SWAP1 REVERT JUMPDEST PUSH2 0xC3C DUP5 DUP5 DUP5 DUP5 SUB PUSH2 0x9A4 JUMP JUMPDEST JUMPDEST POP POP POP POP JUMP JUMPDEST PUSH1 0x0 PUSH20 0xFFFFFFFFFFFFFFFFFFFFFFFFFFFFFFFFFFFFFFFF AND DUP4 PUSH20 0xFFFFFFFFFFFFFFFFFFFFFFFFFFFFFFFFFFFFFFFF AND SUB PUSH2 0xCB2 JUMPI PUSH1 0x40 MLOAD PUSH32 0x8C379A000000000000000000000000000000000000000000000000000000000 DUP2 MSTORE PUSH1 0x4 ADD PUSH2 0xCA9 SWAP1 PUSH2 0x1D17 JUMP JUMPDEST PUSH1 0x40 MLOAD DUP1 SWAP2 SUB SWAP1 REVERT JUMPDEST PUSH1 0x0 PUSH20 0xFFFFFFFFFFFFFFFFFFFFFFFFFFFFFFFFFFFFFFFF AND DUP3 PUSH20 0xFFFFFFFFFFFFFFFFFFFFFFFFFFFFFFFFFFFFFFFF AND SUB PUSH2 0xD21 JUMPI PUSH1 0x40 MLOAD PUSH32 0x8C379A000000000000000000000000000000000000000000000000000000000 DUP2 MSTORE PUSH1 0x4 ADD PUSH2 0xD18 SWAP1 PUSH2 0x1DA9 JUMP JUMPDEST PUSH1 0x40 MLOAD DUP1 SWAP2 SUB SWAP1 REVERT JUMPDEST PUSH1 0x0 PUSH1 0x5 PUSH1 0x0 DUP6 PUSH20 0xFFFFFFFFFFFFFFFFFFFFFFFFFFFFFFFFFFFFFFFF AND PUSH20 0xFFFFFFFFFFFFFFFFFFFFFFFFFFFFFFFFFFFFFFFF AND DUP2 MSTORE PUSH1 0x20 ADD SWAP1 DUP2 MSTORE PUSH1 0x20 ADD PUSH1 0x0 KECCAK256 SLOAD SWAP1 POP DUP2 DUP2 LT ISZERO PUSH2 0xDA8 JUMPI PUSH1 0x40 MLOAD PUSH32 0x8C379A000000000000000000000000000000000000000000000000000000000 DUP2 MSTORE PUSH1 0x4 ADD PUSH2 0xD9F SWAP1 PUSH2 0x1E3B JUMP JUMPDEST PUSH1 0x40 MLOAD DUP1 SWAP2 SUB SWAP1 REVERT JUMPDEST DUP2 DUP2 SUB PUSH1 0x5 PUSH1 0x0 DUP7 PUSH20 0xFFFFFFFFFFFFFFFFFFFFFFFFFFFFFFFFFFFFFFFF AND PUSH20 0xFFFFFFFFFFFFFFFFFFFFFFFFFFFFFFFFFFFFFFFF AND DUP2 MSTORE PUSH1 0x20 ADD SWAP1 DUP2 MSTORE PUSH1 0x20 ADD PUSH1 0x0 KECCAK256 DUP2 SWAP1 SSTORE POP DUP2 PUSH1 0x5 PUSH1 0x0 DUP6 PUSH20 0xFFFFFFFFFFFFFFFFFFFFFFFFFFFFFFFFFFFFFFFF AND PUSH20 0xFFFFFFFFFFFFFFFFFFFFFFFFFFFFFFFFFFFFFFFF AND DUP2 MSTORE PUSH1 0x20 ADD SWAP1 DUP2 MSTORE PUSH1 0x20 ADD PUSH1 0x0 KECCAK256 PUSH1 0x0 DUP3 DUP3 SLOAD PUSH2 0xE3D SWAP2 SWAP1 PUSH2 0x17E7 JUMP JUMPDEST SWAP3 POP POP DUP2 SWAP1 SSTORE POP DUP3 PUSH20 0xFFFFFFFFFFFFFFFFFFFFFFFFFFFFFFFFFFFFFFFF AND DUP5 PUSH20 0xFFFFFFFFFFFFFFFFFFFFFFFFFFFFFFFFFFFFFFFF AND PUSH32 0xDDF252AD1BE2C89B69C2B068FC378DAA952BA7F163C4A11628F55A4DF523B3EF DUP5 PUSH1 0x40 MLOAD PUSH2 0xEA1 SWAP2 SWAP1 PUSH2 0x15EF JUMP JUMPDEST PUSH1 0x40 MLOAD DUP1 SWAP2 SUB SWAP1 LOG3 POP POP POP POP JUMP JUMPDEST PUSH2 0xEB7 PUSH2 0x99C JUMP JUMPDEST PUSH20 0xFFFFFFFFFFFFFFFFFFFFFFFFFFFFFFFFFFFFFFFF AND PUSH2 0xED5 PUSH2 0x686 JUMP JUMPDEST PUSH20 0xFFFFFFFFFFFFFFFFFFFFFFFFFFFFFFFFFFFFFFFF AND EQ PUSH2 0xF2B JUMPI PUSH1 0x40 MLOAD PUSH32 0x8C379A000000000000000000000000000000000000000000000000000000000 DUP2 MSTORE PUSH1 0x4 ADD PUSH2 0xF22 SWAP1 PUSH2 0x1EA7 JUMP JUMPDEST PUSH1 0x40 MLOAD DUP1 SWAP2 SUB SWAP1 REVERT JUMPDEST JUMP JUMPDEST PUSH2 0xF35 PUSH2 0x13D6 JUMP JUMPDEST PUSH1 0x0 DUP1 PUSH1 0x14 PUSH2 0x100 EXP DUP2 SLOAD DUP2 PUSH1 0xFF MUL NOT AND SWAP1 DUP4 ISZERO ISZERO MUL OR SWAP1 SSTORE POP PUSH2 0xF57 PUSH2 0x99C JUMP JUMPDEST PUSH20 0xFFFFFFFFFFFFFFFFFFFFFFFFFFFFFFFFFFFFFFFF AND PUSH32 0x5DB9EE0A495BF2E6FF9C91A7834C1BA4FDD244A5E8AA4E537BD38AEAE4B073AA PUSH1 0x40 MLOAD PUSH1 0x40 MLOAD DUP1 SWAP2 SUB SWAP1 LOG2 JUMP JUMPDEST PUSH1 0x0 PUSH20 0xFFFFFFFFFFFFFFFFFFFFFFFFFFFFFFFFFFFFFFFF AND DUP3 PUSH20 0xFFFFFFFFFFFFFFFFFFFFFFFFFFFFFFFFFFFFFFFF AND SUB PUSH2 0x100A JUMPI PUSH1 0x40 MLOAD PUSH32 0x8C379A000000000000000000000000000000000000000000000000000000000 DUP2 MSTORE PUSH1 0x4 ADD PUSH2 0x1001 SWAP1 PUSH2 0x1F13 JUMP JUMPDEST PUSH1 0x40 MLOAD DUP1 SWAP2 SUB SWAP1 REVERT JUMPDEST DUP1 PUSH1 0x3 PUSH1 0x0 DUP3 DUP3 SLOAD PUSH2 0x101C SWAP2 SWAP1 PUSH2 0x17E7 JUMP JUMPDEST SWAP3 POP POP DUP2 SWAP1 SSTORE POP DUP1 PUSH1 0x5 PUSH1 0x0 DUP5 PUSH20 0xFFFFFFFFFFFFFFFFFFFFFFFFFFFFFFFFFFFFFFFF AND PUSH20 0xFFFFFFFFFFFFFFFFFFFFFFFFFFFFFFFFFFFFFFFF AND DUP2 MSTORE PUSH1 0x20 ADD SWAP1 DUP2 MSTORE PUSH1 0x20 ADD PUSH1 0x0 KECCAK256 PUSH1 0x0 DUP3 DUP3 SLOAD PUSH2 0x1072 SWAP2 SWAP1 PUSH2 0x17E7 JUMP JUMPDEST SWAP3 POP POP DUP2 SWAP1 SSTORE POP DUP2 PUSH20 0xFFFFFFFFFFFFFFFFFFFFFFFFFFFFFFFFFFFFFFFF AND PUSH1 0x0 PUSH20 0xFFFFFFFFFFFFFFFFFFFFFFFFFFFFFFFFFFFFFFFF AND PUSH32 0xDDF252AD1BE2C89B69C2B068FC378DAA952BA7F163C4A11628F55A4DF523B3EF DUP4 PUSH1 0x40 MLOAD PUSH2 0x10D7 SWAP2 SWAP1 PUSH2 0x15EF JUMP JUMPDEST PUSH1 0x40 MLOAD DUP1 SWAP2 SUB SWAP1 LOG3 POP POP JUMP JUMPDEST PUSH1 0x0 PUSH20 0xFFFFFFFFFFFFFFFFFFFFFFFFFFFFFFFFFFFFFFFF AND DUP3 PUSH20 0xFFFFFFFFFFFFFFFFFFFFFFFFFFFFFFFFFFFFFFFF AND SUB PUSH2 0x1152 JUMPI PUSH1 0x40 MLOAD PUSH32 0x8C379A000000000000000000000000000000000000000000000000000000000 DUP2 MSTORE PUSH1 0x4 ADD PUSH2 0x1149 SWAP1 PUSH2 0x1FA5 JUMP JUMPDEST PUSH1 0x40 MLOAD DUP1 SWAP2 SUB SWAP1 REVERT JUMPDEST PUSH1 0x0 PUSH1 0x5 PUSH1 0x0 DUP5 PUSH20 0xFFFFFFFFFFFFFFFFFFFFFFFFFFFFFFFFFFFFFFFF AND PUSH20 0xFFFFFFFFFFFFFFFFFFFFFFFFFFFFFFFFFFFFFFFF AND DUP2 MSTORE PUSH1 0x20 ADD SWAP1 DUP2 MSTORE PUSH1 0x20 ADD PUSH1 0x0 KECCAK256 SLOAD SWAP1 POP DUP2 DUP2 LT ISZERO PUSH2 0x11D9 JUMPI PUSH1 0x40 MLOAD PUSH32 0x8C379A000000000000000000000000000000000000000000000000000000000 DUP2 MSTORE PUSH1 0x4 ADD PUSH2 0x11D0 SWAP1 PUSH2 0x2037 JUMP JUMPDEST PUSH1 0x40 MLOAD DUP1 SWAP2 SUB SWAP1 REVERT JUMPDEST DUP2 DUP2 SUB PUSH1 0x5 PUSH1 0x0 DUP6 PUSH20 0xFFFFFFFFFFFFFFFFFFFFFFFFFFFFFFFFFFFFFFFF AND PUSH20 0xFFFFFFFFFFFFFFFFFFFFFFFFFFFFFFFFFFFFFFFF AND DUP2 MSTORE PUSH1 0x20 ADD SWAP1 DUP2 MSTORE PUSH1 0x20 ADD PUSH1 0x0 KECCAK256 DUP2 SWAP1 SSTORE POP DUP2 PUSH1 0x3 PUSH1 0x0 DUP3 DUP3 SLOAD PUSH2 0x1231 SWAP2 SWAP1 PUSH2 0x2057 JUMP JUMPDEST SWAP3 POP POP DUP2 SWAP1 SSTORE POP PUSH1 0x0 PUSH20 0xFFFFFFFFFFFFFFFFFFFFFFFFFFFFFFFFFFFFFFFF AND DUP4 PUSH20 0xFFFFFFFFFFFFFFFFFFFFFFFFFFFFFFFFFFFFFFFF AND PUSH32 0xDDF252AD1BE2C89B69C2B068FC378DAA952BA7F163C4A11628F55A4DF523B3EF DUP5 PUSH1 0x40 MLOAD PUSH2 0x1296 SWAP2 SWAP1 PUSH2 0x15EF JUMP JUMPDEST PUSH1 0x40 MLOAD DUP1 SWAP2 SUB SWAP1 LOG3 POP POP POP JUMP JUMPDEST PUSH1 0x0 DUP1 PUSH1 0x0 SWAP1 SLOAD SWAP1 PUSH2 0x100 EXP SWAP1 DIV PUSH20 0xFFFFFFFFFFFFFFFFFFFFFFFFFFFFFFFFFFFFFFFF AND SWAP1 POP DUP2 PUSH1 0x0 DUP1 PUSH2 0x100 EXP DUP2 SLOAD DUP2 PUSH20 0xFFFFFFFFFFFFFFFFFFFFFFFFFFFFFFFFFFFFFFFF MUL NOT AND SWAP1 DUP4 PUSH20 0xFFFFFFFFFFFFFFFFFFFFFFFFFFFFFFFFFFFFFFFF AND MUL OR SWAP1 SSTORE POP DUP2 PUSH20 0xFFFFFFFFFFFFFFFFFFFFFFFFFFFFFFFFFFFFFFFF AND DUP2 PUSH20 0xFFFFFFFFFFFFFFFFFFFFFFFFFFFFFFFFFFFFFFFF AND PUSH32 0x8BE0079C531659141344CD1FD0A4F28419497F9722A3DAAFE3B4186F6B6457E0 PUSH1 0x40 MLOAD PUSH1 0x40 MLOAD DUP1 SWAP2 SUB SWAP1 LOG3 POP POP JUMP JUMPDEST PUSH2 0x136F PUSH2 0xB6D JUMP JUMPDEST PUSH1 0x1 PUSH1 0x0 PUSH1 0x14 PUSH2 0x100 EXP DUP2 SLOAD DUP2 PUSH1 0xFF MUL NOT AND SWAP1 DUP4 ISZERO ISZERO MUL OR SWAP1 SSTORE POP PUSH2 0x1392 PUSH2 0x99C JUMP JUMPDEST PUSH20 0xFFFFFFFFFFFFFFFFFFFFFFFFFFFFFFFFFFFFFFFF AND PUSH32 0x62E78CEA01BEE320CD4E420270B5EA74000D11B0C9F74754EBDBFC544B05A258 PUSH1 0x40 MLOAD PUSH1 0x40 MLOAD DUP1 SWAP2 SUB SWAP1 LOG2 JUMP JUMPDEST PUSH2 0x13DE PUSH2 0x5E1 JUMP JUMPDEST PUSH2 0x141D JUMPI PUSH1 0x40 MLOAD PUSH32 0x8C379A000000000000000000000000000000000000000000000000000000000 DUP2 MSTORE PUSH1 0x4 ADD PUSH2 0x1414 SWAP1 PUSH2 0x20D7 JUMP JUMPDEST PUSH1 0x40 MLOAD DUP1 SWAP2 SUB SWAP1 REVERT JUMPDEST JUMP JUMPDEST PUSH1 0x0 DUP2 MLOAD SWAP1 POP SWAP2 SWAP1 POP JUMP JUMPDEST PUSH1 0x0 DUP3 DUP3 MSTORE PUSH1 0x20 DUP3 ADD SWAP1 POP SWAP3 SWAP2 POP POP JUMP JUMPDEST PUSH1 0x0 JUMPDEST DUP4 DUP2 LT ISZERO PUSH2 0x1459 JUMPI DUP1 DUP3 ADD MLOAD DUP2 DUP5 ADD MSTORE PUSH1 0x20 DUP2 ADD SWAP1 POP PUSH2 0x143E JUMP JUMPDEST PUSH1 0x0 DUP5 DUP5 ADD MSTORE POP POP POP POP JUMP JUMPDEST PUSH1 0x0 PUSH1 0x1F NOT PUSH1 0x1F DUP4 ADD AND SWAP1 POP SWAP2 SWAP1 POP JUMP JUMPDEST PUSH1 0x0 PUSH2 0x1481 DUP3 PUSH2 0x141F JUMP JUMPDEST PUSH2 0x148B DUP2 DUP6 PUSH2 0x142A JUMP JUMPDEST SWAP4 POP PUSH2 0x149B DUP2 DUP6 PUSH1 0x20 DUP7 ADD PUSH2 0x143B JUMP JUMPDEST PUSH2 0x14A4 DUP2 PUSH2 0x1465 JUMP JUMPDEST DUP5 ADD SWAP2 POP POP SWAP3 SWAP2 POP POP JUMP JUMPDEST PUSH1 0x0 PUSH1 0x20 DUP3 ADD SWAP1 POP DUP2 DUP2 SUB PUSH1 0x0 DUP4 ADD MSTORE PUSH2 0x14C9 DUP2 DUP5 PUSH2 0x1476 JUMP JUMPDEST SWAP1 POP SWAP3 SWAP2 POP POP JUMP JUMPDEST PUSH1 0x0 DUP1 REVERT JUMPDEST PUSH1 0x0 PUSH20 0xFFFFFFFFFFFFFFFFFFFFFFFFFFFFFFFFFFFFFFFF DUP3 AND SWAP1 POP SWAP2 SWAP1 POP JUMP JUMPDEST PUSH1 0x0 PUSH2 0x1501 DUP3 PUSH2 0x14D6 JUMP JUMPDEST SWAP1 POP SWAP2 SWAP1 POP JUMP JUMPDEST PUSH2 0x1511 DUP2 PUSH2 0x14F6 JUMP JUMPDEST DUP2 EQ PUSH2 0x151C JUMPI PUSH1 0x0 DUP1 REVERT JUMPDEST POP JUMP JUMPDEST PUSH1 0x0 DUP2 CALLDATALOAD SWAP1 POP PUSH2 0x152E DUP2 PUSH2 0x1508 JUMP JUMPDEST SWAP3 SWAP2 POP POP JUMP JUMPDEST PUSH1 0x0 DUP2 SWAP1 POP SWAP2 SWAP1 POP JUMP JUMPDEST PUSH2 0x1547 DUP2 PUSH2 0x1534 JUMP JUMPDEST DUP2 EQ PUSH2 0x1552 JUMPI PUSH1 0x0 DUP1 REVERT JUMPDEST POP JUMP JUMPDEST PUSH1 0x0 DUP2 CALLDATALOAD SWAP1 POP PUSH2 0x1564 DUP2 PUSH2 0x153E JUMP JUMPDEST SWAP3 SWAP2 POP POP JUMP JUMPDEST PUSH1 0x0 DUP1 PUSH1 0x40 DUP4 DUP6 SUB SLT ISZERO PUSH2 0x1581 JUMPI PUSH2 0x1580 PUSH2 0x14D1 JUMP JUMPDEST JUMPDEST PUSH1 0x0 PUSH2 0x158F DUP6 DUP3 DUP7 ADD PUSH2 0x151F JUMP JUMPDEST SWAP3 POP POP PUSH1 0x20 PUSH2 0x15A0 DUP6 DUP3 DUP7 ADD PUSH2 0x1555 JUMP JUMPDEST SWAP2 POP POP SWAP3 POP SWAP3 SWAP1 POP JUMP JUMPDEST PUSH1 0x0 DUP2 ISZERO ISZERO SWAP1 POP SWAP2 SWAP1 POP JUMP JUMPDEST PUSH2 0x15BF DUP2 PUSH2 0x15AA JUMP JUMPDEST DUP3 MSTORE POP POP JUMP JUMPDEST PUSH1 0x0 PUSH1 0x20 DUP3 ADD SWAP1 POP PUSH2 0x15DA PUSH1 0x0 DUP4 ADD DUP5 PUSH2 0x15B6 JUMP JUMPDEST SWAP3 SWAP2 POP POP JUMP JUMPDEST PUSH2 0x15E9 DUP2 PUSH2 0x1534 JUMP JUMPDEST DUP3 MSTORE POP POP JUMP JUMPDEST PUSH1 0x0 PUSH1 0x20 DUP3 ADD SWAP1 POP PUSH2 0x1604 PUSH1 0x0 DUP4 ADD DUP5 PUSH2 0x15E0 JUMP JUMPDEST SWAP3 SWAP2 POP POP JUMP JUMPDEST PUSH1 0x0 DUP1 PUSH1 0x0 PUSH1 0x60 DUP5 DUP7 SUB SLT ISZERO PUSH2 0x1623 JUMPI PUSH2 0x1622 PUSH2 0x14D1 JUMP JUMPDEST JUMPDEST PUSH1 0x0 PUSH2 0x1631 DUP7 DUP3 DUP8 ADD PUSH2 0x151F JUMP JUMPDEST SWAP4 POP POP PUSH1 0x20 PUSH2 0x1642 DUP7 DUP3 DUP8 ADD PUSH2 0x151F JUMP JUMPDEST SWAP3 POP POP PUSH1 0x40 PUSH2 0x1653 DUP7 DUP3 DUP8 ADD PUSH2 0x1555 JUMP JUMPDEST SWAP2 POP POP SWAP3 POP SWAP3 POP SWAP3 JUMP JUMPDEST PUSH1 0x0 PUSH1 0xFF DUP3 AND SWAP1 POP SWAP2 SWAP1 POP JUMP JUMPDEST PUSH2 0x1673 DUP2 PUSH2 0x165D JUMP JUMPDEST DUP3 MSTORE POP POP JUMP JUMPDEST PUSH1 0x0 PUSH1 0x20 DUP3 ADD SWAP1 POP PUSH2 0x168E PUSH1 0x0 DUP4 ADD DUP5 PUSH2 0x166A JUMP JUMPDEST SWAP3 SWAP2 POP POP JUMP JUMPDEST PUSH1 0x0 PUSH1 0x20 DUP3 DUP5 SUB SLT ISZERO PUSH2 0x16AA JUMPI PUSH2 0x16A9 PUSH2 0x14D1 JUMP JUMPDEST JUMPDEST PUSH1 0x0 PUSH2 0x16B8 DUP5 DUP3 DUP6 ADD PUSH2 0x1555 JUMP JUMPDEST SWAP2 POP POP SWAP3 SWAP2 POP POP JUMP JUMPDEST PUSH1 0x0 PUSH1 0x20 DUP3 DUP5 SUB SLT ISZERO PUSH2 0x16D7 JUMPI PUSH2 0x16D6 PUSH2 0x14D1 JUMP JUMPDEST JUMPDEST PUSH1 0x0 PUSH2 0x16E5 DUP5 DUP3 DUP6 ADD PUSH2 0x151F JUMP JUMPDEST SWAP2 POP POP SWAP3 SWAP2 POP POP JUMP JUMPDEST PUSH2 0x16F7 DUP2 PUSH2 0x14F6 JUMP JUMPDEST DUP3 MSTORE POP POP JUMP JUMPDEST PUSH1 0x0 PUSH1 0x20 DUP3 ADD SWAP1 POP PUSH2 0x1712 PUSH1 0x0 DUP4 ADD DUP5 PUSH2 0x16EE JUMP JUMPDEST SWAP3 SWAP2 POP POP JUMP JUMPDEST PUSH1 0x0 DUP1 PUSH1 0x40 DUP4 DUP6 SUB SLT ISZERO PUSH2 0x172F JUMPI PUSH2 0x172E PUSH2 0x14D1 JUMP JUMPDEST JUMPDEST PUSH1 0x0 PUSH2 0x173D DUP6 DUP3 DUP7 ADD PUSH2 0x151F JUMP JUMPDEST SWAP3 POP POP PUSH1 0x20 PUSH2 0x174E DUP6 DUP3 DUP7 ADD PUSH2 0x151F JUMP JUMPDEST SWAP2 POP POP SWAP3 POP SWAP3 SWAP1 POP JUMP JUMPDEST PUSH32 0x4E487B7100000000000000000000000000000000000000000000000000000000 PUSH1 0x0 MSTORE PUSH1 0x22 PUSH1 0x4 MSTORE PUSH1 0x24 PUSH1 0x0 REVERT JUMPDEST PUSH1 0x0 PUSH1 0x2 DUP3 DIV SWAP1 POP PUSH1 0x1 DUP3 AND DUP1 PUSH2 0x179F JUMPI PUSH1 0x7F DUP3 AND SWAP2 POP JUMPDEST PUSH1 0x20 DUP3 LT DUP2 SUB PUSH2 0x17B2 JUMPI PUSH2 0x17B1 PUSH2 0x1758 JUMP JUMPDEST JUMPDEST POP SWAP2 SWAP1 POP JUMP JUMPDEST PUSH32 0x4E487B7100000000000000000000000000000000000000000000000000000000 PUSH1 0x0 MSTORE PUSH1 0x11 PUSH1 0x4 MSTORE PUSH1 0x24 PUSH1 0x0 REVERT JUMPDEST PUSH1 0x0 PUSH2 0x17F2 DUP3 PUSH2 0x1534 JUMP JUMPDEST SWAP2 POP PUSH2 0x17FD DUP4 PUSH2 0x1534 JUMP JUMPDEST SWAP3 POP DUP3 DUP3 ADD SWAP1 POP DUP1 DUP3 GT ISZERO PUSH2 0x1815 JUMPI PUSH2 0x1814 PUSH2 0x17B8 JUMP JUMPDEST JUMPDEST SWAP3 SWAP2 POP POP JUMP JUMPDEST PUSH32 0x746F74616C537570706C792073686F756C64206265206C657373657220746861 PUSH1 0x0 DUP3 ADD MSTORE PUSH32 0x6E206D6178537570706C79000000000000000000000000000000000000000000 PUSH1 0x20 DUP3 ADD MSTORE POP JUMP JUMPDEST PUSH1 0x0 PUSH2 0x1877 PUSH1 0x2B DUP4 PUSH2 0x142A JUMP JUMPDEST SWAP2 POP PUSH2 0x1882 DUP3 PUSH2 0x181B JUMP JUMPDEST PUSH1 0x40 DUP3 ADD SWAP1 POP SWAP2 SWAP1 POP JUMP JUMPDEST PUSH1 0x0 PUSH1 0x20 DUP3 ADD SWAP1 POP DUP2 DUP2 SUB PUSH1 0x0 DUP4 ADD MSTORE PUSH2 0x18A6 DUP2 PUSH2 0x186A JUMP JUMPDEST SWAP1 POP SWAP2 SWAP1 POP JUMP JUMPDEST PUSH32 0x45524332303A2064656372656173656420616C6C6F77616E63652062656C6F77 PUSH1 0x0 DUP3 ADD MSTORE PUSH32 0x207A65726F000000000000000000000000000000000000000000000000000000 PUSH1 0x20 DUP3 ADD MSTORE POP JUMP JUMPDEST PUSH1 0x0 PUSH2 0x1909 PUSH1 0x25 DUP4 PUSH2 0x142A JUMP JUMPDEST SWAP2 POP PUSH2 0x1914 DUP3 PUSH2 0x18AD JUMP JUMPDEST PUSH1 0x40 DUP3 ADD SWAP1 POP SWAP2 SWAP1 POP JUMP JUMPDEST PUSH1 0x0 PUSH1 0x20 DUP3 ADD SWAP1 POP DUP2 DUP2 SUB PUSH1 0x0 DUP4 ADD MSTORE PUSH2 0x1938 DUP2 PUSH2 0x18FC JUMP JUMPDEST SWAP1 POP SWAP2 SWAP1 POP JUMP JUMPDEST PUSH32 0x496E76616C696420537570706C79000000000000000000000000000000000000 PUSH1 0x0 DUP3 ADD MSTORE POP JUMP JUMPDEST PUSH1 0x0 PUSH2 0x1975 PUSH1 0xE DUP4 PUSH2 0x142A JUMP JUMPDEST SWAP2 POP PUSH2 0x1980 DUP3 PUSH2 0x193F JUMP JUMPDEST PUSH1 0x20 DUP3 ADD SWAP1 POP SWAP2 SWAP1 POP JUMP JUMPDEST PUSH1 0x0 PUSH1 0x20 DUP3 ADD SWAP1 POP DUP2 DUP2 SUB PUSH1 0x0 DUP4 ADD MSTORE PUSH2 0x19A4 DUP2 PUSH2 0x1968 JUMP JUMPDEST SWAP1 POP SWAP2 SWAP1 POP JUMP JUMPDEST PUSH32 0x537570706C79206C6573736572207468616E20746F74616C537570706C790000 PUSH1 0x0 DUP3 ADD MSTORE POP JUMP JUMPDEST PUSH1 0x0 PUSH2 0x19E1 PUSH1 0x1E DUP4 PUSH2 0x142A JUMP JUMPDEST SWAP2 POP PUSH2 0x19EC DUP3 PUSH2 0x19AB JUMP JUMPDEST PUSH1 0x20 DUP3 ADD SWAP1 POP SWAP2 SWAP1 POP JUMP JUMPDEST PUSH1 0x0 PUSH1 0x20 DUP3 ADD SWAP1 POP DUP2 DUP2 SUB PUSH1 0x0 DUP4 ADD MSTORE PUSH2 0x1A10 DUP2 PUSH2 0x19D4 JUMP JUMPDEST SWAP1 POP SWAP2 SWAP1 POP JUMP JUMPDEST PUSH32 0x4F776E61626C653A206E6577206F776E657220697320746865207A65726F2061 PUSH1 0x0 DUP3 ADD MSTORE PUSH32 0x6464726573730000000000000000000000000000000000000000000000000000 PUSH1 0x20 DUP3 ADD MSTORE POP JUMP JUMPDEST PUSH1 0x0 PUSH2 0x1A73 PUSH1 0x26 DUP4 PUSH2 0x142A JUMP JUMPDEST SWAP2 POP PUSH2 0x1A7E DUP3 PUSH2 0x1A17 JUMP JUMPDEST PUSH1 0x40 DUP3 ADD SWAP1 POP SWAP2 SWAP1 POP JUMP JUMPDEST PUSH1 0x0 PUSH1 0x20 DUP3 ADD SWAP1 POP DUP2 DUP2 SUB PUSH1 0x0 DUP4 ADD MSTORE PUSH2 0x1AA2 DUP2 PUSH2 0x1A66 JUMP JUMPDEST SWAP1 POP SWAP2 SWAP1 POP JUMP JUMPDEST PUSH32 0x45524332303A20617070726F76652066726F6D20746865207A65726F20616464 PUSH1 0x0 DUP3 ADD MSTORE PUSH32 0x7265737300000000000000000000000000000000000000000000000000000000 PUSH1 0x20 DUP3 ADD MSTORE POP JUMP JUMPDEST PUSH1 0x0 PUSH2 0x1B05 PUSH1 0x24 DUP4 PUSH2 0x142A JUMP JUMPDEST SWAP2 POP PUSH2 0x1B10 DUP3 PUSH2 0x1AA9 JUMP JUMPDEST PUSH1 0x40 DUP3 ADD SWAP1 POP SWAP2 SWAP1 POP JUMP JUMPDEST PUSH1 0x0 PUSH1 0x20 DUP3 ADD SWAP1 POP DUP2 DUP2 SUB PUSH1 0x0 DUP4 ADD MSTORE PUSH2 0x1B34 DUP2 PUSH2 0x1AF8 JUMP JUMPDEST SWAP1 POP SWAP2 SWAP1 POP JUMP JUMPDEST PUSH32 0x45524332303A20617070726F766520746F20746865207A65726F206164647265 PUSH1 0x0 DUP3 ADD MSTORE PUSH32 0x7373000000000000000000000000000000000000000000000000000000000000 PUSH1 0x20 DUP3 ADD MSTORE POP JUMP JUMPDEST PUSH1 0x0 PUSH2 0x1B97 PUSH1 0x22 DUP4 PUSH2 0x142A JUMP JUMPDEST SWAP2 POP PUSH2 0x1BA2 DUP3 PUSH2 0x1B3B JUMP JUMPDEST PUSH1 0x40 DUP3 ADD SWAP1 POP SWAP2 SWAP1 POP JUMP JUMPDEST PUSH1 0x0 PUSH1 0x20 DUP3 ADD SWAP1 POP DUP2 DUP2 SUB PUSH1 0x0 DUP4 ADD MSTORE PUSH2 0x1BC6 DUP2 PUSH2 0x1B8A JUMP JUMPDEST SWAP1 POP SWAP2 SWAP1 POP JUMP JUMPDEST PUSH32 0x5061757361626C653A2070617573656400000000000000000000000000000000 PUSH1 0x0 DUP3 ADD MSTORE POP JUMP JUMPDEST PUSH1 0x0 PUSH2 0x1C03 PUSH1 0x10 DUP4 PUSH2 0x142A JUMP JUMPDEST SWAP2 POP PUSH2 0x1C0E DUP3 PUSH2 0x1BCD JUMP JUMPDEST PUSH1 0x20 DUP3 ADD SWAP1 POP SWAP2 SWAP1 POP JUMP JUMPDEST PUSH1 0x0 PUSH1 0x20 DUP3 ADD SWAP1 POP DUP2 DUP2 SUB PUSH1 0x0 DUP4 ADD MSTORE PUSH2 0x1C32 DUP2 PUSH2 0x1BF6 JUMP JUMPDEST SWAP1 POP SWAP2 SWAP1 POP JUMP JUMPDEST PUSH32 0x45524332303A20696E73756666696369656E7420616C6C6F77616E6365000000 PUSH1 0x0 DUP3 ADD MSTORE POP JUMP JUMPDEST PUSH1 0x0 PUSH2 0x1C6F PUSH1 0x1D DUP4 PUSH2 0x142A JUMP JUMPDEST SWAP2 POP PUSH2 0x1C7A DUP3 PUSH2 0x1C39 JUMP JUMPDEST PUSH1 0x20 DUP3 ADD SWAP1 POP SWAP2 SWAP1 POP JUMP JUMPDEST PUSH1 0x0 PUSH1 0x20 DUP3 ADD SWAP1 POP DUP2 DUP2 SUB PUSH1 0x0 DUP4 ADD MSTORE PUSH2 0x1C9E DUP2 PUSH2 0x1C62 JUMP JUMPDEST SWAP1 POP SWAP2 SWAP1 POP JUMP JUMPDEST PUSH32 0x45524332303A207472616E736665722066726F6D20746865207A65726F206164 PUSH1 0x0 DUP3 ADD MSTORE PUSH32 0x6472657373000000000000000000000000000000000000000000000000000000 PUSH1 0x20 DUP3 ADD MSTORE POP JUMP JUMPDEST PUSH1 0x0 PUSH2 0x1D01 PUSH1 0x25 DUP4 PUSH2 0x142A JUMP JUMPDEST SWAP2 POP PUSH2 0x1D0C DUP3 PUSH2 0x1CA5 JUMP JUMPDEST PUSH1 0x40 DUP3 ADD SWAP1 POP SWAP2 SWAP1 POP JUMP JUMPDEST PUSH1 0x0 PUSH1 0x20 DUP3 ADD SWAP1 POP DUP2 DUP2 SUB PUSH1 0x0 DUP4 ADD MSTORE PUSH2 0x1D30 DUP2 PUSH2 0x1CF4 JUMP JUMPDEST SWAP1 POP SWAP2 SWAP1 POP JUMP JUMPDEST PUSH32 0x45524332303A207472616E7366657220746F20746865207A65726F2061646472 PUSH1 0x0 DUP3 ADD MSTORE PUSH32 0x6573730000000000000000000000000000000000000000000000000000000000 PUSH1 0x20 DUP3 ADD MSTORE POP JUMP JUMPDEST PUSH1 0x0 PUSH2 0x1D93 PUSH1 0x23 DUP4 PUSH2 0x142A JUMP JUMPDEST SWAP2 POP PUSH2 0x1D9E DUP3 PUSH2 0x1D37 JUMP JUMPDEST PUSH1 0x40 DUP3 ADD SWAP1 POP SWAP2 SWAP1 POP JUMP JUMPDEST PUSH1 0x0 PUSH1 0x20 DUP3 ADD SWAP1 POP DUP2 DUP2 SUB PUSH1 0x0 DUP4 ADD MSTORE PUSH2 0x1DC2 DUP2 PUSH2 0x1D86 JUMP JUMPDEST SWAP1 POP SWAP2 SWAP1 POP JUMP JUMPDEST PUSH32 0x45524332303A207472616E7366657220616D6F756E7420657863656564732062 PUSH1 0x0 DUP3 ADD MSTORE PUSH32 0x616C616E63650000000000000000000000000000000000000000000000000000 PUSH1 0x20 DUP3 ADD MSTORE POP JUMP JUMPDEST PUSH1 0x0 PUSH2 0x1E25 PUSH1 0x26 DUP4 PUSH2 0x142A JUMP JUMPDEST SWAP2 POP PUSH2 0x1E30 DUP3 PUSH2 0x1DC9 JUMP JUMPDEST PUSH1 0x40 DUP3 ADD SWAP1 POP SWAP2 SWAP1 POP JUMP JUMPDEST PUSH1 0x0 PUSH1 0x20 DUP3 ADD SWAP1 POP DUP2 DUP2 SUB PUSH1 0x0 DUP4 ADD MSTORE PUSH2 0x1E54 DUP2 PUSH2 0x1E18 JUMP JUMPDEST SWAP1 POP SWAP2 SWAP1 POP JUMP JUMPDEST PUSH32 0x4F776E61626C653A2063616C6C6572206973206E6F7420746865206F776E6572 PUSH1 0x0 DUP3 ADD MSTORE POP JUMP JUMPDEST PUSH1 0x0 PUSH2 0x1E91 PUSH1 0x20 DUP4 PUSH2 0x142A JUMP JUMPDEST SWAP2 POP PUSH2 0x1E9C DUP3 PUSH2 0x1E5B JUMP JUMPDEST PUSH1 0x20 DUP3 ADD SWAP1 POP SWAP2 SWAP1 POP JUMP JUMPDEST PUSH1 0x0 PUSH1 0x20 DUP3 ADD SWAP1 POP DUP2 DUP2 SUB PUSH1 0x0 DUP4 ADD MSTORE PUSH2 0x1EC0 DUP2 PUSH2 0x1E84 JUMP JUMPDEST SWAP1 POP SWAP2 SWAP1 POP JUMP JUMPDEST PUSH32 0x45524332303A206D696E7420746F20746865207A65726F206164647265737300 PUSH1 0x0 DUP3 ADD MSTORE POP JUMP JUMPDEST PUSH1 0x0 PUSH2 0x1EFD PUSH1 0x1F DUP4 PUSH2 0x142A JUMP JUMPDEST SWAP2 POP PUSH2 0x1F08 DUP3 PUSH2 0x1EC7 JUMP JUMPDEST PUSH1 0x20 DUP3 ADD SWAP1 POP SWAP2 SWAP1 POP JUMP JUMPDEST PUSH1 0x0 PUSH1 0x20 DUP3 ADD SWAP1 POP DUP2 DUP2 SUB PUSH1 0x0 DUP4 ADD MSTORE PUSH2 0x1F2C DUP2 PUSH2 0x1EF0 JUMP JUMPDEST SWAP1 POP SWAP2 SWAP1 POP JUMP JUMPDEST PUSH32 0x45524332303A206275726E2066726F6D20746865207A65726F20616464726573 PUSH1 0x0 DUP3 ADD MSTORE PUSH32 0x7300000000000000000000000000000000000000000000000000000000000000 PUSH1 0x20 DUP3 ADD MSTORE POP JUMP JUMPDEST PUSH1 0x0 PUSH2 0x1F8F PUSH1 0x21 DUP4 PUSH2 0x142A JUMP JUMPDEST SWAP2 POP PUSH2 0x1F9A DUP3 PUSH2 0x1F33 JUMP JUMPDEST PUSH1 0x40 DUP3 ADD SWAP1 POP SWAP2 SWAP1 POP JUMP JUMPDEST PUSH1 0x0 PUSH1 0x20 DUP3 ADD SWAP1 POP DUP2 DUP2 SUB PUSH1 0x0 DUP4 ADD MSTORE PUSH2 0x1FBE DUP2 PUSH2 0x1F82 JUMP JUMPDEST SWAP1 POP SWAP2 SWAP1 POP JUMP JUMPDEST PUSH32 0x45524332303A206275726E20616D6F756E7420657863656564732062616C616E PUSH1 0x0 DUP3 ADD MSTORE PUSH32 0x6365000000000000000000000000000000000000000000000000000000000000 PUSH1 0x20 DUP3 ADD MSTORE POP JUMP JUMPDEST PUSH1 0x0 PUSH2 0x2021 PUSH1 0x22 DUP4 PUSH2 0x142A JUMP JUMPDEST SWAP2 POP PUSH2 0x202C DUP3 PUSH2 0x1FC5 JUMP JUMPDEST PUSH1 0x40 DUP3 ADD SWAP1 POP SWAP2 SWAP1 POP JUMP JUMPDEST PUSH1 0x0 PUSH1 0x20 DUP3 ADD SWAP1 POP DUP2 DUP2 SUB PUSH1 0x0 DUP4 ADD MSTORE PUSH2 0x2050 DUP2 PUSH2 0x2014 JUMP JUMPDEST SWAP1 POP SWAP2 SWAP1 POP JUMP JUMPDEST PUSH1 0x0 PUSH2 0x2062 DUP3 PUSH2 0x1534 JUMP JUMPDEST SWAP2 POP PUSH2 0x206D DUP4 PUSH2 0x1534 JUMP JUMPDEST SWAP3 POP DUP3 DUP3 SUB SWAP1 POP DUP2 DUP2 GT ISZERO PUSH2 0x2085 JUMPI PUSH2 0x2084 PUSH2 0x17B8 JUMP JUMPDEST JUMPDEST SWAP3 SWAP2 POP POP JUMP JUMPDEST PUSH32 0x5061757361626C653A206E6F7420706175736564000000000000000000000000 PUSH1 0x0 DUP3 ADD MSTORE POP JUMP JUMPDEST PUSH1 0x0 PUSH2 0x20C1 PUSH1 0x14 DUP4 PUSH2 0x142A JUMP JUMPDEST SWAP2 POP PUSH2 0x20CC DUP3 PUSH2 0x208B JUMP JUMPDEST PUSH1 0x20 DUP3 ADD SWAP1 POP SWAP2 SWAP1 POP JUMP JUMPDEST PUSH1 0x0 PUSH1 0x20 DUP3 ADD SWAP1 POP DUP2 DUP2 SUB PUSH1 0x0 DUP4 ADD MSTORE PUSH2 0x20F0 DUP2 PUSH2 0x20B4 JUMP JUMPDEST SWAP1 POP SWAP2 SWAP1 POP JUMP INVALID LOG2 PUSH5 0x6970667358 0x22 SLT KECCAK256 0x5E 0xB3 0x21 POP PUSH26 0x40B86123F0F849AA32AB2E4B6AD32702CA12F0589698839E1089 EXTCODESIZE PUSH5 0x736F6C6343 STOP ADDMOD GT STOP CALLER "
				},
				"gasEstimates": {
					"creation": {
						"codeDepositCost": "1698600",
						"executionCost": "infinite",
						"totalCost": "infinite"
					},
					"external": {
						"allowance(address,address)": "infinite",
						"approve(address,uint256)": "infinite",
						"balanceOf(address)": "2974",
						"burn(uint256)": "infinite",
						"burnFrom(address,uint256)": "infinite",
						"decimals()": "455",
						"decreaseAllowance(address,uint256)": "infinite",
						"increaseAllowance(address,uint256)": "infinite",
						"maxSupply()": "2503",
						"mint(address,uint256)": "infinite",
						"name()": "infinite",
						"owner()": "2611",
						"pause()": "infinite",
						"paused()": "2640",
						"renounceOwnership()": "30421",
						"symbol()": "infinite",
						"totalSupply()": "2505",
						"transfer(address,uint256)": "infinite",
						"transferFrom(address,address,uint256)": "infinite",
						"transferOwnership(address)": "30876",
						"unpause()": "infinite",
						"updateMaxSupply(uint256)": "29433"
					},
					"internal": {
						"_approve(address,address,uint256)": "infinite",
						"_burn(address,uint256)": "infinite",
						"_mint(address,uint256)": "infinite",
						"_spendAllowance(address,address,uint256)": "infinite",
						"_transfer(address,address,uint256)": "infinite"
					}
				},
				"methodIdentifiers": {
					"allowance(address,address)": "dd62ed3e",
					"approve(address,uint256)": "095ea7b3",
					"balanceOf(address)": "70a08231",
					"burn(uint256)": "42966c68",
					"burnFrom(address,uint256)": "79cc6790",
					"decimals()": "313ce567",
					"decreaseAllowance(address,uint256)": "a457c2d7",
					"increaseAllowance(address,uint256)": "39509351",
					"maxSupply()": "d5abeb01",
					"mint(address,uint256)": "40c10f19",
					"name()": "06fdde03",
					"owner()": "8da5cb5b",
					"pause()": "8456cb59",
					"paused()": "5c975abb",
					"renounceOwnership()": "715018a6",
					"symbol()": "95d89b41",
					"totalSupply()": "18160ddd",
					"transfer(address,uint256)": "a9059cbb",
					"transferFrom(address,address,uint256)": "23b872dd",
					"transferOwnership(address)": "f2fde38b",
					"unpause()": "3f4ba83a",
					"updateMaxSupply(uint256)": "f103b433"
				}
			},
			"storageLayout": {
				"storage": [
					{
						"astId": 24,
						"contract": "contracts/My World.sol:KAIRAA",
						"label": "_owner",
						"offset": 0,
						"slot": "0",
						"type": "t_address"
					},
					{
						"astId": 134,
						"contract": "contracts/My World.sol:KAIRAA",
						"label": "_paused",
						"offset": 20,
						"slot": "0",
						"type": "t_bool"
					},
					{
						"astId": 312,
						"contract": "contracts/My World.sol:KAIRAA",
						"label": "_name",
						"offset": 0,
						"slot": "1",
						"type": "t_string_storage"
					},
					{
						"astId": 315,
						"contract": "contracts/My World.sol:KAIRAA",
						"label": "_symbol",
						"offset": 0,
						"slot": "2",
						"type": "t_string_storage"
					},
					{
						"astId": 317,
						"contract": "contracts/My World.sol:KAIRAA",
						"label": "_totalSupply",
						"offset": 0,
						"slot": "3",
						"type": "t_uint256"
					},
					{
						"astId": 324,
						"contract": "contracts/My World.sol:KAIRAA",
						"label": "_maxSupply",
						"offset": 0,
						"slot": "4",
						"type": "t_uint256"
					},
					{
						"astId": 328,
						"contract": "contracts/My World.sol:KAIRAA",
						"label": "_balances",
						"offset": 0,
						"slot": "5",
						"type": "t_mapping(t_address,t_uint256)"
					},
					{
						"astId": 334,
						"contract": "contracts/My World.sol:KAIRAA",
						"label": "_allowances",
						"offset": 0,
						"slot": "6",
						"type": "t_mapping(t_address,t_mapping(t_address,t_uint256))"
					}
				],
				"types": {
					"t_address": {
						"encoding": "inplace",
						"label": "address",
						"numberOfBytes": "20"
					},
					"t_bool": {
						"encoding": "inplace",
						"label": "bool",
						"numberOfBytes": "1"
					},
					"t_mapping(t_address,t_mapping(t_address,t_uint256))": {
						"encoding": "mapping",
						"key": "t_address",
						"label": "mapping(address => mapping(address => uint256))",
						"numberOfBytes": "32",
						"value": "t_mapping(t_address,t_uint256)"
					},
					"t_mapping(t_address,t_uint256)": {
						"encoding": "mapping",
						"key": "t_address",
						"label": "mapping(address => uint256)",
						"numberOfBytes": "32",
						"value": "t_uint256"
					},
					"t_string_storage": {
						"encoding": "bytes",
						"label": "string",
						"numberOfBytes": "32"
					},
					"t_uint256": {
						"encoding": "inplace",
						"label": "uint256",
						"numberOfBytes": "32"
					}
				}
			},
			"userdoc": {
				"kind": "user",
				"methods": {},
				"version": 1
			}
		}
	}
}