{
	"data": {
		"bytecode": {
			"linkReferences": {},
			"object": "608060405234801561000f575f80fd5b5060405161110538038061110583398181016040528101906100319190610119565b335f806101000a81548173ffffffffffffffffffffffffffffffffffffffff021916908373ffffffffffffffffffffffffffffffffffffffff160217905550671bc16d674ec80000826100849190610184565b6001819055506078816100979190610184565b426100a291906101c5565b6002819055505f60055f6101000a81548160ff0219169083151502179055505f600560016101000a81548160ff02191690831515021790555050506101f8565b5f80fd5b5f819050919050565b6100f8816100e6565b8114610102575f80fd5b50565b5f81519050610113816100ef565b92915050565b5f806040838503121561012f5761012e6100e2565b5b5f61013c85828601610105565b925050602061014d85828601610105565b9150509250929050565b7f4e487b71000000000000000000000000000000000000000000000000000000005f52601160045260245ffd5b5f61018e826100e6565b9150610199836100e6565b92508282026101a7816100e6565b915082820484148315176101be576101bd610157565b5b5092915050565b5f6101cf826100e6565b91506101da836100e6565b92508282019050808211156101f2576101f1610157565b5b92915050565b610f00806102055f395ff3fe6080604052600436106100a6575f3560e01c80634019388311610063578063401938831461019057806342e94c90146101ba5780637c654303146101f6578063b2d5ae4414610220578063d7bb99ba14610236578063fa391c6414610240576100a6565b806302d05d3f146100aa57806312065fe0146100d457806324600fc3146100fe57806329dcb0cf1461011457806337c089231461013e578063389b753314610168575b5f80fd5b3480156100b5575f80fd5b506100be61026a565b6040516100cb919061094a565b60405180910390f35b3480156100df575f80fd5b506100e861028d565b6040516100f5919061097b565b60405180910390f35b348015610109575f80fd5b50610112610294565b005b34801561011f575f80fd5b5061012861043f565b604051610135919061097b565b60405180910390f35b348015610149575f80fd5b50610152610445565b60405161015f919061097b565b60405180910390f35b348015610173575f80fd5b5061018e600480360381019061018991906109c2565b61044b565b005b34801561019b575f80fd5b506101a46104ff565b6040516101b1919061097b565b60405180910390f35b3480156101c5575f80fd5b506101e060048036038101906101db9190610a17565b610505565b6040516101ed919061097b565b60405180910390f35b348015610201575f80fd5b5061020a61051a565b6040516102179190610a5c565b60405180910390f35b34801561022b575f80fd5b5061023461052c565b005b61023e61075a565b005b34801561024b575f80fd5b506102546108f8565b6040516102619190610a5c565b60405180910390f35b5f8054906101000a900473ffffffffffffffffffffffffffffffffffffffff1681565b5f47905090565b5f8054906101000a900473ffffffffffffffffffffffffffffffffffffffff1673ffffffffffffffffffffffffffffffffffffffff163373ffffffffffffffffffffffffffffffffffffffff1614610321576040517f08c379a000000000000000000000000000000000000000000000000000000000815260040161031890610af5565b60405180910390fd5b60055f9054906101000a900460ff1661036f576040517f08c379a000000000000000000000000000000000000000000000000000000000815260040161036690610b5d565b60405180910390fd5b600560019054906101000a900460ff16156103bf576040517f08c379a00000000000000000000000000000000000000000000000000000000081526004016103b690610beb565b60405180910390fd5b6001600560016101000a81548160ff0219169083151502179055505f8054906101000a900473ffffffffffffffffffffffffffffffffffffffff1673ffffffffffffffffffffffffffffffffffffffff166108fc4790811502906040515f60405180830381858888f1935050505015801561043c573d5f803e3d5ffd5b50565b60025481565b60045481565b5f8054906101000a900473ffffffffffffffffffffffffffffffffffffffff1673ffffffffffffffffffffffffffffffffffffffff163373ffffffffffffffffffffffffffffffffffffffff16146104d8576040517f08c379a00000000000000000000000000000000000000000000000000000000081526004016104cf90610af5565b60405180910390fd5b6078816104e59190610c36565b60025f8282546104f59190610c77565b9250508190555050565b60015481565b6003602052805f5260405f205f915090505481565b60055f9054906101000a900460ff1681565b600254421015610571576040517f08c379a000000000000000000000000000000000000000000000000000000000815260040161056890610cf4565b60405180910390fd5b60055f9054906101000a900460ff16156105c0576040517f08c379a00000000000000000000000000000000000000000000000000000000081526004016105b790610d82565b60405180910390fd5b5f60035f3373ffffffffffffffffffffffffffffffffffffffff1673ffffffffffffffffffffffffffffffffffffffff1681526020019081526020015f20541161063f576040517f08c379a000000000000000000000000000000000000000000000000000000000815260040161063690610dea565b60405180910390fd5b5f60035f3373ffffffffffffffffffffffffffffffffffffffff1673ffffffffffffffffffffffffffffffffffffffff1681526020019081526020015f205490505f60035f3373ffffffffffffffffffffffffffffffffffffffff1673ffffffffffffffffffffffffffffffffffffffff1681526020019081526020015f20819055508060045f8282546106d39190610e08565b925050819055503373ffffffffffffffffffffffffffffffffffffffff166108fc8290811502906040515f60405180830381858888f1935050505015801561071d573d5f803e3d5ffd5b507fa6b4357f4495d4f6b38f2dbf23b05c27a2fefe515fbc3d79ee8fbcdf5f61213a338260405161074f929190610e3b565b60405180910390a150565b600254421061079e576040517f08c379a000000000000000000000000000000000000000000000000000000000815260040161079590610eac565b60405180910390fd5b600560019054906101000a900460ff16156107ee576040517f08c379a00000000000000000000000000000000000000000000000000000000081526004016107e590610beb565b60405180910390fd5b5f3490508060035f3373ffffffffffffffffffffffffffffffffffffffff1673ffffffffffffffffffffffffffffffffffffffff1681526020019081526020015f205f82825461083e9190610c77565b925050819055508060045f8282546108569190610c77565b92505081905550600154600454106108bc57600160055f6101000a81548160ff0219169083151502179055507ffbfd8ab7c24300fa9888cd721c8565a7da56759384781283684dcf7c7c4a846b6004546040516108b3919061097b565b60405180910390a15b7fa6b4357f4495d4f6b38f2dbf23b05c27a2fefe515fbc3d79ee8fbcdf5f61213a33826040516108ed929190610e3b565b60405180910390a150565b600560019054906101000a900460ff1681565b5f73ffffffffffffffffffffffffffffffffffffffff82169050919050565b5f6109348261090b565b9050919050565b6109448161092a565b82525050565b5f60208201905061095d5f83018461093b565b92915050565b5f819050919050565b61097581610963565b82525050565b5f60208201905061098e5f83018461096c565b92915050565b5f80fd5b6109a181610963565b81146109ab575f80fd5b50565b5f813590506109bc81610998565b92915050565b5f602082840312156109d7576109d6610994565b5b5f6109e4848285016109ae565b91505092915050565b6109f68161092a565b8114610a00575f80fd5b50565b5f81359050610a11816109ed565b92915050565b5f60208284031215610a2c57610a2b610994565b5b5f610a3984828501610a03565b91505092915050565b5f8115159050919050565b610a5681610a42565b82525050565b5f602082019050610a6f5f830184610a4d565b92915050565b5f82825260208201905092915050565b7f6f6e6c79207468652063726561746f722063616e2063616c6c207468697320665f8201527f756e6374696f6e00000000000000000000000000000000000000000000000000602082015250565b5f610adf602783610a75565b9150610aea82610a85565b604082019050919050565b5f6020820190508181035f830152610b0c81610ad3565b9050919050565b7f676f616c206973206e6f742072656163686564000000000000000000000000005f82015250565b5f610b47601383610a75565b9150610b5282610b13565b602082019050919050565b5f6020820190508181035f830152610b7481610b3b565b9050919050565b7f63726f776466756e64696e6720697320616c726561647920636f6d706c6574655f8201527f6400000000000000000000000000000000000000000000000000000000000000602082015250565b5f610bd5602183610a75565b9150610be082610b7b565b604082019050919050565b5f6020820190508181035f830152610c0281610bc9565b9050919050565b7f4e487b71000000000000000000000000000000000000000000000000000000005f52601160045260245ffd5b5f610c4082610963565b9150610c4b83610963565b9250828202610c5981610963565b91508282048414831517610c7057610c6f610c09565b5b5092915050565b5f610c8182610963565b9150610c8c83610963565b9250828201905080821115610ca457610ca3610c09565b5b92915050565b7f66756e64696e6720706572696f6420686173206e6f7420656e646564000000005f82015250565b5f610cde601c83610a75565b9150610ce982610caa565b602082019050919050565b5f6020820190508181035f830152610d0b81610cd2565b9050919050565b7f676f616c20686173206265656e20726561636865642c206e6f20726566756e645f8201527f20616c6c6f776564000000000000000000000000000000000000000000000000602082015250565b5f610d6c602883610a75565b9150610d7782610d12565b604082019050919050565b5f6020820190508181035f830152610d9981610d60565b9050919050565b7f6e6f20636f6e747269627574696f6e20746f20726566756e64000000000000005f82015250565b5f610dd4601983610a75565b9150610ddf82610da0565b602082019050919050565b5f6020820190508181035f830152610e0181610dc8565b9050919050565b5f610e1282610963565b9150610e1d83610963565b9250828203905081811115610e3557610e34610c09565b5b92915050565b5f604082019050610e4e5f83018561093b565b610e5b602083018461096c565b9392505050565b7f66756e64696e6720706572696f642068617320656e64656400000000000000005f82015250565b5f610e96601883610a75565b9150610ea182610e62565b602082019050919050565b5f6020820190508181035f830152610ec381610e8a565b905091905056fea264697066735822122099abcc69700875c2136495f8cf41054f33ecd2183c3d777d53c989e52ee205f864736f6c634300081a0033",
			"opcodes": "PUSH1 0x80 PUSH1 0x40 MSTORE CALLVALUE DUP1 ISZERO PUSH2 0xF JUMPI PUSH0 DUP1 REVERT JUMPDEST POP PUSH1 0x40 MLOAD PUSH2 0x1105 CODESIZE SUB DUP1 PUSH2 0x1105 DUP4 CODECOPY DUP2 DUP2 ADD PUSH1 0x40 MSTORE DUP2 ADD SWAP1 PUSH2 0x31 SWAP2 SWAP1 PUSH2 0x119 JUMP JUMPDEST CALLER PUSH0 DUP1 PUSH2 0x100 EXP DUP2 SLOAD DUP2 PUSH20 0xFFFFFFFFFFFFFFFFFFFFFFFFFFFFFFFFFFFFFFFF MUL NOT AND SWAP1 DUP4 PUSH20 0xFFFFFFFFFFFFFFFFFFFFFFFFFFFFFFFFFFFFFFFF AND MUL OR SWAP1 SSTORE POP PUSH8 0x1BC16D674EC80000 DUP3 PUSH2 0x84 SWAP2 SWAP1 PUSH2 0x184 JUMP JUMPDEST PUSH1 0x1 DUP2 SWAP1 SSTORE POP PUSH1 0x78 DUP2 PUSH2 0x97 SWAP2 SWAP1 PUSH2 0x184 JUMP JUMPDEST TIMESTAMP PUSH2 0xA2 SWAP2 SWAP1 PUSH2 0x1C5 JUMP JUMPDEST PUSH1 0x2 DUP2 SWAP1 SSTORE POP PUSH0 PUSH1 0x5 PUSH0 PUSH2 0x100 EXP DUP2 SLOAD DUP2 PUSH1 0xFF MUL NOT AND SWAP1 DUP4 ISZERO ISZERO MUL OR SWAP1 SSTORE POP PUSH0 PUSH1 0x5 PUSH1 0x1 PUSH2 0x100 EXP DUP2 SLOAD DUP2 PUSH1 0xFF MUL NOT AND SWAP1 DUP4 ISZERO ISZERO MUL OR SWAP1 SSTORE POP POP POP PUSH2 0x1F8 JUMP JUMPDEST PUSH0 DUP1 REVERT JUMPDEST PUSH0 DUP2 SWAP1 POP SWAP2 SWAP1 POP JUMP JUMPDEST PUSH2 0xF8 DUP2 PUSH2 0xE6 JUMP JUMPDEST DUP2 EQ PUSH2 0x102 JUMPI PUSH0 DUP1 REVERT JUMPDEST POP JUMP JUMPDEST PUSH0 DUP2 MLOAD SWAP1 POP PUSH2 0x113 DUP2 PUSH2 0xEF JUMP JUMPDEST SWAP3 SWAP2 POP POP JUMP JUMPDEST PUSH0 DUP1 PUSH1 0x40 DUP4 DUP6 SUB SLT ISZERO PUSH2 0x12F JUMPI PUSH2 0x12E PUSH2 0xE2 JUMP JUMPDEST JUMPDEST PUSH0 PUSH2 0x13C DUP6 DUP3 DUP7 ADD PUSH2 0x105 JUMP JUMPDEST SWAP3 POP POP PUSH1 0x20 PUSH2 0x14D DUP6 DUP3 DUP7 ADD PUSH2 0x105 JUMP JUMPDEST SWAP2 POP POP SWAP3 POP SWAP3 SWAP1 POP JUMP JUMPDEST PUSH32 0x4E487B7100000000000000000000000000000000000000000000000000000000 PUSH0 MSTORE PUSH1 0x11 PUSH1 0x4 MSTORE PUSH1 0x24 PUSH0 REVERT JUMPDEST PUSH0 PUSH2 0x18E DUP3 PUSH2 0xE6 JUMP JUMPDEST SWAP2 POP PUSH2 0x199 DUP4 PUSH2 0xE6 JUMP JUMPDEST SWAP3 POP DUP3 DUP3 MUL PUSH2 0x1A7 DUP2 PUSH2 0xE6 JUMP JUMPDEST SWAP2 POP DUP3 DUP3 DIV DUP5 EQ DUP4 ISZERO OR PUSH2 0x1BE JUMPI PUSH2 0x1BD PUSH2 0x157 JUMP JUMPDEST JUMPDEST POP SWAP3 SWAP2 POP POP JUMP JUMPDEST PUSH0 PUSH2 0x1CF DUP3 PUSH2 0xE6 JUMP JUMPDEST SWAP2 POP PUSH2 0x1DA DUP4 PUSH2 0xE6 JUMP JUMPDEST SWAP3 POP DUP3 DUP3 ADD SWAP1 POP DUP1 DUP3 GT ISZERO PUSH2 0x1F2 JUMPI PUSH2 0x1F1 PUSH2 0x157 JUMP JUMPDEST JUMPDEST SWAP3 SWAP2 POP POP JUMP JUMPDEST PUSH2 0xF00 DUP1 PUSH2 0x205 PUSH0 CODECOPY PUSH0 RETURN INVALID PUSH1 0x80 PUSH1 0x40 MSTORE PUSH1 0x4 CALLDATASIZE LT PUSH2 0xA6 JUMPI PUSH0 CALLDATALOAD PUSH1 0xE0 SHR DUP1 PUSH4 0x40193883 GT PUSH2 0x63 JUMPI DUP1 PUSH4 0x40193883 EQ PUSH2 0x190 JUMPI DUP1 PUSH4 0x42E94C90 EQ PUSH2 0x1BA JUMPI DUP1 PUSH4 0x7C654303 EQ PUSH2 0x1F6 JUMPI DUP1 PUSH4 0xB2D5AE44 EQ PUSH2 0x220 JUMPI DUP1 PUSH4 0xD7BB99BA EQ PUSH2 0x236 JUMPI DUP1 PUSH4 0xFA391C64 EQ PUSH2 0x240 JUMPI PUSH2 0xA6 JUMP JUMPDEST DUP1 PUSH4 0x2D05D3F EQ PUSH2 0xAA JUMPI DUP1 PUSH4 0x12065FE0 EQ PUSH2 0xD4 JUMPI DUP1 PUSH4 0x24600FC3 EQ PUSH2 0xFE JUMPI DUP1 PUSH4 0x29DCB0CF EQ PUSH2 0x114 JUMPI DUP1 PUSH4 0x37C08923 EQ PUSH2 0x13E JUMPI DUP1 PUSH4 0x389B7533 EQ PUSH2 0x168 JUMPI JUMPDEST PUSH0 DUP1 REVERT JUMPDEST CALLVALUE DUP1 ISZERO PUSH2 0xB5 JUMPI PUSH0 DUP1 REVERT JUMPDEST POP PUSH2 0xBE PUSH2 0x26A JUMP JUMPDEST PUSH1 0x40 MLOAD PUSH2 0xCB SWAP2 SWAP1 PUSH2 0x94A JUMP JUMPDEST PUSH1 0x40 MLOAD DUP1 SWAP2 SUB SWAP1 RETURN JUMPDEST CALLVALUE DUP1 ISZERO PUSH2 0xDF JUMPI PUSH0 DUP1 REVERT JUMPDEST POP PUSH2 0xE8 PUSH2 0x28D JUMP JUMPDEST PUSH1 0x40 MLOAD PUSH2 0xF5 SWAP2 SWAP1 PUSH2 0x97B JUMP JUMPDEST PUSH1 0x40 MLOAD DUP1 SWAP2 SUB SWAP1 RETURN JUMPDEST CALLVALUE DUP1 ISZERO PUSH2 0x109 JUMPI PUSH0 DUP1 REVERT JUMPDEST POP PUSH2 0x112 PUSH2 0x294 JUMP JUMPDEST STOP JUMPDEST CALLVALUE DUP1 ISZERO PUSH2 0x11F JUMPI PUSH0 DUP1 REVERT JUMPDEST POP PUSH2 0x128 PUSH2 0x43F JUMP JUMPDEST PUSH1 0x40 MLOAD PUSH2 0x135 SWAP2 SWAP1 PUSH2 0x97B JUMP JUMPDEST PUSH1 0x40 MLOAD DUP1 SWAP2 SUB SWAP1 RETURN JUMPDEST CALLVALUE DUP1 ISZERO PUSH2 0x149 JUMPI PUSH0 DUP1 REVERT JUMPDEST POP PUSH2 0x152 PUSH2 0x445 JUMP JUMPDEST PUSH1 0x40 MLOAD PUSH2 0x15F SWAP2 SWAP1 PUSH2 0x97B JUMP JUMPDEST PUSH1 0x40 MLOAD DUP1 SWAP2 SUB SWAP1 RETURN JUMPDEST CALLVALUE DUP1 ISZERO PUSH2 0x173 JUMPI PUSH0 DUP1 REVERT JUMPDEST POP PUSH2 0x18E PUSH1 0x4 DUP1 CALLDATASIZE SUB DUP2 ADD SWAP1 PUSH2 0x189 SWAP2 SWAP1 PUSH2 0x9C2 JUMP JUMPDEST PUSH2 0x44B JUMP JUMPDEST STOP JUMPDEST CALLVALUE DUP1 ISZERO PUSH2 0x19B JUMPI PUSH0 DUP1 REVERT JUMPDEST POP PUSH2 0x1A4 PUSH2 0x4FF JUMP JUMPDEST PUSH1 0x40 MLOAD PUSH2 0x1B1 SWAP2 SWAP1 PUSH2 0x97B JUMP JUMPDEST PUSH1 0x40 MLOAD DUP1 SWAP2 SUB SWAP1 RETURN JUMPDEST CALLVALUE DUP1 ISZERO PUSH2 0x1C5 JUMPI PUSH0 DUP1 REVERT JUMPDEST POP PUSH2 0x1E0 PUSH1 0x4 DUP1 CALLDATASIZE SUB DUP2 ADD SWAP1 PUSH2 0x1DB SWAP2 SWAP1 PUSH2 0xA17 JUMP JUMPDEST PUSH2 0x505 JUMP JUMPDEST PUSH1 0x40 MLOAD PUSH2 0x1ED SWAP2 SWAP1 PUSH2 0x97B JUMP JUMPDEST PUSH1 0x40 MLOAD DUP1 SWAP2 SUB SWAP1 RETURN JUMPDEST CALLVALUE DUP1 ISZERO PUSH2 0x201 JUMPI PUSH0 DUP1 REVERT JUMPDEST POP PUSH2 0x20A PUSH2 0x51A JUMP JUMPDEST PUSH1 0x40 MLOAD PUSH2 0x217 SWAP2 SWAP1 PUSH2 0xA5C JUMP JUMPDEST PUSH1 0x40 MLOAD DUP1 SWAP2 SUB SWAP1 RETURN JUMPDEST CALLVALUE DUP1 ISZERO PUSH2 0x22B JUMPI PUSH0 DUP1 REVERT JUMPDEST POP PUSH2 0x234 PUSH2 0x52C JUMP JUMPDEST STOP JUMPDEST PUSH2 0x23E PUSH2 0x75A JUMP JUMPDEST STOP JUMPDEST CALLVALUE DUP1 ISZERO PUSH2 0x24B JUMPI PUSH0 DUP1 REVERT JUMPDEST POP PUSH2 0x254 PUSH2 0x8F8 JUMP JUMPDEST PUSH1 0x40 MLOAD PUSH2 0x261 SWAP2 SWAP1 PUSH2 0xA5C JUMP JUMPDEST PUSH1 0x40 MLOAD DUP1 SWAP2 SUB SWAP1 RETURN JUMPDEST PUSH0 DUP1 SLOAD SWAP1 PUSH2 0x100 EXP SWAP1 DIV PUSH20 0xFFFFFFFFFFFFFFFFFFFFFFFFFFFFFFFFFFFFFFFF AND DUP2 JUMP JUMPDEST PUSH0 SELFBALANCE SWAP1 POP SWAP1 JUMP JUMPDEST PUSH0 DUP1 SLOAD SWAP1 PUSH2 0x100 EXP SWAP1 DIV PUSH20 0xFFFFFFFFFFFFFFFFFFFFFFFFFFFFFFFFFFFFFFFF AND PUSH20 0xFFFFFFFFFFFFFFFFFFFFFFFFFFFFFFFFFFFFFFFF AND CALLER PUSH20 0xFFFFFFFFFFFFFFFFFFFFFFFFFFFFFFFFFFFFFFFF AND EQ PUSH2 0x321 JUMPI PUSH1 0x40 MLOAD PUSH32 0x8C379A000000000000000000000000000000000000000000000000000000000 DUP2 MSTORE PUSH1 0x4 ADD PUSH2 0x318 SWAP1 PUSH2 0xAF5 JUMP JUMPDEST PUSH1 0x40 MLOAD DUP1 SWAP2 SUB SWAP1 REVERT JUMPDEST PUSH1 0x5 PUSH0 SWAP1 SLOAD SWAP1 PUSH2 0x100 EXP SWAP1 DIV PUSH1 0xFF AND PUSH2 0x36F JUMPI PUSH1 0x40 MLOAD PUSH32 0x8C379A000000000000000000000000000000000000000000000000000000000 DUP2 MSTORE PUSH1 0x4 ADD PUSH2 0x366 SWAP1 PUSH2 0xB5D JUMP JUMPDEST PUSH1 0x40 MLOAD DUP1 SWAP2 SUB SWAP1 REVERT JUMPDEST PUSH1 0x5 PUSH1 0x1 SWAP1 SLOAD SWAP1 PUSH2 0x100 EXP SWAP1 DIV PUSH1 0xFF AND ISZERO PUSH2 0x3BF JUMPI PUSH1 0x40 MLOAD PUSH32 0x8C379A000000000000000000000000000000000000000000000000000000000 DUP2 MSTORE PUSH1 0x4 ADD PUSH2 0x3B6 SWAP1 PUSH2 0xBEB JUMP JUMPDEST PUSH1 0x40 MLOAD DUP1 SWAP2 SUB SWAP1 REVERT JUMPDEST PUSH1 0x1 PUSH1 0x5 PUSH1 0x1 PUSH2 0x100 EXP DUP2 SLOAD DUP2 PUSH1 0xFF MUL NOT AND SWAP1 DUP4 ISZERO ISZERO MUL OR SWAP1 SSTORE POP PUSH0 DUP1 SLOAD SWAP1 PUSH2 0x100 EXP SWAP1 DIV PUSH20 0xFFFFFFFFFFFFFFFFFFFFFFFFFFFFFFFFFFFFFFFF AND PUSH20 0xFFFFFFFFFFFFFFFFFFFFFFFFFFFFFFFFFFFFFFFF AND PUSH2 0x8FC SELFBALANCE SWAP1 DUP2 ISZERO MUL SWAP1 PUSH1 0x40 MLOAD PUSH0 PUSH1 0x40 MLOAD DUP1 DUP4 SUB DUP2 DUP6 DUP9 DUP9 CALL SWAP4 POP POP POP POP ISZERO DUP1 ISZERO PUSH2 0x43C JUMPI RETURNDATASIZE PUSH0 DUP1 RETURNDATACOPY RETURNDATASIZE PUSH0 REVERT JUMPDEST POP JUMP JUMPDEST PUSH1 0x2 SLOAD DUP2 JUMP JUMPDEST PUSH1 0x4 SLOAD DUP2 JUMP JUMPDEST PUSH0 DUP1 SLOAD SWAP1 PUSH2 0x100 EXP SWAP1 DIV PUSH20 0xFFFFFFFFFFFFFFFFFFFFFFFFFFFFFFFFFFFFFFFF AND PUSH20 0xFFFFFFFFFFFFFFFFFFFFFFFFFFFFFFFFFFFFFFFF AND CALLER PUSH20 0xFFFFFFFFFFFFFFFFFFFFFFFFFFFFFFFFFFFFFFFF AND EQ PUSH2 0x4D8 JUMPI PUSH1 0x40 MLOAD PUSH32 0x8C379A000000000000000000000000000000000000000000000000000000000 DUP2 MSTORE PUSH1 0x4 ADD PUSH2 0x4CF SWAP1 PUSH2 0xAF5 JUMP JUMPDEST PUSH1 0x40 MLOAD DUP1 SWAP2 SUB SWAP1 REVERT JUMPDEST PUSH1 0x78 DUP2 PUSH2 0x4E5 SWAP2 SWAP1 PUSH2 0xC36 JUMP JUMPDEST PUSH1 0x2 PUSH0 DUP3 DUP3 SLOAD PUSH2 0x4F5 SWAP2 SWAP1 PUSH2 0xC77 JUMP JUMPDEST SWAP3 POP POP DUP2 SWAP1 SSTORE POP POP JUMP JUMPDEST PUSH1 0x1 SLOAD DUP2 JUMP JUMPDEST PUSH1 0x3 PUSH1 0x20 MSTORE DUP1 PUSH0 MSTORE PUSH1 0x40 PUSH0 KECCAK256 PUSH0 SWAP2 POP SWAP1 POP SLOAD DUP2 JUMP JUMPDEST PUSH1 0x5 PUSH0 SWAP1 SLOAD SWAP1 PUSH2 0x100 EXP SWAP1 DIV PUSH1 0xFF AND DUP2 JUMP JUMPDEST PUSH1 0x2 SLOAD TIMESTAMP LT ISZERO PUSH2 0x571 JUMPI PUSH1 0x40 MLOAD PUSH32 0x8C379A000000000000000000000000000000000000000000000000000000000 DUP2 MSTORE PUSH1 0x4 ADD PUSH2 0x568 SWAP1 PUSH2 0xCF4 JUMP JUMPDEST PUSH1 0x40 MLOAD DUP1 SWAP2 SUB SWAP1 REVERT JUMPDEST PUSH1 0x5 PUSH0 SWAP1 SLOAD SWAP1 PUSH2 0x100 EXP SWAP1 DIV PUSH1 0xFF AND ISZERO PUSH2 0x5C0 JUMPI PUSH1 0x40 MLOAD PUSH32 0x8C379A000000000000000000000000000000000000000000000000000000000 DUP2 MSTORE PUSH1 0x4 ADD PUSH2 0x5B7 SWAP1 PUSH2 0xD82 JUMP JUMPDEST PUSH1 0x40 MLOAD DUP1 SWAP2 SUB SWAP1 REVERT JUMPDEST PUSH0 PUSH1 0x3 PUSH0 CALLER PUSH20 0xFFFFFFFFFFFFFFFFFFFFFFFFFFFFFFFFFFFFFFFF AND PUSH20 0xFFFFFFFFFFFFFFFFFFFFFFFFFFFFFFFFFFFFFFFF AND DUP2 MSTORE PUSH1 0x20 ADD SWAP1 DUP2 MSTORE PUSH1 0x20 ADD PUSH0 KECCAK256 SLOAD GT PUSH2 0x63F JUMPI PUSH1 0x40 MLOAD PUSH32 0x8C379A000000000000000000000000000000000000000000000000000000000 DUP2 MSTORE PUSH1 0x4 ADD PUSH2 0x636 SWAP1 PUSH2 0xDEA JUMP JUMPDEST PUSH1 0x40 MLOAD DUP1 SWAP2 SUB SWAP1 REVERT JUMPDEST PUSH0 PUSH1 0x3 PUSH0 CALLER PUSH20 0xFFFFFFFFFFFFFFFFFFFFFFFFFFFFFFFFFFFFFFFF AND PUSH20 0xFFFFFFFFFFFFFFFFFFFFFFFFFFFFFFFFFFFFFFFF AND DUP2 MSTORE PUSH1 0x20 ADD SWAP1 DUP2 MSTORE PUSH1 0x20 ADD PUSH0 KECCAK256 SLOAD SWAP1 POP PUSH0 PUSH1 0x3 PUSH0 CALLER PUSH20 0xFFFFFFFFFFFFFFFFFFFFFFFFFFFFFFFFFFFFFFFF AND PUSH20 0xFFFFFFFFFFFFFFFFFFFFFFFFFFFFFFFFFFFFFFFF AND DUP2 MSTORE PUSH1 0x20 ADD SWAP1 DUP2 MSTORE PUSH1 0x20 ADD PUSH0 KECCAK256 DUP2 SWAP1 SSTORE POP DUP1 PUSH1 0x4 PUSH0 DUP3 DUP3 SLOAD PUSH2 0x6D3 SWAP2 SWAP1 PUSH2 0xE08 JUMP JUMPDEST SWAP3 POP POP DUP2 SWAP1 SSTORE POP CALLER PUSH20 0xFFFFFFFFFFFFFFFFFFFFFFFFFFFFFFFFFFFFFFFF AND PUSH2 0x8FC DUP3 SWAP1 DUP2 ISZERO MUL SWAP1 PUSH1 0x40 MLOAD PUSH0 PUSH1 0x40 MLOAD DUP1 DUP4 SUB DUP2 DUP6 DUP9 DUP9 CALL SWAP4 POP POP POP POP ISZERO DUP1 ISZERO PUSH2 0x71D JUMPI RETURNDATASIZE PUSH0 DUP1 RETURNDATACOPY RETURNDATASIZE PUSH0 REVERT JUMPDEST POP PUSH32 0xA6B4357F4495D4F6B38F2DBF23B05C27A2FEFE515FBC3D79EE8FBCDF5F61213A CALLER DUP3 PUSH1 0x40 MLOAD PUSH2 0x74F SWAP3 SWAP2 SWAP1 PUSH2 0xE3B JUMP JUMPDEST PUSH1 0x40 MLOAD DUP1 SWAP2 SUB SWAP1 LOG1 POP JUMP JUMPDEST PUSH1 0x2 SLOAD TIMESTAMP LT PUSH2 0x79E JUMPI PUSH1 0x40 MLOAD PUSH32 0x8C379A000000000000000000000000000000000000000000000000000000000 DUP2 MSTORE PUSH1 0x4 ADD PUSH2 0x795 SWAP1 PUSH2 0xEAC JUMP JUMPDEST PUSH1 0x40 MLOAD DUP1 SWAP2 SUB SWAP1 REVERT JUMPDEST PUSH1 0x5 PUSH1 0x1 SWAP1 SLOAD SWAP1 PUSH2 0x100 EXP SWAP1 DIV PUSH1 0xFF AND ISZERO PUSH2 0x7EE JUMPI PUSH1 0x40 MLOAD PUSH32 0x8C379A000000000000000000000000000000000000000000000000000000000 DUP2 MSTORE PUSH1 0x4 ADD PUSH2 0x7E5 SWAP1 PUSH2 0xBEB JUMP JUMPDEST PUSH1 0x40 MLOAD DUP1 SWAP2 SUB SWAP1 REVERT JUMPDEST PUSH0 CALLVALUE SWAP1 POP DUP1 PUSH1 0x3 PUSH0 CALLER PUSH20 0xFFFFFFFFFFFFFFFFFFFFFFFFFFFFFFFFFFFFFFFF AND PUSH20 0xFFFFFFFFFFFFFFFFFFFFFFFFFFFFFFFFFFFFFFFF AND DUP2 MSTORE PUSH1 0x20 ADD SWAP1 DUP2 MSTORE PUSH1 0x20 ADD PUSH0 KECCAK256 PUSH0 DUP3 DUP3 SLOAD PUSH2 0x83E SWAP2 SWAP1 PUSH2 0xC77 JUMP JUMPDEST SWAP3 POP POP DUP2 SWAP1 SSTORE POP DUP1 PUSH1 0x4 PUSH0 DUP3 DUP3 SLOAD PUSH2 0x856 SWAP2 SWAP1 PUSH2 0xC77 JUMP JUMPDEST SWAP3 POP POP DUP2 SWAP1 SSTORE POP PUSH1 0x1 SLOAD PUSH1 0x4 SLOAD LT PUSH2 0x8BC JUMPI PUSH1 0x1 PUSH1 0x5 PUSH0 PUSH2 0x100 EXP DUP2 SLOAD DUP2 PUSH1 0xFF MUL NOT AND SWAP1 DUP4 ISZERO ISZERO MUL OR SWAP1 SSTORE POP PUSH32 0xFBFD8AB7C24300FA9888CD721C8565A7DA56759384781283684DCF7C7C4A846B PUSH1 0x4 SLOAD PUSH1 0x40 MLOAD PUSH2 0x8B3 SWAP2 SWAP1 PUSH2 0x97B JUMP JUMPDEST PUSH1 0x40 MLOAD DUP1 SWAP2 SUB SWAP1 LOG1 JUMPDEST PUSH32 0xA6B4357F4495D4F6B38F2DBF23B05C27A2FEFE515FBC3D79EE8FBCDF5F61213A CALLER DUP3 PUSH1 0x40 MLOAD PUSH2 0x8ED SWAP3 SWAP2 SWAP1 PUSH2 0xE3B JUMP JUMPDEST PUSH1 0x40 MLOAD DUP1 SWAP2 SUB SWAP1 LOG1 POP JUMP JUMPDEST PUSH1 0x5 PUSH1 0x1 SWAP1 SLOAD SWAP1 PUSH2 0x100 EXP SWAP1 DIV PUSH1 0xFF AND DUP2 JUMP JUMPDEST PUSH0 PUSH20 0xFFFFFFFFFFFFFFFFFFFFFFFFFFFFFFFFFFFFFFFF DUP3 AND SWAP1 POP SWAP2 SWAP1 POP JUMP JUMPDEST PUSH0 PUSH2 0x934 DUP3 PUSH2 0x90B JUMP JUMPDEST SWAP1 POP SWAP2 SWAP1 POP JUMP JUMPDEST PUSH2 0x944 DUP2 PUSH2 0x92A JUMP JUMPDEST DUP3 MSTORE POP POP JUMP JUMPDEST PUSH0 PUSH1 0x20 DUP3 ADD SWAP1 POP PUSH2 0x95D PUSH0 DUP4 ADD DUP5 PUSH2 0x93B JUMP JUMPDEST SWAP3 SWAP2 POP POP JUMP JUMPDEST PUSH0 DUP2 SWAP1 POP SWAP2 SWAP1 POP JUMP JUMPDEST PUSH2 0x975 DUP2 PUSH2 0x963 JUMP JUMPDEST DUP3 MSTORE POP POP JUMP JUMPDEST PUSH0 PUSH1 0x20 DUP3 ADD SWAP1 POP PUSH2 0x98E PUSH0 DUP4 ADD DUP5 PUSH2 0x96C JUMP JUMPDEST SWAP3 SWAP2 POP POP JUMP JUMPDEST PUSH0 DUP1 REVERT JUMPDEST PUSH2 0x9A1 DUP2 PUSH2 0x963 JUMP JUMPDEST DUP2 EQ PUSH2 0x9AB JUMPI PUSH0 DUP1 REVERT JUMPDEST POP JUMP JUMPDEST PUSH0 DUP2 CALLDATALOAD SWAP1 POP PUSH2 0x9BC DUP2 PUSH2 0x998 JUMP JUMPDEST SWAP3 SWAP2 POP POP JUMP JUMPDEST PUSH0 PUSH1 0x20 DUP3 DUP5 SUB SLT ISZERO PUSH2 0x9D7 JUMPI PUSH2 0x9D6 PUSH2 0x994 JUMP JUMPDEST JUMPDEST PUSH0 PUSH2 0x9E4 DUP5 DUP3 DUP6 ADD PUSH2 0x9AE JUMP JUMPDEST SWAP2 POP POP SWAP3 SWAP2 POP POP JUMP JUMPDEST PUSH2 0x9F6 DUP2 PUSH2 0x92A JUMP JUMPDEST DUP2 EQ PUSH2 0xA00 JUMPI PUSH0 DUP1 REVERT JUMPDEST POP JUMP JUMPDEST PUSH0 DUP2 CALLDATALOAD SWAP1 POP PUSH2 0xA11 DUP2 PUSH2 0x9ED JUMP JUMPDEST SWAP3 SWAP2 POP POP JUMP JUMPDEST PUSH0 PUSH1 0x20 DUP3 DUP5 SUB SLT ISZERO PUSH2 0xA2C JUMPI PUSH2 0xA2B PUSH2 0x994 JUMP JUMPDEST JUMPDEST PUSH0 PUSH2 0xA39 DUP5 DUP3 DUP6 ADD PUSH2 0xA03 JUMP JUMPDEST SWAP2 POP POP SWAP3 SWAP2 POP POP JUMP JUMPDEST PUSH0 DUP2 ISZERO ISZERO SWAP1 POP SWAP2 SWAP1 POP JUMP JUMPDEST PUSH2 0xA56 DUP2 PUSH2 0xA42 JUMP JUMPDEST DUP3 MSTORE POP POP JUMP JUMPDEST PUSH0 PUSH1 0x20 DUP3 ADD SWAP1 POP PUSH2 0xA6F PUSH0 DUP4 ADD DUP5 PUSH2 0xA4D JUMP JUMPDEST SWAP3 SWAP2 POP POP JUMP JUMPDEST PUSH0 DUP3 DUP3 MSTORE PUSH1 0x20 DUP3 ADD SWAP1 POP SWAP3 SWAP2 POP POP JUMP JUMPDEST PUSH32 0x6F6E6C79207468652063726561746F722063616E2063616C6C20746869732066 PUSH0 DUP3 ADD MSTORE PUSH32 0x756E6374696F6E00000000000000000000000000000000000000000000000000 PUSH1 0x20 DUP3 ADD MSTORE POP JUMP JUMPDEST PUSH0 PUSH2 0xADF PUSH1 0x27 DUP4 PUSH2 0xA75 JUMP JUMPDEST SWAP2 POP PUSH2 0xAEA DUP3 PUSH2 0xA85 JUMP JUMPDEST PUSH1 0x40 DUP3 ADD SWAP1 POP SWAP2 SWAP1 POP JUMP JUMPDEST PUSH0 PUSH1 0x20 DUP3 ADD SWAP1 POP DUP2 DUP2 SUB PUSH0 DUP4 ADD MSTORE PUSH2 0xB0C DUP2 PUSH2 0xAD3 JUMP JUMPDEST SWAP1 POP SWAP2 SWAP1 POP JUMP JUMPDEST PUSH32 0x676F616C206973206E6F74207265616368656400000000000000000000000000 PUSH0 DUP3 ADD MSTORE POP JUMP JUMPDEST PUSH0 PUSH2 0xB47 PUSH1 0x13 DUP4 PUSH2 0xA75 JUMP JUMPDEST SWAP2 POP PUSH2 0xB52 DUP3 PUSH2 0xB13 JUMP JUMPDEST PUSH1 0x20 DUP3 ADD SWAP1 POP SWAP2 SWAP1 POP JUMP JUMPDEST PUSH0 PUSH1 0x20 DUP3 ADD SWAP1 POP DUP2 DUP2 SUB PUSH0 DUP4 ADD MSTORE PUSH2 0xB74 DUP2 PUSH2 0xB3B JUMP JUMPDEST SWAP1 POP SWAP2 SWAP1 POP JUMP JUMPDEST PUSH32 0x63726F776466756E64696E6720697320616C726561647920636F6D706C657465 PUSH0 DUP3 ADD MSTORE PUSH32 0x6400000000000000000000000000000000000000000000000000000000000000 PUSH1 0x20 DUP3 ADD MSTORE POP JUMP JUMPDEST PUSH0 PUSH2 0xBD5 PUSH1 0x21 DUP4 PUSH2 0xA75 JUMP JUMPDEST SWAP2 POP PUSH2 0xBE0 DUP3 PUSH2 0xB7B JUMP JUMPDEST PUSH1 0x40 DUP3 ADD SWAP1 POP SWAP2 SWAP1 POP JUMP JUMPDEST PUSH0 PUSH1 0x20 DUP3 ADD SWAP1 POP DUP2 DUP2 SUB PUSH0 DUP4 ADD MSTORE PUSH2 0xC02 DUP2 PUSH2 0xBC9 JUMP JUMPDEST SWAP1 POP SWAP2 SWAP1 POP JUMP JUMPDEST PUSH32 0x4E487B7100000000000000000000000000000000000000000000000000000000 PUSH0 MSTORE PUSH1 0x11 PUSH1 0x4 MSTORE PUSH1 0x24 PUSH0 REVERT JUMPDEST PUSH0 PUSH2 0xC40 DUP3 PUSH2 0x963 JUMP JUMPDEST SWAP2 POP PUSH2 0xC4B DUP4 PUSH2 0x963 JUMP JUMPDEST SWAP3 POP DUP3 DUP3 MUL PUSH2 0xC59 DUP2 PUSH2 0x963 JUMP JUMPDEST SWAP2 POP DUP3 DUP3 DIV DUP5 EQ DUP4 ISZERO OR PUSH2 0xC70 JUMPI PUSH2 0xC6F PUSH2 0xC09 JUMP JUMPDEST JUMPDEST POP SWAP3 SWAP2 POP POP JUMP JUMPDEST PUSH0 PUSH2 0xC81 DUP3 PUSH2 0x963 JUMP JUMPDEST SWAP2 POP PUSH2 0xC8C DUP4 PUSH2 0x963 JUMP JUMPDEST SWAP3 POP DUP3 DUP3 ADD SWAP1 POP DUP1 DUP3 GT ISZERO PUSH2 0xCA4 JUMPI PUSH2 0xCA3 PUSH2 0xC09 JUMP JUMPDEST JUMPDEST SWAP3 SWAP2 POP POP JUMP JUMPDEST PUSH32 0x66756E64696E6720706572696F6420686173206E6F7420656E64656400000000 PUSH0 DUP3 ADD MSTORE POP JUMP JUMPDEST PUSH0 PUSH2 0xCDE PUSH1 0x1C DUP4 PUSH2 0xA75 JUMP JUMPDEST SWAP2 POP PUSH2 0xCE9 DUP3 PUSH2 0xCAA JUMP JUMPDEST PUSH1 0x20 DUP3 ADD SWAP1 POP SWAP2 SWAP1 POP JUMP JUMPDEST PUSH0 PUSH1 0x20 DUP3 ADD SWAP1 POP DUP2 DUP2 SUB PUSH0 DUP4 ADD MSTORE PUSH2 0xD0B DUP2 PUSH2 0xCD2 JUMP JUMPDEST SWAP1 POP SWAP2 SWAP1 POP JUMP JUMPDEST PUSH32 0x676F616C20686173206265656E20726561636865642C206E6F20726566756E64 PUSH0 DUP3 ADD MSTORE PUSH32 0x20616C6C6F776564000000000000000000000000000000000000000000000000 PUSH1 0x20 DUP3 ADD MSTORE POP JUMP JUMPDEST PUSH0 PUSH2 0xD6C PUSH1 0x28 DUP4 PUSH2 0xA75 JUMP JUMPDEST SWAP2 POP PUSH2 0xD77 DUP3 PUSH2 0xD12 JUMP JUMPDEST PUSH1 0x40 DUP3 ADD SWAP1 POP SWAP2 SWAP1 POP JUMP JUMPDEST PUSH0 PUSH1 0x20 DUP3 ADD SWAP1 POP DUP2 DUP2 SUB PUSH0 DUP4 ADD MSTORE PUSH2 0xD99 DUP2 PUSH2 0xD60 JUMP JUMPDEST SWAP1 POP SWAP2 SWAP1 POP JUMP JUMPDEST PUSH32 0x6E6F20636F6E747269627574696F6E20746F20726566756E6400000000000000 PUSH0 DUP3 ADD MSTORE POP JUMP JUMPDEST PUSH0 PUSH2 0xDD4 PUSH1 0x19 DUP4 PUSH2 0xA75 JUMP JUMPDEST SWAP2 POP PUSH2 0xDDF DUP3 PUSH2 0xDA0 JUMP JUMPDEST PUSH1 0x20 DUP3 ADD SWAP1 POP SWAP2 SWAP1 POP JUMP JUMPDEST PUSH0 PUSH1 0x20 DUP3 ADD SWAP1 POP DUP2 DUP2 SUB PUSH0 DUP4 ADD MSTORE PUSH2 0xE01 DUP2 PUSH2 0xDC8 JUMP JUMPDEST SWAP1 POP SWAP2 SWAP1 POP JUMP JUMPDEST PUSH0 PUSH2 0xE12 DUP3 PUSH2 0x963 JUMP JUMPDEST SWAP2 POP PUSH2 0xE1D DUP4 PUSH2 0x963 JUMP JUMPDEST SWAP3 POP DUP3 DUP3 SUB SWAP1 POP DUP2 DUP2 GT ISZERO PUSH2 0xE35 JUMPI PUSH2 0xE34 PUSH2 0xC09 JUMP JUMPDEST JUMPDEST SWAP3 SWAP2 POP POP JUMP JUMPDEST PUSH0 PUSH1 0x40 DUP3 ADD SWAP1 POP PUSH2 0xE4E PUSH0 DUP4 ADD DUP6 PUSH2 0x93B JUMP JUMPDEST PUSH2 0xE5B PUSH1 0x20 DUP4 ADD DUP5 PUSH2 0x96C JUMP JUMPDEST SWAP4 SWAP3 POP POP POP JUMP JUMPDEST PUSH32 0x66756E64696E6720706572696F642068617320656E6465640000000000000000 PUSH0 DUP3 ADD MSTORE POP JUMP JUMPDEST PUSH0 PUSH2 0xE96 PUSH1 0x18 DUP4 PUSH2 0xA75 JUMP JUMPDEST SWAP2 POP PUSH2 0xEA1 DUP3 PUSH2 0xE62 JUMP JUMPDEST PUSH1 0x20 DUP3 ADD SWAP1 POP SWAP2 SWAP1 POP JUMP JUMPDEST PUSH0 PUSH1 0x20 DUP3 ADD SWAP1 POP DUP2 DUP2 SUB PUSH0 DUP4 ADD MSTORE PUSH2 0xEC3 DUP2 PUSH2 0xE8A JUMP JUMPDEST SWAP1 POP SWAP2 SWAP1 POP JUMP INVALID LOG2 PUSH5 0x6970667358 0x22 SLT KECCAK256 SWAP10 0xAB 0xCC PUSH10 0x700875C2136495F8CF41 SDIV 0x4F CALLER 0xEC 0xD2 XOR EXTCODECOPY RETURNDATASIZE PUSH24 0x7D53C989E52EE205F864736F6C634300081A003300000000 "
		},
		"gasEstimates": {
			"creation": {
				"codeDepositCost": "768000",
				"executionCost": "infinite",
				"totalCost": "infinite"
			},
			"external": {
				"contribute()": "infinite",
				"contributions(address)": "2824",
				"creator()": "2506",
				"deadline()": "2492",
				"extendDeadline(uint256)": "infinite",
				"getBalance()": "357",
				"getRefund()": "infinite",
				"goal()": "2425",
				"isCompleted()": "2627",
				"isFunded()": "2510",
				"totalContributions()": "2514",
				"withdrawFunds()": "infinite"
			}
		},
		"methodIdentifiers": {
			"contribute()": "d7bb99ba",
			"contributions(address)": "42e94c90",
			"creator()": "02d05d3f",
			"deadline()": "29dcb0cf",
			"extendDeadline(uint256)": "389b7533",
			"getBalance()": "12065fe0",
			"getRefund()": "b2d5ae44",
			"goal()": "40193883",
			"isCompleted()": "fa391c64",
			"isFunded()": "7c654303",
			"totalContributions()": "37c08923",
			"withdrawFunds()": "24600fc3"
		}
	},
	"abi": [
		{
			"inputs": [
				{
					"internalType": "uint256",
					"name": "funding",
					"type": "uint256"
				},
				{
					"internalType": "uint256",
					"name": "duration",
					"type": "uint256"
				}
			],
			"stateMutability": "nonpayable",
			"type": "constructor"
		},
		{
			"anonymous": false,
			"inputs": [
				{
					"indexed": false,
					"internalType": "uint256",
					"name": "totalContributions",
					"type": "uint256"
				}
			],
			"name": "DeadlineReached",
			"type": "event"
		},
		{
			"anonymous": false,
			"inputs": [
				{
					"indexed": false,
					"internalType": "address",
					"name": "backer",
					"type": "address"
				},
				{
					"indexed": false,
					"internalType": "uint256",
					"name": "amount",
					"type": "uint256"
				}
			],
			"name": "FundTransferred",
			"type": "event"
		},
		{
			"anonymous": false,
			"inputs": [
				{
					"indexed": false,
					"internalType": "uint256",
					"name": "totalContributions",
					"type": "uint256"
				}
			],
			"name": "GoalReached",
			"type": "event"
		},
		{
			"inputs": [],
			"name": "contribute",
			"outputs": [],
			"stateMutability": "payable",
			"type": "function"
		},
		{
			"inputs": [
				{
					"internalType": "address",
					"name": "",
					"type": "address"
				}
			],
			"name": "contributions",
			"outputs": [
				{
					"internalType": "uint256",
					"name": "",
					"type": "uint256"
				}
			],
			"stateMutability": "view",
			"type": "function"
		},
		{
			"inputs": [],
			"name": "creator",
			"outputs": [
				{
					"internalType": "address",
					"name": "",
					"type": "address"
				}
			],
			"stateMutability": "view",
			"type": "function"
		},
		{
			"inputs": [],
			"name": "deadline",
			"outputs": [
				{
					"internalType": "uint256",
					"name": "",
					"type": "uint256"
				}
			],
			"stateMutability": "view",
			"type": "function"
		},
		{
			"inputs": [
				{
					"internalType": "uint256",
					"name": "duration",
					"type": "uint256"
				}
			],
			"name": "extendDeadline",
			"outputs": [],
			"stateMutability": "nonpayable",
			"type": "function"
		},
		{
			"inputs": [],
			"name": "getBalance",
			"outputs": [
				{
					"internalType": "uint256",
					"name": "",
					"type": "uint256"
				}
			],
			"stateMutability": "view",
			"type": "function"
		},
		{
			"inputs": [],
			"name": "getRefund",
			"outputs": [],
			"stateMutability": "nonpayable",
			"type": "function"
		},
		{
			"inputs": [],
			"name": "goal",
			"outputs": [
				{
					"internalType": "uint256",
					"name": "",
					"type": "uint256"
				}
			],
			"stateMutability": "view",
			"type": "function"
		},
		{
			"inputs": [],
			"name": "isCompleted",
			"outputs": [
				{
					"internalType": "bool",
					"name": "",
					"type": "bool"
				}
			],
			"stateMutability": "view",
			"type": "function"
		},
		{
			"inputs": [],
			"name": "isFunded",
			"outputs": [
				{
					"internalType": "bool",
					"name": "",
					"type": "bool"
				}
			],
			"stateMutability": "view",
			"type": "function"
		},
		{
			"inputs": [],
			"name": "totalContributions",
			"outputs": [
				{
					"internalType": "uint256",
					"name": "",
					"type": "uint256"
				}
			],
			"stateMutability": "view",
			"type": "function"
		},
		{
			"inputs": [],
			"name": "withdrawFunds",
			"outputs": [],
			"stateMutability": "nonpayable",
			"type": "function"
		}
	]
}