{
	"data": {
		"bytecode": {
			"linkReferences": {},
			"object": "608060405260c85f5561019060015560c860025561032060035560646005556102bc60065561012c60075560c86008553480156039575f80fd5b50610718806100475f395ff3fe608060405234801561000f575f80fd5b50600436106100b2575f3560e01c8063aa2d72031161006f578063aa2d72031461016a578063c4a5140014610188578063c78ad77f146101a6578063d1e42eb2146101c4578063d4d30f2c146101e2578063ec59712814610200576100b2565b8063011285da146100b65780632ae93f50146100d45780633205f5fc146100f257806334a50ba0146101105780634d3e46e41461012e5780639c728aa51461014c575b5f80fd5b6100be61021e565b6040516100cb91906103a8565b60405180910390f35b6100dc610238565b6040516100e991906103d9565b60405180910390f35b6100fa610253565b60405161010791906103a8565b60405180910390f35b61011861026d565b60405161012591906103a8565b60405180910390f35b610136610287565b60405161014391906103d9565b60405180910390f35b6101546102a2565b60405161016191906103d9565b60405180910390f35b6101726102bd565b60405161017f91906103d9565b60405180910390f35b6101906102d8565b60405161019d91906103d9565b60405180910390f35b6101ae61030d565b6040516101bb91906103a8565b60405180910390f35b6101cc610327565b6040516101d991906103d9565b60405180910390f35b6101ea610342565b6040516101f791906103a8565b60405180910390f35b610208610376565b60405161021591906103a8565b60405180910390f35b5f806001545f5461022f919061041f565b90508091505090565b5f8060085460055461024a91906104c2565b90508091505090565b5f806001545f5461026491906104f2565b90508091505090565b5f806001545f5461027e919061055a565b90508091505090565b5f80600554600854610299919061059a565b90508091505090565b5f806007546006546102b491906105cd565b90508091505090565b5f806007546006546102cf9190610600565b90508091505090565b5f806008546007546102ea9190610600565b6006546005546102fa919061059a565b610304919061059a565b90508091505090565b5f806001545f5461031e9190610641565b90508091505090565b5f806008546005546103399190610671565b90508091505090565b5f80600354600254610354919061041f565b6001545f5461036391906106a1565b61036d919061055a565b90508091505090565b5f806001545f5461038791906106a1565b90508091505090565b5f819050919050565b6103a281610390565b82525050565b5f6020820190506103bb5f830184610399565b92915050565b5f819050919050565b6103d3816103c1565b82525050565b5f6020820190506103ec5f8301846103ca565b92915050565b7f4e487b71000000000000000000000000000000000000000000000000000000005f52601160045260245ffd5b5f61042982610390565b915061043483610390565b925082820261044281610390565b91507f800000000000000000000000000000000000000000000000000000000000000084145f84121615610479576104786103f2565b5b828205841483151761048e5761048d6103f2565b5b5092915050565b7f4e487b71000000000000000000000000000000000000000000000000000000005f52601260045260245ffd5b5f6104cc826103c1565b91506104d7836103c1565b9250826104e7576104e6610495565b5b828206905092915050565b5f6104fc82610390565b915061050783610390565b92508261051757610516610495565b5b60015f0383147f80000000000000000000000000000000000000000000000000000000000000008314161561054f5761054e6103f2565b5b828205905092915050565b5f61056482610390565b915061056f83610390565b925082820390508181125f8412168282135f851215161715610594576105936103f2565b5b92915050565b5f6105a4826103c1565b91506105af836103c1565b92508282019050808211156105c7576105c66103f2565b5b92915050565b5f6105d7826103c1565b91506105e2836103c1565b92508282039050818111156105fa576105f96103f2565b5b92915050565b5f61060a826103c1565b9150610615836103c1565b9250828202610623816103c1565b9150828204841483151761063a576106396103f2565b5b5092915050565b5f61064b82610390565b915061065683610390565b92508261066657610665610495565b5b828207905092915050565b5f61067b826103c1565b9150610686836103c1565b92508261069657610695610495565b5b828204905092915050565b5f6106ab82610390565b91506106b683610390565b92508282019050828112155f8312168382125f8412151617156106dc576106db6103f2565b5b9291505056fea26469706673582212208efa51f638fb8cee716c7b065ef8f6dd4ead0cf27269a8b349d313a5ee8d26a864736f6c634300081a0033",
			"opcodes": "PUSH1 0x80 PUSH1 0x40 MSTORE PUSH1 0xC8 PUSH0 SSTORE PUSH2 0x190 PUSH1 0x1 SSTORE PUSH1 0xC8 PUSH1 0x2 SSTORE PUSH2 0x320 PUSH1 0x3 SSTORE PUSH1 0x64 PUSH1 0x5 SSTORE PUSH2 0x2BC PUSH1 0x6 SSTORE PUSH2 0x12C PUSH1 0x7 SSTORE PUSH1 0xC8 PUSH1 0x8 SSTORE CALLVALUE DUP1 ISZERO PUSH1 0x39 JUMPI PUSH0 DUP1 REVERT JUMPDEST POP PUSH2 0x718 DUP1 PUSH2 0x47 PUSH0 CODECOPY PUSH0 RETURN INVALID PUSH1 0x80 PUSH1 0x40 MSTORE CALLVALUE DUP1 ISZERO PUSH2 0xF JUMPI PUSH0 DUP1 REVERT JUMPDEST POP PUSH1 0x4 CALLDATASIZE LT PUSH2 0xB2 JUMPI PUSH0 CALLDATALOAD PUSH1 0xE0 SHR DUP1 PUSH4 0xAA2D7203 GT PUSH2 0x6F JUMPI DUP1 PUSH4 0xAA2D7203 EQ PUSH2 0x16A JUMPI DUP1 PUSH4 0xC4A51400 EQ PUSH2 0x188 JUMPI DUP1 PUSH4 0xC78AD77F EQ PUSH2 0x1A6 JUMPI DUP1 PUSH4 0xD1E42EB2 EQ PUSH2 0x1C4 JUMPI DUP1 PUSH4 0xD4D30F2C EQ PUSH2 0x1E2 JUMPI DUP1 PUSH4 0xEC597128 EQ PUSH2 0x200 JUMPI PUSH2 0xB2 JUMP JUMPDEST DUP1 PUSH4 0x11285DA EQ PUSH2 0xB6 JUMPI DUP1 PUSH4 0x2AE93F50 EQ PUSH2 0xD4 JUMPI DUP1 PUSH4 0x3205F5FC EQ PUSH2 0xF2 JUMPI DUP1 PUSH4 0x34A50BA0 EQ PUSH2 0x110 JUMPI DUP1 PUSH4 0x4D3E46E4 EQ PUSH2 0x12E JUMPI DUP1 PUSH4 0x9C728AA5 EQ PUSH2 0x14C JUMPI JUMPDEST PUSH0 DUP1 REVERT JUMPDEST PUSH2 0xBE PUSH2 0x21E JUMP JUMPDEST PUSH1 0x40 MLOAD PUSH2 0xCB SWAP2 SWAP1 PUSH2 0x3A8 JUMP JUMPDEST PUSH1 0x40 MLOAD DUP1 SWAP2 SUB SWAP1 RETURN JUMPDEST PUSH2 0xDC PUSH2 0x238 JUMP JUMPDEST PUSH1 0x40 MLOAD PUSH2 0xE9 SWAP2 SWAP1 PUSH2 0x3D9 JUMP JUMPDEST PUSH1 0x40 MLOAD DUP1 SWAP2 SUB SWAP1 RETURN JUMPDEST PUSH2 0xFA PUSH2 0x253 JUMP JUMPDEST PUSH1 0x40 MLOAD PUSH2 0x107 SWAP2 SWAP1 PUSH2 0x3A8 JUMP JUMPDEST PUSH1 0x40 MLOAD DUP1 SWAP2 SUB SWAP1 RETURN JUMPDEST PUSH2 0x118 PUSH2 0x26D JUMP JUMPDEST PUSH1 0x40 MLOAD PUSH2 0x125 SWAP2 SWAP1 PUSH2 0x3A8 JUMP JUMPDEST PUSH1 0x40 MLOAD DUP1 SWAP2 SUB SWAP1 RETURN JUMPDEST PUSH2 0x136 PUSH2 0x287 JUMP JUMPDEST PUSH1 0x40 MLOAD PUSH2 0x143 SWAP2 SWAP1 PUSH2 0x3D9 JUMP JUMPDEST PUSH1 0x40 MLOAD DUP1 SWAP2 SUB SWAP1 RETURN JUMPDEST PUSH2 0x154 PUSH2 0x2A2 JUMP JUMPDEST PUSH1 0x40 MLOAD PUSH2 0x161 SWAP2 SWAP1 PUSH2 0x3D9 JUMP JUMPDEST PUSH1 0x40 MLOAD DUP1 SWAP2 SUB SWAP1 RETURN JUMPDEST PUSH2 0x172 PUSH2 0x2BD JUMP JUMPDEST PUSH1 0x40 MLOAD PUSH2 0x17F SWAP2 SWAP1 PUSH2 0x3D9 JUMP JUMPDEST PUSH1 0x40 MLOAD DUP1 SWAP2 SUB SWAP1 RETURN JUMPDEST PUSH2 0x190 PUSH2 0x2D8 JUMP JUMPDEST PUSH1 0x40 MLOAD PUSH2 0x19D SWAP2 SWAP1 PUSH2 0x3D9 JUMP JUMPDEST PUSH1 0x40 MLOAD DUP1 SWAP2 SUB SWAP1 RETURN JUMPDEST PUSH2 0x1AE PUSH2 0x30D JUMP JUMPDEST PUSH1 0x40 MLOAD PUSH2 0x1BB SWAP2 SWAP1 PUSH2 0x3A8 JUMP JUMPDEST PUSH1 0x40 MLOAD DUP1 SWAP2 SUB SWAP1 RETURN JUMPDEST PUSH2 0x1CC PUSH2 0x327 JUMP JUMPDEST PUSH1 0x40 MLOAD PUSH2 0x1D9 SWAP2 SWAP1 PUSH2 0x3D9 JUMP JUMPDEST PUSH1 0x40 MLOAD DUP1 SWAP2 SUB SWAP1 RETURN JUMPDEST PUSH2 0x1EA PUSH2 0x342 JUMP JUMPDEST PUSH1 0x40 MLOAD PUSH2 0x1F7 SWAP2 SWAP1 PUSH2 0x3A8 JUMP JUMPDEST PUSH1 0x40 MLOAD DUP1 SWAP2 SUB SWAP1 RETURN JUMPDEST PUSH2 0x208 PUSH2 0x376 JUMP JUMPDEST PUSH1 0x40 MLOAD PUSH2 0x215 SWAP2 SWAP1 PUSH2 0x3A8 JUMP JUMPDEST PUSH1 0x40 MLOAD DUP1 SWAP2 SUB SWAP1 RETURN JUMPDEST PUSH0 DUP1 PUSH1 0x1 SLOAD PUSH0 SLOAD PUSH2 0x22F SWAP2 SWAP1 PUSH2 0x41F JUMP JUMPDEST SWAP1 POP DUP1 SWAP2 POP POP SWAP1 JUMP JUMPDEST PUSH0 DUP1 PUSH1 0x8 SLOAD PUSH1 0x5 SLOAD PUSH2 0x24A SWAP2 SWAP1 PUSH2 0x4C2 JUMP JUMPDEST SWAP1 POP DUP1 SWAP2 POP POP SWAP1 JUMP JUMPDEST PUSH0 DUP1 PUSH1 0x1 SLOAD PUSH0 SLOAD PUSH2 0x264 SWAP2 SWAP1 PUSH2 0x4F2 JUMP JUMPDEST SWAP1 POP DUP1 SWAP2 POP POP SWAP1 JUMP JUMPDEST PUSH0 DUP1 PUSH1 0x1 SLOAD PUSH0 SLOAD PUSH2 0x27E SWAP2 SWAP1 PUSH2 0x55A JUMP JUMPDEST SWAP1 POP DUP1 SWAP2 POP POP SWAP1 JUMP JUMPDEST PUSH0 DUP1 PUSH1 0x5 SLOAD PUSH1 0x8 SLOAD PUSH2 0x299 SWAP2 SWAP1 PUSH2 0x59A JUMP JUMPDEST SWAP1 POP DUP1 SWAP2 POP POP SWAP1 JUMP JUMPDEST PUSH0 DUP1 PUSH1 0x7 SLOAD PUSH1 0x6 SLOAD PUSH2 0x2B4 SWAP2 SWAP1 PUSH2 0x5CD JUMP JUMPDEST SWAP1 POP DUP1 SWAP2 POP POP SWAP1 JUMP JUMPDEST PUSH0 DUP1 PUSH1 0x7 SLOAD PUSH1 0x6 SLOAD PUSH2 0x2CF SWAP2 SWAP1 PUSH2 0x600 JUMP JUMPDEST SWAP1 POP DUP1 SWAP2 POP POP SWAP1 JUMP JUMPDEST PUSH0 DUP1 PUSH1 0x8 SLOAD PUSH1 0x7 SLOAD PUSH2 0x2EA SWAP2 SWAP1 PUSH2 0x600 JUMP JUMPDEST PUSH1 0x6 SLOAD PUSH1 0x5 SLOAD PUSH2 0x2FA SWAP2 SWAP1 PUSH2 0x59A JUMP JUMPDEST PUSH2 0x304 SWAP2 SWAP1 PUSH2 0x59A JUMP JUMPDEST SWAP1 POP DUP1 SWAP2 POP POP SWAP1 JUMP JUMPDEST PUSH0 DUP1 PUSH1 0x1 SLOAD PUSH0 SLOAD PUSH2 0x31E SWAP2 SWAP1 PUSH2 0x641 JUMP JUMPDEST SWAP1 POP DUP1 SWAP2 POP POP SWAP1 JUMP JUMPDEST PUSH0 DUP1 PUSH1 0x8 SLOAD PUSH1 0x5 SLOAD PUSH2 0x339 SWAP2 SWAP1 PUSH2 0x671 JUMP JUMPDEST SWAP1 POP DUP1 SWAP2 POP POP SWAP1 JUMP JUMPDEST PUSH0 DUP1 PUSH1 0x3 SLOAD PUSH1 0x2 SLOAD PUSH2 0x354 SWAP2 SWAP1 PUSH2 0x41F JUMP JUMPDEST PUSH1 0x1 SLOAD PUSH0 SLOAD PUSH2 0x363 SWAP2 SWAP1 PUSH2 0x6A1 JUMP JUMPDEST PUSH2 0x36D SWAP2 SWAP1 PUSH2 0x55A JUMP JUMPDEST SWAP1 POP DUP1 SWAP2 POP POP SWAP1 JUMP JUMPDEST PUSH0 DUP1 PUSH1 0x1 SLOAD PUSH0 SLOAD PUSH2 0x387 SWAP2 SWAP1 PUSH2 0x6A1 JUMP JUMPDEST SWAP1 POP DUP1 SWAP2 POP POP SWAP1 JUMP JUMPDEST PUSH0 DUP2 SWAP1 POP SWAP2 SWAP1 POP JUMP JUMPDEST PUSH2 0x3A2 DUP2 PUSH2 0x390 JUMP JUMPDEST DUP3 MSTORE POP POP JUMP JUMPDEST PUSH0 PUSH1 0x20 DUP3 ADD SWAP1 POP PUSH2 0x3BB PUSH0 DUP4 ADD DUP5 PUSH2 0x399 JUMP JUMPDEST SWAP3 SWAP2 POP POP JUMP JUMPDEST PUSH0 DUP2 SWAP1 POP SWAP2 SWAP1 POP JUMP JUMPDEST PUSH2 0x3D3 DUP2 PUSH2 0x3C1 JUMP JUMPDEST DUP3 MSTORE POP POP JUMP JUMPDEST PUSH0 PUSH1 0x20 DUP3 ADD SWAP1 POP PUSH2 0x3EC PUSH0 DUP4 ADD DUP5 PUSH2 0x3CA JUMP JUMPDEST SWAP3 SWAP2 POP POP JUMP JUMPDEST PUSH32 0x4E487B7100000000000000000000000000000000000000000000000000000000 PUSH0 MSTORE PUSH1 0x11 PUSH1 0x4 MSTORE PUSH1 0x24 PUSH0 REVERT JUMPDEST PUSH0 PUSH2 0x429 DUP3 PUSH2 0x390 JUMP JUMPDEST SWAP2 POP PUSH2 0x434 DUP4 PUSH2 0x390 JUMP JUMPDEST SWAP3 POP DUP3 DUP3 MUL PUSH2 0x442 DUP2 PUSH2 0x390 JUMP JUMPDEST SWAP2 POP PUSH32 0x8000000000000000000000000000000000000000000000000000000000000000 DUP5 EQ PUSH0 DUP5 SLT AND ISZERO PUSH2 0x479 JUMPI PUSH2 0x478 PUSH2 0x3F2 JUMP JUMPDEST JUMPDEST DUP3 DUP3 SDIV DUP5 EQ DUP4 ISZERO OR PUSH2 0x48E JUMPI PUSH2 0x48D PUSH2 0x3F2 JUMP JUMPDEST JUMPDEST POP SWAP3 SWAP2 POP POP JUMP JUMPDEST PUSH32 0x4E487B7100000000000000000000000000000000000000000000000000000000 PUSH0 MSTORE PUSH1 0x12 PUSH1 0x4 MSTORE PUSH1 0x24 PUSH0 REVERT JUMPDEST PUSH0 PUSH2 0x4CC DUP3 PUSH2 0x3C1 JUMP JUMPDEST SWAP2 POP PUSH2 0x4D7 DUP4 PUSH2 0x3C1 JUMP JUMPDEST SWAP3 POP DUP3 PUSH2 0x4E7 JUMPI PUSH2 0x4E6 PUSH2 0x495 JUMP JUMPDEST JUMPDEST DUP3 DUP3 MOD SWAP1 POP SWAP3 SWAP2 POP POP JUMP JUMPDEST PUSH0 PUSH2 0x4FC DUP3 PUSH2 0x390 JUMP JUMPDEST SWAP2 POP PUSH2 0x507 DUP4 PUSH2 0x390 JUMP JUMPDEST SWAP3 POP DUP3 PUSH2 0x517 JUMPI PUSH2 0x516 PUSH2 0x495 JUMP JUMPDEST JUMPDEST PUSH1 0x1 PUSH0 SUB DUP4 EQ PUSH32 0x8000000000000000000000000000000000000000000000000000000000000000 DUP4 EQ AND ISZERO PUSH2 0x54F JUMPI PUSH2 0x54E PUSH2 0x3F2 JUMP JUMPDEST JUMPDEST DUP3 DUP3 SDIV SWAP1 POP SWAP3 SWAP2 POP POP JUMP JUMPDEST PUSH0 PUSH2 0x564 DUP3 PUSH2 0x390 JUMP JUMPDEST SWAP2 POP PUSH2 0x56F DUP4 PUSH2 0x390 JUMP JUMPDEST SWAP3 POP DUP3 DUP3 SUB SWAP1 POP DUP2 DUP2 SLT PUSH0 DUP5 SLT AND DUP3 DUP3 SGT PUSH0 DUP6 SLT ISZERO AND OR ISZERO PUSH2 0x594 JUMPI PUSH2 0x593 PUSH2 0x3F2 JUMP JUMPDEST JUMPDEST SWAP3 SWAP2 POP POP JUMP JUMPDEST PUSH0 PUSH2 0x5A4 DUP3 PUSH2 0x3C1 JUMP JUMPDEST SWAP2 POP PUSH2 0x5AF DUP4 PUSH2 0x3C1 JUMP JUMPDEST SWAP3 POP DUP3 DUP3 ADD SWAP1 POP DUP1 DUP3 GT ISZERO PUSH2 0x5C7 JUMPI PUSH2 0x5C6 PUSH2 0x3F2 JUMP JUMPDEST JUMPDEST SWAP3 SWAP2 POP POP JUMP JUMPDEST PUSH0 PUSH2 0x5D7 DUP3 PUSH2 0x3C1 JUMP JUMPDEST SWAP2 POP PUSH2 0x5E2 DUP4 PUSH2 0x3C1 JUMP JUMPDEST SWAP3 POP DUP3 DUP3 SUB SWAP1 POP DUP2 DUP2 GT ISZERO PUSH2 0x5FA JUMPI PUSH2 0x5F9 PUSH2 0x3F2 JUMP JUMPDEST JUMPDEST SWAP3 SWAP2 POP POP JUMP JUMPDEST PUSH0 PUSH2 0x60A DUP3 PUSH2 0x3C1 JUMP JUMPDEST SWAP2 POP PUSH2 0x615 DUP4 PUSH2 0x3C1 JUMP JUMPDEST SWAP3 POP DUP3 DUP3 MUL PUSH2 0x623 DUP2 PUSH2 0x3C1 JUMP JUMPDEST SWAP2 POP DUP3 DUP3 DIV DUP5 EQ DUP4 ISZERO OR PUSH2 0x63A JUMPI PUSH2 0x639 PUSH2 0x3F2 JUMP JUMPDEST JUMPDEST POP SWAP3 SWAP2 POP POP JUMP JUMPDEST PUSH0 PUSH2 0x64B DUP3 PUSH2 0x390 JUMP JUMPDEST SWAP2 POP PUSH2 0x656 DUP4 PUSH2 0x390 JUMP JUMPDEST SWAP3 POP DUP3 PUSH2 0x666 JUMPI PUSH2 0x665 PUSH2 0x495 JUMP JUMPDEST JUMPDEST DUP3 DUP3 SMOD SWAP1 POP SWAP3 SWAP2 POP POP JUMP JUMPDEST PUSH0 PUSH2 0x67B DUP3 PUSH2 0x3C1 JUMP JUMPDEST SWAP2 POP PUSH2 0x686 DUP4 PUSH2 0x3C1 JUMP JUMPDEST SWAP3 POP DUP3 PUSH2 0x696 JUMPI PUSH2 0x695 PUSH2 0x495 JUMP JUMPDEST JUMPDEST DUP3 DUP3 DIV SWAP1 POP SWAP3 SWAP2 POP POP JUMP JUMPDEST PUSH0 PUSH2 0x6AB DUP3 PUSH2 0x390 JUMP JUMPDEST SWAP2 POP PUSH2 0x6B6 DUP4 PUSH2 0x390 JUMP JUMPDEST SWAP3 POP DUP3 DUP3 ADD SWAP1 POP DUP3 DUP2 SLT ISZERO PUSH0 DUP4 SLT AND DUP4 DUP3 SLT PUSH0 DUP5 SLT ISZERO AND OR ISZERO PUSH2 0x6DC JUMPI PUSH2 0x6DB PUSH2 0x3F2 JUMP JUMPDEST JUMPDEST SWAP3 SWAP2 POP POP JUMP INVALID LOG2 PUSH5 0x6970667358 0x22 SLT KECCAK256 DUP15 STATICCALL MLOAD 0xF6 CODESIZE 0xFB DUP13 0xEE PUSH18 0x6C7B065EF8F6DD4EAD0CF27269A8B349D313 0xA5 0xEE DUP14 0x26 0xA8 PUSH5 0x736F6C6343 STOP ADDMOD BYTE STOP CALLER "
		},
		"gasEstimates": {
			"creation": {
				"codeDepositCost": "363200",
				"executionCost": "177244",
				"totalCost": "540444"
			},
			"external": {
				"adding()": "infinite",
				"addition()": "infinite",
				"addition1()": "infinite",
				"division()": "infinite",
				"division1()": "infinite",
				"multiplication()": "infinite",
				"multiplication1()": "infinite",
				"percentage()": "infinite",
				"percentage1()": "infinite",
				"subcration()": "infinite",
				"subcration1()": "infinite",
				"subting()": "infinite"
			}
		},
		"methodIdentifiers": {
			"adding()": "d4d30f2c",
			"addition()": "ec597128",
			"addition1()": "4d3e46e4",
			"division()": "3205f5fc",
			"division1()": "d1e42eb2",
			"multiplication()": "011285da",
			"multiplication1()": "aa2d7203",
			"percentage()": "c78ad77f",
			"percentage1()": "2ae93f50",
			"subcration()": "34a50ba0",
			"subcration1()": "9c728aa5",
			"subting()": "c4a51400"
		}
	},
	"abi": [
		{
			"inputs": [],
			"name": "adding",
			"outputs": [
				{
					"internalType": "int256",
					"name": "",
					"type": "int256"
				}
			],
			"stateMutability": "view",
			"type": "function"
		},
		{
			"inputs": [],
			"name": "addition",
			"outputs": [
				{
					"internalType": "int256",
					"name": "",
					"type": "int256"
				}
			],
			"stateMutability": "view",
			"type": "function"
		},
		{
			"inputs": [],
			"name": "addition1",
			"outputs": [
				{
					"internalType": "uint256",
					"name": "",
					"type": "uint256"
				}
			],
			"stateMutability": "view",
			"type": "function"
		},
		{
			"inputs": [],
			"name": "division",
			"outputs": [
				{
					"internalType": "int256",
					"name": "",
					"type": "int256"
				}
			],
			"stateMutability": "view",
			"type": "function"
		},
		{
			"inputs": [],
			"name": "division1",
			"outputs": [
				{
					"internalType": "uint256",
					"name": "",
					"type": "uint256"
				}
			],
			"stateMutability": "view",
			"type": "function"
		},
		{
			"inputs": [],
			"name": "multiplication",
			"outputs": [
				{
					"internalType": "int256",
					"name": "",
					"type": "int256"
				}
			],
			"stateMutability": "view",
			"type": "function"
		},
		{
			"inputs": [],
			"name": "multiplication1",
			"outputs": [
				{
					"internalType": "uint256",
					"name": "",
					"type": "uint256"
				}
			],
			"stateMutability": "view",
			"type": "function"
		},
		{
			"inputs": [],
			"name": "percentage",
			"outputs": [
				{
					"internalType": "int256",
					"name": "",
					"type": "int256"
				}
			],
			"stateMutability": "view",
			"type": "function"
		},
		{
			"inputs": [],
			"name": "percentage1",
			"outputs": [
				{
					"internalType": "uint256",
					"name": "",
					"type": "uint256"
				}
			],
			"stateMutability": "view",
			"type": "function"
		},
		{
			"inputs": [],
			"name": "subcration",
			"outputs": [
				{
					"internalType": "int256",
					"name": "",
					"type": "int256"
				}
			],
			"stateMutability": "view",
			"type": "function"
		},
		{
			"inputs": [],
			"name": "subcration1",
			"outputs": [
				{
					"internalType": "uint256",
					"name": "",
					"type": "uint256"
				}
			],
			"stateMutability": "view",
			"type": "function"
		},
		{
			"inputs": [],
			"name": "subting",
			"outputs": [
				{
					"internalType": "uint256",
					"name": "",
					"type": "uint256"
				}
			],
			"stateMutability": "view",
			"type": "function"
		}
	]
}