{
	"data": {
		"bytecode": {
			"linkReferences": {},
			"object": "6080604052348015600e575f80fd5b5061060c8061001c5f395ff3fe608060405234801561000f575f80fd5b506004361061004a575f3560e01c80630bdf57971461004e5780635ab26e5c1461007e5780636e66dec5146100ae57806396136d73146100de575b5f80fd5b61006860048036038101906100639190610246565b61010e565b6040516100759190610280565b60405180910390f35b610098600480360381019061009391906102cc565b610140565b6040516100a59190610306565b60405180910390f35b6100c860048036038101906100c391906102cc565b610172565b6040516100d59190610306565b60405180910390f35b6100f860048036038101906100f39190610246565b6101a4565b6040516101059190610280565b60405180910390f35b5f8060206005600985610121919061034c565b61012b91906103ef565b6101359190610457565b905080915050919050565b5f80602060056009856101539190610498565b61015d91906104d9565b6101679190610509565b905080915050919050565b5f8060096005602485610185919061053c565b61018f9190610498565b61019991906104d9565b905080915050919050565b5f80600960056024856101b7919061056f565b6101c1919061034c565b6101cb91906103ef565b90507f3c93eadbcf18be54efc565aa4639f8073067277757b38312d622551defd9d47081846040516101fe9291906105af565b60405180910390a180915050919050565b5f80fd5b5f819050919050565b61022581610213565b811461022f575f80fd5b50565b5f813590506102408161021c565b92915050565b5f6020828403121561025b5761025a61020f565b5b5f61026884828501610232565b91505092915050565b61027a81610213565b82525050565b5f6020820190506102935f830184610271565b92915050565b5f819050919050565b6102ab81610299565b81146102b5575f80fd5b50565b5f813590506102c6816102a2565b92915050565b5f602082840312156102e1576102e061020f565b5b5f6102ee848285016102b8565b91505092915050565b61030081610299565b82525050565b5f6020820190506103195f8301846102f7565b92915050565b7f4e487b71000000000000000000000000000000000000000000000000000000005f52601160045260245ffd5b5f61035682610213565b915061036183610213565b925082820261036f81610213565b91507f800000000000000000000000000000000000000000000000000000000000000084145f841216156103a6576103a561031f565b5b82820584148315176103bb576103ba61031f565b5b5092915050565b7f4e487b71000000000000000000000000000000000000000000000000000000005f52601260045260245ffd5b5f6103f982610213565b915061040483610213565b925082610414576104136103c2565b5b60015f0383147f80000000000000000000000000000000000000000000000000000000000000008314161561044c5761044b61031f565b5b828205905092915050565b5f61046182610213565b915061046c83610213565b92508282019050828112155f8312168382125f8412151617156104925761049161031f565b5b92915050565b5f6104a282610299565b91506104ad83610299565b92508282026104bb81610299565b915082820484148315176104d2576104d161031f565b5b5092915050565b5f6104e382610299565b91506104ee83610299565b9250826104fe576104fd6103c2565b5b828204905092915050565b5f61051382610299565b915061051e83610299565b92508282019050808211156105365761053561031f565b5b92915050565b5f61054682610299565b915061055183610299565b92508282039050818111156105695761056861031f565b5b92915050565b5f61057982610213565b915061058483610213565b925082820390508181125f8412168282135f8512151617156105a9576105a861031f565b5b92915050565b5f6040820190506105c25f830185610271565b6105cf6020830184610271565b939250505056fea26469706673582212205b580cfc7b73729e8cd169d01828c6023241433c6ff9a2471cc874191be0c59164736f6c634300081a0033",
			"opcodes": "PUSH1 0x80 PUSH1 0x40 MSTORE CALLVALUE DUP1 ISZERO PUSH1 0xE JUMPI PUSH0 DUP1 REVERT JUMPDEST POP PUSH2 0x60C DUP1 PUSH2 0x1C PUSH0 CODECOPY PUSH0 RETURN INVALID PUSH1 0x80 PUSH1 0x40 MSTORE CALLVALUE DUP1 ISZERO PUSH2 0xF JUMPI PUSH0 DUP1 REVERT JUMPDEST POP PUSH1 0x4 CALLDATASIZE LT PUSH2 0x4A JUMPI PUSH0 CALLDATALOAD PUSH1 0xE0 SHR DUP1 PUSH4 0xBDF5797 EQ PUSH2 0x4E JUMPI DUP1 PUSH4 0x5AB26E5C EQ PUSH2 0x7E JUMPI DUP1 PUSH4 0x6E66DEC5 EQ PUSH2 0xAE JUMPI DUP1 PUSH4 0x96136D73 EQ PUSH2 0xDE JUMPI JUMPDEST PUSH0 DUP1 REVERT JUMPDEST PUSH2 0x68 PUSH1 0x4 DUP1 CALLDATASIZE SUB DUP2 ADD SWAP1 PUSH2 0x63 SWAP2 SWAP1 PUSH2 0x246 JUMP JUMPDEST PUSH2 0x10E JUMP JUMPDEST PUSH1 0x40 MLOAD PUSH2 0x75 SWAP2 SWAP1 PUSH2 0x280 JUMP JUMPDEST PUSH1 0x40 MLOAD DUP1 SWAP2 SUB SWAP1 RETURN JUMPDEST PUSH2 0x98 PUSH1 0x4 DUP1 CALLDATASIZE SUB DUP2 ADD SWAP1 PUSH2 0x93 SWAP2 SWAP1 PUSH2 0x2CC JUMP JUMPDEST PUSH2 0x140 JUMP JUMPDEST PUSH1 0x40 MLOAD PUSH2 0xA5 SWAP2 SWAP1 PUSH2 0x306 JUMP JUMPDEST PUSH1 0x40 MLOAD DUP1 SWAP2 SUB SWAP1 RETURN JUMPDEST PUSH2 0xC8 PUSH1 0x4 DUP1 CALLDATASIZE SUB DUP2 ADD SWAP1 PUSH2 0xC3 SWAP2 SWAP1 PUSH2 0x2CC JUMP JUMPDEST PUSH2 0x172 JUMP JUMPDEST PUSH1 0x40 MLOAD PUSH2 0xD5 SWAP2 SWAP1 PUSH2 0x306 JUMP JUMPDEST PUSH1 0x40 MLOAD DUP1 SWAP2 SUB SWAP1 RETURN JUMPDEST PUSH2 0xF8 PUSH1 0x4 DUP1 CALLDATASIZE SUB DUP2 ADD SWAP1 PUSH2 0xF3 SWAP2 SWAP1 PUSH2 0x246 JUMP JUMPDEST PUSH2 0x1A4 JUMP JUMPDEST PUSH1 0x40 MLOAD PUSH2 0x105 SWAP2 SWAP1 PUSH2 0x280 JUMP JUMPDEST PUSH1 0x40 MLOAD DUP1 SWAP2 SUB SWAP1 RETURN JUMPDEST PUSH0 DUP1 PUSH1 0x20 PUSH1 0x5 PUSH1 0x9 DUP6 PUSH2 0x121 SWAP2 SWAP1 PUSH2 0x34C JUMP JUMPDEST PUSH2 0x12B SWAP2 SWAP1 PUSH2 0x3EF JUMP JUMPDEST PUSH2 0x135 SWAP2 SWAP1 PUSH2 0x457 JUMP JUMPDEST SWAP1 POP DUP1 SWAP2 POP POP SWAP2 SWAP1 POP JUMP JUMPDEST PUSH0 DUP1 PUSH1 0x20 PUSH1 0x5 PUSH1 0x9 DUP6 PUSH2 0x153 SWAP2 SWAP1 PUSH2 0x498 JUMP JUMPDEST PUSH2 0x15D SWAP2 SWAP1 PUSH2 0x4D9 JUMP JUMPDEST PUSH2 0x167 SWAP2 SWAP1 PUSH2 0x509 JUMP JUMPDEST SWAP1 POP DUP1 SWAP2 POP POP SWAP2 SWAP1 POP JUMP JUMPDEST PUSH0 DUP1 PUSH1 0x9 PUSH1 0x5 PUSH1 0x24 DUP6 PUSH2 0x185 SWAP2 SWAP1 PUSH2 0x53C JUMP JUMPDEST PUSH2 0x18F SWAP2 SWAP1 PUSH2 0x498 JUMP JUMPDEST PUSH2 0x199 SWAP2 SWAP1 PUSH2 0x4D9 JUMP JUMPDEST SWAP1 POP DUP1 SWAP2 POP POP SWAP2 SWAP1 POP JUMP JUMPDEST PUSH0 DUP1 PUSH1 0x9 PUSH1 0x5 PUSH1 0x24 DUP6 PUSH2 0x1B7 SWAP2 SWAP1 PUSH2 0x56F JUMP JUMPDEST PUSH2 0x1C1 SWAP2 SWAP1 PUSH2 0x34C JUMP JUMPDEST PUSH2 0x1CB SWAP2 SWAP1 PUSH2 0x3EF JUMP JUMPDEST SWAP1 POP PUSH32 0x3C93EADBCF18BE54EFC565AA4639F8073067277757B38312D622551DEFD9D470 DUP2 DUP5 PUSH1 0x40 MLOAD PUSH2 0x1FE SWAP3 SWAP2 SWAP1 PUSH2 0x5AF JUMP JUMPDEST PUSH1 0x40 MLOAD DUP1 SWAP2 SUB SWAP1 LOG1 DUP1 SWAP2 POP POP SWAP2 SWAP1 POP JUMP JUMPDEST PUSH0 DUP1 REVERT JUMPDEST PUSH0 DUP2 SWAP1 POP SWAP2 SWAP1 POP JUMP JUMPDEST PUSH2 0x225 DUP2 PUSH2 0x213 JUMP JUMPDEST DUP2 EQ PUSH2 0x22F JUMPI PUSH0 DUP1 REVERT JUMPDEST POP JUMP JUMPDEST PUSH0 DUP2 CALLDATALOAD SWAP1 POP PUSH2 0x240 DUP2 PUSH2 0x21C JUMP JUMPDEST SWAP3 SWAP2 POP POP JUMP JUMPDEST PUSH0 PUSH1 0x20 DUP3 DUP5 SUB SLT ISZERO PUSH2 0x25B JUMPI PUSH2 0x25A PUSH2 0x20F JUMP JUMPDEST JUMPDEST PUSH0 PUSH2 0x268 DUP5 DUP3 DUP6 ADD PUSH2 0x232 JUMP JUMPDEST SWAP2 POP POP SWAP3 SWAP2 POP POP JUMP JUMPDEST PUSH2 0x27A DUP2 PUSH2 0x213 JUMP JUMPDEST DUP3 MSTORE POP POP JUMP JUMPDEST PUSH0 PUSH1 0x20 DUP3 ADD SWAP1 POP PUSH2 0x293 PUSH0 DUP4 ADD DUP5 PUSH2 0x271 JUMP JUMPDEST SWAP3 SWAP2 POP POP JUMP JUMPDEST PUSH0 DUP2 SWAP1 POP SWAP2 SWAP1 POP JUMP JUMPDEST PUSH2 0x2AB DUP2 PUSH2 0x299 JUMP JUMPDEST DUP2 EQ PUSH2 0x2B5 JUMPI PUSH0 DUP1 REVERT JUMPDEST POP JUMP JUMPDEST PUSH0 DUP2 CALLDATALOAD SWAP1 POP PUSH2 0x2C6 DUP2 PUSH2 0x2A2 JUMP JUMPDEST SWAP3 SWAP2 POP POP JUMP JUMPDEST PUSH0 PUSH1 0x20 DUP3 DUP5 SUB SLT ISZERO PUSH2 0x2E1 JUMPI PUSH2 0x2E0 PUSH2 0x20F JUMP JUMPDEST JUMPDEST PUSH0 PUSH2 0x2EE DUP5 DUP3 DUP6 ADD PUSH2 0x2B8 JUMP JUMPDEST SWAP2 POP POP SWAP3 SWAP2 POP POP JUMP JUMPDEST PUSH2 0x300 DUP2 PUSH2 0x299 JUMP JUMPDEST DUP3 MSTORE POP POP JUMP JUMPDEST PUSH0 PUSH1 0x20 DUP3 ADD SWAP1 POP PUSH2 0x319 PUSH0 DUP4 ADD DUP5 PUSH2 0x2F7 JUMP JUMPDEST SWAP3 SWAP2 POP POP JUMP JUMPDEST PUSH32 0x4E487B7100000000000000000000000000000000000000000000000000000000 PUSH0 MSTORE PUSH1 0x11 PUSH1 0x4 MSTORE PUSH1 0x24 PUSH0 REVERT JUMPDEST PUSH0 PUSH2 0x356 DUP3 PUSH2 0x213 JUMP JUMPDEST SWAP2 POP PUSH2 0x361 DUP4 PUSH2 0x213 JUMP JUMPDEST SWAP3 POP DUP3 DUP3 MUL PUSH2 0x36F DUP2 PUSH2 0x213 JUMP JUMPDEST SWAP2 POP PUSH32 0x8000000000000000000000000000000000000000000000000000000000000000 DUP5 EQ PUSH0 DUP5 SLT AND ISZERO PUSH2 0x3A6 JUMPI PUSH2 0x3A5 PUSH2 0x31F JUMP JUMPDEST JUMPDEST DUP3 DUP3 SDIV DUP5 EQ DUP4 ISZERO OR PUSH2 0x3BB JUMPI PUSH2 0x3BA PUSH2 0x31F JUMP JUMPDEST JUMPDEST POP SWAP3 SWAP2 POP POP JUMP JUMPDEST PUSH32 0x4E487B7100000000000000000000000000000000000000000000000000000000 PUSH0 MSTORE PUSH1 0x12 PUSH1 0x4 MSTORE PUSH1 0x24 PUSH0 REVERT JUMPDEST PUSH0 PUSH2 0x3F9 DUP3 PUSH2 0x213 JUMP JUMPDEST SWAP2 POP PUSH2 0x404 DUP4 PUSH2 0x213 JUMP JUMPDEST SWAP3 POP DUP3 PUSH2 0x414 JUMPI PUSH2 0x413 PUSH2 0x3C2 JUMP JUMPDEST JUMPDEST PUSH1 0x1 PUSH0 SUB DUP4 EQ PUSH32 0x8000000000000000000000000000000000000000000000000000000000000000 DUP4 EQ AND ISZERO PUSH2 0x44C JUMPI PUSH2 0x44B PUSH2 0x31F JUMP JUMPDEST JUMPDEST DUP3 DUP3 SDIV SWAP1 POP SWAP3 SWAP2 POP POP JUMP JUMPDEST PUSH0 PUSH2 0x461 DUP3 PUSH2 0x213 JUMP JUMPDEST SWAP2 POP PUSH2 0x46C DUP4 PUSH2 0x213 JUMP JUMPDEST SWAP3 POP DUP3 DUP3 ADD SWAP1 POP DUP3 DUP2 SLT ISZERO PUSH0 DUP4 SLT AND DUP4 DUP3 SLT PUSH0 DUP5 SLT ISZERO AND OR ISZERO PUSH2 0x492 JUMPI PUSH2 0x491 PUSH2 0x31F JUMP JUMPDEST JUMPDEST SWAP3 SWAP2 POP POP JUMP JUMPDEST PUSH0 PUSH2 0x4A2 DUP3 PUSH2 0x299 JUMP JUMPDEST SWAP2 POP PUSH2 0x4AD DUP4 PUSH2 0x299 JUMP JUMPDEST SWAP3 POP DUP3 DUP3 MUL PUSH2 0x4BB DUP2 PUSH2 0x299 JUMP JUMPDEST SWAP2 POP DUP3 DUP3 DIV DUP5 EQ DUP4 ISZERO OR PUSH2 0x4D2 JUMPI PUSH2 0x4D1 PUSH2 0x31F JUMP JUMPDEST JUMPDEST POP SWAP3 SWAP2 POP POP JUMP JUMPDEST PUSH0 PUSH2 0x4E3 DUP3 PUSH2 0x299 JUMP JUMPDEST SWAP2 POP PUSH2 0x4EE DUP4 PUSH2 0x299 JUMP JUMPDEST SWAP3 POP DUP3 PUSH2 0x4FE JUMPI PUSH2 0x4FD PUSH2 0x3C2 JUMP JUMPDEST JUMPDEST DUP3 DUP3 DIV SWAP1 POP SWAP3 SWAP2 POP POP JUMP JUMPDEST PUSH0 PUSH2 0x513 DUP3 PUSH2 0x299 JUMP JUMPDEST SWAP2 POP PUSH2 0x51E DUP4 PUSH2 0x299 JUMP JUMPDEST SWAP3 POP DUP3 DUP3 ADD SWAP1 POP DUP1 DUP3 GT ISZERO PUSH2 0x536 JUMPI PUSH2 0x535 PUSH2 0x31F JUMP JUMPDEST JUMPDEST SWAP3 SWAP2 POP POP JUMP JUMPDEST PUSH0 PUSH2 0x546 DUP3 PUSH2 0x299 JUMP JUMPDEST SWAP2 POP PUSH2 0x551 DUP4 PUSH2 0x299 JUMP JUMPDEST SWAP3 POP DUP3 DUP3 SUB SWAP1 POP DUP2 DUP2 GT ISZERO PUSH2 0x569 JUMPI PUSH2 0x568 PUSH2 0x31F JUMP JUMPDEST JUMPDEST SWAP3 SWAP2 POP POP JUMP JUMPDEST PUSH0 PUSH2 0x579 DUP3 PUSH2 0x213 JUMP JUMPDEST SWAP2 POP PUSH2 0x584 DUP4 PUSH2 0x213 JUMP JUMPDEST SWAP3 POP DUP3 DUP3 SUB SWAP1 POP DUP2 DUP2 SLT PUSH0 DUP5 SLT AND DUP3 DUP3 SGT PUSH0 DUP6 SLT ISZERO AND OR ISZERO PUSH2 0x5A9 JUMPI PUSH2 0x5A8 PUSH2 0x31F JUMP JUMPDEST JUMPDEST SWAP3 SWAP2 POP POP JUMP JUMPDEST PUSH0 PUSH1 0x40 DUP3 ADD SWAP1 POP PUSH2 0x5C2 PUSH0 DUP4 ADD DUP6 PUSH2 0x271 JUMP JUMPDEST PUSH2 0x5CF PUSH1 0x20 DUP4 ADD DUP5 PUSH2 0x271 JUMP JUMPDEST SWAP4 SWAP3 POP POP POP JUMP INVALID LOG2 PUSH5 0x6970667358 0x22 SLT KECCAK256 JUMPDEST PC 0xC 0xFC PUSH28 0x73729E8CD169D01828C6023241433C6FF9A2471CC874191BE0C59164 PUSH20 0x6F6C634300081A00330000000000000000000000 "
		},
		"gasEstimates": {
			"creation": {
				"codeDepositCost": "309600",
				"executionCost": "347",
				"totalCost": "309947"
			},
			"external": {
				"celitofahr(int256)": "infinite",
				"celitofahr2(uint256)": "infinite",
				"farhatoceli(int256)": "infinite",
				"farhatoceli1(uint256)": "infinite"
			}
		},
		"methodIdentifiers": {
			"celitofahr(int256)": "0bdf5797",
			"celitofahr2(uint256)": "5ab26e5c",
			"farhatoceli(int256)": "96136d73",
			"farhatoceli1(uint256)": "6e66dec5"
		}
	},
	"abi": [
		{
			"anonymous": false,
			"inputs": [
				{
					"indexed": false,
					"internalType": "int256",
					"name": "celi",
					"type": "int256"
				},
				{
					"indexed": false,
					"internalType": "int256",
					"name": "farh",
					"type": "int256"
				}
			],
			"name": "result",
			"type": "event"
		},
		{
			"inputs": [
				{
					"internalType": "int256",
					"name": "celi",
					"type": "int256"
				}
			],
			"name": "celitofahr",
			"outputs": [
				{
					"internalType": "int256",
					"name": "",
					"type": "int256"
				}
			],
			"stateMutability": "nonpayable",
			"type": "function"
		},
		{
			"inputs": [
				{
					"internalType": "uint256",
					"name": "celi",
					"type": "uint256"
				}
			],
			"name": "celitofahr2",
			"outputs": [
				{
					"internalType": "uint256",
					"name": "",
					"type": "uint256"
				}
			],
			"stateMutability": "nonpayable",
			"type": "function"
		},
		{
			"inputs": [
				{
					"internalType": "int256",
					"name": "farh",
					"type": "int256"
				}
			],
			"name": "farhatoceli",
			"outputs": [
				{
					"internalType": "int256",
					"name": "",
					"type": "int256"
				}
			],
			"stateMutability": "nonpayable",
			"type": "function"
		},
		{
			"inputs": [
				{
					"internalType": "uint256",
					"name": "farh",
					"type": "uint256"
				}
			],
			"name": "farhatoceli1",
			"outputs": [
				{
					"internalType": "uint256",
					"name": "",
					"type": "uint256"
				}
			],
			"stateMutability": "nonpayable",
			"type": "function"
		}
	]
}