{
	"data": {
		"bytecode": {
			"linkReferences": {},
			"object": "6080604052348015600e575f80fd5b506103278061001c5f395ff3fe608060405234801561000f575f80fd5b5060043610610029575f3560e01c8063a45b913c1461002d575b5f80fd5b610047600480360381019061004291906100ff565b61005d565b6040516100549190610139565b60405180910390f35b5f8060096005602085610070919061017f565b61007a91906101bf565b6100849190610262565b90507f1dd2cccca950bd7961fbb11175f6daa43b3feedc687e36524a34b21217ee1f7c83826040516100b79291906102ca565b60405180910390a180915050919050565b5f80fd5b5f819050919050565b6100de816100cc565b81146100e8575f80fd5b50565b5f813590506100f9816100d5565b92915050565b5f60208284031215610114576101136100c8565b5b5f610121848285016100eb565b91505092915050565b610133816100cc565b82525050565b5f60208201905061014c5f83018461012a565b92915050565b7f4e487b71000000000000000000000000000000000000000000000000000000005f52601160045260245ffd5b5f610189826100cc565b9150610194836100cc565b925082820390508181125f8412168282135f8512151617156101b9576101b8610152565b5b92915050565b5f6101c9826100cc565b91506101d4836100cc565b92508282026101e2816100cc565b91507f800000000000000000000000000000000000000000000000000000000000000084145f8412161561021957610218610152565b5b828205841483151761022e5761022d610152565b5b5092915050565b7f4e487b71000000000000000000000000000000000000000000000000000000005f52601260045260245ffd5b5f61026c826100cc565b9150610277836100cc565b92508261028757610286610235565b5b60015f0383147f8000000000000000000000000000000000000000000000000000000000000000831416156102bf576102be610152565b5b828205905092915050565b5f6040820190506102dd5f83018561012a565b6102ea602083018461012a565b939250505056fea26469706673582212202abc638928d6ac070c17f7c683e8111e62330bd11b634ea1c76b87921b75582064736f6c634300081a0033",
			"opcodes": "PUSH1 0x80 PUSH1 0x40 MSTORE CALLVALUE DUP1 ISZERO PUSH1 0xE JUMPI PUSH0 DUP1 REVERT JUMPDEST POP PUSH2 0x327 DUP1 PUSH2 0x1C PUSH0 CODECOPY PUSH0 RETURN INVALID PUSH1 0x80 PUSH1 0x40 MSTORE CALLVALUE DUP1 ISZERO PUSH2 0xF JUMPI PUSH0 DUP1 REVERT JUMPDEST POP PUSH1 0x4 CALLDATASIZE LT PUSH2 0x29 JUMPI PUSH0 CALLDATALOAD PUSH1 0xE0 SHR DUP1 PUSH4 0xA45B913C EQ PUSH2 0x2D JUMPI JUMPDEST PUSH0 DUP1 REVERT JUMPDEST PUSH2 0x47 PUSH1 0x4 DUP1 CALLDATASIZE SUB DUP2 ADD SWAP1 PUSH2 0x42 SWAP2 SWAP1 PUSH2 0xFF JUMP JUMPDEST PUSH2 0x5D JUMP JUMPDEST PUSH1 0x40 MLOAD PUSH2 0x54 SWAP2 SWAP1 PUSH2 0x139 JUMP JUMPDEST PUSH1 0x40 MLOAD DUP1 SWAP2 SUB SWAP1 RETURN JUMPDEST PUSH0 DUP1 PUSH1 0x9 PUSH1 0x5 PUSH1 0x20 DUP6 PUSH2 0x70 SWAP2 SWAP1 PUSH2 0x17F JUMP JUMPDEST PUSH2 0x7A SWAP2 SWAP1 PUSH2 0x1BF JUMP JUMPDEST PUSH2 0x84 SWAP2 SWAP1 PUSH2 0x262 JUMP JUMPDEST SWAP1 POP PUSH32 0x1DD2CCCCA950BD7961FBB11175F6DAA43B3FEEDC687E36524A34B21217EE1F7C DUP4 DUP3 PUSH1 0x40 MLOAD PUSH2 0xB7 SWAP3 SWAP2 SWAP1 PUSH2 0x2CA JUMP JUMPDEST PUSH1 0x40 MLOAD DUP1 SWAP2 SUB SWAP1 LOG1 DUP1 SWAP2 POP POP SWAP2 SWAP1 POP JUMP JUMPDEST PUSH0 DUP1 REVERT JUMPDEST PUSH0 DUP2 SWAP1 POP SWAP2 SWAP1 POP JUMP JUMPDEST PUSH2 0xDE DUP2 PUSH2 0xCC JUMP JUMPDEST DUP2 EQ PUSH2 0xE8 JUMPI PUSH0 DUP1 REVERT JUMPDEST POP JUMP JUMPDEST PUSH0 DUP2 CALLDATALOAD SWAP1 POP PUSH2 0xF9 DUP2 PUSH2 0xD5 JUMP JUMPDEST SWAP3 SWAP2 POP POP JUMP JUMPDEST PUSH0 PUSH1 0x20 DUP3 DUP5 SUB SLT ISZERO PUSH2 0x114 JUMPI PUSH2 0x113 PUSH2 0xC8 JUMP JUMPDEST JUMPDEST PUSH0 PUSH2 0x121 DUP5 DUP3 DUP6 ADD PUSH2 0xEB JUMP JUMPDEST SWAP2 POP POP SWAP3 SWAP2 POP POP JUMP JUMPDEST PUSH2 0x133 DUP2 PUSH2 0xCC JUMP JUMPDEST DUP3 MSTORE POP POP JUMP JUMPDEST PUSH0 PUSH1 0x20 DUP3 ADD SWAP1 POP PUSH2 0x14C PUSH0 DUP4 ADD DUP5 PUSH2 0x12A JUMP JUMPDEST SWAP3 SWAP2 POP POP JUMP JUMPDEST PUSH32 0x4E487B7100000000000000000000000000000000000000000000000000000000 PUSH0 MSTORE PUSH1 0x11 PUSH1 0x4 MSTORE PUSH1 0x24 PUSH0 REVERT JUMPDEST PUSH0 PUSH2 0x189 DUP3 PUSH2 0xCC JUMP JUMPDEST SWAP2 POP PUSH2 0x194 DUP4 PUSH2 0xCC JUMP JUMPDEST SWAP3 POP DUP3 DUP3 SUB SWAP1 POP DUP2 DUP2 SLT PUSH0 DUP5 SLT AND DUP3 DUP3 SGT PUSH0 DUP6 SLT ISZERO AND OR ISZERO PUSH2 0x1B9 JUMPI PUSH2 0x1B8 PUSH2 0x152 JUMP JUMPDEST JUMPDEST SWAP3 SWAP2 POP POP JUMP JUMPDEST PUSH0 PUSH2 0x1C9 DUP3 PUSH2 0xCC JUMP JUMPDEST SWAP2 POP PUSH2 0x1D4 DUP4 PUSH2 0xCC JUMP JUMPDEST SWAP3 POP DUP3 DUP3 MUL PUSH2 0x1E2 DUP2 PUSH2 0xCC JUMP JUMPDEST SWAP2 POP PUSH32 0x8000000000000000000000000000000000000000000000000000000000000000 DUP5 EQ PUSH0 DUP5 SLT AND ISZERO PUSH2 0x219 JUMPI PUSH2 0x218 PUSH2 0x152 JUMP JUMPDEST JUMPDEST DUP3 DUP3 SDIV DUP5 EQ DUP4 ISZERO OR PUSH2 0x22E JUMPI PUSH2 0x22D PUSH2 0x152 JUMP JUMPDEST JUMPDEST POP SWAP3 SWAP2 POP POP JUMP JUMPDEST PUSH32 0x4E487B7100000000000000000000000000000000000000000000000000000000 PUSH0 MSTORE PUSH1 0x12 PUSH1 0x4 MSTORE PUSH1 0x24 PUSH0 REVERT JUMPDEST PUSH0 PUSH2 0x26C DUP3 PUSH2 0xCC JUMP JUMPDEST SWAP2 POP PUSH2 0x277 DUP4 PUSH2 0xCC JUMP JUMPDEST SWAP3 POP DUP3 PUSH2 0x287 JUMPI PUSH2 0x286 PUSH2 0x235 JUMP JUMPDEST JUMPDEST PUSH1 0x1 PUSH0 SUB DUP4 EQ PUSH32 0x8000000000000000000000000000000000000000000000000000000000000000 DUP4 EQ AND ISZERO PUSH2 0x2BF JUMPI PUSH2 0x2BE PUSH2 0x152 JUMP JUMPDEST JUMPDEST DUP3 DUP3 SDIV SWAP1 POP SWAP3 SWAP2 POP POP JUMP JUMPDEST PUSH0 PUSH1 0x40 DUP3 ADD SWAP1 POP PUSH2 0x2DD PUSH0 DUP4 ADD DUP6 PUSH2 0x12A JUMP JUMPDEST PUSH2 0x2EA PUSH1 0x20 DUP4 ADD DUP5 PUSH2 0x12A JUMP JUMPDEST SWAP4 SWAP3 POP POP POP JUMP INVALID LOG2 PUSH5 0x6970667358 0x22 SLT KECCAK256 0x2A 0xBC PUSH4 0x8928D6AC SMOD 0xC OR 0xF7 0xC6 DUP4 0xE8 GT 0x1E PUSH3 0x330BD1 SHL PUSH4 0x4EA1C76B DUP8 SWAP3 SHL PUSH22 0x582064736F6C634300081A0033000000000000000000 "
		},
		"gasEstimates": {
			"creation": {
				"codeDepositCost": "161400",
				"executionCost": "206",
				"totalCost": "161606"
			},
			"external": {
				"fahrenheitToCelsius(int256)": "infinite"
			}
		},
		"methodIdentifiers": {
			"fahrenheitToCelsius(int256)": "a45b913c"
		}
	},
	"abi": [
		{
			"anonymous": false,
			"inputs": [
				{
					"indexed": false,
					"internalType": "int256",
					"name": "fahrenheit",
					"type": "int256"
				},
				{
					"indexed": false,
					"internalType": "int256",
					"name": "celsius",
					"type": "int256"
				}
			],
			"name": "ConversionResult",
			"type": "event"
		},
		{
			"inputs": [
				{
					"internalType": "int256",
					"name": "fahrenheit",
					"type": "int256"
				}
			],
			"name": "fahrenheitToCelsius",
			"outputs": [
				{
					"internalType": "int256",
					"name": "",
					"type": "int256"
				}
			],
			"stateMutability": "nonpayable",
			"type": "function"
		}
	]
}