{
	"data": {
		"bytecode": {
			"linkReferences": {},
			"object": "608060405260c85f5561019060015560c860025561032060035560646004556102bc60055561012c60065560c86007556040518060400160405280601581526020017f746869732069732066697273742070726f6772616d00000000000000000000008152506008908161007391906102bf565b5034801561007f575f80fd5b5061038e565b5f81519050919050565b7f4e487b71000000000000000000000000000000000000000000000000000000005f52604160045260245ffd5b7f4e487b71000000000000000000000000000000000000000000000000000000005f52602260045260245ffd5b5f600282049050600182168061010057607f821691505b602082108103610113576101126100bc565b5b50919050565b5f819050815f5260205f209050919050565b5f6020601f8301049050919050565b5f82821b905092915050565b5f600883026101757fffffffffffffffffffffffffffffffffffffffffffffffffffffffffffffffff8261013a565b61017f868361013a565b95508019841693508086168417925050509392505050565b5f819050919050565b5f819050919050565b5f6101c36101be6101b984610197565b6101a0565b610197565b9050919050565b5f819050919050565b6101dc836101a9565b6101f06101e8826101ca565b848454610146565b825550505050565b5f90565b6102046101f8565b61020f8184846101d3565b505050565b5b81811015610232576102275f826101fc565b600181019050610215565b5050565b601f8211156102775761024881610119565b6102518461012b565b81016020851015610260578190505b61027461026c8561012b565b830182610214565b50505b505050565b5f82821c905092915050565b5f6102975f198460080261027c565b1980831691505092915050565b5f6102af8383610288565b9150826002028217905092915050565b6102c882610085565b67ffffffffffffffff8111156102e1576102e061008f565b5b6102eb82546100e9565b6102f6828285610236565b5f60209050601f831160018114610327575f8415610315578287015190505b61031f85826102a4565b865550610386565b601f19841661033586610119565b5f5b8281101561035c57848901518255600182019150602085019450602081019050610337565b868310156103795784890151610375601f891682610288565b8355505b6001600288020188555050505b505050505050565b6107ff8061039b5f395ff3fe608060405234801561000f575f80fd5b50600436106100a7575f3560e01c80639c728aa51161006f5780639c728aa514610141578063a7b2cfca1461015f578063aa2d72031461017d578063c78ad77f1461019b578063d1e42eb2146101b9578063ec597128146101d7576100a7565b8063011285da146100ab5780632ae93f50146100c95780633205f5fc146100e757806334a50ba0146101055780634d3e46e414610123575b5f80fd5b6100b36101f5565b6040516100c091906103a2565b60405180910390f35b6100d161020f565b6040516100de91906103d3565b60405180910390f35b6100ef61022a565b6040516100fc91906103a2565b60405180910390f35b61010d610244565b60405161011a91906103a2565b60405180910390f35b61012b61025e565b60405161013891906103d3565b60405180910390f35b610149610279565b60405161015691906103d3565b60405180910390f35b610167610294565b604051610174919061045c565b60405180910390f35b610185610320565b60405161019291906103d3565b60405180910390f35b6101a361033b565b6040516101b091906103a2565b60405180910390f35b6101c1610355565b6040516101ce91906103d3565b60405180910390f35b6101df610370565b6040516101ec91906103a2565b60405180910390f35b5f806001545f5461020691906104a9565b90508091505090565b5f80600754600454610221919061054c565b90508091505090565b5f806001545f5461023b919061057c565b90508091505090565b5f806001545f5461025591906105e4565b90508091505090565b5f806004546007546102709190610624565b90508091505090565b5f8060065460055461028b9190610657565b90508091505090565b600880546102a1906106b7565b80601f01602080910402602001604051908101604052809291908181526020018280546102cd906106b7565b80156103185780601f106102ef57610100808354040283529160200191610318565b820191905f5260205f20905b8154815290600101906020018083116102fb57829003601f168201915b505050505081565b5f8060065460055461033291906106e7565b90508091505090565b5f806001545f5461034c9190610728565b90508091505090565b5f806007546004546103679190610758565b90508091505090565b5f806001545f546103819190610788565b90508091505090565b5f819050919050565b61039c8161038a565b82525050565b5f6020820190506103b55f830184610393565b92915050565b5f819050919050565b6103cd816103bb565b82525050565b5f6020820190506103e65f8301846103c4565b92915050565b5f81519050919050565b5f82825260208201905092915050565b8281835e5f83830152505050565b5f601f19601f8301169050919050565b5f61042e826103ec565b61043881856103f6565b9350610448818560208601610406565b61045181610414565b840191505092915050565b5f6020820190508181035f8301526104748184610424565b905092915050565b7f4e487b71000000000000000000000000000000000000000000000000000000005f52601160045260245ffd5b5f6104b38261038a565b91506104be8361038a565b92508282026104cc8161038a565b91507f800000000000000000000000000000000000000000000000000000000000000084145f841216156105035761050261047c565b5b82820584148315176105185761051761047c565b5b5092915050565b7f4e487b71000000000000000000000000000000000000000000000000000000005f52601260045260245ffd5b5f610556826103bb565b9150610561836103bb565b9250826105715761057061051f565b5b828206905092915050565b5f6105868261038a565b91506105918361038a565b9250826105a1576105a061051f565b5b60015f0383147f8000000000000000000000000000000000000000000000000000000000000000831416156105d9576105d861047c565b5b828205905092915050565b5f6105ee8261038a565b91506105f98361038a565b925082820390508181125f8412168282135f85121516171561061e5761061d61047c565b5b92915050565b5f61062e826103bb565b9150610639836103bb565b92508282019050808211156106515761065061047c565b5b92915050565b5f610661826103bb565b915061066c836103bb565b92508282039050818111156106845761068361047c565b5b92915050565b7f4e487b71000000000000000000000000000000000000000000000000000000005f52602260045260245ffd5b5f60028204905060018216806106ce57607f821691505b6020821081036106e1576106e061068a565b5b50919050565b5f6106f1826103bb565b91506106fc836103bb565b925082820261070a816103bb565b915082820484148315176107215761072061047c565b5b5092915050565b5f6107328261038a565b915061073d8361038a565b92508261074d5761074c61051f565b5b828207905092915050565b5f610762826103bb565b915061076d836103bb565b92508261077d5761077c61051f565b5b828204905092915050565b5f6107928261038a565b915061079d8361038a565b92508282019050828112155f8312168382125f8412151617156107c3576107c261047c565b5b9291505056fea2646970667358221220be5771a85a287ab11b90d976f4571b645afd07eac7c400f509b31119a6346d8d64736f6c634300081a0033",
			"opcodes": "PUSH1 0x80 PUSH1 0x40 MSTORE PUSH1 0xC8 PUSH0 SSTORE PUSH2 0x190 PUSH1 0x1 SSTORE PUSH1 0xC8 PUSH1 0x2 SSTORE PUSH2 0x320 PUSH1 0x3 SSTORE PUSH1 0x64 PUSH1 0x4 SSTORE PUSH2 0x2BC PUSH1 0x5 SSTORE PUSH2 0x12C PUSH1 0x6 SSTORE PUSH1 0xC8 PUSH1 0x7 SSTORE PUSH1 0x40 MLOAD DUP1 PUSH1 0x40 ADD PUSH1 0x40 MSTORE DUP1 PUSH1 0x15 DUP2 MSTORE PUSH1 0x20 ADD PUSH32 0x746869732069732066697273742070726F6772616D0000000000000000000000 DUP2 MSTORE POP PUSH1 0x8 SWAP1 DUP2 PUSH2 0x73 SWAP2 SWAP1 PUSH2 0x2BF JUMP JUMPDEST POP CALLVALUE DUP1 ISZERO PUSH2 0x7F JUMPI PUSH0 DUP1 REVERT JUMPDEST POP PUSH2 0x38E JUMP JUMPDEST PUSH0 DUP2 MLOAD SWAP1 POP SWAP2 SWAP1 POP JUMP JUMPDEST PUSH32 0x4E487B7100000000000000000000000000000000000000000000000000000000 PUSH0 MSTORE PUSH1 0x41 PUSH1 0x4 MSTORE PUSH1 0x24 PUSH0 REVERT JUMPDEST PUSH32 0x4E487B7100000000000000000000000000000000000000000000000000000000 PUSH0 MSTORE PUSH1 0x22 PUSH1 0x4 MSTORE PUSH1 0x24 PUSH0 REVERT JUMPDEST PUSH0 PUSH1 0x2 DUP3 DIV SWAP1 POP PUSH1 0x1 DUP3 AND DUP1 PUSH2 0x100 JUMPI PUSH1 0x7F DUP3 AND SWAP2 POP JUMPDEST PUSH1 0x20 DUP3 LT DUP2 SUB PUSH2 0x113 JUMPI PUSH2 0x112 PUSH2 0xBC JUMP JUMPDEST JUMPDEST POP SWAP2 SWAP1 POP JUMP JUMPDEST PUSH0 DUP2 SWAP1 POP DUP2 PUSH0 MSTORE PUSH1 0x20 PUSH0 KECCAK256 SWAP1 POP SWAP2 SWAP1 POP JUMP JUMPDEST PUSH0 PUSH1 0x20 PUSH1 0x1F DUP4 ADD DIV SWAP1 POP SWAP2 SWAP1 POP JUMP JUMPDEST PUSH0 DUP3 DUP3 SHL SWAP1 POP SWAP3 SWAP2 POP POP JUMP JUMPDEST PUSH0 PUSH1 0x8 DUP4 MUL PUSH2 0x175 PUSH32 0xFFFFFFFFFFFFFFFFFFFFFFFFFFFFFFFFFFFFFFFFFFFFFFFFFFFFFFFFFFFFFFFF DUP3 PUSH2 0x13A JUMP JUMPDEST PUSH2 0x17F DUP7 DUP4 PUSH2 0x13A JUMP JUMPDEST SWAP6 POP DUP1 NOT DUP5 AND SWAP4 POP DUP1 DUP7 AND DUP5 OR SWAP3 POP POP POP SWAP4 SWAP3 POP POP POP JUMP JUMPDEST PUSH0 DUP2 SWAP1 POP SWAP2 SWAP1 POP JUMP JUMPDEST PUSH0 DUP2 SWAP1 POP SWAP2 SWAP1 POP JUMP JUMPDEST PUSH0 PUSH2 0x1C3 PUSH2 0x1BE PUSH2 0x1B9 DUP5 PUSH2 0x197 JUMP JUMPDEST PUSH2 0x1A0 JUMP JUMPDEST PUSH2 0x197 JUMP JUMPDEST SWAP1 POP SWAP2 SWAP1 POP JUMP JUMPDEST PUSH0 DUP2 SWAP1 POP SWAP2 SWAP1 POP JUMP JUMPDEST PUSH2 0x1DC DUP4 PUSH2 0x1A9 JUMP JUMPDEST PUSH2 0x1F0 PUSH2 0x1E8 DUP3 PUSH2 0x1CA JUMP JUMPDEST DUP5 DUP5 SLOAD PUSH2 0x146 JUMP JUMPDEST DUP3 SSTORE POP POP POP POP JUMP JUMPDEST PUSH0 SWAP1 JUMP JUMPDEST PUSH2 0x204 PUSH2 0x1F8 JUMP JUMPDEST PUSH2 0x20F DUP2 DUP5 DUP5 PUSH2 0x1D3 JUMP JUMPDEST POP POP POP JUMP JUMPDEST JUMPDEST DUP2 DUP2 LT ISZERO PUSH2 0x232 JUMPI PUSH2 0x227 PUSH0 DUP3 PUSH2 0x1FC JUMP JUMPDEST PUSH1 0x1 DUP2 ADD SWAP1 POP PUSH2 0x215 JUMP JUMPDEST POP POP JUMP JUMPDEST PUSH1 0x1F DUP3 GT ISZERO PUSH2 0x277 JUMPI PUSH2 0x248 DUP2 PUSH2 0x119 JUMP JUMPDEST PUSH2 0x251 DUP5 PUSH2 0x12B JUMP JUMPDEST DUP2 ADD PUSH1 0x20 DUP6 LT ISZERO PUSH2 0x260 JUMPI DUP2 SWAP1 POP JUMPDEST PUSH2 0x274 PUSH2 0x26C DUP6 PUSH2 0x12B JUMP JUMPDEST DUP4 ADD DUP3 PUSH2 0x214 JUMP JUMPDEST POP POP JUMPDEST POP POP POP JUMP JUMPDEST PUSH0 DUP3 DUP3 SHR SWAP1 POP SWAP3 SWAP2 POP POP JUMP JUMPDEST PUSH0 PUSH2 0x297 PUSH0 NOT DUP5 PUSH1 0x8 MUL PUSH2 0x27C JUMP JUMPDEST NOT DUP1 DUP4 AND SWAP2 POP POP SWAP3 SWAP2 POP POP JUMP JUMPDEST PUSH0 PUSH2 0x2AF DUP4 DUP4 PUSH2 0x288 JUMP JUMPDEST SWAP2 POP DUP3 PUSH1 0x2 MUL DUP3 OR SWAP1 POP SWAP3 SWAP2 POP POP JUMP JUMPDEST PUSH2 0x2C8 DUP3 PUSH2 0x85 JUMP JUMPDEST PUSH8 0xFFFFFFFFFFFFFFFF DUP2 GT ISZERO PUSH2 0x2E1 JUMPI PUSH2 0x2E0 PUSH2 0x8F JUMP JUMPDEST JUMPDEST PUSH2 0x2EB DUP3 SLOAD PUSH2 0xE9 JUMP JUMPDEST PUSH2 0x2F6 DUP3 DUP3 DUP6 PUSH2 0x236 JUMP JUMPDEST PUSH0 PUSH1 0x20 SWAP1 POP PUSH1 0x1F DUP4 GT PUSH1 0x1 DUP2 EQ PUSH2 0x327 JUMPI PUSH0 DUP5 ISZERO PUSH2 0x315 JUMPI DUP3 DUP8 ADD MLOAD SWAP1 POP JUMPDEST PUSH2 0x31F DUP6 DUP3 PUSH2 0x2A4 JUMP JUMPDEST DUP7 SSTORE POP PUSH2 0x386 JUMP JUMPDEST PUSH1 0x1F NOT DUP5 AND PUSH2 0x335 DUP7 PUSH2 0x119 JUMP JUMPDEST PUSH0 JUMPDEST DUP3 DUP2 LT ISZERO PUSH2 0x35C JUMPI DUP5 DUP10 ADD MLOAD DUP3 SSTORE PUSH1 0x1 DUP3 ADD SWAP2 POP PUSH1 0x20 DUP6 ADD SWAP5 POP PUSH1 0x20 DUP2 ADD SWAP1 POP PUSH2 0x337 JUMP JUMPDEST DUP7 DUP4 LT ISZERO PUSH2 0x379 JUMPI DUP5 DUP10 ADD MLOAD PUSH2 0x375 PUSH1 0x1F DUP10 AND DUP3 PUSH2 0x288 JUMP JUMPDEST DUP4 SSTORE POP JUMPDEST PUSH1 0x1 PUSH1 0x2 DUP9 MUL ADD DUP9 SSTORE POP POP POP JUMPDEST POP POP POP POP POP POP JUMP JUMPDEST PUSH2 0x7FF DUP1 PUSH2 0x39B PUSH0 CODECOPY PUSH0 RETURN INVALID PUSH1 0x80 PUSH1 0x40 MSTORE CALLVALUE DUP1 ISZERO PUSH2 0xF JUMPI PUSH0 DUP1 REVERT JUMPDEST POP PUSH1 0x4 CALLDATASIZE LT PUSH2 0xA7 JUMPI PUSH0 CALLDATALOAD PUSH1 0xE0 SHR DUP1 PUSH4 0x9C728AA5 GT PUSH2 0x6F JUMPI DUP1 PUSH4 0x9C728AA5 EQ PUSH2 0x141 JUMPI DUP1 PUSH4 0xA7B2CFCA EQ PUSH2 0x15F JUMPI DUP1 PUSH4 0xAA2D7203 EQ PUSH2 0x17D JUMPI DUP1 PUSH4 0xC78AD77F EQ PUSH2 0x19B JUMPI DUP1 PUSH4 0xD1E42EB2 EQ PUSH2 0x1B9 JUMPI DUP1 PUSH4 0xEC597128 EQ PUSH2 0x1D7 JUMPI PUSH2 0xA7 JUMP JUMPDEST DUP1 PUSH4 0x11285DA EQ PUSH2 0xAB JUMPI DUP1 PUSH4 0x2AE93F50 EQ PUSH2 0xC9 JUMPI DUP1 PUSH4 0x3205F5FC EQ PUSH2 0xE7 JUMPI DUP1 PUSH4 0x34A50BA0 EQ PUSH2 0x105 JUMPI DUP1 PUSH4 0x4D3E46E4 EQ PUSH2 0x123 JUMPI JUMPDEST PUSH0 DUP1 REVERT JUMPDEST PUSH2 0xB3 PUSH2 0x1F5 JUMP JUMPDEST PUSH1 0x40 MLOAD PUSH2 0xC0 SWAP2 SWAP1 PUSH2 0x3A2 JUMP JUMPDEST PUSH1 0x40 MLOAD DUP1 SWAP2 SUB SWAP1 RETURN JUMPDEST PUSH2 0xD1 PUSH2 0x20F JUMP JUMPDEST PUSH1 0x40 MLOAD PUSH2 0xDE SWAP2 SWAP1 PUSH2 0x3D3 JUMP JUMPDEST PUSH1 0x40 MLOAD DUP1 SWAP2 SUB SWAP1 RETURN JUMPDEST PUSH2 0xEF PUSH2 0x22A JUMP JUMPDEST PUSH1 0x40 MLOAD PUSH2 0xFC SWAP2 SWAP1 PUSH2 0x3A2 JUMP JUMPDEST PUSH1 0x40 MLOAD DUP1 SWAP2 SUB SWAP1 RETURN JUMPDEST PUSH2 0x10D PUSH2 0x244 JUMP JUMPDEST PUSH1 0x40 MLOAD PUSH2 0x11A SWAP2 SWAP1 PUSH2 0x3A2 JUMP JUMPDEST PUSH1 0x40 MLOAD DUP1 SWAP2 SUB SWAP1 RETURN JUMPDEST PUSH2 0x12B PUSH2 0x25E JUMP JUMPDEST PUSH1 0x40 MLOAD PUSH2 0x138 SWAP2 SWAP1 PUSH2 0x3D3 JUMP JUMPDEST PUSH1 0x40 MLOAD DUP1 SWAP2 SUB SWAP1 RETURN JUMPDEST PUSH2 0x149 PUSH2 0x279 JUMP JUMPDEST PUSH1 0x40 MLOAD PUSH2 0x156 SWAP2 SWAP1 PUSH2 0x3D3 JUMP JUMPDEST PUSH1 0x40 MLOAD DUP1 SWAP2 SUB SWAP1 RETURN JUMPDEST PUSH2 0x167 PUSH2 0x294 JUMP JUMPDEST PUSH1 0x40 MLOAD PUSH2 0x174 SWAP2 SWAP1 PUSH2 0x45C JUMP JUMPDEST PUSH1 0x40 MLOAD DUP1 SWAP2 SUB SWAP1 RETURN JUMPDEST PUSH2 0x185 PUSH2 0x320 JUMP JUMPDEST PUSH1 0x40 MLOAD PUSH2 0x192 SWAP2 SWAP1 PUSH2 0x3D3 JUMP JUMPDEST PUSH1 0x40 MLOAD DUP1 SWAP2 SUB SWAP1 RETURN JUMPDEST PUSH2 0x1A3 PUSH2 0x33B JUMP JUMPDEST PUSH1 0x40 MLOAD PUSH2 0x1B0 SWAP2 SWAP1 PUSH2 0x3A2 JUMP JUMPDEST PUSH1 0x40 MLOAD DUP1 SWAP2 SUB SWAP1 RETURN JUMPDEST PUSH2 0x1C1 PUSH2 0x355 JUMP JUMPDEST PUSH1 0x40 MLOAD PUSH2 0x1CE SWAP2 SWAP1 PUSH2 0x3D3 JUMP JUMPDEST PUSH1 0x40 MLOAD DUP1 SWAP2 SUB SWAP1 RETURN JUMPDEST PUSH2 0x1DF PUSH2 0x370 JUMP JUMPDEST PUSH1 0x40 MLOAD PUSH2 0x1EC SWAP2 SWAP1 PUSH2 0x3A2 JUMP JUMPDEST PUSH1 0x40 MLOAD DUP1 SWAP2 SUB SWAP1 RETURN JUMPDEST PUSH0 DUP1 PUSH1 0x1 SLOAD PUSH0 SLOAD PUSH2 0x206 SWAP2 SWAP1 PUSH2 0x4A9 JUMP JUMPDEST SWAP1 POP DUP1 SWAP2 POP POP SWAP1 JUMP JUMPDEST PUSH0 DUP1 PUSH1 0x7 SLOAD PUSH1 0x4 SLOAD PUSH2 0x221 SWAP2 SWAP1 PUSH2 0x54C JUMP JUMPDEST SWAP1 POP DUP1 SWAP2 POP POP SWAP1 JUMP JUMPDEST PUSH0 DUP1 PUSH1 0x1 SLOAD PUSH0 SLOAD PUSH2 0x23B SWAP2 SWAP1 PUSH2 0x57C JUMP JUMPDEST SWAP1 POP DUP1 SWAP2 POP POP SWAP1 JUMP JUMPDEST PUSH0 DUP1 PUSH1 0x1 SLOAD PUSH0 SLOAD PUSH2 0x255 SWAP2 SWAP1 PUSH2 0x5E4 JUMP JUMPDEST SWAP1 POP DUP1 SWAP2 POP POP SWAP1 JUMP JUMPDEST PUSH0 DUP1 PUSH1 0x4 SLOAD PUSH1 0x7 SLOAD PUSH2 0x270 SWAP2 SWAP1 PUSH2 0x624 JUMP JUMPDEST SWAP1 POP DUP1 SWAP2 POP POP SWAP1 JUMP JUMPDEST PUSH0 DUP1 PUSH1 0x6 SLOAD PUSH1 0x5 SLOAD PUSH2 0x28B SWAP2 SWAP1 PUSH2 0x657 JUMP JUMPDEST SWAP1 POP DUP1 SWAP2 POP POP SWAP1 JUMP JUMPDEST PUSH1 0x8 DUP1 SLOAD PUSH2 0x2A1 SWAP1 PUSH2 0x6B7 JUMP JUMPDEST DUP1 PUSH1 0x1F ADD PUSH1 0x20 DUP1 SWAP2 DIV MUL PUSH1 0x20 ADD PUSH1 0x40 MLOAD SWAP1 DUP2 ADD PUSH1 0x40 MSTORE DUP1 SWAP3 SWAP2 SWAP1 DUP2 DUP2 MSTORE PUSH1 0x20 ADD DUP3 DUP1 SLOAD PUSH2 0x2CD SWAP1 PUSH2 0x6B7 JUMP JUMPDEST DUP1 ISZERO PUSH2 0x318 JUMPI DUP1 PUSH1 0x1F LT PUSH2 0x2EF JUMPI PUSH2 0x100 DUP1 DUP4 SLOAD DIV MUL DUP4 MSTORE SWAP2 PUSH1 0x20 ADD SWAP2 PUSH2 0x318 JUMP JUMPDEST DUP3 ADD SWAP2 SWAP1 PUSH0 MSTORE PUSH1 0x20 PUSH0 KECCAK256 SWAP1 JUMPDEST DUP2 SLOAD DUP2 MSTORE SWAP1 PUSH1 0x1 ADD SWAP1 PUSH1 0x20 ADD DUP1 DUP4 GT PUSH2 0x2FB JUMPI DUP3 SWAP1 SUB PUSH1 0x1F AND DUP3 ADD SWAP2 JUMPDEST POP POP POP POP POP DUP2 JUMP JUMPDEST PUSH0 DUP1 PUSH1 0x6 SLOAD PUSH1 0x5 SLOAD PUSH2 0x332 SWAP2 SWAP1 PUSH2 0x6E7 JUMP JUMPDEST SWAP1 POP DUP1 SWAP2 POP POP SWAP1 JUMP JUMPDEST PUSH0 DUP1 PUSH1 0x1 SLOAD PUSH0 SLOAD PUSH2 0x34C SWAP2 SWAP1 PUSH2 0x728 JUMP JUMPDEST SWAP1 POP DUP1 SWAP2 POP POP SWAP1 JUMP JUMPDEST PUSH0 DUP1 PUSH1 0x7 SLOAD PUSH1 0x4 SLOAD PUSH2 0x367 SWAP2 SWAP1 PUSH2 0x758 JUMP JUMPDEST SWAP1 POP DUP1 SWAP2 POP POP SWAP1 JUMP JUMPDEST PUSH0 DUP1 PUSH1 0x1 SLOAD PUSH0 SLOAD PUSH2 0x381 SWAP2 SWAP1 PUSH2 0x788 JUMP JUMPDEST SWAP1 POP DUP1 SWAP2 POP POP SWAP1 JUMP JUMPDEST PUSH0 DUP2 SWAP1 POP SWAP2 SWAP1 POP JUMP JUMPDEST PUSH2 0x39C DUP2 PUSH2 0x38A JUMP JUMPDEST DUP3 MSTORE POP POP JUMP JUMPDEST PUSH0 PUSH1 0x20 DUP3 ADD SWAP1 POP PUSH2 0x3B5 PUSH0 DUP4 ADD DUP5 PUSH2 0x393 JUMP JUMPDEST SWAP3 SWAP2 POP POP JUMP JUMPDEST PUSH0 DUP2 SWAP1 POP SWAP2 SWAP1 POP JUMP JUMPDEST PUSH2 0x3CD DUP2 PUSH2 0x3BB JUMP JUMPDEST DUP3 MSTORE POP POP JUMP JUMPDEST PUSH0 PUSH1 0x20 DUP3 ADD SWAP1 POP PUSH2 0x3E6 PUSH0 DUP4 ADD DUP5 PUSH2 0x3C4 JUMP JUMPDEST SWAP3 SWAP2 POP POP JUMP JUMPDEST PUSH0 DUP2 MLOAD SWAP1 POP SWAP2 SWAP1 POP JUMP JUMPDEST PUSH0 DUP3 DUP3 MSTORE PUSH1 0x20 DUP3 ADD SWAP1 POP SWAP3 SWAP2 POP POP JUMP JUMPDEST DUP3 DUP2 DUP4 MCOPY PUSH0 DUP4 DUP4 ADD MSTORE POP POP POP JUMP JUMPDEST PUSH0 PUSH1 0x1F NOT PUSH1 0x1F DUP4 ADD AND SWAP1 POP SWAP2 SWAP1 POP JUMP JUMPDEST PUSH0 PUSH2 0x42E DUP3 PUSH2 0x3EC JUMP JUMPDEST PUSH2 0x438 DUP2 DUP6 PUSH2 0x3F6 JUMP JUMPDEST SWAP4 POP PUSH2 0x448 DUP2 DUP6 PUSH1 0x20 DUP7 ADD PUSH2 0x406 JUMP JUMPDEST PUSH2 0x451 DUP2 PUSH2 0x414 JUMP JUMPDEST DUP5 ADD SWAP2 POP POP SWAP3 SWAP2 POP POP JUMP JUMPDEST PUSH0 PUSH1 0x20 DUP3 ADD SWAP1 POP DUP2 DUP2 SUB PUSH0 DUP4 ADD MSTORE PUSH2 0x474 DUP2 DUP5 PUSH2 0x424 JUMP JUMPDEST SWAP1 POP SWAP3 SWAP2 POP POP JUMP JUMPDEST PUSH32 0x4E487B7100000000000000000000000000000000000000000000000000000000 PUSH0 MSTORE PUSH1 0x11 PUSH1 0x4 MSTORE PUSH1 0x24 PUSH0 REVERT JUMPDEST PUSH0 PUSH2 0x4B3 DUP3 PUSH2 0x38A JUMP JUMPDEST SWAP2 POP PUSH2 0x4BE DUP4 PUSH2 0x38A JUMP JUMPDEST SWAP3 POP DUP3 DUP3 MUL PUSH2 0x4CC DUP2 PUSH2 0x38A JUMP JUMPDEST SWAP2 POP PUSH32 0x8000000000000000000000000000000000000000000000000000000000000000 DUP5 EQ PUSH0 DUP5 SLT AND ISZERO PUSH2 0x503 JUMPI PUSH2 0x502 PUSH2 0x47C JUMP JUMPDEST JUMPDEST DUP3 DUP3 SDIV DUP5 EQ DUP4 ISZERO OR PUSH2 0x518 JUMPI PUSH2 0x517 PUSH2 0x47C JUMP JUMPDEST JUMPDEST POP SWAP3 SWAP2 POP POP JUMP JUMPDEST PUSH32 0x4E487B7100000000000000000000000000000000000000000000000000000000 PUSH0 MSTORE PUSH1 0x12 PUSH1 0x4 MSTORE PUSH1 0x24 PUSH0 REVERT JUMPDEST PUSH0 PUSH2 0x556 DUP3 PUSH2 0x3BB JUMP JUMPDEST SWAP2 POP PUSH2 0x561 DUP4 PUSH2 0x3BB JUMP JUMPDEST SWAP3 POP DUP3 PUSH2 0x571 JUMPI PUSH2 0x570 PUSH2 0x51F JUMP JUMPDEST JUMPDEST DUP3 DUP3 MOD SWAP1 POP SWAP3 SWAP2 POP POP JUMP JUMPDEST PUSH0 PUSH2 0x586 DUP3 PUSH2 0x38A JUMP JUMPDEST SWAP2 POP PUSH2 0x591 DUP4 PUSH2 0x38A JUMP JUMPDEST SWAP3 POP DUP3 PUSH2 0x5A1 JUMPI PUSH2 0x5A0 PUSH2 0x51F JUMP JUMPDEST JUMPDEST PUSH1 0x1 PUSH0 SUB DUP4 EQ PUSH32 0x8000000000000000000000000000000000000000000000000000000000000000 DUP4 EQ AND ISZERO PUSH2 0x5D9 JUMPI PUSH2 0x5D8 PUSH2 0x47C JUMP JUMPDEST JUMPDEST DUP3 DUP3 SDIV SWAP1 POP SWAP3 SWAP2 POP POP JUMP JUMPDEST PUSH0 PUSH2 0x5EE DUP3 PUSH2 0x38A JUMP JUMPDEST SWAP2 POP PUSH2 0x5F9 DUP4 PUSH2 0x38A JUMP JUMPDEST SWAP3 POP DUP3 DUP3 SUB SWAP1 POP DUP2 DUP2 SLT PUSH0 DUP5 SLT AND DUP3 DUP3 SGT PUSH0 DUP6 SLT ISZERO AND OR ISZERO PUSH2 0x61E JUMPI PUSH2 0x61D PUSH2 0x47C JUMP JUMPDEST JUMPDEST SWAP3 SWAP2 POP POP JUMP JUMPDEST PUSH0 PUSH2 0x62E DUP3 PUSH2 0x3BB JUMP JUMPDEST SWAP2 POP PUSH2 0x639 DUP4 PUSH2 0x3BB JUMP JUMPDEST SWAP3 POP DUP3 DUP3 ADD SWAP1 POP DUP1 DUP3 GT ISZERO PUSH2 0x651 JUMPI PUSH2 0x650 PUSH2 0x47C JUMP JUMPDEST JUMPDEST SWAP3 SWAP2 POP POP JUMP JUMPDEST PUSH0 PUSH2 0x661 DUP3 PUSH2 0x3BB JUMP JUMPDEST SWAP2 POP PUSH2 0x66C DUP4 PUSH2 0x3BB JUMP JUMPDEST SWAP3 POP DUP3 DUP3 SUB SWAP1 POP DUP2 DUP2 GT ISZERO PUSH2 0x684 JUMPI PUSH2 0x683 PUSH2 0x47C JUMP JUMPDEST JUMPDEST SWAP3 SWAP2 POP POP JUMP JUMPDEST PUSH32 0x4E487B7100000000000000000000000000000000000000000000000000000000 PUSH0 MSTORE PUSH1 0x22 PUSH1 0x4 MSTORE PUSH1 0x24 PUSH0 REVERT JUMPDEST PUSH0 PUSH1 0x2 DUP3 DIV SWAP1 POP PUSH1 0x1 DUP3 AND DUP1 PUSH2 0x6CE JUMPI PUSH1 0x7F DUP3 AND SWAP2 POP JUMPDEST PUSH1 0x20 DUP3 LT DUP2 SUB PUSH2 0x6E1 JUMPI PUSH2 0x6E0 PUSH2 0x68A JUMP JUMPDEST JUMPDEST POP SWAP2 SWAP1 POP JUMP JUMPDEST PUSH0 PUSH2 0x6F1 DUP3 PUSH2 0x3BB JUMP JUMPDEST SWAP2 POP PUSH2 0x6FC DUP4 PUSH2 0x3BB JUMP JUMPDEST SWAP3 POP DUP3 DUP3 MUL PUSH2 0x70A DUP2 PUSH2 0x3BB JUMP JUMPDEST SWAP2 POP DUP3 DUP3 DIV DUP5 EQ DUP4 ISZERO OR PUSH2 0x721 JUMPI PUSH2 0x720 PUSH2 0x47C JUMP JUMPDEST JUMPDEST POP SWAP3 SWAP2 POP POP JUMP JUMPDEST PUSH0 PUSH2 0x732 DUP3 PUSH2 0x38A JUMP JUMPDEST SWAP2 POP PUSH2 0x73D DUP4 PUSH2 0x38A JUMP JUMPDEST SWAP3 POP DUP3 PUSH2 0x74D JUMPI PUSH2 0x74C PUSH2 0x51F JUMP JUMPDEST JUMPDEST DUP3 DUP3 SMOD SWAP1 POP SWAP3 SWAP2 POP POP JUMP JUMPDEST PUSH0 PUSH2 0x762 DUP3 PUSH2 0x3BB JUMP JUMPDEST SWAP2 POP PUSH2 0x76D DUP4 PUSH2 0x3BB JUMP JUMPDEST SWAP3 POP DUP3 PUSH2 0x77D JUMPI PUSH2 0x77C PUSH2 0x51F JUMP JUMPDEST JUMPDEST DUP3 DUP3 DIV SWAP1 POP SWAP3 SWAP2 POP POP JUMP JUMPDEST PUSH0 PUSH2 0x792 DUP3 PUSH2 0x38A JUMP JUMPDEST SWAP2 POP PUSH2 0x79D DUP4 PUSH2 0x38A JUMP JUMPDEST SWAP3 POP DUP3 DUP3 ADD SWAP1 POP DUP3 DUP2 SLT ISZERO PUSH0 DUP4 SLT AND DUP4 DUP3 SLT PUSH0 DUP5 SLT ISZERO AND OR ISZERO PUSH2 0x7C3 JUMPI PUSH2 0x7C2 PUSH2 0x47C JUMP JUMPDEST JUMPDEST SWAP3 SWAP2 POP POP JUMP INVALID LOG2 PUSH5 0x6970667358 0x22 SLT KECCAK256 0xBE JUMPI PUSH18 0xA85A287AB11B90D976F4571B645AFD07EAC7 0xC4 STOP CREATE2 MULMOD 0xB3 GT NOT 0xA6 CALLVALUE PUSH14 0x8D64736F6C634300081A00330000 "
		},
		"gasEstimates": {
			"creation": {
				"codeDepositCost": "409400",
				"executionCost": "infinite",
				"totalCost": "infinite"
			},
			"external": {
				"addition()": "infinite",
				"addition1()": "infinite",
				"division()": "infinite",
				"division1()": "infinite",
				"multiplication()": "infinite",
				"multiplication1()": "infinite",
				"percentage()": "infinite",
				"percentage1()": "infinite",
				"string1()": "infinite",
				"subcration()": "infinite",
				"subcration1()": "infinite"
			}
		},
		"methodIdentifiers": {
			"addition()": "ec597128",
			"addition1()": "4d3e46e4",
			"division()": "3205f5fc",
			"division1()": "d1e42eb2",
			"multiplication()": "011285da",
			"multiplication1()": "aa2d7203",
			"percentage()": "c78ad77f",
			"percentage1()": "2ae93f50",
			"string1()": "a7b2cfca",
			"subcration()": "34a50ba0",
			"subcration1()": "9c728aa5"
		}
	},
	"abi": [
		{
			"inputs": [],
			"name": "addition",
			"outputs": [
				{
					"internalType": "int256",
					"name": "",
					"type": "int256"
				}
			],
			"stateMutability": "view",
			"type": "function"
		},
		{
			"inputs": [],
			"name": "addition1",
			"outputs": [
				{
					"internalType": "uint256",
					"name": "",
					"type": "uint256"
				}
			],
			"stateMutability": "view",
			"type": "function"
		},
		{
			"inputs": [],
			"name": "division",
			"outputs": [
				{
					"internalType": "int256",
					"name": "",
					"type": "int256"
				}
			],
			"stateMutability": "view",
			"type": "function"
		},
		{
			"inputs": [],
			"name": "division1",
			"outputs": [
				{
					"internalType": "uint256",
					"name": "",
					"type": "uint256"
				}
			],
			"stateMutability": "view",
			"type": "function"
		},
		{
			"inputs": [],
			"name": "multiplication",
			"outputs": [
				{
					"internalType": "int256",
					"name": "",
					"type": "int256"
				}
			],
			"stateMutability": "view",
			"type": "function"
		},
		{
			"inputs": [],
			"name": "multiplication1",
			"outputs": [
				{
					"internalType": "uint256",
					"name": "",
					"type": "uint256"
				}
			],
			"stateMutability": "view",
			"type": "function"
		},
		{
			"inputs": [],
			"name": "percentage",
			"outputs": [
				{
					"internalType": "int256",
					"name": "",
					"type": "int256"
				}
			],
			"stateMutability": "view",
			"type": "function"
		},
		{
			"inputs": [],
			"name": "percentage1",
			"outputs": [
				{
					"internalType": "uint256",
					"name": "",
					"type": "uint256"
				}
			],
			"stateMutability": "view",
			"type": "function"
		},
		{
			"inputs": [],
			"name": "string1",
			"outputs": [
				{
					"internalType": "string",
					"name": "",
					"type": "string"
				}
			],
			"stateMutability": "view",
			"type": "function"
		},
		{
			"inputs": [],
			"name": "subcration",
			"outputs": [
				{
					"internalType": "int256",
					"name": "",
					"type": "int256"
				}
			],
			"stateMutability": "view",
			"type": "function"
		},
		{
			"inputs": [],
			"name": "subcration1",
			"outputs": [
				{
					"internalType": "uint256",
					"name": "",
					"type": "uint256"
				}
			],
			"stateMutability": "view",
			"type": "function"
		}
	]
}